{
	"data": {
		"bytecode": {
			"linkReferences": {},
			"object": "608060405234801561001057600080fd5b506101e8806100206000396000f3fe608060405234801561001057600080fd5b506004361061002b5760003560e01c80639baa475914610030575b600080fd5b61004a600480360381019061004591906100af565b610060565b6040516100579190610111565b60405180910390f35b6000633b9aca0084610072919061012c565b935060008385610082919061012c565b90508083610090919061012c565b9150509392505050565b6000813590506100a98161019b565b92915050565b6000806000606084860312156100c8576100c7610196565b5b60006100d68682870161009a565b93505060206100e78682870161009a565b92505060406100f88682870161009a565b9150509250925092565b61010b8161015d565b82525050565b60006020820190506101266000830184610102565b92915050565b60006101378261015d565b91506101428361015d565b92508261015257610151610167565b5b828204905092915050565b6000819050919050565b7f4e487b7100000000000000000000000000000000000000000000000000000000600052601260045260246000fd5b600080fd5b6101a48161015d565b81146101af57600080fd5b5056fea2646970667358221220b2cf284f0a22e0bbbe7dbd145260cc70c7f0afda9bdccf9cf985f4373dd982dd64736f6c63430008060033",
			"opcodes": "PUSH1 0x80 PUSH1 0x40 MSTORE CALLVALUE DUP1 ISZERO PUSH2 0x10 JUMPI PUSH1 0x0 DUP1 REVERT JUMPDEST POP PUSH2 0x1E8 DUP1 PUSH2 0x20 PUSH1 0x0 CODECOPY PUSH1 0x0 RETURN INVALID PUSH1 0x80 PUSH1 0x40 MSTORE CALLVALUE DUP1 ISZERO PUSH2 0x10 JUMPI PUSH1 0x0 DUP1 REVERT JUMPDEST POP PUSH1 0x4 CALLDATASIZE LT PUSH2 0x2B JUMPI PUSH1 0x0 CALLDATALOAD PUSH1 0xE0 SHR DUP1 PUSH4 0x9BAA4759 EQ PUSH2 0x30 JUMPI JUMPDEST PUSH1 0x0 DUP1 REVERT JUMPDEST PUSH2 0x4A PUSH1 0x4 DUP1 CALLDATASIZE SUB DUP2 ADD SWAP1 PUSH2 0x45 SWAP2 SWAP1 PUSH2 0xAF JUMP JUMPDEST PUSH2 0x60 JUMP JUMPDEST PUSH1 0x40 MLOAD PUSH2 0x57 SWAP2 SWAP1 PUSH2 0x111 JUMP JUMPDEST PUSH1 0x40 MLOAD DUP1 SWAP2 SUB SWAP1 RETURN JUMPDEST PUSH1 0x0 PUSH4 0x3B9ACA00 DUP5 PUSH2 0x72 SWAP2 SWAP1 PUSH2 0x12C JUMP JUMPDEST SWAP4 POP PUSH1 0x0 DUP4 DUP6 PUSH2 0x82 SWAP2 SWAP1 PUSH2 0x12C JUMP JUMPDEST SWAP1 POP DUP1 DUP4 PUSH2 0x90 SWAP2 SWAP1 PUSH2 0x12C JUMP JUMPDEST SWAP2 POP POP SWAP4 SWAP3 POP POP POP JUMP JUMPDEST PUSH1 0x0 DUP2 CALLDATALOAD SWAP1 POP PUSH2 0xA9 DUP2 PUSH2 0x19B JUMP JUMPDEST SWAP3 SWAP2 POP POP JUMP JUMPDEST PUSH1 0x0 DUP1 PUSH1 0x0 PUSH1 0x60 DUP5 DUP7 SUB SLT ISZERO PUSH2 0xC8 JUMPI PUSH2 0xC7 PUSH2 0x196 JUMP JUMPDEST JUMPDEST PUSH1 0x0 PUSH2 0xD6 DUP7 DUP3 DUP8 ADD PUSH2 0x9A JUMP JUMPDEST SWAP4 POP POP PUSH1 0x20 PUSH2 0xE7 DUP7 DUP3 DUP8 ADD PUSH2 0x9A JUMP JUMPDEST SWAP3 POP POP PUSH1 0x40 PUSH2 0xF8 DUP7 DUP3 DUP8 ADD PUSH2 0x9A JUMP JUMPDEST SWAP2 POP POP SWAP3 POP SWAP3 POP SWAP3 JUMP JUMPDEST PUSH2 0x10B DUP2 PUSH2 0x15D JUMP JUMPDEST DUP3 MSTORE POP POP JUMP JUMPDEST PUSH1 0x0 PUSH1 0x20 DUP3 ADD SWAP1 POP PUSH2 0x126 PUSH1 0x0 DUP4 ADD DUP5 PUSH2 0x102 JUMP JUMPDEST SWAP3 SWAP2 POP POP JUMP JUMPDEST PUSH1 0x0 PUSH2 0x137 DUP3 PUSH2 0x15D JUMP JUMPDEST SWAP2 POP PUSH2 0x142 DUP4 PUSH2 0x15D JUMP JUMPDEST SWAP3 POP DUP3 PUSH2 0x152 JUMPI PUSH2 0x151 PUSH2 0x167 JUMP JUMPDEST JUMPDEST DUP3 DUP3 DIV SWAP1 POP SWAP3 SWAP2 POP POP JUMP JUMPDEST PUSH1 0x0 DUP2 SWAP1 POP SWAP2 SWAP1 POP JUMP JUMPDEST PUSH32 0x4E487B7100000000000000000000000000000000000000000000000000000000 PUSH1 0x0 MSTORE PUSH1 0x12 PUSH1 0x4 MSTORE PUSH1 0x24 PUSH1 0x0 REVERT JUMPDEST PUSH1 0x0 DUP1 REVERT JUMPDEST PUSH2 0x1A4 DUP2 PUSH2 0x15D JUMP JUMPDEST DUP2 EQ PUSH2 0x1AF JUMPI PUSH1 0x0 DUP1 REVERT JUMPDEST POP JUMP INVALID LOG2 PUSH5 0x6970667358 0x22 SLT KECCAK256 0xB2 0xCF 0x28 0x4F EXP 0x22 0xE0 0xBB 0xBE PUSH30 0xBD145260CC70C7F0AFDA9BDCCF9CF985F4373DD982DD64736F6C63430008 MOD STOP CALLER "
		},
		"gasEstimates": {
			"creation": {
				"codeDepositCost": "97600",
				"executionCost": "147",
				"totalCost": "97747"
			},
			"external": {
				"portion(uint256,uint256,uint256)": "infinite"
			}
		},
		"methodIdentifiers": {
			"portion(uint256,uint256,uint256)": "9baa4759"
		}
	},
	"abi": [
		{
			"inputs": [
				{
					"internalType": "uint256",
					"name": "total",
					"type": "uint256"
				},
				{
					"internalType": "uint256",
					"name": "balance",
					"type": "uint256"
				},
				{
					"internalType": "uint256",
					"name": "reward",
					"type": "uint256"
				}
			],
			"name": "portion",
			"outputs": [
				{
					"internalType": "uint256",
					"name": "",
					"type": "uint256"
				}
			],
			"stateMutability": "pure",
			"type": "function"
		}
	]
}