{
  "contractName": "Airdrop",
  "abi": [
    {
      "inputs": [
        {
          "internalType": "address",
          "name": "_admin",
          "type": "address"
        },
        {
          "internalType": "uint256",
          "name": "_openAfter",
          "type": "uint256"
        }
      ],
      "stateMutability": "nonpayable",
      "type": "constructor"
    },
    {
      "anonymous": false,
      "inputs": [
        {
          "indexed": false,
          "internalType": "address",
          "name": "recipient",
          "type": "address"
        },
        {
          "indexed": false,
          "internalType": "uint256",
          "name": "amount",
          "type": "uint256"
        },
        {
          "indexed": false,
          "internalType": "uint256",
          "name": "date",
          "type": "uint256"
        }
      ],
      "name": "AirdropProcessed",
      "type": "event"
    },
    {
      "inputs": [],
      "name": "START_DATE",
      "outputs": [
        {
          "internalType": "uint256",
          "name": "",
          "type": "uint256"
        }
      ],
      "stateMutability": "view",
      "type": "function",
      "constant": true
    },
    {
      "inputs": [],
      "name": "admin",
      "outputs": [
        {
          "internalType": "address",
          "name": "",
          "type": "address"
        }
      ],
      "stateMutability": "view",
      "type": "function",
      "constant": true
    },
    {
      "inputs": [],
      "name": "currentAirdropAmount",
      "outputs": [
        {
          "internalType": "uint256",
          "name": "",
          "type": "uint256"
        }
      ],
      "stateMutability": "view",
      "type": "function",
      "constant": true
    },
    {
      "inputs": [],
      "name": "maxAirdropAmount",
      "outputs": [
        {
          "internalType": "uint256",
          "name": "",
          "type": "uint256"
        }
      ],
      "stateMutability": "view",
      "type": "function",
      "constant": true
    },
    {
      "inputs": [
        {
          "internalType": "address",
          "name": "",
          "type": "address"
        }
      ],
      "name": "processedAirdrops",
      "outputs": [
        {
          "internalType": "bool",
          "name": "",
          "type": "bool"
        }
      ],
      "stateMutability": "view",
      "type": "function",
      "constant": true
    },
    {
      "inputs": [],
      "name": "token",
      "outputs": [
        {
          "internalType": "contract IERC20",
          "name": "",
          "type": "address"
        }
      ],
      "stateMutability": "view",
      "type": "function",
      "constant": true
    },
    {
      "inputs": [
        {
          "internalType": "address",
          "name": "newAdmin",
          "type": "address"
        }
      ],
      "name": "updateAdmin",
      "outputs": [],
      "stateMutability": "nonpayable",
      "type": "function"
    },
    {
      "inputs": [
        {
          "internalType": "address",
          "name": "_token",
          "type": "address"
        },
        {
          "internalType": "uint256",
          "name": "_maxAmount",
          "type": "uint256"
        }
      ],
      "name": "setToken",
      "outputs": [],
      "stateMutability": "nonpayable",
      "type": "function"
    },
    {
      "inputs": [
        {
          "internalType": "uint256",
          "name": "amount",
          "type": "uint256"
        },
        {
          "internalType": "bytes",
          "name": "signature",
          "type": "bytes"
        }
      ],
      "name": "claimTokens",
      "outputs": [],
      "stateMutability": "nonpayable",
      "type": "function"
    }
  ],
  "bytecode": "0x60a0604052600060035560006004553480156200001b57600080fd5b5060405162001862380380620018628339818101604052810190620000419190620000cc565b816000806101000a81548173ffffffffffffffffffffffffffffffffffffffff021916908373ffffffffffffffffffffffffffffffffffffffff16021790555080426200008f919062000113565b60808181525050505062000216565b600081519050620000af81620001e2565b92915050565b600081519050620000c681620001fc565b92915050565b60008060408385031215620000e657620000e5620001dd565b5b6000620000f6858286016200009e565b92505060206200010985828601620000b5565b9150509250929050565b60006200012082620001a4565b91506200012d83620001a4565b9250827fffffffffffffffffffffffffffffffffffffffffffffffffffffffffffffffff03821115620001655762000164620001ae565b5b828201905092915050565b60006200017d8262000184565b9050919050565b600073ffffffffffffffffffffffffffffffffffffffff82169050919050565b6000819050919050565b7f4e487b7100000000000000000000000000000000000000000000000000000000600052601160045260246000fd5b600080fd5b620001ed8162000170565b8114620001f957600080fd5b50565b6200020781620001a4565b81146200021357600080fd5b50565b60805161162962000239600039600081816101b4015261024e01526116296000f3fe608060405234801561001057600080fd5b50600436106100935760003560e01c80637424bab1116100665780637424bab11461012057806378bf2b531461013e578063e2f273bd1461015a578063f851a44014610176578063fc0c546a1461019457610093565b806314d8bbf11461009857806323efeb12146100b457806332ffa783146100d2578063372c653314610102575b600080fd5b6100b260048036038101906100ad9190610c93565b6101b2565b005b6100bc610226565b6040516100c991906111b8565b60405180910390f35b6100ec60048036038101906100e79190610bf9565b61022c565b6040516100f9919061101b565b60405180910390f35b61010a61024c565b60405161011791906111b8565b60405180910390f35b610128610270565b60405161013591906111b8565b60405180910390f35b61015860048036038101906101539190610c26565b610276565b005b610174600480360381019061016f9190610bf9565b610350565b005b61017e610421565b60405161018b9190610fa0565b60405180910390f35b61019c610445565b6040516101a9919061107b565b60405180910390f35b7f0000000000000000000000000000000000000000000000000000000000000000421015610215576040517f08c379a000000000000000000000000000000000000000000000000000000000815260040161020c906110d8565b60405180910390fd5b6102213384848461046b565b505050565b60045481565b60016020528060005260406000206000915054906101000a900460ff1681565b7f000000000000000000000000000000000000000000000000000000000000000081565b60035481565b60008054906101000a900473ffffffffffffffffffffffffffffffffffffffff1673ffffffffffffffffffffffffffffffffffffffff163373ffffffffffffffffffffffffffffffffffffffff1614610304576040517f08c379a00000000000000000000000000000000000000000000000000000000081526004016102fb90611178565b60405180910390fd5b81600260006101000a81548173ffffffffffffffffffffffffffffffffffffffff021916908373ffffffffffffffffffffffffffffffffffffffff160217905550806004819055505050565b60008054906101000a900473ffffffffffffffffffffffffffffffffffffffff1673ffffffffffffffffffffffffffffffffffffffff163373ffffffffffffffffffffffffffffffffffffffff16146103de576040517f08c379a00000000000000000000000000000000000000000000000000000000081526004016103d590611178565b60405180910390fd5b806000806101000a81548173ffffffffffffffffffffffffffffffffffffffff021916908373ffffffffffffffffffffffffffffffffffffffff16021790555050565b60008054906101000a900473ffffffffffffffffffffffffffffffffffffffff1681565b600260009054906101000a900473ffffffffffffffffffffffffffffffffffffffff1681565b600061049e8585604051602001610483929190610f37565b6040516020818303038152906040528051906020012061075f565b905060008054906101000a900473ffffffffffffffffffffffffffffffffffffffff1673ffffffffffffffffffffffffffffffffffffffff166105258285858080601f016020809104026020016040519081016040528093929190818152602001838380828437600081840152601f19601f8201169050808301925050505050505061078f565b73ffffffffffffffffffffffffffffffffffffffff161461057b576040517f08c379a000000000000000000000000000000000000000000000000000000000815260040161057290611198565b60405180910390fd5b60001515600160008773ffffffffffffffffffffffffffffffffffffffff1673ffffffffffffffffffffffffffffffffffffffff16815260200190815260200160002060009054906101000a900460ff1615151461060e576040517f08c379a0000000000000000000000000000000000000000000000000000000008152600401610605906110f8565b60405180910390fd5b6004548460035461061f9190611210565b1115610660576040517f08c379a000000000000000000000000000000000000000000000000000000000815260040161065790611118565b60405180910390fd5b60018060008773ffffffffffffffffffffffffffffffffffffffff1673ffffffffffffffffffffffffffffffffffffffff16815260200190815260200160002060006101000a81548160ff02191690831515021790555083600360008282546106c99190611210565b9250508190555061071d8585600260009054906101000a900473ffffffffffffffffffffffffffffffffffffffff1673ffffffffffffffffffffffffffffffffffffffff166108049092919063ffffffff16565b7fc0312d3bf25e86c787fa77f4d038213e428dc722e16d38ca9719e987d20f7c7c85854260405161075093929190610fe4565b60405180910390a15050505050565b6000816040516020016107729190610f7a565b604051602081830303815290604052805190602001209050919050565b60008060008061079e8561088a565b809350819450829550505050600186848484604051600081526020016040526040516107cd9493929190611036565b6020604051602081039080840390855afa1580156107ef573d6000803e3d6000fd5b50505060206040510351935050505092915050565b6108858363a9059cbb60e01b8484604051602401610823929190610fbb565b604051602081830303815290604052907bffffffffffffffffffffffffffffffffffffffffffffffffffffffff19166020820180517bffffffffffffffffffffffffffffffffffffffffffffffffffffffff83818316178352505050506108f7565b505050565b6000806000604184511461089d57600080fd5b60008060006020870151925060408701519150606087015160001a905060008160ff1614806108cf575060018160ff16145b156108e457601b816108e19190611266565b90505b8083839550955095505050509193909250565b6000610959826040518060400160405280602081526020017f5361666545524332303a206c6f772d6c6576656c2063616c6c206661696c65648152508573ffffffffffffffffffffffffffffffffffffffff166109be9092919063ffffffff16565b90506000815111156109b957808060200190518101906109799190610c66565b6109b8576040517f08c379a00000000000000000000000000000000000000000000000000000000081526004016109af90611158565b60405180910390fd5b5b505050565b60606109cd84846000856109d6565b90509392505050565b606082471015610a1b576040517f08c379a0000000000000000000000000000000000000000000000000000000008152600401610a12906110b8565b60405180910390fd5b610a2485610aea565b610a63576040517f08c379a0000000000000000000000000000000000000000000000000000000008152600401610a5a90611138565b60405180910390fd5b6000808673ffffffffffffffffffffffffffffffffffffffff168587604051610a8c9190610f63565b60006040518083038185875af1925050503d8060008114610ac9576040519150601f19603f3d011682016040523d82523d6000602084013e610ace565b606091505b5091509150610ade828286610afd565b92505050949350505050565b600080823b905060008111915050919050565b60608315610b0d57829050610b5d565b600083511115610b205782518084602001fd5b816040517f08c379a0000000000000000000000000000000000000000000000000000000008152600401610b549190611096565b60405180910390fd5b9392505050565b600081359050610b73816115ae565b92915050565b600081519050610b88816115c5565b92915050565b60008083601f840112610ba457610ba36113bf565b5b8235905067ffffffffffffffff811115610bc157610bc06113ba565b5b602083019150836001820283011115610bdd57610bdc6113c4565b5b9250929050565b600081359050610bf3816115dc565b92915050565b600060208284031215610c0f57610c0e6113ce565b5b6000610c1d84828501610b64565b91505092915050565b60008060408385031215610c3d57610c3c6113ce565b5b6000610c4b85828601610b64565b9250506020610c5c85828601610be4565b9150509250929050565b600060208284031215610c7c57610c7b6113ce565b5b6000610c8a84828501610b79565b91505092915050565b600080600060408486031215610cac57610cab6113ce565b5b6000610cba86828701610be4565b935050602084013567ffffffffffffffff811115610cdb57610cda6113c9565b5b610ce786828701610b8e565b92509250509250925092565b610cfc8161129d565b82525050565b610d13610d0e8261129d565b611353565b82525050565b610d22816112af565b82525050565b610d31816112bb565b82525050565b610d48610d43826112bb565b611365565b82525050565b6000610d59826111d3565b610d6381856111e9565b9350610d73818560208601611320565b80840191505092915050565b610d88816112fc565b82525050565b6000610d99826111de565b610da381856111f4565b9350610db3818560208601611320565b610dbc816113d3565b840191505092915050565b6000610dd4601c83611205565b9150610ddf826113f1565b601c82019050919050565b6000610df76026836111f4565b9150610e028261141a565b604082019050919050565b6000610e1a6014836111f4565b9150610e2582611469565b602082019050919050565b6000610e3d6019836111f4565b9150610e4882611492565b602082019050919050565b6000610e60601d836111f4565b9150610e6b826114bb565b602082019050919050565b6000610e83601d836111f4565b9150610e8e826114e4565b602082019050919050565b6000610ea6602a836111f4565b9150610eb18261150d565b604082019050919050565b6000610ec96013836111f4565b9150610ed48261155c565b602082019050919050565b6000610eec600f836111f4565b9150610ef782611585565b602082019050919050565b610f0b816112e5565b82525050565b610f22610f1d826112e5565b611381565b82525050565b610f31816112ef565b82525050565b6000610f438285610d02565b601482019150610f538284610f11565b6020820191508190509392505050565b6000610f6f8284610d4e565b915081905092915050565b6000610f8582610dc7565b9150610f918284610d37565b60208201915081905092915050565b6000602082019050610fb56000830184610cf3565b92915050565b6000604082019050610fd06000830185610cf3565b610fdd6020830184610f02565b9392505050565b6000606082019050610ff96000830186610cf3565b6110066020830185610f02565b6110136040830184610f02565b949350505050565b60006020820190506110306000830184610d19565b92915050565b600060808201905061104b6000830187610d28565b6110586020830186610f28565b6110656040830185610d28565b6110726060830184610d28565b95945050505050565b60006020820190506110906000830184610d7f565b92915050565b600060208201905081810360008301526110b08184610d8e565b905092915050565b600060208201905081810360008301526110d181610dea565b9050919050565b600060208201905081810360008301526110f181610e0d565b9050919050565b6000602082019050818103600083015261111181610e30565b9050919050565b6000602082019050818103600083015261113181610e53565b9050919050565b6000602082019050818103600083015261115181610e76565b9050919050565b6000602082019050818103600083015261117181610e99565b9050919050565b6000602082019050818103600083015261119181610ebc565b9050919050565b600060208201905081810360008301526111b181610edf565b9050919050565b60006020820190506111cd6000830184610f02565b92915050565b600081519050919050565b600081519050919050565b600081905092915050565b600082825260208201905092915050565b600081905092915050565b600061121b826112e5565b9150611226836112e5565b9250827fffffffffffffffffffffffffffffffffffffffffffffffffffffffffffffffff0382111561125b5761125a61138b565b5b828201905092915050565b6000611271826112ef565b915061127c836112ef565b92508260ff038211156112925761129161138b565b5b828201905092915050565b60006112a8826112c5565b9050919050565b60008115159050919050565b6000819050919050565b600073ffffffffffffffffffffffffffffffffffffffff82169050919050565b6000819050919050565b600060ff82169050919050565b60006113078261130e565b9050919050565b6000611319826112c5565b9050919050565b60005b8381101561133e578082015181840152602081019050611323565b8381111561134d576000848401525b50505050565b600061135e8261136f565b9050919050565b6000819050919050565b600061137a826113e4565b9050919050565b6000819050919050565b7f4e487b7100000000000000000000000000000000000000000000000000000000600052601160045260246000fd5b600080fd5b600080fd5b600080fd5b600080fd5b600080fd5b6000601f19601f8301169050919050565b60008160601b9050919050565b7f19457468657265756d205369676e6564204d6573736167653a0a333200000000600082015250565b7f416464726573733a20696e73756666696369656e742062616c616e636520666f60008201527f722063616c6c0000000000000000000000000000000000000000000000000000602082015250565b7f41697264726f703a206e6f742073746172746564000000000000000000000000600082015250565b7f61697264726f7020616c72656164792070726f63657373656400000000000000600082015250565b7f61697264726f707065642031303025206f662074686520746f6b656e73000000600082015250565b7f416464726573733a2063616c6c20746f206e6f6e2d636f6e7472616374000000600082015250565b7f5361666545524332303a204552433230206f7065726174696f6e20646964206e60008201527f6f74207375636365656400000000000000000000000000000000000000000000602082015250565b7f41697264726f703a206f6e6c792061646d696e00000000000000000000000000600082015250565b7f77726f6e67207369676e61747572650000000000000000000000000000000000600082015250565b6115b78161129d565b81146115c257600080fd5b50565b6115ce816112af565b81146115d957600080fd5b50565b6115e5816112e5565b81146115f057600080fd5b5056fea26469706673582212200a651d8fb7170f3dab176e2ffc11b59c6c962a02a5cdb1bdc8434c8346ab797b64736f6c63430008060033",
  "immutableReferences": {
    "23": [
      {
        "length": 32,
        "start": 436
      },
      {
        "length": 32,
        "start": 590
      }
    ]
  },
  "source": "// SPDX-License-Identifier: MIT\npragma solidity >=0.8.6 <0.9.0;\n\nimport \"@openzeppelin/contracts/token/ERC20/utils/SafeERC20.sol\";\n\ncontract Airdrop {\n    using SafeERC20 for IERC20;\n\n    address public admin;\n    mapping(address => bool) public processedAirdrops;\n    IERC20 public token;\n    uint256 public currentAirdropAmount = 0;\n    uint256 public maxAirdropAmount = 0;\n    uint256 public immutable START_DATE;\n\n    event AirdropProcessed(address recipient, uint256 amount, uint256 date);\n\n    constructor(address _admin, uint256 _openAfter) {\n        admin = _admin;\n        START_DATE = block.timestamp + _openAfter;\n    }\n\n    modifier onlyAdmin() {\n        require(msg.sender == admin, \"Airdrop: only admin\");\n        _;\n    }\n\n    modifier whenOpen() {\n        require(block.timestamp >= START_DATE, \"Airdrop: not started\");\n        _;\n    }\n\n    function updateAdmin(address newAdmin) public onlyAdmin {\n        admin = newAdmin;\n    }\n\n    function setToken(address _token, uint256 _maxAmount) public onlyAdmin {\n        token = IERC20(_token);\n        maxAirdropAmount = _maxAmount;\n    }\n\n    function _claimTokens(\n        address recipient,\n        uint256 amount,\n        bytes calldata signature\n    ) internal {\n        bytes32 message = prefixed(\n            keccak256(abi.encodePacked(recipient, amount))\n        );\n        require(recoverSigner(message, signature) == admin, \"wrong signature\");\n        require(\n            processedAirdrops[recipient] == false,\n            \"airdrop already processed\"\n        );\n        require(\n            currentAirdropAmount + amount <= maxAirdropAmount,\n            \"airdropped 100% of the tokens\"\n        );\n        processedAirdrops[recipient] = true;\n        currentAirdropAmount += amount;\n        token.safeTransfer(recipient, amount);\n        emit AirdropProcessed(recipient, amount, block.timestamp);\n    }\n\n    function claimTokens(uint256 amount, bytes calldata signature)\n        public\n        whenOpen\n    {\n        _claimTokens(msg.sender, amount, signature);\n    }\n\n    function prefixed(bytes32 hash) internal pure returns (bytes32) {\n        return\n            keccak256(\n                abi.encodePacked(\"\\x19Ethereum Signed Message:\\n32\", hash)\n            );\n    }\n\n    function recoverSigner(bytes32 message, bytes memory sig)\n        internal\n        pure\n        returns (address)\n    {\n        uint8 v;\n        bytes32 r;\n        bytes32 s;\n\n        (v, r, s) = splitSignature(sig);\n\n        return ecrecover(message, v, r, s);\n    }\n\n    function splitSignature(bytes memory sig)\n        internal\n        pure\n        returns (\n            uint8,\n            bytes32,\n            bytes32\n        )\n    {\n        require(sig.length == 65);\n\n        bytes32 r;\n        bytes32 s;\n        uint8 v;\n\n        assembly {\n            // first 32 bytes, after the length prefix\n            r := mload(add(sig, 32))\n            // second 32 bytes\n            s := mload(add(sig, 64))\n            // final byte (first byte of the next 32 bytes)\n            v := byte(0, mload(add(sig, 96)))\n        }\n        // Golang compatibility\n        if (v == 0 || v == 1) {\n            v += 27;\n        }\n        return (v, r, s);\n    }\n}\n",
  "sourcePath": "/Users/skynet/Dev/work/HungryPanda/hungrypanda/contracts/Airdrop.sol",
  "compiler": {
    "name": "solc",
    "version": "0.8.6+commit.11564f7e.Emscripten.clang"
  },
  "schemaVersion": "3.4.1",
  "updatedAt": "2021-07-01T18:13:10.713Z",
  "networkType": "ethereum",
  "devdoc": {
    "kind": "dev",
    "methods": {},
    "version": 1
  },
  "userdoc": {
    "kind": "user",
    "methods": {},
    "version": 1
  }
}