{
  "contractName": "HungryPandaOld",
  "abi": [
    {
      "inputs": [
        {
          "internalType": "address",
          "name": "_router",
          "type": "address"
        },
        {
          "internalType": "address",
          "name": "_wallet",
          "type": "address"
        }
      ],
      "stateMutability": "nonpayable",
      "type": "constructor"
    },
    {
      "anonymous": false,
      "inputs": [
        {
          "indexed": true,
          "internalType": "address",
          "name": "owner",
          "type": "address"
        },
        {
          "indexed": true,
          "internalType": "address",
          "name": "spender",
          "type": "address"
        },
        {
          "indexed": false,
          "internalType": "uint256",
          "name": "value",
          "type": "uint256"
        }
      ],
      "name": "Approval",
      "type": "event"
    },
    {
      "anonymous": false,
      "inputs": [
        {
          "indexed": false,
          "internalType": "uint256",
          "name": "minTokensBeforeSwap",
          "type": "uint256"
        }
      ],
      "name": "MinTokensBeforeSwapUpdated",
      "type": "event"
    },
    {
      "anonymous": false,
      "inputs": [
        {
          "indexed": true,
          "internalType": "address",
          "name": "previousOwner",
          "type": "address"
        },
        {
          "indexed": true,
          "internalType": "address",
          "name": "newOwner",
          "type": "address"
        }
      ],
      "name": "OwnershipTransferred",
      "type": "event"
    },
    {
      "anonymous": false,
      "inputs": [
        {
          "indexed": false,
          "internalType": "address",
          "name": "account",
          "type": "address"
        }
      ],
      "name": "Paused",
      "type": "event"
    },
    {
      "anonymous": false,
      "inputs": [
        {
          "indexed": false,
          "internalType": "uint256",
          "name": "tokensSwapped",
          "type": "uint256"
        },
        {
          "indexed": false,
          "internalType": "uint256",
          "name": "ethReceived",
          "type": "uint256"
        },
        {
          "indexed": false,
          "internalType": "uint256",
          "name": "tokensIntoLiqudity",
          "type": "uint256"
        }
      ],
      "name": "SwapAndLiquify",
      "type": "event"
    },
    {
      "anonymous": false,
      "inputs": [
        {
          "indexed": false,
          "internalType": "bool",
          "name": "enabled",
          "type": "bool"
        }
      ],
      "name": "SwapAndLiquifyEnabledUpdated",
      "type": "event"
    },
    {
      "anonymous": false,
      "inputs": [
        {
          "indexed": true,
          "internalType": "address",
          "name": "from",
          "type": "address"
        },
        {
          "indexed": true,
          "internalType": "address",
          "name": "to",
          "type": "address"
        },
        {
          "indexed": false,
          "internalType": "uint256",
          "name": "value",
          "type": "uint256"
        }
      ],
      "name": "Transfer",
      "type": "event"
    },
    {
      "anonymous": false,
      "inputs": [
        {
          "indexed": false,
          "internalType": "address",
          "name": "account",
          "type": "address"
        }
      ],
      "name": "Unpaused",
      "type": "event"
    },
    {
      "inputs": [],
      "name": "_WETH",
      "outputs": [
        {
          "internalType": "address",
          "name": "",
          "type": "address"
        }
      ],
      "stateMutability": "view",
      "type": "function"
    },
    {
      "inputs": [],
      "name": "bornAtTime",
      "outputs": [
        {
          "internalType": "uint256",
          "name": "",
          "type": "uint256"
        }
      ],
      "stateMutability": "view",
      "type": "function"
    },
    {
      "inputs": [],
      "name": "burnFee",
      "outputs": [
        {
          "internalType": "uint256",
          "name": "",
          "type": "uint256"
        }
      ],
      "stateMutability": "view",
      "type": "function"
    },
    {
      "inputs": [],
      "name": "burnFeeOrigin",
      "outputs": [
        {
          "internalType": "uint256",
          "name": "",
          "type": "uint256"
        }
      ],
      "stateMutability": "view",
      "type": "function"
    },
    {
      "inputs": [],
      "name": "feeGranularity",
      "outputs": [
        {
          "internalType": "uint256",
          "name": "",
          "type": "uint256"
        }
      ],
      "stateMutability": "view",
      "type": "function"
    },
    {
      "inputs": [
        {
          "internalType": "uint256",
          "name": "",
          "type": "uint256"
        }
      ],
      "name": "holdersRewarded",
      "outputs": [
        {
          "internalType": "address",
          "name": "",
          "type": "address"
        }
      ],
      "stateMutability": "view",
      "type": "function"
    },
    {
      "inputs": [],
      "name": "liquidityFee",
      "outputs": [
        {
          "internalType": "uint256",
          "name": "",
          "type": "uint256"
        }
      ],
      "stateMutability": "view",
      "type": "function"
    },
    {
      "inputs": [],
      "name": "liquidityFeeOrigin",
      "outputs": [
        {
          "internalType": "uint256",
          "name": "",
          "type": "uint256"
        }
      ],
      "stateMutability": "view",
      "type": "function"
    },
    {
      "inputs": [],
      "name": "maxTxAmount",
      "outputs": [
        {
          "internalType": "uint256",
          "name": "",
          "type": "uint256"
        }
      ],
      "stateMutability": "view",
      "type": "function"
    },
    {
      "inputs": [],
      "name": "minimalSupply",
      "outputs": [
        {
          "internalType": "uint256",
          "name": "",
          "type": "uint256"
        }
      ],
      "stateMutability": "view",
      "type": "function"
    },
    {
      "inputs": [],
      "name": "numTokensSellToAddLiquidity",
      "outputs": [
        {
          "internalType": "uint256",
          "name": "",
          "type": "uint256"
        }
      ],
      "stateMutability": "view",
      "type": "function"
    },
    {
      "inputs": [],
      "name": "owner",
      "outputs": [
        {
          "internalType": "address",
          "name": "",
          "type": "address"
        }
      ],
      "stateMutability": "view",
      "type": "function"
    },
    {
      "inputs": [],
      "name": "renounceOwnership",
      "outputs": [],
      "stateMutability": "nonpayable",
      "type": "function"
    },
    {
      "inputs": [],
      "name": "rewardTotal",
      "outputs": [
        {
          "internalType": "uint256",
          "name": "",
          "type": "uint256"
        }
      ],
      "stateMutability": "view",
      "type": "function"
    },
    {
      "inputs": [],
      "name": "supportFee",
      "outputs": [
        {
          "internalType": "uint256",
          "name": "",
          "type": "uint256"
        }
      ],
      "stateMutability": "view",
      "type": "function"
    },
    {
      "inputs": [],
      "name": "supportFeeOrigin",
      "outputs": [
        {
          "internalType": "uint256",
          "name": "",
          "type": "uint256"
        }
      ],
      "stateMutability": "view",
      "type": "function"
    },
    {
      "inputs": [],
      "name": "supportWallet",
      "outputs": [
        {
          "internalType": "address",
          "name": "",
          "type": "address"
        }
      ],
      "stateMutability": "view",
      "type": "function"
    },
    {
      "inputs": [],
      "name": "swapAndLiquifyEnabled",
      "outputs": [
        {
          "internalType": "bool",
          "name": "",
          "type": "bool"
        }
      ],
      "stateMutability": "view",
      "type": "function"
    },
    {
      "inputs": [],
      "name": "taxFee",
      "outputs": [
        {
          "internalType": "uint256",
          "name": "",
          "type": "uint256"
        }
      ],
      "stateMutability": "view",
      "type": "function"
    },
    {
      "inputs": [],
      "name": "taxFeeOrigin",
      "outputs": [
        {
          "internalType": "uint256",
          "name": "",
          "type": "uint256"
        }
      ],
      "stateMutability": "view",
      "type": "function"
    },
    {
      "inputs": [],
      "name": "totalBurned",
      "outputs": [
        {
          "internalType": "uint256",
          "name": "",
          "type": "uint256"
        }
      ],
      "stateMutability": "view",
      "type": "function"
    },
    {
      "inputs": [],
      "name": "totalSupported",
      "outputs": [
        {
          "internalType": "uint256",
          "name": "",
          "type": "uint256"
        }
      ],
      "stateMutability": "view",
      "type": "function"
    },
    {
      "inputs": [
        {
          "internalType": "address",
          "name": "newOwner",
          "type": "address"
        }
      ],
      "name": "transferOwnership",
      "outputs": [],
      "stateMutability": "nonpayable",
      "type": "function"
    },
    {
      "inputs": [],
      "name": "uniswapV2Pair",
      "outputs": [
        {
          "internalType": "address",
          "name": "",
          "type": "address"
        }
      ],
      "stateMutability": "view",
      "type": "function"
    },
    {
      "inputs": [],
      "name": "uniswapV2Router",
      "outputs": [
        {
          "internalType": "contract IUniswapV2Router02",
          "name": "",
          "type": "address"
        }
      ],
      "stateMutability": "view",
      "type": "function"
    },
    {
      "stateMutability": "payable",
      "type": "receive"
    },
    {
      "inputs": [
        {
          "internalType": "bool",
          "name": "_enabled",
          "type": "bool"
        }
      ],
      "name": "setSwapAndLiquifyEnabled",
      "outputs": [],
      "stateMutability": "nonpayable",
      "type": "function"
    },
    {
      "inputs": [
        {
          "internalType": "address",
          "name": "_address",
          "type": "address"
        }
      ],
      "name": "excludeFromFee",
      "outputs": [],
      "stateMutability": "nonpayable",
      "type": "function"
    },
    {
      "inputs": [
        {
          "internalType": "address",
          "name": "_address",
          "type": "address"
        }
      ],
      "name": "includeToFee",
      "outputs": [],
      "stateMutability": "nonpayable",
      "type": "function"
    },
    {
      "inputs": [],
      "name": "pause",
      "outputs": [],
      "stateMutability": "nonpayable",
      "type": "function"
    },
    {
      "inputs": [],
      "name": "unpause",
      "outputs": [],
      "stateMutability": "nonpayable",
      "type": "function"
    },
    {
      "inputs": [],
      "name": "name",
      "outputs": [
        {
          "internalType": "string",
          "name": "",
          "type": "string"
        }
      ],
      "stateMutability": "view",
      "type": "function"
    },
    {
      "inputs": [],
      "name": "symbol",
      "outputs": [
        {
          "internalType": "string",
          "name": "",
          "type": "string"
        }
      ],
      "stateMutability": "view",
      "type": "function"
    },
    {
      "inputs": [],
      "name": "decimals",
      "outputs": [
        {
          "internalType": "uint8",
          "name": "",
          "type": "uint8"
        }
      ],
      "stateMutability": "pure",
      "type": "function"
    },
    {
      "inputs": [],
      "name": "totalSupply",
      "outputs": [
        {
          "internalType": "uint256",
          "name": "",
          "type": "uint256"
        }
      ],
      "stateMutability": "view",
      "type": "function"
    },
    {
      "inputs": [
        {
          "internalType": "address",
          "name": "_account",
          "type": "address"
        }
      ],
      "name": "balanceOf",
      "outputs": [
        {
          "internalType": "uint256",
          "name": "",
          "type": "uint256"
        }
      ],
      "stateMutability": "view",
      "type": "function"
    },
    {
      "inputs": [
        {
          "internalType": "address",
          "name": "_recipient",
          "type": "address"
        },
        {
          "internalType": "uint256",
          "name": "_amount",
          "type": "uint256"
        }
      ],
      "name": "transfer",
      "outputs": [
        {
          "internalType": "bool",
          "name": "",
          "type": "bool"
        }
      ],
      "stateMutability": "nonpayable",
      "type": "function"
    },
    {
      "inputs": [
        {
          "internalType": "address",
          "name": "_owner",
          "type": "address"
        },
        {
          "internalType": "address",
          "name": "_spender",
          "type": "address"
        }
      ],
      "name": "allowance",
      "outputs": [
        {
          "internalType": "uint256",
          "name": "",
          "type": "uint256"
        }
      ],
      "stateMutability": "view",
      "type": "function"
    },
    {
      "inputs": [
        {
          "internalType": "address",
          "name": "_spender",
          "type": "address"
        },
        {
          "internalType": "uint256",
          "name": "_amount",
          "type": "uint256"
        }
      ],
      "name": "approve",
      "outputs": [
        {
          "internalType": "bool",
          "name": "",
          "type": "bool"
        }
      ],
      "stateMutability": "nonpayable",
      "type": "function"
    },
    {
      "inputs": [
        {
          "internalType": "address",
          "name": "_sender",
          "type": "address"
        },
        {
          "internalType": "address",
          "name": "_recipient",
          "type": "address"
        },
        {
          "internalType": "uint256",
          "name": "_amount",
          "type": "uint256"
        }
      ],
      "name": "transferFrom",
      "outputs": [
        {
          "internalType": "bool",
          "name": "",
          "type": "bool"
        }
      ],
      "stateMutability": "nonpayable",
      "type": "function"
    },
    {
      "inputs": [
        {
          "internalType": "address",
          "name": "spender",
          "type": "address"
        },
        {
          "internalType": "uint256",
          "name": "addedValue",
          "type": "uint256"
        }
      ],
      "name": "increaseAllowance",
      "outputs": [
        {
          "internalType": "bool",
          "name": "",
          "type": "bool"
        }
      ],
      "stateMutability": "nonpayable",
      "type": "function"
    },
    {
      "inputs": [
        {
          "internalType": "address",
          "name": "_spender",
          "type": "address"
        },
        {
          "internalType": "uint256",
          "name": "subtractedValue",
          "type": "uint256"
        }
      ],
      "name": "decreaseAllowance",
      "outputs": [
        {
          "internalType": "bool",
          "name": "",
          "type": "bool"
        }
      ],
      "stateMutability": "nonpayable",
      "type": "function"
    },
    {
      "inputs": [],
      "name": "totalHolders",
      "outputs": [
        {
          "internalType": "uint256",
          "name": "",
          "type": "uint256"
        }
      ],
      "stateMutability": "view",
      "type": "function"
    }
  ],
  "bytecode": "0x6101206040526012600a620000159190620009e9565b67016345785d8a00006200002a919062000b26565b6005556040518060400160405280600f81526020017f48756e67727950616e64615f4f4c440000000000000000000000000000000000815250600690805190602001906200007a929190620007e2565b506040518060400160405280600381526020017f484750000000000000000000000000000000000000000000000000000000000081525060079080519060200190620000c8929190620007e2565b50600460085560016009556004600a556001600b55600854600c55600954600d55600a54600e55600b54600f556000601055600060115560006012556001601360016101000a81548160ff0219169083151502179055506000601360026101000a81548160ff0219169083151502179055503480156200014757600080fd5b5060405162004bc138038062004bc183398181016040528101906200016d9190620008db565b60006200017f620007da60201b60201c565b9050806000806101000a81548173ffffffffffffffffffffffffffffffffffffffff021916908373ffffffffffffffffffffffffffffffffffffffff1602179055508073ffffffffffffffffffffffffffffffffffffffff16600073ffffffffffffffffffffffffffffffffffffffff167f8be0079c531659141344cd1fd0a4f28419497f9722a3daafe3b4186f6b6457e060405160405180910390a3504260a08181525050600082905060008173ffffffffffffffffffffffffffffffffffffffff1663c45a01556040518163ffffffff1660e01b815260040160206040518083038186803b1580156200027357600080fd5b505afa15801562000288573d6000803e3d6000fd5b505050506040513d601f19601f82011682018060405250810190620002ae9190620008a9565b73ffffffffffffffffffffffffffffffffffffffff1663c9c65396308473ffffffffffffffffffffffffffffffffffffffff1663ad5c46486040518163ffffffff1660e01b815260040160206040518083038186803b1580156200031157600080fd5b505afa15801562000326573d6000803e3d6000fd5b505050506040513d601f19601f820116820180604052508101906200034c9190620008a9565b6040518363ffffffff1660e01b81526004016200036b92919062000944565b602060405180830381600087803b1580156200038657600080fd5b505af11580156200039b573d6000803e3d6000fd5b505050506040513d601f19601f82011682018060405250810190620003c19190620008a9565b90508173ffffffffffffffffffffffffffffffffffffffff1660c08173ffffffffffffffffffffffffffffffffffffffff1660601b815250508173ffffffffffffffffffffffffffffffffffffffff1663ad5c46486040518163ffffffff1660e01b815260040160206040518083038186803b1580156200044157600080fd5b505afa15801562000456573d6000803e3d6000fd5b505050506040513d601f19601f820116820180604052508101906200047c9190620008a9565b73ffffffffffffffffffffffffffffffffffffffff166101008173ffffffffffffffffffffffffffffffffffffffff1660601b815250508073ffffffffffffffffffffffffffffffffffffffff1660e08173ffffffffffffffffffffffffffffffffffffffff1660601b815250506001600260003073ffffffffffffffffffffffffffffffffffffffff1673ffffffffffffffffffffffffffffffffffffffff16815260200190815260200160002060006101000a81548160ff02191690831515021790555060016002600062000558620007da60201b60201c565b73ffffffffffffffffffffffffffffffffffffffff1673ffffffffffffffffffffffffffffffffffffffff16815260200190815260200160002060006101000a81548160ff0219169083151502179055506001600260008473ffffffffffffffffffffffffffffffffffffffff1673ffffffffffffffffffffffffffffffffffffffff16815260200190815260200160002060006101000a81548160ff0219169083151502179055506001600260008373ffffffffffffffffffffffffffffffffffffffff1673ffffffffffffffffffffffffffffffffffffffff16815260200190815260200160002060006101000a81548160ff02191690831515021790555060036200066b620007da60201b60201c565b9080600181540180825580915050600190039060005260206000200160009091909190916101000a81548173ffffffffffffffffffffffffffffffffffffffff021916908373ffffffffffffffffffffffffffffffffffffffff1602179055508273ffffffffffffffffffffffffffffffffffffffff1660808173ffffffffffffffffffffffffffffffffffffffff1660601b815250506005546001600062000719620007da60201b60201c565b73ffffffffffffffffffffffffffffffffffffffff1673ffffffffffffffffffffffffffffffffffffffff1681526020019081526020016000208190555062000767620007da60201b60201c565b73ffffffffffffffffffffffffffffffffffffffff16600073ffffffffffffffffffffffffffffffffffffffff167fddf252ad1be2c89b69c2b068fc378daa952ba7f163c4a11628f55a4df523b3ef600554604051620007c8919062000971565b60405180910390a35050505062000c92565b600033905090565b828054620007f09062000bd2565b90600052602060002090601f01602090048101928262000814576000855562000860565b82601f106200082f57805160ff191683800117855562000860565b8280016001018555821562000860579182015b828111156200085f57825182559160200191906001019062000842565b5b5090506200086f919062000873565b5090565b5b808211156200088e57600081600090555060010162000874565b5090565b600081519050620008a38162000c78565b92915050565b600060208284031215620008c257620008c162000c66565b5b6000620008d28482850162000892565b91505092915050565b60008060408385031215620008f557620008f462000c66565b5b6000620009058582860162000892565b9250506020620009188582860162000892565b9150509250929050565b6200092d8162000b87565b82525050565b6200093e8162000bbb565b82525050565b60006040820190506200095b600083018562000922565b6200096a602083018462000922565b9392505050565b600060208201905062000988600083018462000933565b92915050565b6000808291508390505b6001851115620009e057808604811115620009b857620009b762000c08565b5b6001851615620009c85780820291505b8081029050620009d88562000c6b565b945062000998565b94509492505050565b6000620009f68262000bbb565b915062000a038362000bc5565b925062000a327fffffffffffffffffffffffffffffffffffffffffffffffffffffffffffffffff848462000a3a565b905092915050565b60008262000a4c576001905062000b1f565b8162000a5c576000905062000b1f565b816001811462000a75576002811462000a805762000ab6565b600191505062000b1f565b60ff84111562000a955762000a9462000c08565b5b8360020a91508482111562000aaf5762000aae62000c08565b5b5062000b1f565b5060208310610133831016604e8410600b841016171562000af05782820a90508381111562000aea5762000ae962000c08565b5b62000b1f565b62000aff84848460016200098e565b9250905081840481111562000b195762000b1862000c08565b5b81810290505b9392505050565b600062000b338262000bbb565b915062000b408362000bbb565b9250817fffffffffffffffffffffffffffffffffffffffffffffffffffffffffffffffff048311821515161562000b7c5762000b7b62000c08565b5b828202905092915050565b600062000b948262000b9b565b9050919050565b600073ffffffffffffffffffffffffffffffffffffffff82169050919050565b6000819050919050565b600060ff82169050919050565b6000600282049050600182168062000beb57607f821691505b6020821081141562000c025762000c0162000c37565b5b50919050565b7f4e487b7100000000000000000000000000000000000000000000000000000000600052601160045260246000fd5b7f4e487b7100000000000000000000000000000000000000000000000000000000600052602260045260246000fd5b600080fd5b60008160011c9050919050565b62000c838162000b87565b811462000c8f57600080fd5b50565b60805160601c60a05160c05160601c60e05160601c6101005160601c613ea662000d1b60003960006118af01526000818161103d0152611fdc015260008181610a6d015281816124f30152818161251a015281816125b6015281816125dd0152612bf7015260006112fd01526000818161150001528181612a450152612acf0152613ea66000f3fe6080604052600436106102555760003560e01c80638da5cb5b11610139578063cf0848f7116100b6578063e0af36161161007a578063e0af3616146108bb578063ebd3e523146108e6578063f2fde38b14610911578063f420a4201461093a578063f959680b14610965578063fce589d8146109905761025c565b8063cf0848f7146107c2578063d89135cd146107eb578063dcd5775b14610816578063dd62ed3e14610841578063dd6e7a861461087e5761025c565b8063a9059cbb116100fd578063a9059cbb146106db578063b3fb736914610718578063b60eaaaa14610743578063c49b9a801461076e578063ca302ffa146107975761025c565b80638da5cb5b146105f257806395d89b411461061d57806398118cb414610648578063a071dcf414610673578063a457c2d71461069e5761025c565b8063437823ec116101d257806354b7fd7c1161019657806354b7fd7c1461050657806370a0823114610531578063715018a61461056e5780638456cb59146105855780638c0b5e221461059c5780638d000264146105c75761025c565b8063437823ec1461043157806344cd5d721461045a57806349bd5a5e146104855780634a74bb02146104b057806353d74fdf146104db5761025c565b806323b872dd1161021957806323b872dd1461034a578063313ce5671461038757806339509351146103b25780633a4e0b97146103ef5780633f4ba83a1461041a5761025c565b806306fdde0314610261578063095ea7b31461028c5780631694505e146102c957806317c57272146102f457806318160ddd1461031f5761025c565b3661025c57005b600080fd5b34801561026d57600080fd5b506102766109bb565b6040516102839190613277565b60405180910390f35b34801561029857600080fd5b506102b360048036038101906102ae9190612e29565b610a4d565b6040516102c09190613241565b60405180910390f35b3480156102d557600080fd5b506102de610a6b565b6040516102eb919061325c565b60405180910390f35b34801561030057600080fd5b50610309610a8f565b6040516103169190613459565b60405180910390f35b34801561032b57600080fd5b50610334610a94565b6040516103419190613459565b60405180910390f35b34801561035657600080fd5b50610371600480360381019061036c9190612dd6565b610a9e565b60405161037e9190613241565b60405180910390f35b34801561039357600080fd5b5061039c610b9f565b6040516103a99190613505565b60405180910390f35b3480156103be57600080fd5b506103d960048036038101906103d49190612e29565b610ba8565b6040516103e69190613241565b60405180910390f35b3480156103fb57600080fd5b50610404610c54565b6040516104119190613459565b60405180910390f35b34801561042657600080fd5b5061042f610c5a565b005b34801561043d57600080fd5b5061045860048036038101906104539190612d3c565b610d2a565b005b34801561046657600080fd5b5061046f611019565b60405161047c9190613459565b60405180910390f35b34801561049157600080fd5b5061049a61103b565b6040516104a791906131c5565b60405180910390f35b3480156104bc57600080fd5b506104c561105f565b6040516104d29190613241565b60405180910390f35b3480156104e757600080fd5b506104f0611072565b6040516104fd9190613459565b60405180910390f35b34801561051257600080fd5b5061051b61107f565b6040516105289190613459565b60405180910390f35b34801561053d57600080fd5b5061055860048036038101906105539190612d3c565b611085565b6040516105659190613459565b60405180910390f35b34801561057a57600080fd5b506105836110ce565b005b34801561059157600080fd5b5061059a611208565b005b3480156105a857600080fd5b506105b16112d8565b6040516105be9190613459565b60405180910390f35b3480156105d357600080fd5b506105dc6112fb565b6040516105e99190613459565b60405180910390f35b3480156105fe57600080fd5b5061060761131f565b60405161061491906131c5565b60405180910390f35b34801561062957600080fd5b50610632611348565b60405161063f9190613277565b60405180910390f35b34801561065457600080fd5b5061065d6113da565b60405161066a9190613459565b60405180910390f35b34801561067f57600080fd5b506106886113e0565b6040516106959190613459565b60405180910390f35b3480156106aa57600080fd5b506106c560048036038101906106c09190612e29565b6113e6565b6040516106d29190613241565b60405180910390f35b3480156106e757600080fd5b5061070260048036038101906106fd9190612e29565b6114da565b60405161070f9190613241565b60405180910390f35b34801561072457600080fd5b5061072d6114f8565b60405161073a9190613459565b60405180910390f35b34801561074f57600080fd5b506107586114fe565b60405161076591906131c5565b60405180910390f35b34801561077a57600080fd5b5061079560048036038101906107909190612e69565b611522565b005b3480156107a357600080fd5b506107ac6115f2565b6040516107b99190613459565b60405180910390f35b3480156107ce57600080fd5b506107e960048036038101906107e49190612d3c565b6115f8565b005b3480156107f757600080fd5b506108006117be565b60405161080d9190613459565b60405180910390f35b34801561082257600080fd5b5061082b6117c4565b6040516108389190613459565b60405180910390f35b34801561084d57600080fd5b5061086860048036038101906108639190612d96565b6117e7565b6040516108759190613459565b60405180910390f35b34801561088a57600080fd5b506108a560048036038101906108a09190612e96565b61186e565b6040516108b291906131c5565b60405180910390f35b3480156108c757600080fd5b506108d06118ad565b6040516108dd91906131c5565b60405180910390f35b3480156108f257600080fd5b506108fb6118d1565b6040516109089190613459565b60405180910390f35b34801561091d57600080fd5b5061093860048036038101906109339190612d3c565b6118d7565b005b34801561094657600080fd5b5061094f611a80565b60405161095c9190613459565b60405180910390f35b34801561097157600080fd5b5061097a611a86565b6040516109879190613459565b60405180910390f35b34801561099c57600080fd5b506109a5611a8c565b6040516109b29190613459565b60405180910390f35b6060600680546109ca906138b9565b80601f01602080910402602001604051908101604052809291908181526020018280546109f6906138b9565b8015610a435780601f10610a1857610100808354040283529160200191610a43565b820191906000526020600020905b815481529060010190602001808311610a2657829003601f168201915b5050505050905090565b6000610a61610a5a611a92565b8484611a9a565b6001905092915050565b7f000000000000000000000000000000000000000000000000000000000000000081565b606481565b6000600554905090565b6000610aab848484611c65565b6000600460008673ffffffffffffffffffffffffffffffffffffffff1673ffffffffffffffffffffffffffffffffffffffff1681526020019081526020016000206000610af6611a92565b73ffffffffffffffffffffffffffffffffffffffff1673ffffffffffffffffffffffffffffffffffffffff16815260200190815260200160002054905082811015610b76576040517f08c379a0000000000000000000000000000000000000000000000000000000008152600401610b6d90613379565b60405180910390fd5b610b9385610b82611a92565b8584610b8e91906137c7565b611a9a565b60019150509392505050565b60006012905090565b6000610c4a610bb5611a92565b848460046000610bc3611a92565b73ffffffffffffffffffffffffffffffffffffffff1673ffffffffffffffffffffffffffffffffffffffff16815260200190815260200160002060008873ffffffffffffffffffffffffffffffffffffffff1673ffffffffffffffffffffffffffffffffffffffff16815260200190815260200160002054610c459190613575565b611a9a565b6001905092915050565b600f5481565b610c62611a92565b73ffffffffffffffffffffffffffffffffffffffff16610c8061131f565b73ffffffffffffffffffffffffffffffffffffffff1614610cd6576040517f08c379a0000000000000000000000000000000000000000000000000000000008152600401610ccd90613399565b60405180910390fd5b6000601360026101000a81548160ff0219169083151502179055507f5db9ee0a495bf2e6ff9c91a7834c1ba4fdd244a5e8aa4e537bd38aeae4b073aa33604051610d2091906131c5565b60405180910390a1565b610d32611a92565b73ffffffffffffffffffffffffffffffffffffffff16610d5061131f565b73ffffffffffffffffffffffffffffffffffffffff1614610da6576040517f08c379a0000000000000000000000000000000000000000000000000000000008152600401610d9d90613399565b60405180910390fd5b600260008273ffffffffffffffffffffffffffffffffffffffff1673ffffffffffffffffffffffffffffffffffffffff16815260200190815260200160002060009054906101000a900460ff1615610e33576040517f08c379a0000000000000000000000000000000000000000000000000000000008152600401610e2a90613339565b60405180910390fd5b6000600380549050905060005b81811015610fbc5760038181548110610e5c57610e5b6139f0565b5b9060005260206000200160009054906101000a900473ffffffffffffffffffffffffffffffffffffffff1673ffffffffffffffffffffffffffffffffffffffff168373ffffffffffffffffffffffffffffffffffffffff161415610fa9576003600183610ec991906137c7565b81548110610eda57610ed96139f0565b5b9060005260206000200160009054906101000a900473ffffffffffffffffffffffffffffffffffffffff1660038281548110610f1957610f186139f0565b5b9060005260206000200160006101000a81548173ffffffffffffffffffffffffffffffffffffffff021916908373ffffffffffffffffffffffffffffffffffffffff1602179055506003805480610f7357610f726139c1565b5b6001900381819060005260206000200160006101000a81549073ffffffffffffffffffffffffffffffffffffffff021916905590555b8080610fb4906138eb565b915050610e40565b506001600260008473ffffffffffffffffffffffffffffffffffffffff1673ffffffffffffffffffffffffffffffffffffffff16815260200190815260200160002060006101000a81548160ff0219169083151502179055505050565b6012600a611027919061364f565b655af3107a4000611038919061376d565b81565b7f000000000000000000000000000000000000000000000000000000000000000081565b601360019054906101000a900460ff1681565b6000600380549050905090565b600e5481565b6000600160008373ffffffffffffffffffffffffffffffffffffffff1673ffffffffffffffffffffffffffffffffffffffff168152602001908152602001600020549050919050565b6110d6611a92565b73ffffffffffffffffffffffffffffffffffffffff166110f461131f565b73ffffffffffffffffffffffffffffffffffffffff161461114a576040517f08c379a000000000000000000000000000000000000000000000000000000000815260040161114190613399565b60405180910390fd5b600073ffffffffffffffffffffffffffffffffffffffff1660008054906101000a900473ffffffffffffffffffffffffffffffffffffffff1673ffffffffffffffffffffffffffffffffffffffff167f8be0079c531659141344cd1fd0a4f28419497f9722a3daafe3b4186f6b6457e060405160405180910390a360008060006101000a81548173ffffffffffffffffffffffffffffffffffffffff021916908373ffffffffffffffffffffffffffffffffffffffff160217905550565b611210611a92565b73ffffffffffffffffffffffffffffffffffffffff1661122e61131f565b73ffffffffffffffffffffffffffffffffffffffff1614611284576040517f08c379a000000000000000000000000000000000000000000000000000000000815260040161127b90613399565b60405180910390fd5b6001601360026101000a81548160ff0219169083151502179055507f62e78cea01bee320cd4e420270b5ea74000d11b0c9f74754ebdbfc544b05a258336040516112ce91906131c5565b60405180910390a1565b6012600a6112e6919061364f565b66038d7ea4c680006112f8919061376d565b81565b7f000000000000000000000000000000000000000000000000000000000000000081565b60008060009054906101000a900473ffffffffffffffffffffffffffffffffffffffff16905090565b606060078054611357906138b9565b80601f0160208091040260200160405190810160405280929190818152602001828054611383906138b9565b80156113d05780601f106113a5576101008083540402835291602001916113d0565b820191906000526020600020905b8154815290600101906020018083116113b357829003601f168201915b5050505050905090565b600a5481565b60085481565b600080600460006113f5611a92565b73ffffffffffffffffffffffffffffffffffffffff1673ffffffffffffffffffffffffffffffffffffffff16815260200190815260200160002060008573ffffffffffffffffffffffffffffffffffffffff1673ffffffffffffffffffffffffffffffffffffffff168152602001908152602001600020549050828110156114b2576040517f08c379a00000000000000000000000000000000000000000000000000000000081526004016114a990613439565b60405180910390fd5b6114cf6114bd611a92565b8585846114ca91906137c7565b611a9a565b600191505092915050565b60006114ee6114e7611a92565b8484611c65565b6001905092915050565b600c5481565b7f000000000000000000000000000000000000000000000000000000000000000081565b61152a611a92565b73ffffffffffffffffffffffffffffffffffffffff1661154861131f565b73ffffffffffffffffffffffffffffffffffffffff161461159e576040517f08c379a000000000000000000000000000000000000000000000000000000000815260040161159590613399565b60405180910390fd5b80601360016101000a81548160ff0219169083151502179055507f53726dfcaf90650aa7eb35524f4d3220f07413c8d6cb404cc8c18bf5591bc159816040516115e79190613241565b60405180910390a150565b600b5481565b611600611a92565b73ffffffffffffffffffffffffffffffffffffffff1661161e61131f565b73ffffffffffffffffffffffffffffffffffffffff1614611674576040517f08c379a000000000000000000000000000000000000000000000000000000000815260040161166b90613399565b60405180910390fd5b600260008273ffffffffffffffffffffffffffffffffffffffff1673ffffffffffffffffffffffffffffffffffffffff16815260200190815260200160002060009054906101000a900460ff16611700576040517f08c379a00000000000000000000000000000000000000000000000000000000081526004016116f7906133d9565b60405180910390fd5b6000600260008373ffffffffffffffffffffffffffffffffffffffff1673ffffffffffffffffffffffffffffffffffffffff16815260200190815260200160002060006101000a81548160ff0219169083151502179055506003819080600181540180825580915050600190039060005260206000200160009091909190916101000a81548173ffffffffffffffffffffffffffffffffffffffff021916908373ffffffffffffffffffffffffffffffffffffffff16021790555050565b60105481565b6012600a6117d2919061364f565b668e1bc9bf0400006117e4919061376d565b81565b6000600460008473ffffffffffffffffffffffffffffffffffffffff1673ffffffffffffffffffffffffffffffffffffffff16815260200190815260200160002060008373ffffffffffffffffffffffffffffffffffffffff1673ffffffffffffffffffffffffffffffffffffffff16815260200190815260200160002054905092915050565b6003818154811061187e57600080fd5b906000526020600020016000915054906101000a900473ffffffffffffffffffffffffffffffffffffffff1681565b7f000000000000000000000000000000000000000000000000000000000000000081565b600d5481565b6118df611a92565b73ffffffffffffffffffffffffffffffffffffffff166118fd61131f565b73ffffffffffffffffffffffffffffffffffffffff1614611953576040517f08c379a000000000000000000000000000000000000000000000000000000000815260040161194a90613399565b60405180910390fd5b600073ffffffffffffffffffffffffffffffffffffffff168173ffffffffffffffffffffffffffffffffffffffff1614156119c3576040517f08c379a00000000000000000000000000000000000000000000000000000000081526004016119ba906132b9565b60405180910390fd5b8073ffffffffffffffffffffffffffffffffffffffff1660008054906101000a900473ffffffffffffffffffffffffffffffffffffffff1673ffffffffffffffffffffffffffffffffffffffff167f8be0079c531659141344cd1fd0a4f28419497f9722a3daafe3b4186f6b6457e060405160405180910390a3806000806101000a81548173ffffffffffffffffffffffffffffffffffffffff021916908373ffffffffffffffffffffffffffffffffffffffff16021790555050565b60125481565b60115481565b60095481565b600033905090565b600073ffffffffffffffffffffffffffffffffffffffff168373ffffffffffffffffffffffffffffffffffffffff161415611b0a576040517f08c379a0000000000000000000000000000000000000000000000000000000008152600401611b0190613419565b60405180910390fd5b600073ffffffffffffffffffffffffffffffffffffffff168273ffffffffffffffffffffffffffffffffffffffff161415611b7a576040517f08c379a0000000000000000000000000000000000000000000000000000000008152600401611b71906132d9565b60405180910390fd5b80600460008573ffffffffffffffffffffffffffffffffffffffff1673ffffffffffffffffffffffffffffffffffffffff16815260200190815260200160002060008473ffffffffffffffffffffffffffffffffffffffff1673ffffffffffffffffffffffffffffffffffffffff168152602001908152602001600020819055508173ffffffffffffffffffffffffffffffffffffffff168373ffffffffffffffffffffffffffffffffffffffff167f8c5be1e5ebec7d5bd14f71427d1e84f3dd0314c0f7b2291e5b200ac8c7c3b92583604051611c589190613459565b60405180910390a3505050565b601360029054906101000a900460ff1615611cb5576040517f08c379a0000000000000000000000000000000000000000000000000000000008152600401611cac90613319565b60405180910390fd5b600073ffffffffffffffffffffffffffffffffffffffff168373ffffffffffffffffffffffffffffffffffffffff161415611d25576040517f08c379a0000000000000000000000000000000000000000000000000000000008152600401611d1c906133f9565b60405180910390fd5b600073ffffffffffffffffffffffffffffffffffffffff168273ffffffffffffffffffffffffffffffffffffffff161415611d95576040517f08c379a0000000000000000000000000000000000000000000000000000000008152600401611d8c90613299565b60405180910390fd5b60008111611dd8576040517f08c379a0000000000000000000000000000000000000000000000000000000008152600401611dcf906133b9565b60405180910390fd5b6000600160008573ffffffffffffffffffffffffffffffffffffffff1673ffffffffffffffffffffffffffffffffffffffff16815260200190815260200160002054905081811015611e5f576040517f08c379a0000000000000000000000000000000000000000000000000000000008152600401611e56906132f9565b60405180910390fd5b611e6761131f565b73ffffffffffffffffffffffffffffffffffffffff168473ffffffffffffffffffffffffffffffffffffffff1614158015611ed55750611ea561131f565b73ffffffffffffffffffffffffffffffffffffffff168373ffffffffffffffffffffffffffffffffffffffff1614155b15611f3d576012600a611ee8919061364f565b66038d7ea4c68000611efa919061376d565b821115611f3c576040517f08c379a0000000000000000000000000000000000000000000000000000000008152600401611f3390613359565b60405180910390fd5b5b6000611f4830611085565b90506012600a611f58919061364f565b66038d7ea4c68000611f6a919061376d565b8110611f93576012600a611f7e919061364f565b66038d7ea4c68000611f90919061376d565b90505b60006012600a611fa3919061364f565b655af3107a4000611fb4919061376d565b8210159050808015611fd35750601360009054906101000a900460ff16155b801561202b57507f000000000000000000000000000000000000000000000000000000000000000073ffffffffffffffffffffffffffffffffffffffff168673ffffffffffffffffffffffffffffffffffffffff1614155b80156120435750601360019054906101000a900460ff165b15612073576012600a612056919061364f565b655af3107a4000612067919061376d565b915061207282612155565b5b600060019050600260008873ffffffffffffffffffffffffffffffffffffffff1673ffffffffffffffffffffffffffffffffffffffff16815260200190815260200160002060009054906101000a900460ff16801561211b5750600260008773ffffffffffffffffffffffffffffffffffffffff1673ffffffffffffffffffffffffffffffffffffffff16815260200190815260200160002060009054906101000a900460ff165b1561212557600090505b8061213357612132612216565b5b61213e87878761225c565b8061214c5761214b6124bb565b5b50505050505050565b6001601360006101000a81548160ff021916908315150217905550600060028261217f91906135cb565b90506000818361218f91906137c7565b9050600047905061219f836124e1565b600081476121ad91906137c7565b90506121b983826125b0565b7f17bbfb9a6069321b6ded73bd96327c9e6b7212a5cd51ff219cd61370acafb5618482856040516121ec939291906134ce565b60405180910390a1505050506000601360006101000a81548160ff02191690831515021790555050565b600854600c81905550600954600d81905550600a54600e81905550600f54600f81905550600060088190555060006009819055506000600a819055506000600b81905550565b600080600080600061226d8661267d565b94509450945094509450612281888461274a565b61228b8886612934565b6122958885612a3e565b81600160003073ffffffffffffffffffffffffffffffffffffffff1673ffffffffffffffffffffffffffffffffffffffff16815260200190815260200160002060008282546122e49190613575565b9250508190555085600160008a73ffffffffffffffffffffffffffffffffffffffff1673ffffffffffffffffffffffffffffffffffffffff168152602001908152602001600020600082825461233a91906137c7565b9250508190555080600160008973ffffffffffffffffffffffffffffffffffffffff1673ffffffffffffffffffffffffffffffffffffffff16815260200190815260200160002060008282546123909190613575565b92505081905550600260008873ffffffffffffffffffffffffffffffffffffffff1673ffffffffffffffffffffffffffffffffffffffff16815260200190815260200160002060009054906101000a900460ff1661244c576003879080600181540180825580915050600190039060005260206000200160009091909190916101000a81548173ffffffffffffffffffffffffffffffffffffffff021916908373ffffffffffffffffffffffffffffffffffffffff1602179055505b8673ffffffffffffffffffffffffffffffffffffffff168873ffffffffffffffffffffffffffffffffffffffff167fddf252ad1be2c89b69c2b068fc378daa952ba7f163c4a11628f55a4df523b3ef836040516124a99190613459565b60405180910390a35050505050505050565b600c54600881905550600d54600981905550600e54600a81905550600f54600b81905550565b60006124eb612b56565b9050612518307f000000000000000000000000000000000000000000000000000000000000000084611a9a565b7f000000000000000000000000000000000000000000000000000000000000000073ffffffffffffffffffffffffffffffffffffffff1663791ac9478360008430426040518663ffffffff1660e01b815260040161257a959493929190613474565b600060405180830381600087803b15801561259457600080fd5b505af11580156125a8573d6000803e3d6000fd5b505050505050565b6125db307f000000000000000000000000000000000000000000000000000000000000000084611a9a565b7f000000000000000000000000000000000000000000000000000000000000000073ffffffffffffffffffffffffffffffffffffffff1663f305d71982308560008061262561131f565b426040518863ffffffff1660e01b8152600401612647969594939291906131e0565b6000604051808303818588803b15801561266057600080fd5b505af1158015612674573d6000803e3d6000fd5b50505050505050565b60008060008060008060095460648861269691906135cb565b6126a0919061376d565b90506000600b546064896126b491906135cb565b6126be919061376d565b9050600060085460648a6126d291906135cb565b6126dc919061376d565b90506000600a5460648b6126f091906135cb565b6126fa919061376d565b90506000818385878e61270d91906137c7565b61271791906137c7565b61272191906137c7565b61272b91906137c7565b9050848484848499509950995099509950505050505091939590929450565b806011600082825461275c9190613575565b9250508190555060006012600a612773919061364f565b60055461278091906135cb565b905060005b60038054905081101561292e576000600382815481106127a8576127a76139f0565b5b9060005260206000200160009054906101000a900473ffffffffffffffffffffffffffffffffffffffff16905060006012600a6127e5919061364f565b600160008473ffffffffffffffffffffffffffffffffffffffff1673ffffffffffffffffffffffffffffffffffffffff1681526020019081526020016000205461282f91906135cb565b9050600081141561284157505061291b565b6000818561284f91906135cb565b8661285a91906135cb565b905080600160008573ffffffffffffffffffffffffffffffffffffffff1673ffffffffffffffffffffffffffffffffffffffff16815260200190815260200160002060008282546128ab9190613575565b925050819055508273ffffffffffffffffffffffffffffffffffffffff168773ffffffffffffffffffffffffffffffffffffffff167fddf252ad1be2c89b69c2b068fc378daa952ba7f163c4a11628f55a4df523b3ef8360405161290f9190613459565b60405180910390a35050505b8080612926906138eb565b915050612785565b50505050565b60008160055461294491906137c7565b90506012600a612954919061364f565b668e1bc9bf040000612966919061376d565b811015612990576012600a61297b919061364f565b668e1bc9bf04000061298d919061376d565b90505b6000816005546129a091906137c7565b9050600081116129b1575050612a3a565b8160058190555080601060008282546129ca9190613575565b92505081905550600073ffffffffffffffffffffffffffffffffffffffff168473ffffffffffffffffffffffffffffffffffffffff167fddf252ad1be2c89b69c2b068fc378daa952ba7f163c4a11628f55a4df523b3ef83604051612a2f9190613459565b60405180910390a350505b5050565b80600160007f000000000000000000000000000000000000000000000000000000000000000073ffffffffffffffffffffffffffffffffffffffff1673ffffffffffffffffffffffffffffffffffffffff1681526020019081526020016000206000828254612aad9190613575565b925050819055508060126000828254612ac69190613575565b925050819055507f000000000000000000000000000000000000000000000000000000000000000073ffffffffffffffffffffffffffffffffffffffff168273ffffffffffffffffffffffffffffffffffffffff167fddf252ad1be2c89b69c2b068fc378daa952ba7f163c4a11628f55a4df523b3ef83604051612b4a9190613459565b60405180910390a35050565b60606000600267ffffffffffffffff811115612b7557612b74613a1f565b5b604051908082528060200260200182016040528015612ba35781602001602082028036833780820191505090505b5090503081600081518110612bbb57612bba6139f0565b5b602002602001019073ffffffffffffffffffffffffffffffffffffffff16908173ffffffffffffffffffffffffffffffffffffffff16815250507f000000000000000000000000000000000000000000000000000000000000000073ffffffffffffffffffffffffffffffffffffffff1663ad5c46486040518163ffffffff1660e01b815260040160206040518083038186803b158015612c5b57600080fd5b505afa158015612c6f573d6000803e3d6000fd5b505050506040513d601f19601f82011682018060405250810190612c939190612d69565b81600181518110612ca757612ca66139f0565b5b602002602001019073ffffffffffffffffffffffffffffffffffffffff16908173ffffffffffffffffffffffffffffffffffffffff16815250508091505090565b600081359050612cf781613e2b565b92915050565b600081519050612d0c81613e2b565b92915050565b600081359050612d2181613e42565b92915050565b600081359050612d3681613e59565b92915050565b600060208284031215612d5257612d51613a4e565b5b6000612d6084828501612ce8565b91505092915050565b600060208284031215612d7f57612d7e613a4e565b5b6000612d8d84828501612cfd565b91505092915050565b60008060408385031215612dad57612dac613a4e565b5b6000612dbb85828601612ce8565b9250506020612dcc85828601612ce8565b9150509250929050565b600080600060608486031215612def57612dee613a4e565b5b6000612dfd86828701612ce8565b9350506020612e0e86828701612ce8565b9250506040612e1f86828701612d27565b9150509250925092565b60008060408385031215612e4057612e3f613a4e565b5b6000612e4e85828601612ce8565b9250506020612e5f85828601612d27565b9150509250929050565b600060208284031215612e7f57612e7e613a4e565b5b6000612e8d84828501612d12565b91505092915050565b600060208284031215612eac57612eab613a4e565b5b6000612eba84828501612d27565b91505092915050565b6000612ecf8383612edb565b60208301905092915050565b612ee4816137fb565b82525050565b612ef3816137fb565b82525050565b6000612f0482613530565b612f0e8185613553565b9350612f1983613520565b8060005b83811015612f4a578151612f318882612ec3565b9750612f3c83613546565b925050600181019050612f1d565b5085935050505092915050565b612f608161380d565b82525050565b612f6f81613850565b82525050565b612f7e81613874565b82525050565b6000612f8f8261353b565b612f998185613564565b9350612fa9818560208601613886565b612fb281613a53565b840191505092915050565b6000612fca602383613564565b9150612fd582613a71565b604082019050919050565b6000612fed602683613564565b9150612ff882613ac0565b604082019050919050565b6000613010602283613564565b915061301b82613b0f565b604082019050919050565b6000613033602683613564565b915061303e82613b5e565b604082019050919050565b6000613056600d83613564565b915061306182613bad565b602082019050919050565b6000613079601783613564565b915061308482613bd6565b602082019050919050565b600061309c602683613564565b91506130a782613bff565b604082019050919050565b60006130bf602883613564565b91506130ca82613c4e565b604082019050919050565b60006130e2602083613564565b91506130ed82613c9d565b602082019050919050565b6000613105602783613564565b915061311082613cc6565b604082019050919050565b6000613128601783613564565b915061313382613d15565b602082019050919050565b600061314b602583613564565b915061315682613d3e565b604082019050919050565b600061316e602483613564565b915061317982613d8d565b604082019050919050565b6000613191602583613564565b915061319c82613ddc565b604082019050919050565b6131b081613839565b82525050565b6131bf81613843565b82525050565b60006020820190506131da6000830184612eea565b92915050565b600060c0820190506131f56000830189612eea565b61320260208301886131a7565b61320f6040830187612f75565b61321c6060830186612f75565b6132296080830185612eea565b61323660a08301846131a7565b979650505050505050565b60006020820190506132566000830184612f57565b92915050565b60006020820190506132716000830184612f66565b92915050565b600060208201905081810360008301526132918184612f84565b905092915050565b600060208201905081810360008301526132b281612fbd565b9050919050565b600060208201905081810360008301526132d281612fe0565b9050919050565b600060208201905081810360008301526132f281613003565b9050919050565b6000602082019050818103600083015261331281613026565b9050919050565b6000602082019050818103600083015261333281613049565b9050919050565b600060208201905081810360008301526133528161306c565b9050919050565b600060208201905081810360008301526133728161308f565b9050919050565b60006020820190508181036000830152613392816130b2565b9050919050565b600060208201905081810360008301526133b2816130d5565b9050919050565b600060208201905081810360008301526133d2816130f8565b9050919050565b600060208201905081810360008301526133f28161311b565b9050919050565b600060208201905081810360008301526134128161313e565b9050919050565b6000602082019050818103600083015261343281613161565b9050919050565b6000602082019050818103600083015261345281613184565b9050919050565b600060208201905061346e60008301846131a7565b92915050565b600060a08201905061348960008301886131a7565b6134966020830187612f75565b81810360408301526134a88186612ef9565b90506134b76060830185612eea565b6134c460808301846131a7565b9695505050505050565b60006060820190506134e360008301866131a7565b6134f060208301856131a7565b6134fd60408301846131a7565b949350505050565b600060208201905061351a60008301846131b6565b92915050565b6000819050602082019050919050565b600081519050919050565b600081519050919050565b6000602082019050919050565b600082825260208201905092915050565b600082825260208201905092915050565b600061358082613839565b915061358b83613839565b9250827fffffffffffffffffffffffffffffffffffffffffffffffffffffffffffffffff038211156135c0576135bf613934565b5b828201905092915050565b60006135d682613839565b91506135e183613839565b9250826135f1576135f0613963565b5b828204905092915050565b6000808291508390505b60018511156136465780860481111561362257613621613934565b5b60018516156136315780820291505b808102905061363f85613a64565b9450613606565b94509492505050565b600061365a82613839565b915061366583613843565b92506136927fffffffffffffffffffffffffffffffffffffffffffffffffffffffffffffffff848461369a565b905092915050565b6000826136aa5760019050613766565b816136b85760009050613766565b81600181146136ce57600281146136d857613707565b6001915050613766565b60ff8411156136ea576136e9613934565b5b8360020a91508482111561370157613700613934565b5b50613766565b5060208310610133831016604e8410600b841016171561373c5782820a90508381111561373757613736613934565b5b613766565b61374984848460016135fc565b925090508184048111156137605761375f613934565b5b81810290505b9392505050565b600061377882613839565b915061378383613839565b9250817fffffffffffffffffffffffffffffffffffffffffffffffffffffffffffffffff04831182151516156137bc576137bb613934565b5b828202905092915050565b60006137d282613839565b91506137dd83613839565b9250828210156137f0576137ef613934565b5b828203905092915050565b600061380682613819565b9050919050565b60008115159050919050565b600073ffffffffffffffffffffffffffffffffffffffff82169050919050565b6000819050919050565b600060ff82169050919050565b600061385b82613862565b9050919050565b600061386d82613819565b9050919050565b600061387f82613839565b9050919050565b60005b838110156138a4578082015181840152602081019050613889565b838111156138b3576000848401525b50505050565b600060028204905060018216806138d157607f821691505b602082108114156138e5576138e4613992565b5b50919050565b60006138f682613839565b91507fffffffffffffffffffffffffffffffffffffffffffffffffffffffffffffffff82141561392957613928613934565b5b600182019050919050565b7f4e487b7100000000000000000000000000000000000000000000000000000000600052601160045260246000fd5b7f4e487b7100000000000000000000000000000000000000000000000000000000600052601260045260246000fd5b7f4e487b7100000000000000000000000000000000000000000000000000000000600052602260045260246000fd5b7f4e487b7100000000000000000000000000000000000000000000000000000000600052603160045260246000fd5b7f4e487b7100000000000000000000000000000000000000000000000000000000600052603260045260246000fd5b7f4e487b7100000000000000000000000000000000000000000000000000000000600052604160045260246000fd5b600080fd5b6000601f19601f8301169050919050565b60008160011c9050919050565b7f45524332303a207472616e7366657220746f20746865207a65726f206164647260008201527f6573730000000000000000000000000000000000000000000000000000000000602082015250565b7f4f776e61626c653a206e6577206f776e657220697320746865207a65726f206160008201527f6464726573730000000000000000000000000000000000000000000000000000602082015250565b7f45524332303a20617070726f766520746f20746865207a65726f20616464726560008201527f7373000000000000000000000000000000000000000000000000000000000000602082015250565b7f45524332303a207472616e7366657220616d6f756e742065786365656473206260008201527f616c616e63650000000000000000000000000000000000000000000000000000602082015250565b7f45524332303a2070617573656400000000000000000000000000000000000000600082015250565b7f50616e64613a20616c7265616479206578636c75646564000000000000000000600082015250565b7f45524332303a207472616e7366657220616d6f756e742065786365656473206d60008201527f6178696d756d0000000000000000000000000000000000000000000000000000602082015250565b7f45524332303a207472616e7366657220616d6f756e742065786365656473206160008201527f6c6c6f77616e6365000000000000000000000000000000000000000000000000602082015250565b7f4f776e61626c653a2063616c6c6572206973206e6f7420746865206f776e6572600082015250565b7f45524332303a20616d6f756e74206d757374206265206772656174657220746860008201527f616e207a65726f00000000000000000000000000000000000000000000000000602082015250565b7f50616e64613a20616c726561647920696e636c75646564000000000000000000600082015250565b7f45524332303a207472616e736665722066726f6d20746865207a65726f20616460008201527f6472657373000000000000000000000000000000000000000000000000000000602082015250565b7f45524332303a20617070726f76652066726f6d20746865207a65726f2061646460008201527f7265737300000000000000000000000000000000000000000000000000000000602082015250565b7f45524332303a2064656372656173656420616c6c6f77616e63652062656c6f7760008201527f207a65726f000000000000000000000000000000000000000000000000000000602082015250565b613e34816137fb565b8114613e3f57600080fd5b50565b613e4b8161380d565b8114613e5657600080fd5b50565b613e6281613839565b8114613e6d57600080fd5b5056fea26469706673582212202b9031f765cca28cb05f847bfb38ede4684e5c890fc994f30a4c2d7a59e16df964736f6c63430008060033",
  "immutableReferences": {
    "3035": [
      {
        "length": 32,
        "start": 5376
      },
      {
        "length": 32,
        "start": 10821
      },
      {
        "length": 32,
        "start": 10959
      }
    ],
    "3040": [
      {
        "length": 32,
        "start": 4861
      }
    ],
    "3043": [
      {
        "length": 32,
        "start": 2669
      },
      {
        "length": 32,
        "start": 9459
      },
      {
        "length": 32,
        "start": 9498
      },
      {
        "length": 32,
        "start": 9654
      },
      {
        "length": 32,
        "start": 9693
      },
      {
        "length": 32,
        "start": 11255
      }
    ],
    "3045": [
      {
        "length": 32,
        "start": 4157
      },
      {
        "length": 32,
        "start": 8156
      }
    ],
    "3047": [
      {
        "length": 32,
        "start": 6319
      }
    ]
  },
  "source": "// SPDX-License-Identifier: MIT\r\n\r\npragma solidity >=0.8.6 <0.9.0;\r\n\r\nimport \"../interfaces/IERC20.sol\";\r\nimport \"../security/Ownable.sol\";\r\nimport \"../interfaces/IUniswapV2Router02.sol\";\r\nimport \"../interfaces/IUniswapV2Factory.sol\";\r\n\r\ncontract HungryPandaOld is Ownable, IERC20 {\r\n    mapping(address => uint256) private _balances;\r\n    mapping(address => bool) private excludedFromFee;\r\n    address[] public holdersRewarded;\r\n\r\n    mapping(address => mapping(address => uint256)) private _allowances;\r\n\r\n    uint8 private constant _decimals = 18;\r\n    uint256 private constant DECIMALFACTOR = 10**_decimals;\r\n    uint256 private _totalSupply = 10**17 * DECIMALFACTOR; // 100 000 000 000 000 000\r\n\r\n    string private _name = \"HungryPanda_OLD\";\r\n    string private _symbol = \"HGP\";\r\n\r\n    uint256 public constant maxTxAmount = 10**15 * DECIMALFACTOR; // 1% 1 000 000 000 000 000\r\n    uint256 public constant minimalSupply = 4 * 10**16 * DECIMALFACTOR; // 60% can be burnt 40 000 000 000 000 000\r\n    uint256 public constant numTokensSellToAddLiquidity =\r\n        10 * 10**13 * DECIMALFACTOR; // 0.01% 10 000 000 000 000\r\n\r\n    uint256 public taxFee = 4;\r\n    uint256 public burnFee = 1;\r\n    uint256 public liquidityFee = 4;\r\n    uint256 public supportFee = 1;\r\n    uint256 public taxFeeOrigin = taxFee;\r\n    uint256 public burnFeeOrigin = burnFee;\r\n    uint256 public liquidityFeeOrigin = liquidityFee;\r\n    uint256 public supportFeeOrigin = supportFee;\r\n\r\n    uint256 public totalBurned = 0;\r\n    uint256 public rewardTotal = 0;\r\n    uint256 public totalSupported = 0;\r\n    address public immutable supportWallet;\r\n\r\n    uint256 public constant feeGranularity = 100;\r\n    uint256 public immutable bornAtTime;\r\n\r\n    IUniswapV2Router02 public immutable uniswapV2Router;\r\n    address public immutable uniswapV2Pair;\r\n    address public immutable _WETH;\r\n\r\n    bool inSwapAndLiquify;\r\n    bool public swapAndLiquifyEnabled = true;\r\n    bool private _paused = false;\r\n\r\n    event MinTokensBeforeSwapUpdated(uint256 minTokensBeforeSwap);\r\n    event SwapAndLiquifyEnabledUpdated(bool enabled);\r\n    event SwapAndLiquify(\r\n        uint256 tokensSwapped,\r\n        uint256 ethReceived,\r\n        uint256 tokensIntoLiqudity\r\n    );\r\n\r\n    event Paused(address account);\r\n    event Unpaused(address account);\r\n\r\n    modifier lockTheSwap {\r\n        inSwapAndLiquify = true;\r\n        _;\r\n        inSwapAndLiquify = false;\r\n    }\r\n\r\n    modifier whenNotPaused {\r\n        require(!_paused, \"ERC20: paused\");\r\n        _;\r\n    }\r\n\r\n    constructor(address _router, address _wallet) Ownable() {\r\n        bornAtTime = block.timestamp;\r\n\r\n        IUniswapV2Router02 _uniswapV2Router = IUniswapV2Router02(_router);\r\n        // Create a uniswap pair for this new token\r\n        address _uniswapV2Pair = IUniswapV2Factory(_uniswapV2Router.factory())\r\n        .createPair(address(this), _uniswapV2Router.WETH());\r\n\r\n        // set the rest of the contract variables\r\n        uniswapV2Router = _uniswapV2Router;\r\n        _WETH = _uniswapV2Router.WETH();\r\n        uniswapV2Pair = _uniswapV2Pair;\r\n        // transfer ownership to contract\r\n        excludedFromFee[address(this)] = true;\r\n        excludedFromFee[_msgSender()] = true;\r\n        excludedFromFee[address(_uniswapV2Router)] = true;\r\n        excludedFromFee[_uniswapV2Pair] = true;\r\n        // must be added explicitly ...\r\n        holdersRewarded.push(_msgSender());\r\n\r\n        supportWallet = _wallet;\r\n\r\n        _balances[_msgSender()] = _totalSupply;\r\n        emit Transfer(address(0), _msgSender(), _totalSupply);\r\n    }\r\n\r\n    //to recieve ETH from uniswapV2Router when swaping\r\n    receive() external payable {}\r\n\r\n    function burn(address _sender, uint256 _toBeBurned) private {\r\n        uint256 newSupply = _totalSupply - _toBeBurned;\r\n        if (newSupply < minimalSupply) {\r\n            newSupply = minimalSupply;\r\n        }\r\n        uint256 reallyBurned = _totalSupply - newSupply;\r\n        if (reallyBurned <= 0) {\r\n            return;\r\n        }\r\n        _totalSupply = newSupply;\r\n        totalBurned += reallyBurned;\r\n        emit Transfer(_sender, address(0), reallyBurned);\r\n    }\r\n\r\n    function shareRewards(address _sender, uint256 _fee) private {\r\n        rewardTotal += _fee;\r\n        uint256 integer = _totalSupply / DECIMALFACTOR;\r\n        for (uint256 index = 0; index < holdersRewarded.length; index++) {\r\n            address holder = holdersRewarded[index];\r\n            uint256 balance = _balances[holder] / DECIMALFACTOR;\r\n            if (balance == 0) {\r\n                continue;\r\n            }\r\n            uint256 reward = _fee / (integer / balance);\r\n            _balances[holder] += reward;\r\n            emit Transfer(_sender, holder, reward);\r\n        }\r\n    }\r\n\r\n    function takeSupport(address _sender, uint256 _toBeTaken) private {\r\n        _balances[supportWallet] += _toBeTaken;\r\n        totalSupported += _toBeTaken;\r\n        emit Transfer(_sender, supportWallet, _toBeTaken);\r\n    }\r\n\r\n    function setSwapAndLiquifyEnabled(bool _enabled) public onlyOwner {\r\n        swapAndLiquifyEnabled = _enabled;\r\n        emit SwapAndLiquifyEnabledUpdated(_enabled);\r\n    }\r\n\r\n    function excludeFromFee(address _address) public onlyOwner {\r\n        require(!excludedFromFee[_address], \"Panda: already excluded\");\r\n        uint256 len = holdersRewarded.length;\r\n        for (uint256 index = 0; index < len; index++) {\r\n            if (_address == holdersRewarded[index]) {\r\n                holdersRewarded[index] = holdersRewarded[len - 1];\r\n                holdersRewarded.pop();\r\n            }\r\n        }\r\n        excludedFromFee[_address] = true;\r\n    }\r\n\r\n    function includeToFee(address _address) public onlyOwner {\r\n        require(excludedFromFee[_address], \"Panda: already included\");\r\n        excludedFromFee[_address] = false;\r\n        holdersRewarded.push(_address);\r\n    }\r\n\r\n    function pause() public onlyOwner {\r\n        _paused = true;\r\n        emit Paused(msg.sender);\r\n    }\r\n\r\n    function unpause() public onlyOwner {\r\n        _paused = false;\r\n        emit Unpaused(msg.sender);\r\n    }\r\n\r\n    function name() public view returns (string memory) {\r\n        return _name;\r\n    }\r\n\r\n    function symbol() public view returns (string memory) {\r\n        return _symbol;\r\n    }\r\n\r\n    function decimals() public pure returns (uint8) {\r\n        return _decimals;\r\n    }\r\n\r\n    function totalSupply() public view override returns (uint256) {\r\n        return _totalSupply;\r\n    }\r\n\r\n    function balanceOf(address _account)\r\n        public\r\n        view\r\n        override\r\n        returns (uint256)\r\n    {\r\n        return _balances[_account];\r\n    }\r\n\r\n    function transfer(address _recipient, uint256 _amount)\r\n        public\r\n        override\r\n        returns (bool)\r\n    {\r\n        _transfer(_msgSender(), _recipient, _amount);\r\n        return true;\r\n    }\r\n\r\n    function allowance(address _owner, address _spender)\r\n        public\r\n        view\r\n        override\r\n        returns (uint256)\r\n    {\r\n        return _allowances[_owner][_spender];\r\n    }\r\n\r\n    function approve(address _spender, uint256 _amount)\r\n        public\r\n        override\r\n        returns (bool)\r\n    {\r\n        _approve(_msgSender(), _spender, _amount);\r\n        return true;\r\n    }\r\n\r\n    function transferFrom(\r\n        address _sender,\r\n        address _recipient,\r\n        uint256 _amount\r\n    ) public override returns (bool) {\r\n        _transfer(_sender, _recipient, _amount);\r\n\r\n        uint256 currentAllowance = _allowances[_sender][_msgSender()];\r\n        require(\r\n            currentAllowance >= _amount,\r\n            \"ERC20: transfer amount exceeds allowance\"\r\n        );\r\n        _approve(_sender, _msgSender(), currentAllowance - _amount);\r\n\r\n        return true;\r\n    }\r\n\r\n    function increaseAllowance(address spender, uint256 addedValue)\r\n        public\r\n        returns (bool)\r\n    {\r\n        _approve(\r\n            _msgSender(),\r\n            spender,\r\n            _allowances[_msgSender()][spender] + addedValue\r\n        );\r\n        return true;\r\n    }\r\n\r\n    function decreaseAllowance(address _spender, uint256 subtractedValue)\r\n        public\r\n        returns (bool)\r\n    {\r\n        uint256 currentAllowance = _allowances[_msgSender()][_spender];\r\n        require(\r\n            currentAllowance >= subtractedValue,\r\n            \"ERC20: decreased allowance below zero\"\r\n        );\r\n        _approve(_msgSender(), _spender, currentAllowance - subtractedValue);\r\n\r\n        return true;\r\n    }\r\n\r\n    function swapAndLiquify(uint256 contractTokenBalance) private lockTheSwap {\r\n        // split the contract balance into halves\r\n        uint256 half = contractTokenBalance / 2;\r\n        uint256 otherHalf = contractTokenBalance - half;\r\n\r\n        // capture the contract's current ETH balance.\r\n        // this is so that we can capture exactly the amount of ETH that the\r\n        // swap creates, and not make the liquidity event include any ETH that\r\n        // has been manually sent to the contract\r\n        uint256 initialBalance = address(this).balance;\r\n\r\n        // swap tokens for ETH\r\n        swapTokensForEth(half); // <- this breaks the ETH -> HATE swap when swap+liquify is triggered\r\n\r\n        // how much ETH did we just swap into?\r\n        uint256 newBalance = address(this).balance - initialBalance;\r\n\r\n        // add liquidity to uniswap\r\n        addLiquidity(otherHalf, newBalance);\r\n\r\n        emit SwapAndLiquify(half, newBalance, otherHalf);\r\n    }\r\n\r\n    function makePairPath() private view returns (address[] memory) {\r\n        address[] memory path = new address[](2);\r\n        path[0] = address(this);\r\n        path[1] = uniswapV2Router.WETH();\r\n        return path;\r\n    }\r\n\r\n    function swapTokensForEth(uint256 tokenAmount) private {\r\n        address[] memory path = makePairPath();\r\n\r\n        _approve(address(this), address(uniswapV2Router), tokenAmount);\r\n        uniswapV2Router.swapExactTokensForETHSupportingFeeOnTransferTokens(\r\n            tokenAmount,\r\n            0, // accept any amount of ETH\r\n            path,\r\n            address(this),\r\n            block.timestamp\r\n        );\r\n    }\r\n\r\n    function addLiquidity(uint256 tokenAmount, uint256 ethAmount) private {\r\n        // approve token transfer to cover all possible scenarios\r\n        _approve(address(this), address(uniswapV2Router), tokenAmount);\r\n\r\n        // add the liquidity\r\n        uniswapV2Router.addLiquidityETH{value: ethAmount}(\r\n            address(this),\r\n            tokenAmount,\r\n            0, // slippage is unavoidable\r\n            0, // slippage is unavoidable\r\n            owner(),\r\n            block.timestamp\r\n        );\r\n    }\r\n\r\n    // if _sender is a pair (excludedFromFee), then _recipient sells tokens, extra charge _recipient but not a sender\r\n    function _transfer(\r\n        address _sender,\r\n        address _recipient,\r\n        uint256 _amount\r\n    ) internal whenNotPaused {\r\n        require(_sender != address(0), \"ERC20: transfer from the zero address\");\r\n        require(\r\n            _recipient != address(0),\r\n            \"ERC20: transfer to the zero address\"\r\n        );\r\n        require(_amount > 0, \"ERC20: amount must be greater than zero\");\r\n        uint256 senderBalance = _balances[_sender];\r\n        require(\r\n            senderBalance >= _amount,\r\n            \"ERC20: transfer amount exceeds balance\"\r\n        );\r\n        if (_sender != owner() && _recipient != owner()) {\r\n            require(\r\n                _amount <= maxTxAmount,\r\n                \"ERC20: transfer amount exceeds maximum\"\r\n            );\r\n        }\r\n\r\n        uint256 contractTokenBalance = balanceOf(address(this));\r\n        if (contractTokenBalance >= maxTxAmount) {\r\n            // should we ?\r\n            contractTokenBalance = maxTxAmount;\r\n        }\r\n        bool overMinTokenBalance = contractTokenBalance >=\r\n            numTokensSellToAddLiquidity;\r\n        if (\r\n            overMinTokenBalance &&\r\n            !inSwapAndLiquify &&\r\n            _sender != uniswapV2Pair &&\r\n            swapAndLiquifyEnabled\r\n        ) {\r\n            contractTokenBalance = numTokensSellToAddLiquidity;\r\n            swapAndLiquify(contractTokenBalance);\r\n        }\r\n        bool takeFee = true;\r\n        if (excludedFromFee[_sender] && excludedFromFee[_recipient]) {\r\n            takeFee = false;\r\n        }\r\n        if (!takeFee) disableFee();\r\n        _transferWithFee(_sender, _recipient, _amount);\r\n        if (!takeFee) enableFee();\r\n    }\r\n\r\n    function getValues(uint256 _amount)\r\n        private\r\n        view\r\n        returns (\r\n            uint256,\r\n            uint256,\r\n            uint256,\r\n            uint256,\r\n            uint256\r\n        )\r\n    {\r\n        uint256 amountToBurn = (_amount / feeGranularity) * burnFee;\r\n        uint256 amountToSupport = (_amount / feeGranularity) * supportFee;\r\n        uint256 amountToCharge = (_amount / feeGranularity) * taxFee;\r\n        uint256 amountToAddLiquidity = (_amount / feeGranularity) *\r\n            liquidityFee;\r\n        uint256 amountToReceive = _amount -\r\n            amountToBurn -\r\n            amountToSupport -\r\n            amountToCharge -\r\n            amountToAddLiquidity;\r\n        return (\r\n            amountToBurn,\r\n            amountToSupport,\r\n            amountToCharge,\r\n            amountToAddLiquidity,\r\n            amountToReceive\r\n        );\r\n    }\r\n\r\n    // _transferWithFee charges sender and recepient. Any tokens movement are charged to motivate holders hold tokens\r\n    function _transferWithFee(\r\n        address _sender,\r\n        address _recipient,\r\n        uint256 _amount\r\n    ) private {\r\n        (\r\n            uint256 amountToBurn,\r\n            uint256 amountToSupport,\r\n            uint256 amountToCharge,\r\n            uint256 amountToAddLiquidity,\r\n            uint256 amountToReceive\r\n        ) = getValues(_amount);\r\n        // collect fees\r\n        shareRewards(_sender, amountToCharge);\r\n        burn(_sender, amountToBurn);\r\n        takeSupport(_sender, amountToSupport);\r\n\r\n        _balances[address(this)] += amountToAddLiquidity;\r\n        _balances[_sender] -= _amount;\r\n        _balances[_recipient] += amountToReceive;\r\n        if (!excludedFromFee[_recipient]) {\r\n            holdersRewarded.push(_recipient);\r\n        }\r\n        emit Transfer(_sender, _recipient, amountToReceive);\r\n    }\r\n\r\n    function _approve(\r\n        address _owner,\r\n        address _spender,\r\n        uint256 _amount\r\n    ) internal virtual {\r\n        require(_owner != address(0), \"ERC20: approve from the zero address\");\r\n        require(_spender != address(0), \"ERC20: approve to the zero address\");\r\n\r\n        _allowances[_owner][_spender] = _amount;\r\n        emit Approval(_owner, _spender, _amount);\r\n    }\r\n\r\n    function disableFee() private {\r\n        taxFeeOrigin = taxFee;\r\n        burnFeeOrigin = burnFee;\r\n        liquidityFeeOrigin = liquidityFee;\r\n        supportFeeOrigin = supportFeeOrigin;\r\n        taxFee = 0;\r\n        burnFee = 0;\r\n        liquidityFee = 0;\r\n        supportFee = 0;\r\n    }\r\n\r\n    function enableFee() private {\r\n        taxFee = taxFeeOrigin;\r\n        burnFee = burnFeeOrigin;\r\n        liquidityFee = liquidityFeeOrigin;\r\n        supportFee = supportFeeOrigin;\r\n    }\r\n\r\n    function totalHolders() public view returns (uint256) {\r\n        return holdersRewarded.length;\r\n    }\r\n}\r\n",
  "sourcePath": "C:/Users/skyne/Dev/work/crypto/hungrypanda/contracts/test/HungryPandaOld.sol",
  "compiler": {
    "name": "solc",
    "version": "0.8.6+commit.11564f7e.Emscripten.clang"
  },
  "schemaVersion": "3.4.1",
  "updatedAt": "2021-07-10T08:57:15.870Z",
  "devdoc": {
    "kind": "dev",
    "methods": {
      "owner()": {
        "details": "Returns the address of the current owner."
      },
      "renounceOwnership()": {
        "details": "Leaves the contract without owner. It will not be possible to call `onlyOwner` functions anymore. Can only be called by the current owner. NOTE: Renouncing ownership will leave the contract without an owner, thereby removing any functionality that is only available to the owner."
      },
      "totalSupply()": {
        "details": "Returns the amount of tokens in existence."
      },
      "transferOwnership(address)": {
        "details": "Transfers ownership of the contract to a new account (`newOwner`). Can only be called by the current owner."
      }
    },
    "version": 1
  },
  "userdoc": {
    "kind": "user",
    "methods": {},
    "version": 1
  }
}