{
  "contractName": "HungryPanda",
  "abi": [
    {
      "inputs": [
        {
          "internalType": "address",
          "name": "_router",
          "type": "address"
        },
        {
          "internalType": "address",
          "name": "_wallet",
          "type": "address"
        },
        {
          "internalType": "address",
          "name": "_token",
          "type": "address"
        }
      ],
      "stateMutability": "nonpayable",
      "type": "constructor"
    },
    {
      "anonymous": false,
      "inputs": [
        {
          "indexed": true,
          "internalType": "address",
          "name": "owner",
          "type": "address"
        },
        {
          "indexed": true,
          "internalType": "address",
          "name": "spender",
          "type": "address"
        },
        {
          "indexed": false,
          "internalType": "uint256",
          "name": "value",
          "type": "uint256"
        }
      ],
      "name": "Approval",
      "type": "event"
    },
    {
      "anonymous": false,
      "inputs": [
        {
          "indexed": false,
          "internalType": "uint256",
          "name": "minTokensBeforeSwap",
          "type": "uint256"
        }
      ],
      "name": "MinTokensBeforeSwapUpdated",
      "type": "event"
    },
    {
      "anonymous": false,
      "inputs": [
        {
          "indexed": true,
          "internalType": "address",
          "name": "previousOwner",
          "type": "address"
        },
        {
          "indexed": true,
          "internalType": "address",
          "name": "newOwner",
          "type": "address"
        }
      ],
      "name": "OwnershipTransferred",
      "type": "event"
    },
    {
      "anonymous": false,
      "inputs": [
        {
          "indexed": false,
          "internalType": "address",
          "name": "account",
          "type": "address"
        }
      ],
      "name": "Paused",
      "type": "event"
    },
    {
      "anonymous": false,
      "inputs": [
        {
          "indexed": false,
          "internalType": "uint256",
          "name": "tokensSwapped",
          "type": "uint256"
        },
        {
          "indexed": false,
          "internalType": "uint256",
          "name": "ethReceived",
          "type": "uint256"
        },
        {
          "indexed": false,
          "internalType": "uint256",
          "name": "tokensIntoLiqudity",
          "type": "uint256"
        }
      ],
      "name": "SwapAndLiquify",
      "type": "event"
    },
    {
      "anonymous": false,
      "inputs": [
        {
          "indexed": false,
          "internalType": "bool",
          "name": "enabled",
          "type": "bool"
        }
      ],
      "name": "SwapAndLiquifyEnabledUpdated",
      "type": "event"
    },
    {
      "anonymous": false,
      "inputs": [
        {
          "indexed": true,
          "internalType": "address",
          "name": "from",
          "type": "address"
        },
        {
          "indexed": true,
          "internalType": "address",
          "name": "to",
          "type": "address"
        },
        {
          "indexed": false,
          "internalType": "uint256",
          "name": "value",
          "type": "uint256"
        }
      ],
      "name": "Transfer",
      "type": "event"
    },
    {
      "anonymous": false,
      "inputs": [
        {
          "indexed": false,
          "internalType": "address",
          "name": "account",
          "type": "address"
        }
      ],
      "name": "Unpaused",
      "type": "event"
    },
    {
      "inputs": [],
      "name": "_WETH",
      "outputs": [
        {
          "internalType": "address",
          "name": "",
          "type": "address"
        }
      ],
      "stateMutability": "view",
      "type": "function"
    },
    {
      "inputs": [],
      "name": "bornAtTime",
      "outputs": [
        {
          "internalType": "uint256",
          "name": "",
          "type": "uint256"
        }
      ],
      "stateMutability": "view",
      "type": "function"
    },
    {
      "inputs": [],
      "name": "liquidityFee",
      "outputs": [
        {
          "internalType": "uint256",
          "name": "",
          "type": "uint256"
        }
      ],
      "stateMutability": "view",
      "type": "function"
    },
    {
      "inputs": [],
      "name": "liquidityFeeOrigin",
      "outputs": [
        {
          "internalType": "uint256",
          "name": "",
          "type": "uint256"
        }
      ],
      "stateMutability": "view",
      "type": "function"
    },
    {
      "inputs": [],
      "name": "maxTxAmountPercentage",
      "outputs": [
        {
          "internalType": "uint8",
          "name": "",
          "type": "uint8"
        }
      ],
      "stateMutability": "view",
      "type": "function"
    },
    {
      "inputs": [],
      "name": "minimalSupply",
      "outputs": [
        {
          "internalType": "uint256",
          "name": "",
          "type": "uint256"
        }
      ],
      "stateMutability": "view",
      "type": "function"
    },
    {
      "inputs": [],
      "name": "numTokensSellToAddLiquidityPercentage",
      "outputs": [
        {
          "internalType": "uint8",
          "name": "",
          "type": "uint8"
        }
      ],
      "stateMutability": "view",
      "type": "function"
    },
    {
      "inputs": [],
      "name": "owner",
      "outputs": [
        {
          "internalType": "address",
          "name": "",
          "type": "address"
        }
      ],
      "stateMutability": "view",
      "type": "function"
    },
    {
      "inputs": [],
      "name": "percentageGranularity",
      "outputs": [
        {
          "internalType": "uint16",
          "name": "",
          "type": "uint16"
        }
      ],
      "stateMutability": "view",
      "type": "function"
    },
    {
      "inputs": [],
      "name": "renounceOwnership",
      "outputs": [],
      "stateMutability": "nonpayable",
      "type": "function"
    },
    {
      "inputs": [],
      "name": "rewardTotal",
      "outputs": [
        {
          "internalType": "uint256",
          "name": "",
          "type": "uint256"
        }
      ],
      "stateMutability": "view",
      "type": "function"
    },
    {
      "inputs": [],
      "name": "supportFee",
      "outputs": [
        {
          "internalType": "uint256",
          "name": "",
          "type": "uint256"
        }
      ],
      "stateMutability": "view",
      "type": "function"
    },
    {
      "inputs": [],
      "name": "supportFeeOrigin",
      "outputs": [
        {
          "internalType": "uint256",
          "name": "",
          "type": "uint256"
        }
      ],
      "stateMutability": "view",
      "type": "function"
    },
    {
      "inputs": [],
      "name": "supportWallet",
      "outputs": [
        {
          "internalType": "address",
          "name": "",
          "type": "address"
        }
      ],
      "stateMutability": "view",
      "type": "function"
    },
    {
      "inputs": [],
      "name": "swapAndLiquifyEnabled",
      "outputs": [
        {
          "internalType": "bool",
          "name": "",
          "type": "bool"
        }
      ],
      "stateMutability": "view",
      "type": "function"
    },
    {
      "inputs": [],
      "name": "taxFee",
      "outputs": [
        {
          "internalType": "uint256",
          "name": "",
          "type": "uint256"
        }
      ],
      "stateMutability": "view",
      "type": "function"
    },
    {
      "inputs": [],
      "name": "taxFeeOrigin",
      "outputs": [
        {
          "internalType": "uint256",
          "name": "",
          "type": "uint256"
        }
      ],
      "stateMutability": "view",
      "type": "function"
    },
    {
      "inputs": [],
      "name": "totalBurned",
      "outputs": [
        {
          "internalType": "uint256",
          "name": "",
          "type": "uint256"
        }
      ],
      "stateMutability": "view",
      "type": "function"
    },
    {
      "inputs": [],
      "name": "totalReward",
      "outputs": [
        {
          "internalType": "uint256",
          "name": "",
          "type": "uint256"
        }
      ],
      "stateMutability": "view",
      "type": "function"
    },
    {
      "inputs": [],
      "name": "totalSupported",
      "outputs": [
        {
          "internalType": "uint256",
          "name": "",
          "type": "uint256"
        }
      ],
      "stateMutability": "view",
      "type": "function"
    },
    {
      "inputs": [
        {
          "internalType": "address",
          "name": "newOwner",
          "type": "address"
        }
      ],
      "name": "transferOwnership",
      "outputs": [],
      "stateMutability": "nonpayable",
      "type": "function"
    },
    {
      "inputs": [],
      "name": "uniswapV2Pair",
      "outputs": [
        {
          "internalType": "address",
          "name": "",
          "type": "address"
        }
      ],
      "stateMutability": "view",
      "type": "function"
    },
    {
      "inputs": [],
      "name": "uniswapV2Router",
      "outputs": [
        {
          "internalType": "contract IUniswapV2Router02",
          "name": "",
          "type": "address"
        }
      ],
      "stateMutability": "view",
      "type": "function"
    },
    {
      "stateMutability": "payable",
      "type": "receive"
    },
    {
      "inputs": [
        {
          "internalType": "uint256",
          "name": "_size",
          "type": "uint256"
        }
      ],
      "name": "migrateOldToken",
      "outputs": [
        {
          "internalType": "bool",
          "name": "",
          "type": "bool"
        }
      ],
      "stateMutability": "nonpayable",
      "type": "function"
    },
    {
      "inputs": [],
      "name": "name",
      "outputs": [
        {
          "internalType": "string",
          "name": "",
          "type": "string"
        }
      ],
      "stateMutability": "view",
      "type": "function"
    },
    {
      "inputs": [],
      "name": "symbol",
      "outputs": [
        {
          "internalType": "string",
          "name": "",
          "type": "string"
        }
      ],
      "stateMutability": "view",
      "type": "function"
    },
    {
      "inputs": [],
      "name": "decimals",
      "outputs": [
        {
          "internalType": "uint8",
          "name": "",
          "type": "uint8"
        }
      ],
      "stateMutability": "pure",
      "type": "function"
    },
    {
      "inputs": [],
      "name": "totalSupply",
      "outputs": [
        {
          "internalType": "uint256",
          "name": "",
          "type": "uint256"
        }
      ],
      "stateMutability": "view",
      "type": "function"
    },
    {
      "inputs": [
        {
          "internalType": "address",
          "name": "_account",
          "type": "address"
        }
      ],
      "name": "balanceOf",
      "outputs": [
        {
          "internalType": "uint256",
          "name": "",
          "type": "uint256"
        }
      ],
      "stateMutability": "view",
      "type": "function"
    },
    {
      "inputs": [
        {
          "internalType": "address",
          "name": "_recipient",
          "type": "address"
        },
        {
          "internalType": "uint256",
          "name": "_amount",
          "type": "uint256"
        }
      ],
      "name": "transfer",
      "outputs": [
        {
          "internalType": "bool",
          "name": "",
          "type": "bool"
        }
      ],
      "stateMutability": "nonpayable",
      "type": "function"
    },
    {
      "inputs": [
        {
          "internalType": "address",
          "name": "_owner",
          "type": "address"
        },
        {
          "internalType": "address",
          "name": "_spender",
          "type": "address"
        }
      ],
      "name": "allowance",
      "outputs": [
        {
          "internalType": "uint256",
          "name": "",
          "type": "uint256"
        }
      ],
      "stateMutability": "view",
      "type": "function"
    },
    {
      "inputs": [
        {
          "internalType": "address",
          "name": "_spender",
          "type": "address"
        },
        {
          "internalType": "uint256",
          "name": "_amount",
          "type": "uint256"
        }
      ],
      "name": "approve",
      "outputs": [
        {
          "internalType": "bool",
          "name": "",
          "type": "bool"
        }
      ],
      "stateMutability": "nonpayable",
      "type": "function"
    },
    {
      "inputs": [
        {
          "internalType": "address",
          "name": "_sender",
          "type": "address"
        },
        {
          "internalType": "address",
          "name": "_recipient",
          "type": "address"
        },
        {
          "internalType": "uint256",
          "name": "_amount",
          "type": "uint256"
        }
      ],
      "name": "transferFrom",
      "outputs": [
        {
          "internalType": "bool",
          "name": "",
          "type": "bool"
        }
      ],
      "stateMutability": "nonpayable",
      "type": "function"
    },
    {
      "inputs": [
        {
          "internalType": "address",
          "name": "spender",
          "type": "address"
        },
        {
          "internalType": "uint256",
          "name": "addedValue",
          "type": "uint256"
        }
      ],
      "name": "increaseAllowance",
      "outputs": [
        {
          "internalType": "bool",
          "name": "",
          "type": "bool"
        }
      ],
      "stateMutability": "nonpayable",
      "type": "function"
    },
    {
      "inputs": [
        {
          "internalType": "address",
          "name": "_spender",
          "type": "address"
        },
        {
          "internalType": "uint256",
          "name": "subtractedValue",
          "type": "uint256"
        }
      ],
      "name": "decreaseAllowance",
      "outputs": [
        {
          "internalType": "bool",
          "name": "",
          "type": "bool"
        }
      ],
      "stateMutability": "nonpayable",
      "type": "function"
    },
    {
      "inputs": [
        {
          "internalType": "uint8",
          "name": "_percentage",
          "type": "uint8"
        }
      ],
      "name": "setMaxTxAmountPercent",
      "outputs": [],
      "stateMutability": "nonpayable",
      "type": "function"
    },
    {
      "inputs": [
        {
          "internalType": "uint8",
          "name": "_percentage",
          "type": "uint8"
        }
      ],
      "name": "setNumTokensSellToAddLiquidity",
      "outputs": [],
      "stateMutability": "nonpayable",
      "type": "function"
    },
    {
      "inputs": [
        {
          "internalType": "bool",
          "name": "_enabled",
          "type": "bool"
        }
      ],
      "name": "setSwapAndLiquifyEnabled",
      "outputs": [],
      "stateMutability": "nonpayable",
      "type": "function"
    },
    {
      "inputs": [
        {
          "internalType": "address",
          "name": "_address",
          "type": "address"
        }
      ],
      "name": "excludeFromFee",
      "outputs": [],
      "stateMutability": "nonpayable",
      "type": "function"
    },
    {
      "inputs": [
        {
          "internalType": "address",
          "name": "_address",
          "type": "address"
        }
      ],
      "name": "includeToFee",
      "outputs": [],
      "stateMutability": "nonpayable",
      "type": "function"
    },
    {
      "inputs": [],
      "name": "pause",
      "outputs": [],
      "stateMutability": "nonpayable",
      "type": "function"
    },
    {
      "inputs": [],
      "name": "unpause",
      "outputs": [],
      "stateMutability": "nonpayable",
      "type": "function"
    }
  ],
  "bytecode": "0x6101206040526012600a62000015919062000b25565b67016345785d8a00006200002a919062000c62565b6005556040518060400160405280600b81526020017f48756e67727950616e6461000000000000000000000000000000000000000000815250600690805190602001906200007a929190620008c0565b506040518060400160405280600381526020017f484750000000000000000000000000000000000000000000000000000000000081525060079080519060200190620000c8929190620008c0565b506064600860006101000a81548160ff021916908360ff1602179055506001600860016101000a81548160ff021916908360ff16021790555060c86009556101f4600a5560c8600b55600954600c55600a54600d55600b54600e556000600f55600060105560006011556000601260006101000a81548160ff0219169083151502179055506000601260016101000a81548160ff0219169083151502179055506001601260026101000a81548160ff0219169083151502179055506000601260036101000a81548160ff021916908315150217905550348015620001ab57600080fd5b5060405162004f0638038062004f068339818101604052810190620001d19190620009d0565b6000620001e3620008b860201b60201c565b9050806000806101000a81548173ffffffffffffffffffffffffffffffffffffffff021916908373ffffffffffffffffffffffffffffffffffffffff1602179055508073ffffffffffffffffffffffffffffffffffffffff16600073ffffffffffffffffffffffffffffffffffffffff167f8be0079c531659141344cd1fd0a4f28419497f9722a3daafe3b4186f6b6457e060405160405180910390a3504260a08181525050600083905060008173ffffffffffffffffffffffffffffffffffffffff1663c45a01556040518163ffffffff1660e01b815260040160206040518083038186803b158015620002d757600080fd5b505afa158015620002ec573d6000803e3d6000fd5b505050506040513d601f19601f820116820180604052508101906200031291906200099e565b73ffffffffffffffffffffffffffffffffffffffff1663c9c65396308473ffffffffffffffffffffffffffffffffffffffff1663ad5c46486040518163ffffffff1660e01b815260040160206040518083038186803b1580156200037557600080fd5b505afa1580156200038a573d6000803e3d6000fd5b505050506040513d601f19601f82011682018060405250810190620003b091906200099e565b6040518363ffffffff1660e01b8152600401620003cf92919062000a80565b602060405180830381600087803b158015620003ea57600080fd5b505af1158015620003ff573d6000803e3d6000fd5b505050506040513d601f19601f820116820180604052508101906200042591906200099e565b90508173ffffffffffffffffffffffffffffffffffffffff1660c08173ffffffffffffffffffffffffffffffffffffffff1660601b815250508173ffffffffffffffffffffffffffffffffffffffff1663ad5c46486040518163ffffffff1660e01b815260040160206040518083038186803b158015620004a557600080fd5b505afa158015620004ba573d6000803e3d6000fd5b505050506040513d601f19601f82011682018060405250810190620004e091906200099e565b73ffffffffffffffffffffffffffffffffffffffff166101008173ffffffffffffffffffffffffffffffffffffffff1660601b815250508073ffffffffffffffffffffffffffffffffffffffff1660e08173ffffffffffffffffffffffffffffffffffffffff1660601b815250506001600460003073ffffffffffffffffffffffffffffffffffffffff1673ffffffffffffffffffffffffffffffffffffffff16815260200190815260200160002060006101000a81548160ff021916908315150217905550600160046000620005bc620008b860201b60201c565b73ffffffffffffffffffffffffffffffffffffffff1673ffffffffffffffffffffffffffffffffffffffff16815260200190815260200160002060006101000a81548160ff0219169083151502179055506001600460008473ffffffffffffffffffffffffffffffffffffffff1673ffffffffffffffffffffffffffffffffffffffff16815260200190815260200160002060006101000a81548160ff0219169083151502179055506001600460008373ffffffffffffffffffffffffffffffffffffffff1673ffffffffffffffffffffffffffffffffffffffff16815260200190815260200160002060006101000a81548160ff0219169083151502179055508373ffffffffffffffffffffffffffffffffffffffff1660808173ffffffffffffffffffffffffffffffffffffffff1660601b8152505082601260046101000a81548173ffffffffffffffffffffffffffffffffffffffff021916908373ffffffffffffffffffffffffffffffffffffffff160217905550601260049054906101000a900473ffffffffffffffffffffffffffffffffffffffff1673ffffffffffffffffffffffffffffffffffffffff166318160ddd6040518163ffffffff1660e01b815260040160206040518083038186803b1580156200079e57600080fd5b505afa158015620007b3573d6000803e3d6000fd5b505050506040513d601f19601f82011682018060405250810190620007d9919062000a2c565b60058190555060055460016000620007f6620008b860201b60201c565b73ffffffffffffffffffffffffffffffffffffffff1673ffffffffffffffffffffffffffffffffffffffff1681526020019081526020016000208190555062000844620008b860201b60201c565b73ffffffffffffffffffffffffffffffffffffffff16600073ffffffffffffffffffffffffffffffffffffffff167fddf252ad1be2c89b69c2b068fc378daa952ba7f163c4a11628f55a4df523b3ef600554604051620008a5919062000aad565b60405180910390a3505050505062000de8565b600033905090565b828054620008ce9062000d0e565b90600052602060002090601f016020900481019282620008f257600085556200093e565b82601f106200090d57805160ff19168380011785556200093e565b828001600101855582156200093e579182015b828111156200093d57825182559160200191906001019062000920565b5b5090506200094d919062000951565b5090565b5b808211156200096c57600081600090555060010162000952565b5090565b600081519050620009818162000db4565b92915050565b600081519050620009988162000dce565b92915050565b600060208284031215620009b757620009b662000da2565b5b6000620009c78482850162000970565b91505092915050565b600080600060608486031215620009ec57620009eb62000da2565b5b6000620009fc8682870162000970565b935050602062000a0f8682870162000970565b925050604062000a228682870162000970565b9150509250925092565b60006020828403121562000a455762000a4462000da2565b5b600062000a558482850162000987565b91505092915050565b62000a698162000cc3565b82525050565b62000a7a8162000cf7565b82525050565b600060408201905062000a97600083018562000a5e565b62000aa6602083018462000a5e565b9392505050565b600060208201905062000ac4600083018462000a6f565b92915050565b6000808291508390505b600185111562000b1c5780860481111562000af45762000af362000d44565b5b600185161562000b045780820291505b808102905062000b148562000da7565b945062000ad4565b94509492505050565b600062000b328262000cf7565b915062000b3f8362000d01565b925062000b6e7fffffffffffffffffffffffffffffffffffffffffffffffffffffffffffffffff848462000b76565b905092915050565b60008262000b88576001905062000c5b565b8162000b98576000905062000c5b565b816001811462000bb1576002811462000bbc5762000bf2565b600191505062000c5b565b60ff84111562000bd15762000bd062000d44565b5b8360020a91508482111562000beb5762000bea62000d44565b5b5062000c5b565b5060208310610133831016604e8410600b841016171562000c2c5782820a90508381111562000c265762000c2562000d44565b5b62000c5b565b62000c3b848484600162000aca565b9250905081840481111562000c555762000c5462000d44565b5b81810290505b9392505050565b600062000c6f8262000cf7565b915062000c7c8362000cf7565b9250817fffffffffffffffffffffffffffffffffffffffffffffffffffffffffffffffff048311821515161562000cb85762000cb762000d44565b5b828202905092915050565b600062000cd08262000cd7565b9050919050565b600073ffffffffffffffffffffffffffffffffffffffff82169050919050565b6000819050919050565b600060ff82169050919050565b6000600282049050600182168062000d2757607f821691505b6020821081141562000d3e5762000d3d62000d73565b5b50919050565b7f4e487b7100000000000000000000000000000000000000000000000000000000600052601160045260246000fd5b7f4e487b7100000000000000000000000000000000000000000000000000000000600052602260045260246000fd5b600080fd5b60008160011c9050919050565b62000dbf8162000cc3565b811462000dcb57600080fd5b50565b62000dd98162000cf7565b811462000de557600080fd5b50565b60805160601c60a05160c05160601c60e05160601c6101005160601c61409562000e7160003960006118e1015260008181610ea00152611f6d015260008181610a7c015281816128a7015281816128ce0152818161296a015281816129910152612c6a015260006112d80152600081816115d401528181612ab80152612b4201526140956000f3fe6080604052600436106102555760003560e01c80638d00026411610139578063b60eaaaa116100b6578063dcd5775b1161007a578063dcd5775b146108a5578063dd62ed3e146108d0578063e0af36161461090d578063f2fde38b14610938578063f420a42014610961578063f959680b1461098c5761025c565b8063b60eaaaa146107d2578063c49b9a80146107fd578063ca302ffa14610826578063cf0848f714610851578063d89135cd1461087a5761025c565b8063a071dcf4116100fd578063a071dcf4146106d9578063a457c2d714610704578063a9059cbb14610741578063b0dc2d1c1461077e578063b3fb7369146107a75761025c565b80638d000264146106025780638da5cb5b1461062d57806395d89b411461065857806398118cb4146106835780639e492831146106ae5761025c565b8063437823ec116101d2578063602def2c11610196578063602def2c1461050657806364fdb4691461054357806370a082311461056c578063715018a6146105a9578063750142e6146105c05780638456cb59146105eb5761025c565b8063437823ec1461043157806346678d591461045a57806349bd5a5e146104855780634a74bb02146104b057806354b7fd7c146104db5761025c565b806323b872dd1161021957806323b872dd1461034a578063313ce5671461038757806339509351146103b25780633a4e0b97146103ef5780633f4ba83a1461041a5761025c565b806306fdde0314610261578063095ea7b31461028c5780630adeb017146102c95780631694505e146102f457806318160ddd1461031f5761025c565b3661025c57005b600080fd5b34801561026d57600080fd5b506102766109b7565b60405161028391906133c3565b60405180910390f35b34801561029857600080fd5b506102b360048036038101906102ae9190612ec6565b610a49565b6040516102c0919061338d565b60405180910390f35b3480156102d557600080fd5b506102de610a67565b6040516102eb91906136ac565b60405180910390f35b34801561030057600080fd5b50610309610a7a565b60405161031691906133a8565b60405180910390f35b34801561032b57600080fd5b50610334610a9e565b6040516103419190613600565b60405180910390f35b34801561035657600080fd5b50610371600480360381019061036c9190612e73565b610aa8565b60405161037e919061338d565b60405180910390f35b34801561039357600080fd5b5061039c610ba9565b6040516103a991906136ac565b60405180910390f35b3480156103be57600080fd5b506103d960048036038101906103d49190612ec6565b610bb2565b6040516103e6919061338d565b60405180910390f35b3480156103fb57600080fd5b50610404610c5e565b6040516104119190613600565b60405180910390f35b34801561042657600080fd5b5061042f610c64565b005b34801561043d57600080fd5b5061045860048036038101906104539190612dd9565b610d34565b005b34801561046657600080fd5b5061046f610e98565b60405161047c91906135e5565b60405180910390f35b34801561049157600080fd5b5061049a610e9e565b6040516104a79190613311565b60405180910390f35b3480156104bc57600080fd5b506104c5610ec2565b6040516104d2919061338d565b60405180910390f35b3480156104e757600080fd5b506104f0610ed5565b6040516104fd9190613600565b60405180910390f35b34801561051257600080fd5b5061052d60048036038101906105289190612f33565b610edb565b60405161053a919061338d565b60405180910390f35b34801561054f57600080fd5b5061056a60048036038101906105659190612f8d565b610fb9565b005b34801561057857600080fd5b50610593600480360381019061058e9190612dd9565b61109f565b6040516105a09190613600565b60405180910390f35b3480156105b557600080fd5b506105be6110c6565b005b3480156105cc57600080fd5b506105d5611200565b6040516105e29190613600565b60405180910390f35b3480156105f757600080fd5b50610600611206565b005b34801561060e57600080fd5b506106176112d6565b6040516106249190613600565b60405180910390f35b34801561063957600080fd5b506106426112fa565b60405161064f9190613311565b60405180910390f35b34801561066457600080fd5b5061066d611323565b60405161067a91906133c3565b60405180910390f35b34801561068f57600080fd5b506106986113b5565b6040516106a59190613600565b60405180910390f35b3480156106ba57600080fd5b506106c36113bb565b6040516106d091906136ac565b60405180910390f35b3480156106e557600080fd5b506106ee6113ce565b6040516106fb9190613600565b60405180910390f35b34801561071057600080fd5b5061072b60048036038101906107269190612ec6565b6113d4565b604051610738919061338d565b60405180910390f35b34801561074d57600080fd5b5061076860048036038101906107639190612ec6565b6114c8565b604051610775919061338d565b60405180910390f35b34801561078a57600080fd5b506107a560048036038101906107a09190612f8d565b6114e6565b005b3480156107b357600080fd5b506107bc6115cc565b6040516107c99190613600565b60405180910390f35b3480156107de57600080fd5b506107e76115d2565b6040516107f49190613311565b60405180910390f35b34801561080957600080fd5b50610824600480360381019061081f9190612f06565b6115f6565b005b34801561083257600080fd5b5061083b6116c6565b6040516108489190613600565b60405180910390f35b34801561085d57600080fd5b5061087860048036038101906108739190612dd9565b6116cc565b005b34801561088657600080fd5b5061088f61182f565b60405161089c9190613600565b60405180910390f35b3480156108b157600080fd5b506108ba611835565b6040516108c79190613600565b60405180910390f35b3480156108dc57600080fd5b506108f760048036038101906108f29190612e33565b611858565b6040516109049190613600565b60405180910390f35b34801561091957600080fd5b506109226118df565b60405161092f9190613311565b60405180910390f35b34801561094457600080fd5b5061095f600480360381019061095a9190612dd9565b611903565b005b34801561096d57600080fd5b50610976611aac565b6040516109839190613600565b60405180910390f35b34801561099857600080fd5b506109a1611ab2565b6040516109ae9190613600565b60405180910390f35b6060600680546109c690613a6e565b80601f01602080910402602001604051908101604052809291908181526020018280546109f290613a6e565b8015610a3f5780601f10610a1457610100808354040283529160200191610a3f565b820191906000526020600020905b815481529060010190602001808311610a2257829003601f168201915b5050505050905090565b6000610a5d610a56611ab8565b8484611ac0565b6001905092915050565b600860009054906101000a900460ff1681565b7f000000000000000000000000000000000000000000000000000000000000000081565b6000600554905090565b6000610ab5848484611c8b565b6000600260008673ffffffffffffffffffffffffffffffffffffffff1673ffffffffffffffffffffffffffffffffffffffff1681526020019081526020016000206000610b00611ab8565b73ffffffffffffffffffffffffffffffffffffffff1673ffffffffffffffffffffffffffffffffffffffff16815260200190815260200160002054905082811015610b80576040517f08c379a0000000000000000000000000000000000000000000000000000000008152600401610b77906134e5565b60405180910390fd5b610b9d85610b8c611ab8565b8584610b98919061396e565b611ac0565b60019150509392505050565b60006012905090565b6000610c54610bbf611ab8565b848460026000610bcd611ab8565b73ffffffffffffffffffffffffffffffffffffffff1673ffffffffffffffffffffffffffffffffffffffff16815260200190815260200160002060008873ffffffffffffffffffffffffffffffffffffffff1673ffffffffffffffffffffffffffffffffffffffff16815260200190815260200160002054610c4f919061371c565b611ac0565b6001905092915050565b600e5481565b610c6c611ab8565b73ffffffffffffffffffffffffffffffffffffffff16610c8a6112fa565b73ffffffffffffffffffffffffffffffffffffffff1614610ce0576040517f08c379a0000000000000000000000000000000000000000000000000000000008152600401610cd790613505565b60405180910390fd5b6000601260036101000a81548160ff0219169083151502179055507f5db9ee0a495bf2e6ff9c91a7834c1ba4fdd244a5e8aa4e537bd38aeae4b073aa33604051610d2a9190613311565b60405180910390a1565b610d3c611ab8565b73ffffffffffffffffffffffffffffffffffffffff16610d5a6112fa565b73ffffffffffffffffffffffffffffffffffffffff1614610db0576040517f08c379a0000000000000000000000000000000000000000000000000000000008152600401610da790613505565b60405180910390fd5b600460008273ffffffffffffffffffffffffffffffffffffffff1673ffffffffffffffffffffffffffffffffffffffff16815260200190815260200160002060009054906101000a900460ff1615610e3d576040517f08c379a0000000000000000000000000000000000000000000000000000000008152600401610e34906134a5565b60405180910390fd5b6001600460008373ffffffffffffffffffffffffffffffffffffffff1673ffffffffffffffffffffffffffffffffffffffff16815260200190815260200160002060006101000a81548160ff02191690831515021790555050565b61271081565b7f000000000000000000000000000000000000000000000000000000000000000081565b601260029054906101000a900460ff1681565b600d5481565b6000610ee5611ab8565b73ffffffffffffffffffffffffffffffffffffffff16610f036112fa565b73ffffffffffffffffffffffffffffffffffffffff1614610f59576040517f08c379a0000000000000000000000000000000000000000000000000000000008152600401610f5090613505565b60405180910390fd5b601260019054906101000a900460ff1615610fa9576040517f08c379a0000000000000000000000000000000000000000000000000000000008152600401610fa0906135a5565b60405180910390fd5b610fb2826120c9565b9050919050565b610fc1611ab8565b73ffffffffffffffffffffffffffffffffffffffff16610fdf6112fa565b73ffffffffffffffffffffffffffffffffffffffff1614611035576040517f08c379a000000000000000000000000000000000000000000000000000000000815260040161102c90613505565b60405180910390fd5b61271061ffff168160ff161115611081576040517f08c379a000000000000000000000000000000000000000000000000000000000815260040161107890613485565b60405180910390fd5b80600860016101000a81548160ff021916908360ff16021790555050565b60008060006110ad8461240e565b9150915080826110bd919061371c565b92505050919050565b6110ce611ab8565b73ffffffffffffffffffffffffffffffffffffffff166110ec6112fa565b73ffffffffffffffffffffffffffffffffffffffff1614611142576040517f08c379a000000000000000000000000000000000000000000000000000000000815260040161113990613505565b60405180910390fd5b600073ffffffffffffffffffffffffffffffffffffffff1660008054906101000a900473ffffffffffffffffffffffffffffffffffffffff1673ffffffffffffffffffffffffffffffffffffffff167f8be0079c531659141344cd1fd0a4f28419497f9722a3daafe3b4186f6b6457e060405160405180910390a360008060006101000a81548173ffffffffffffffffffffffffffffffffffffffff021916908373ffffffffffffffffffffffffffffffffffffffff160217905550565b60035481565b61120e611ab8565b73ffffffffffffffffffffffffffffffffffffffff1661122c6112fa565b73ffffffffffffffffffffffffffffffffffffffff1614611282576040517f08c379a000000000000000000000000000000000000000000000000000000000815260040161127990613505565b60405180910390fd5b6001601260036101000a81548160ff0219169083151502179055507f62e78cea01bee320cd4e420270b5ea74000d11b0c9f74754ebdbfc544b05a258336040516112cc9190613311565b60405180910390a1565b7f000000000000000000000000000000000000000000000000000000000000000081565b60008060009054906101000a900473ffffffffffffffffffffffffffffffffffffffff16905090565b60606007805461133290613a6e565b80601f016020809104026020016040519081016040528092919081815260200182805461135e90613a6e565b80156113ab5780601f10611380576101008083540402835291602001916113ab565b820191906000526020600020905b81548152906001019060200180831161138e57829003601f168201915b5050505050905090565b600a5481565b600860019054906101000a900460ff1681565b60095481565b600080600260006113e3611ab8565b73ffffffffffffffffffffffffffffffffffffffff1673ffffffffffffffffffffffffffffffffffffffff16815260200190815260200160002060008573ffffffffffffffffffffffffffffffffffffffff1673ffffffffffffffffffffffffffffffffffffffff168152602001908152602001600020549050828110156114a0576040517f08c379a0000000000000000000000000000000000000000000000000000000008152600401611497906135c5565b60405180910390fd5b6114bd6114ab611ab8565b8585846114b8919061396e565b611ac0565b600191505092915050565b60006114dc6114d5611ab8565b8484611c8b565b6001905092915050565b6114ee611ab8565b73ffffffffffffffffffffffffffffffffffffffff1661150c6112fa565b73ffffffffffffffffffffffffffffffffffffffff1614611562576040517f08c379a000000000000000000000000000000000000000000000000000000000815260040161155990613505565b60405180910390fd5b61271061ffff168160ff1611156115ae576040517f08c379a00000000000000000000000000000000000000000000000000000000081526004016115a590613485565b60405180910390fd5b80600860006101000a81548160ff021916908360ff16021790555050565b600c5481565b7f000000000000000000000000000000000000000000000000000000000000000081565b6115fe611ab8565b73ffffffffffffffffffffffffffffffffffffffff1661161c6112fa565b73ffffffffffffffffffffffffffffffffffffffff1614611672576040517f08c379a000000000000000000000000000000000000000000000000000000000815260040161166990613505565b60405180910390fd5b80601260026101000a81548160ff0219169083151502179055507f53726dfcaf90650aa7eb35524f4d3220f07413c8d6cb404cc8c18bf5591bc159816040516116bb919061338d565b60405180910390a150565b600b5481565b6116d4611ab8565b73ffffffffffffffffffffffffffffffffffffffff166116f26112fa565b73ffffffffffffffffffffffffffffffffffffffff1614611748576040517f08c379a000000000000000000000000000000000000000000000000000000000815260040161173f90613505565b60405180910390fd5b600460008273ffffffffffffffffffffffffffffffffffffffff1673ffffffffffffffffffffffffffffffffffffffff16815260200190815260200160002060009054906101000a900460ff166117d4576040517f08c379a00000000000000000000000000000000000000000000000000000000081526004016117cb90613545565b60405180910390fd5b6000600460008373ffffffffffffffffffffffffffffffffffffffff1673ffffffffffffffffffffffffffffffffffffffff16815260200190815260200160002060006101000a81548160ff02191690831515021790555050565b60115481565b6012600a61184391906137f6565b668e1bc9bf0400006118559190613914565b81565b6000600260008473ffffffffffffffffffffffffffffffffffffffff1673ffffffffffffffffffffffffffffffffffffffff16815260200190815260200160002060008373ffffffffffffffffffffffffffffffffffffffff1673ffffffffffffffffffffffffffffffffffffffff16815260200190815260200160002054905092915050565b7f000000000000000000000000000000000000000000000000000000000000000081565b61190b611ab8565b73ffffffffffffffffffffffffffffffffffffffff166119296112fa565b73ffffffffffffffffffffffffffffffffffffffff161461197f576040517f08c379a000000000000000000000000000000000000000000000000000000000815260040161197690613505565b60405180910390fd5b600073ffffffffffffffffffffffffffffffffffffffff168173ffffffffffffffffffffffffffffffffffffffff1614156119ef576040517f08c379a00000000000000000000000000000000000000000000000000000000081526004016119e690613405565b60405180910390fd5b8073ffffffffffffffffffffffffffffffffffffffff1660008054906101000a900473ffffffffffffffffffffffffffffffffffffffff1673ffffffffffffffffffffffffffffffffffffffff167f8be0079c531659141344cd1fd0a4f28419497f9722a3daafe3b4186f6b6457e060405160405180910390a3806000806101000a81548173ffffffffffffffffffffffffffffffffffffffff021916908373ffffffffffffffffffffffffffffffffffffffff16021790555050565b60105481565b600f5481565b600033905090565b600073ffffffffffffffffffffffffffffffffffffffff168373ffffffffffffffffffffffffffffffffffffffff161415611b30576040517f08c379a0000000000000000000000000000000000000000000000000000000008152600401611b2790613585565b60405180910390fd5b600073ffffffffffffffffffffffffffffffffffffffff168273ffffffffffffffffffffffffffffffffffffffff161415611ba0576040517f08c379a0000000000000000000000000000000000000000000000000000000008152600401611b9790613425565b60405180910390fd5b80600260008573ffffffffffffffffffffffffffffffffffffffff1673ffffffffffffffffffffffffffffffffffffffff16815260200190815260200160002060008473ffffffffffffffffffffffffffffffffffffffff1673ffffffffffffffffffffffffffffffffffffffff168152602001908152602001600020819055508173ffffffffffffffffffffffffffffffffffffffff168373ffffffffffffffffffffffffffffffffffffffff167f8c5be1e5ebec7d5bd14f71427d1e84f3dd0314c0f7b2291e5b200ac8c7c3b92583604051611c7e9190613600565b60405180910390a3505050565b601260039054906101000a900460ff1615611cdb576040517f08c379a0000000000000000000000000000000000000000000000000000000008152600401611cd290613465565b60405180910390fd5b600073ffffffffffffffffffffffffffffffffffffffff168373ffffffffffffffffffffffffffffffffffffffff161415611d4b576040517f08c379a0000000000000000000000000000000000000000000000000000000008152600401611d4290613565565b60405180910390fd5b600073ffffffffffffffffffffffffffffffffffffffff168273ffffffffffffffffffffffffffffffffffffffff161415611dbb576040517f08c379a0000000000000000000000000000000000000000000000000000000008152600401611db2906133e5565b60405180910390fd5b60008111611dfe576040517f08c379a0000000000000000000000000000000000000000000000000000000008152600401611df590613525565b60405180910390fd5b6000611e086124af565b9050611e126112fa565b73ffffffffffffffffffffffffffffffffffffffff168473ffffffffffffffffffffffffffffffffffffffff1614158015611e805750611e506112fa565b73ffffffffffffffffffffffffffffffffffffffff168373ffffffffffffffffffffffffffffffffffffffff1614155b15611ec95780821115611ec8576040517f08c379a0000000000000000000000000000000000000000000000000000000008152600401611ebf906134c5565b60405180910390fd5b5b81611ed38561109f565b1015611f14576040517f08c379a0000000000000000000000000000000000000000000000000000000008152600401611f0b90613445565b60405180910390fd5b611f1e84836124e7565b6000611f293061109f565b9050818110611f36578190505b6000611f4061256d565b90506000818310159050808015611f645750601260009054906101000a900460ff16155b8015611fbc57507f000000000000000000000000000000000000000000000000000000000000000073ffffffffffffffffffffffffffffffffffffffff168773ffffffffffffffffffffffffffffffffffffffff1614155b8015611fd45750601260029054906101000a900460ff165b15611fe657819250611fe5836125a5565b5b600060019050600460008973ffffffffffffffffffffffffffffffffffffffff1673ffffffffffffffffffffffffffffffffffffffff16815260200190815260200160002060009054906101000a900460ff16801561208e5750600460008873ffffffffffffffffffffffffffffffffffffffff1673ffffffffffffffffffffffffffffffffffffffff16815260200190815260200160002060009054906101000a900460ff165b1561209857600090505b806120a6576120a5612666565b5b6120b188888861269b565b806120bf576120be612812565b5b5050505050505050565b60006001601260016101000a81548160ff0219169083151502179055506000826013546120f6919061371c565b90506000601260049054906101000a900473ffffffffffffffffffffffffffffffffffffffff1673ffffffffffffffffffffffffffffffffffffffff166353d74fdf6040518163ffffffff1660e01b815260040160206040518083038186803b15801561216257600080fd5b505afa158015612176573d6000803e3d6000fd5b505050506040513d601f19601f8201168201806040525081019061219a9190612f60565b9050808211156121a8578091505b600060135490505b828110156123cc576000601260049054906101000a900473ffffffffffffffffffffffffffffffffffffffff1673ffffffffffffffffffffffffffffffffffffffff1663dd6e7a86836040518263ffffffff1660e01b81526004016122159190613600565b60206040518083038186803b15801561222d57600080fd5b505afa158015612241573d6000803e3d6000fd5b505050506040513d601f19601f820116820180604052508101906122659190612e06565b90506000601260049054906101000a900473ffffffffffffffffffffffffffffffffffffffff1673ffffffffffffffffffffffffffffffffffffffff166370a08231836040518263ffffffff1660e01b81526004016122c49190613311565b60206040518083038186803b1580156122dc57600080fd5b505afa1580156122f0573d6000803e3d6000fd5b505050506040513d601f19601f820116820180604052508101906123149190612f60565b905080600160008473ffffffffffffffffffffffffffffffffffffffff1673ffffffffffffffffffffffffffffffffffffffff168152602001908152602001600020819055508060016000612367611ab8565b73ffffffffffffffffffffffffffffffffffffffff1673ffffffffffffffffffffffffffffffffffffffff16815260200190815260200160002060008282546123b0919061396e565b92505081905550505080806123c490613aa0565b9150506121b0565b50600081856013546123de919061371c565b119050826013819055508093505050506000601260016101000a81548160ff021916908315150217905550919050565b6000806000600160008573ffffffffffffffffffffffffffffffffffffffff1673ffffffffffffffffffffffffffffffffffffffff168152602001908152602001600020549050600081141561246b5760008092509250506124aa565b60008160055461247b9190613772565b90506000811415612494578160009350935050506124aa565b81816003546124a39190613772565b9350935050505b915091565b6000600860009054906101000a900460ff1660ff1661271061ffff166005546124d89190613772565b6124e29190613914565b905090565b6000806124f4848461282f565b9150915081600160008673ffffffffffffffffffffffffffffffffffffffff1673ffffffffffffffffffffffffffffffffffffffff1681526020019081526020016000206000828254612547919061396e565b9250508190555080600f6000828254612560919061396e565b9250508190555050505050565b6000600860019054906101000a900460ff1660ff1661271061ffff166005546125969190613772565b6125a09190613914565b905090565b6001601260006101000a81548160ff02191690831515021790555060006002826125cf9190613772565b9050600081836125df919061396e565b905060004790506125ef83612895565b600081476125fd919061396e565b90506126098382612964565b7f17bbfb9a6069321b6ded73bd96327c9e6b7212a5cd51ff219cd61370acafb56184828560405161263c93929190613675565b60405180910390a1505050506000601260006101000a81548160ff02191690831515021790555050565b600954600c81905550600a54600d81905550600e54600e8190555060006009819055506000600a819055506000600b81905550565b60008060006126a984612a31565b9250925092506000818385876126bf919061396e565b6126c9919061396e565b6126d3919061396e565b905080600160008873ffffffffffffffffffffffffffffffffffffffff1673ffffffffffffffffffffffffffffffffffffffff1681526020019081526020016000206000828254612724919061371c565b9250508190555082600f600082825461273d919061371c565b9250508190555081600160003073ffffffffffffffffffffffffffffffffffffffff1673ffffffffffffffffffffffffffffffffffffffff1681526020019081526020016000206000828254612793919061371c565b925050819055506127a48785612ab1565b8573ffffffffffffffffffffffffffffffffffffffff168773ffffffffffffffffffffffffffffffffffffffff167fddf252ad1be2c89b69c2b068fc378daa952ba7f163c4a11628f55a4df523b3ef836040516128019190613600565b60405180910390a350505050505050565b600c54600981905550600d54600a81905550600e54600b81905550565b60008060008061283e8661240e565b9150915060008183612850919061371c565b9050600086826128609190613772565b9050600081856128709190613772565b9050600082856128809190613772565b90508181975097505050505050509250929050565b600061289f612bc9565b90506128cc307f000000000000000000000000000000000000000000000000000000000000000084611ac0565b7f000000000000000000000000000000000000000000000000000000000000000073ffffffffffffffffffffffffffffffffffffffff1663791ac9478360008430426040518663ffffffff1660e01b815260040161292e95949392919061361b565b600060405180830381600087803b15801561294857600080fd5b505af115801561295c573d6000803e3d6000fd5b505050505050565b61298f307f000000000000000000000000000000000000000000000000000000000000000084611ac0565b7f000000000000000000000000000000000000000000000000000000000000000073ffffffffffffffffffffffffffffffffffffffff1663f305d7198230856000806129d96112fa565b426040518863ffffffff1660e01b81526004016129fb9695949392919061332c565b6000604051808303818588803b158015612a1457600080fd5b505af1158015612a28573d6000803e3d6000fd5b50505050505050565b600080600080600b5461271061ffff1686612a4c9190613772565b612a569190613914565b9050600060095461271061ffff1687612a6f9190613772565b612a799190613914565b90506000600a5461271061ffff1688612a929190613772565b612a9c9190613914565b90508282829550955095505050509193909250565b80600160007f000000000000000000000000000000000000000000000000000000000000000073ffffffffffffffffffffffffffffffffffffffff1673ffffffffffffffffffffffffffffffffffffffff1681526020019081526020016000206000828254612b20919061371c565b925050819055508060106000828254612b39919061371c565b925050819055507f000000000000000000000000000000000000000000000000000000000000000073ffffffffffffffffffffffffffffffffffffffff168273ffffffffffffffffffffffffffffffffffffffff167fddf252ad1be2c89b69c2b068fc378daa952ba7f163c4a11628f55a4df523b3ef83604051612bbd9190613600565b60405180910390a35050565b60606000600267ffffffffffffffff811115612be857612be7613ba5565b5b604051908082528060200260200182016040528015612c165781602001602082028036833780820191505090505b5090503081600081518110612c2e57612c2d613b76565b5b602002602001019073ffffffffffffffffffffffffffffffffffffffff16908173ffffffffffffffffffffffffffffffffffffffff16815250507f000000000000000000000000000000000000000000000000000000000000000073ffffffffffffffffffffffffffffffffffffffff1663ad5c46486040518163ffffffff1660e01b815260040160206040518083038186803b158015612cce57600080fd5b505afa158015612ce2573d6000803e3d6000fd5b505050506040513d601f19601f82011682018060405250810190612d069190612e06565b81600181518110612d1a57612d19613b76565b5b602002602001019073ffffffffffffffffffffffffffffffffffffffff16908173ffffffffffffffffffffffffffffffffffffffff16815250508091505090565b600081359050612d6a81614003565b92915050565b600081519050612d7f81614003565b92915050565b600081359050612d948161401a565b92915050565b600081359050612da981614031565b92915050565b600081519050612dbe81614031565b92915050565b600081359050612dd381614048565b92915050565b600060208284031215612def57612dee613bd4565b5b6000612dfd84828501612d5b565b91505092915050565b600060208284031215612e1c57612e1b613bd4565b5b6000612e2a84828501612d70565b91505092915050565b60008060408385031215612e4a57612e49613bd4565b5b6000612e5885828601612d5b565b9250506020612e6985828601612d5b565b9150509250929050565b600080600060608486031215612e8c57612e8b613bd4565b5b6000612e9a86828701612d5b565b9350506020612eab86828701612d5b565b9250506040612ebc86828701612d9a565b9150509250925092565b60008060408385031215612edd57612edc613bd4565b5b6000612eeb85828601612d5b565b9250506020612efc85828601612d9a565b9150509250929050565b600060208284031215612f1c57612f1b613bd4565b5b6000612f2a84828501612d85565b91505092915050565b600060208284031215612f4957612f48613bd4565b5b6000612f5784828501612d9a565b91505092915050565b600060208284031215612f7657612f75613bd4565b5b6000612f8484828501612daf565b91505092915050565b600060208284031215612fa357612fa2613bd4565b5b6000612fb184828501612dc4565b91505092915050565b6000612fc68383612fd2565b60208301905092915050565b612fdb816139a2565b82525050565b612fea816139a2565b82525050565b6000612ffb826136d7565b61300581856136fa565b9350613010836136c7565b8060005b838110156130415781516130288882612fba565b9750613033836136ed565b925050600181019050613014565b5085935050505092915050565b613057816139b4565b82525050565b61306681613a05565b82525050565b61307581613a29565b82525050565b6000613086826136e2565b613090818561370b565b93506130a0818560208601613a3b565b6130a981613bd9565b840191505092915050565b60006130c160238361370b565b91506130cc82613bf7565b604082019050919050565b60006130e460268361370b565b91506130ef82613c46565b604082019050919050565b600061310760228361370b565b915061311282613c95565b604082019050919050565b600061312a60268361370b565b915061313582613ce4565b604082019050919050565b600061314d600d8361370b565b915061315882613d33565b602082019050919050565b6000613170601f8361370b565b915061317b82613d5c565b602082019050919050565b600061319360178361370b565b915061319e82613d85565b602082019050919050565b60006131b660268361370b565b91506131c182613dae565b604082019050919050565b60006131d960288361370b565b91506131e482613dfd565b604082019050919050565b60006131fc60208361370b565b915061320782613e4c565b602082019050919050565b600061321f60278361370b565b915061322a82613e75565b604082019050919050565b600061324260178361370b565b915061324d82613ec4565b602082019050919050565b600061326560258361370b565b915061327082613eed565b604082019050919050565b600061328860248361370b565b915061329382613f3c565b604082019050919050565b60006132ab60198361370b565b91506132b682613f8b565b602082019050919050565b60006132ce60258361370b565b91506132d982613fb4565b604082019050919050565b6132ed816139c0565b82525050565b6132fc816139ee565b82525050565b61330b816139f8565b82525050565b60006020820190506133266000830184612fe1565b92915050565b600060c0820190506133416000830189612fe1565b61334e60208301886132f3565b61335b604083018761306c565b613368606083018661306c565b6133756080830185612fe1565b61338260a08301846132f3565b979650505050505050565b60006020820190506133a2600083018461304e565b92915050565b60006020820190506133bd600083018461305d565b92915050565b600060208201905081810360008301526133dd818461307b565b905092915050565b600060208201905081810360008301526133fe816130b4565b9050919050565b6000602082019050818103600083015261341e816130d7565b9050919050565b6000602082019050818103600083015261343e816130fa565b9050919050565b6000602082019050818103600083015261345e8161311d565b9050919050565b6000602082019050818103600083015261347e81613140565b9050919050565b6000602082019050818103600083015261349e81613163565b9050919050565b600060208201905081810360008301526134be81613186565b9050919050565b600060208201905081810360008301526134de816131a9565b9050919050565b600060208201905081810360008301526134fe816131cc565b9050919050565b6000602082019050818103600083015261351e816131ef565b9050919050565b6000602082019050818103600083015261353e81613212565b9050919050565b6000602082019050818103600083015261355e81613235565b9050919050565b6000602082019050818103600083015261357e81613258565b9050919050565b6000602082019050818103600083015261359e8161327b565b9050919050565b600060208201905081810360008301526135be8161329e565b9050919050565b600060208201905081810360008301526135de816132c1565b9050919050565b60006020820190506135fa60008301846132e4565b92915050565b600060208201905061361560008301846132f3565b92915050565b600060a08201905061363060008301886132f3565b61363d602083018761306c565b818103604083015261364f8186612ff0565b905061365e6060830185612fe1565b61366b60808301846132f3565b9695505050505050565b600060608201905061368a60008301866132f3565b61369760208301856132f3565b6136a460408301846132f3565b949350505050565b60006020820190506136c16000830184613302565b92915050565b6000819050602082019050919050565b600081519050919050565b600081519050919050565b6000602082019050919050565b600082825260208201905092915050565b600082825260208201905092915050565b6000613727826139ee565b9150613732836139ee565b9250827fffffffffffffffffffffffffffffffffffffffffffffffffffffffffffffffff0382111561376757613766613ae9565b5b828201905092915050565b600061377d826139ee565b9150613788836139ee565b92508261379857613797613b18565b5b828204905092915050565b6000808291508390505b60018511156137ed578086048111156137c9576137c8613ae9565b5b60018516156137d85780820291505b80810290506137e685613bea565b94506137ad565b94509492505050565b6000613801826139ee565b915061380c836139f8565b92506138397fffffffffffffffffffffffffffffffffffffffffffffffffffffffffffffffff8484613841565b905092915050565b600082613851576001905061390d565b8161385f576000905061390d565b8160018114613875576002811461387f576138ae565b600191505061390d565b60ff84111561389157613890613ae9565b5b8360020a9150848211156138a8576138a7613ae9565b5b5061390d565b5060208310610133831016604e8410600b84101617156138e35782820a9050838111156138de576138dd613ae9565b5b61390d565b6138f084848460016137a3565b9250905081840481111561390757613906613ae9565b5b81810290505b9392505050565b600061391f826139ee565b915061392a836139ee565b9250817fffffffffffffffffffffffffffffffffffffffffffffffffffffffffffffffff048311821515161561396357613962613ae9565b5b828202905092915050565b6000613979826139ee565b9150613984836139ee565b92508282101561399757613996613ae9565b5b828203905092915050565b60006139ad826139ce565b9050919050565b60008115159050919050565b600061ffff82169050919050565b600073ffffffffffffffffffffffffffffffffffffffff82169050919050565b6000819050919050565b600060ff82169050919050565b6000613a1082613a17565b9050919050565b6000613a22826139ce565b9050919050565b6000613a34826139ee565b9050919050565b60005b83811015613a59578082015181840152602081019050613a3e565b83811115613a68576000848401525b50505050565b60006002820490506001821680613a8657607f821691505b60208210811415613a9a57613a99613b47565b5b50919050565b6000613aab826139ee565b91507fffffffffffffffffffffffffffffffffffffffffffffffffffffffffffffffff821415613ade57613add613ae9565b5b600182019050919050565b7f4e487b7100000000000000000000000000000000000000000000000000000000600052601160045260246000fd5b7f4e487b7100000000000000000000000000000000000000000000000000000000600052601260045260246000fd5b7f4e487b7100000000000000000000000000000000000000000000000000000000600052602260045260246000fd5b7f4e487b7100000000000000000000000000000000000000000000000000000000600052603260045260246000fd5b7f4e487b7100000000000000000000000000000000000000000000000000000000600052604160045260246000fd5b600080fd5b6000601f19601f8301169050919050565b60008160011c9050919050565b7f45524332303a207472616e7366657220746f20746865207a65726f206164647260008201527f6573730000000000000000000000000000000000000000000000000000000000602082015250565b7f4f776e61626c653a206e6577206f776e657220697320746865207a65726f206160008201527f6464726573730000000000000000000000000000000000000000000000000000602082015250565b7f45524332303a20617070726f766520746f20746865207a65726f20616464726560008201527f7373000000000000000000000000000000000000000000000000000000000000602082015250565b7f45524332303a207472616e7366657220616d6f756e742065786365656473206260008201527f616c616e63650000000000000000000000000000000000000000000000000000602082015250565b7f45524332303a2070617573656400000000000000000000000000000000000000600082015250565b7f50616e64613a2070657263656e746167652076616c756520746f206869676800600082015250565b7f50616e64613a20616c7265616479206578636c75646564000000000000000000600082015250565b7f45524332303a207472616e7366657220616d6f756e742065786365656473206d60008201527f6178696d756d0000000000000000000000000000000000000000000000000000602082015250565b7f45524332303a207472616e7366657220616d6f756e742065786365656473206160008201527f6c6c6f77616e6365000000000000000000000000000000000000000000000000602082015250565b7f4f776e61626c653a2063616c6c6572206973206e6f7420746865206f776e6572600082015250565b7f45524332303a20616d6f756e74206d757374206265206772656174657220746860008201527f616e207a65726f00000000000000000000000000000000000000000000000000602082015250565b7f50616e64613a20616c726561647920696e636c75646564000000000000000000600082015250565b7f45524332303a207472616e736665722066726f6d20746865207a65726f20616460008201527f6472657373000000000000000000000000000000000000000000000000000000602082015250565b7f45524332303a20617070726f76652066726f6d20746865207a65726f2061646460008201527f7265737300000000000000000000000000000000000000000000000000000000602082015250565b7f4d6967726174653a20206d75746578206973206c6f636b656400000000000000600082015250565b7f45524332303a2064656372656173656420616c6c6f77616e63652062656c6f7760008201527f207a65726f000000000000000000000000000000000000000000000000000000602082015250565b61400c816139a2565b811461401757600080fd5b50565b614023816139b4565b811461402e57600080fd5b50565b61403a816139ee565b811461404557600080fd5b50565b614051816139f8565b811461405c57600080fd5b5056fea2646970667358221220595be909864874ca58426919a00fe5904eced7deb05ebfb54a35049b218e18c364736f6c63430008060033",
  "immutableReferences": {
    "94": [
      {
        "length": 32,
        "start": 5588
      },
      {
        "length": 32,
        "start": 10936
      },
      {
        "length": 32,
        "start": 11074
      }
    ],
    "96": [
      {
        "length": 32,
        "start": 4824
      }
    ],
    "99": [
      {
        "length": 32,
        "start": 2684
      },
      {
        "length": 32,
        "start": 10407
      },
      {
        "length": 32,
        "start": 10446
      },
      {
        "length": 32,
        "start": 10602
      },
      {
        "length": 32,
        "start": 10641
      },
      {
        "length": 32,
        "start": 11370
      }
    ],
    "101": [
      {
        "length": 32,
        "start": 3744
      },
      {
        "length": 32,
        "start": 8045
      }
    ],
    "103": [
      {
        "length": 32,
        "start": 6369
      }
    ]
  },
  "source": "// SPDX-License-Identifier: MIT\r\n\r\npragma solidity >=0.8.6 <0.9.0;\r\n\r\nimport \"./interfaces/IERC20.sol\";\r\nimport \"./security/Ownable.sol\";\r\n\r\nimport \"./interfaces/IUniswapV2Router02.sol\";\r\nimport \"./interfaces/IUniswapV2Factory.sol\";\r\n\r\nimport \"./interfaces/IMigrateToken.sol\";\r\n\r\n/*\r\n@@@@@@@@@@@@@@@@@@@@@@@@@@@@@@@@@@@@@@@@@@@@@@@@@@@@@@@@@@@@@@@@@@@@@@@@@@@@@@@@@@@@@@@@@@@@@@@@@@@@@@@@@@@@@@@@@@@@@@@@\r\n@@@@@@@@@@@@@@@@@@@@@@@@@@@@@@@@@@@@@@@@@@@@@@@@@@@@%,.............,&@@@@@@@@@@@@@@@@@@@@@@@@@@@@@@@@@@@@@@@@@@@@@@@@@@@\r\n@@@@@@@@@@@@@@@@@@@@@@@@@@@@@@@@@@@@@@@@@@@@@@@(...(@@@@@@@@@@@@@@@@@*...%@@@@@@@@@@@@@@@@@@@@@@@@@@@@@@@@@@@@@@@@@@@@@@\r\n@@@@@@@@@@@@@@@@@@@@@@@@@@@@@@@@@@@@@@@@@@@@...&@@@@@@@@@@@@@@@@@@@@@@@@@%..*@@@@@@@@@@@@@@@@@@@@@@@@@@@@@@@@@@@@@@@@@@@\r\n@@@@@@@@@@@@@@@@@@@@@@@@@@@@@@@@@@@@@@@@@&..@@#....&@@@@@@&##%@@@@@@@&....&@#..@@@@@@@@@@@@@@@@@@@@@@@@@@@@@@@@@@@@@@@@@\r\n@@@@@@@@@@@@@@@@@@@@@@@@@@@@@@@@@@@@@@@@..@@............#@@@@@@@(,........../@&..@@@@@@@@@@@@@@@@@@@@@@@@@@@@@@@@@@@@@@@\r\n@@@@@@@@@@@@@@@@@@@@@@@@@@@@@@@@@@@@@@/./@@........%@@@@@@@@@@@@@@@@@@.......#@@,.%@@@@@@@@@@@@@@@@@@@@@@@@@@@@@@@@@@@@@\r\n@@@@@@@@@@@@@@@@@@@@@@@@@@@@@@@@@@@@@*.%@@@.....(@@@@@@@@@@@@@@@@@@@@@@@@.....@@@/.#@@@@@@@@@@@@@@@@@@@@@@@@@@@@@@@@@@@@\r\n@@@@@@@@@@@@@@@@@@@@@@@@@@@@@@@@@@@@&.*@@@@*../@@@@@@@@@@@@@@@@@@@@@@@@@@@%..&@@@@,.@@@@@@@@@@@@@@@@@@@@@@@@@@@@@@@@@@@@\r\n@@@@@@@@@@@@@@@@@@@@@@@@@@@@@@@@@@@@..@@@@@..@@@@@.......*@@@@@.......*@@@@@..@@@@@..@@@@@@@@@@@@@@@@@@@@@@@@@@@@@@@@@@@\r\n@@@@@@@@@@@@@@@@@@@@@@@@@@@@@@@@@@@@..@@@@/.%@@@#....@@*.@@@@@@@.%@@....@@@@%.(@@@@..@@@@@@@@@@@@@@@@@@@@@@@@@@@@@@@@@@@\r\n@@@@@@@@@@@@@@@@@@@@@@@@@@@@@@@@@@@@..@@@@..@@@@........@@@@@@@@#........@@@@..@@@@..@@@@@@@@@@@@@@@@@@@@@@@@@@@@@@@@@@@\r\n@@@@@@@@@@@@@@@@@@@@@@@@@@@@@@@@@@@@,.@@@@..@@@@@,..,..@@@@...@@@@.....(@@@@@..@@@&./@@@@@@@@@@@@@@@@@@@@@@@@@@@@@@@@@@@\r\n@@@@@@@@@@@@@@@@@@@@@@@@@@@@@@@@@@@@@.,@@@@..@@@@@@@@@@@@@@@@@@@@@@@@@@@@@@@..@@@@..@@@@@@@@@@@@@@@@@@@@@@@@@@@@@@@@@@@@\r\n@@@@@@@@@@@@@@@@@@@@@@@@@@@@@@@@@@@@@%.*@@.....,@@@@@@@@@@@@@@@@@@@@@@@@@#,...*@@,.&@@@@@@@@@@@@@@@@@@@@@@@@@@@@@@@@@@@@\r\n@@@@@@@@@@@@@@@@@@@@@@@@@@@@@@@@@@@@@@%...............*%&@@@@@@@@&#,..............@@@@@@@@@@@@@@@@@@@@@@@@@@@@@@@@@@@@@@\r\n@@@@@@@@@@@@@@@@@@@@@@@@@@@@@@@@@@@@@@@@..........(@@@@@@@@@&&@@@@@@@@*..........@@@@@@@@@@@@@@@@@@@@@@@@@@@@@@@@@@@@@@@\r\n@@@@@@@@@@@@@@@@@@@@@@@@@@@@@@@@@@@@@@@@@@............,*@#######%*.............@@@@@@@@@@@@@@@@@@@@@@@@@@@@@@@@@@@@@@@@@\r\n@@@@@@@@@@@@@@@@@@@@@@@@@@@@@@@@@@@@@@@@@@@@%............,(#%%#,............%@@@@@@@@@@@@@@@@@@@@@@@@@@@@@@@@@@@@@@@@@@@\r\n@@@@@@@@@@@@@@@@@@@@@@@@@@@@@@@@@@@@@@@@@@@@@@@@.,......../////........,,@@@@@@@@@@@@@@@@@@@@@@@@@@@@@@@@@@@@@@@@@@@@@@@\r\n@@@@@@@@@@@@@@@@@@@@@@@@@@@@@@@@@@@@@@@@@@@@@@@@@@@&......))(((......@@@@@@@@@@@@@@@@@@@@@@@@@@@@@@@@@@@@@@@@@@@@@@@@@@@\r\n@@@@@@@@@@@@@@@@@@@@@@@@@@@@@@@@@@@@@@@@@@@@@@@@@@@@@@&*%@@@@@@@%*&@@@@@@@@@@@@@@@@@@@@@@@@@@@@@@@@@@@@@@@@@@@@@@@@@@@@@\r\n@@@@@@@@@@@@@@@@@@@@@@@@@@@@@@@@@@@@@@@@@@@@@@@@@@@@@@@@@@@@@@@@@@@@@@@@@@@@@@@@@@@@@@@@@@@@@@@@@@@@@@@@@@@@@@@@@@@@@@@@\r\n@@@@@@@@@@@@@@@@@@@@@@@@@@@@@@@@@@@@@@@@@@@@@@@@@@@@@@@@@@@@@@@@@@@@@@@@@@@@@@@@@@@@@@@@@@@@@@@@@@@@@@@@@@@@@@@@@@@@@@@@\r\n@@@@@@@@@@@@@@@@@@@@@@@@@@@@@@@@@@@@@@@@@@@@@@@@@@@@@@@@@@@@@@@@@@@@@@@@@@@@@@@@@@@@@@@@@@@@@@@@@@@@@@@@@@@@@@@@@@@@@@@@\r\n@@@@@@@@@@@@@@@@@@@@@@@@@@@@@@@@@@@@@@@@@@@@@@@@@@@@@@@@@@@@@@@@@@@@@&@@@@@@@@@@@@@@@@@@@@@@@@@@@@@@@@@@@@@@@@@@@@@@@@@@\r\n@@@@@@@@@@@@@@@@@@@@@@@@@@@..@@@@@%..@@*./@@@@@..@@&...@@@@%..@@@..,@@@*,@@@@..@@%..@@&..@@#..@@@@@@@@@@@@@@@@@@@@@@@@@@\r\n@@@@@@@@@@@@@@@@@@@@@@@@@@@..........@@*./@@@@@..@@&..(.,@@%..@&..@@@,....#@@.......@@@@,...#@@@@@@@@@@@@@@@@@@@@@@@@@@@\r\n@@@@@@@@@@@@@@@@@@@@@@@@@@@..@@@@@%..@@*./@@@@@..@@&..@@%..(..@@..@@@@@@,.#@@..@*..@@@@@@..%@@@@@@@@@@@@@@@@@@@@@@@@@@@@\r\n@@@@@@@@@@@@@@@@@@@@@@@@@@@..@@@@@%..@@@...*(...@@@&..@@@@&...@@@...,(*..,@@@..@@@/..@@@@..%@@@@@@@@@@@@@@@@@@@@@@@@@@@@\r\n@@@@@@@@@@@@@@@@@@@@@@@@@@@@@@@@@@@@@@@@@@@@@@@@@@@@@@@@@@@@@@@@@@@@@@@@@@@@@@@@@@@@@@@@@@@@@@@@@@@@@@@@@@@@@@@@@@@@@@@@\r\n@@@@@@@@@@@@@@@@@@@@@@@@@@@@@@@@@@@@@@@@@@@@@@@@@@@@@@@@@@@@@@@@@@@@@@@@@@@@@@@@@@@@@@@@@@@@@@@@@@@@@@@@@@@@@@@@@@@@@@@@\r\n@@@@@@@@@@@@@@@@@@@@@@@@@@@@@@@@@@..**,...@@@(../@@@@@...@@@@@..@@@..*,....@@@@@@...@@@@@@@@@@@@@@@@@@@@@@@@@@@@@@@@@@@@\r\n@@@@@@@@@@@@@@@@@@@@@@@@@@@@@@@@@@..@@@@.,@@/.,,.*@@@@..(.,@@@..@@@..@@@@@..&@@@,.%..@@@@@@@@@@@@@@@@@@@@@@@@@@@@@@@@@@@\r\n@@@@@@@@@@@@@@@@@@@@@@@@@@@@@@@@@@..(((%@@@,.*&&,.,@@@..@@%..&..@@@..@@@@@..#@%..&&%..@@@@@@@@@@@@@@@@@@@@@@@@@@@@@@@@@@\r\n@@@@@@@@@@@@@@@@@@@@@@@@@@@@@@@@@@..@@@@@@,./@@@@(.,@@..@@@@@...@@@..@@%,..&@#..@@@@@..@@@@@@@@@@@@@@@@@@@@@@@@@@@@@@@@@\r\n@@@@@@@@@@@@@@@@@@@@@@@@@@@@@@@@@@@@@@@@@@@@@@@@@@@@@@@@@@@@@@@@@@@@@@@@@@@@@@@@@@@@@@@@@@@@@@@@@@@@@@@@@@@@@@@@@@@@@@@@\r\n */\r\n\r\ncontract HungryPanda is Ownable, IERC20 {\r\n    mapping(address => uint256) private _balances;\r\n    mapping(address => mapping(address => uint256)) private _allowances;\r\n    uint256 public totalReward;\r\n    mapping(address => bool) private excludedFromFee;\r\n\r\n    uint8 private constant _decimals = 18;\r\n    uint256 private constant DECIMALFACTOR = 10**_decimals;\r\n    uint256 private _totalSupply = 10**17 * DECIMALFACTOR;\r\n\r\n    string private _name = \"HungryPanda\";\r\n    string private _symbol = \"HGP\";\r\n\r\n    uint256 public constant minimalSupply = 4 * 10**16 * DECIMALFACTOR; // 60% can be burnt 40 000 000 000 000 000\r\n    uint16 public constant percentageGranularity = 10000;\r\n    uint8 public maxTxAmountPercentage = 100; // 1%\r\n    uint8 public numTokensSellToAddLiquidityPercentage = 1; // 0,01%\r\n\r\n    uint256 public taxFee = 200; // 2%\r\n    uint256 public liquidityFee = 500; // 5%\r\n    uint256 public supportFee = 200; // 2%\r\n\r\n    uint256 public taxFeeOrigin = taxFee;\r\n    uint256 public liquidityFeeOrigin = liquidityFee;\r\n    uint256 public supportFeeOrigin = supportFee;\r\n\r\n    uint256 public rewardTotal = 0;\r\n    uint256 public totalSupported = 0;\r\n    uint256 public totalBurned = 0;\r\n\r\n    address public immutable supportWallet;\r\n\r\n    uint256 public immutable bornAtTime;\r\n\r\n    IUniswapV2Router02 public immutable uniswapV2Router;\r\n    address public immutable uniswapV2Pair;\r\n    address public immutable _WETH;\r\n\r\n    bool locker = false;\r\n    bool migrationLocker = false;\r\n    bool public swapAndLiquifyEnabled = true;\r\n    bool private _paused = false;\r\n\r\n    event MinTokensBeforeSwapUpdated(uint256 minTokensBeforeSwap);\r\n    event SwapAndLiquifyEnabledUpdated(bool enabled);\r\n    event SwapAndLiquify(\r\n        uint256 tokensSwapped,\r\n        uint256 ethReceived,\r\n        uint256 tokensIntoLiqudity\r\n    );\r\n\r\n    event Paused(address account);\r\n    event Unpaused(address account);\r\n\r\n    modifier lockMutex {\r\n        locker = true;\r\n        _;\r\n        locker = false;\r\n    }\r\n\r\n    modifier lockMigrationMutex {\r\n        migrationLocker = true;\r\n        _;\r\n        migrationLocker = false;\r\n    }\r\n\r\n    modifier whenNotPaused {\r\n        require(!_paused, \"ERC20: paused\");\r\n        _;\r\n    }\r\n\r\n    IMigrateToken _oldToken;\r\n    uint256 private lastMigratedIndex;\r\n\r\n    constructor(\r\n        address _router,\r\n        address _wallet,\r\n        address _token\r\n    ) Ownable() {\r\n        bornAtTime = block.timestamp;\r\n\r\n        IUniswapV2Router02 _uniswapV2Router = IUniswapV2Router02(_router);\r\n        // Create a uniswap pair for this new token\r\n        address _uniswapV2Pair = IUniswapV2Factory(_uniswapV2Router.factory())\r\n        .createPair(address(this), _uniswapV2Router.WETH());\r\n\r\n        // set the rest of the contract variables\r\n        uniswapV2Router = _uniswapV2Router;\r\n        _WETH = _uniswapV2Router.WETH();\r\n        uniswapV2Pair = _uniswapV2Pair;\r\n        // transfer ownership to contract\r\n        excludedFromFee[address(this)] = true;\r\n        excludedFromFee[_msgSender()] = true;\r\n        excludedFromFee[address(_uniswapV2Router)] = true;\r\n        excludedFromFee[_uniswapV2Pair] = true;\r\n\r\n        supportWallet = _wallet;\r\n\r\n        // set values from old token\r\n        _oldToken = IMigrateToken(_token);\r\n        _totalSupply = _oldToken.totalSupply();\r\n\r\n        _balances[_msgSender()] = _totalSupply;\r\n        emit Transfer(address(0), _msgSender(), _totalSupply);\r\n    }\r\n\r\n    // Protected migration function ...\r\n    function migrateOldToken(uint256 _size) public onlyOwner returns (bool) {\r\n        require(!migrationLocker, \"Migrate:  mutex is locked\");\r\n        return _migrateOldToken(_size);\r\n    }\r\n\r\n    function _migrateOldToken(uint256 _size)\r\n        private\r\n        lockMigrationMutex\r\n        returns (bool)\r\n    {\r\n        uint256 highIndex = lastMigratedIndex + _size;\r\n        uint256 total = _oldToken.totalHolders();\r\n        if (highIndex > total) {\r\n            highIndex = total;\r\n        }\r\n        for (uint256 index = lastMigratedIndex; index < highIndex; index++) {\r\n            address holder = _oldToken.holdersRewarded(index);\r\n            uint256 balance = _oldToken.balanceOf(holder);\r\n            _balances[holder] = balance;\r\n            _balances[_msgSender()] -= balance;\r\n        }\r\n        bool transactionFinished = lastMigratedIndex + _size > total;\r\n        // update last migration index\r\n        lastMigratedIndex = highIndex;\r\n\r\n        return transactionFinished;\r\n    }\r\n\r\n    //to recieve ETH from uniswapV2Router when swaping\r\n    receive() external payable {}\r\n\r\n    function name() public view returns (string memory) {\r\n        return _name;\r\n    }\r\n\r\n    function symbol() public view returns (string memory) {\r\n        return _symbol;\r\n    }\r\n\r\n    function decimals() public pure returns (uint8) {\r\n        return _decimals;\r\n    }\r\n\r\n    function totalSupply() public view override returns (uint256) {\r\n        return _totalSupply;\r\n    }\r\n\r\n    function balanceOf(address _account)\r\n        public\r\n        view\r\n        override\r\n        returns (uint256)\r\n    {\r\n        (uint256 constBalance, uint256 rewardBalance) = _getBalances(_account);\r\n        return (constBalance + rewardBalance);\r\n    }\r\n\r\n    function transfer(address _recipient, uint256 _amount)\r\n        public\r\n        override\r\n        returns (bool)\r\n    {\r\n        _transfer(_msgSender(), _recipient, _amount);\r\n        return true;\r\n    }\r\n\r\n    function allowance(address _owner, address _spender)\r\n        public\r\n        view\r\n        override\r\n        returns (uint256)\r\n    {\r\n        return _allowances[_owner][_spender];\r\n    }\r\n\r\n    function approve(address _spender, uint256 _amount)\r\n        public\r\n        override\r\n        returns (bool)\r\n    {\r\n        _approve(_msgSender(), _spender, _amount);\r\n        return true;\r\n    }\r\n\r\n    function transferFrom(\r\n        address _sender,\r\n        address _recipient,\r\n        uint256 _amount\r\n    ) public override returns (bool) {\r\n        _transfer(_sender, _recipient, _amount);\r\n\r\n        uint256 currentAllowance = _allowances[_sender][_msgSender()];\r\n        require(\r\n            currentAllowance >= _amount,\r\n            \"ERC20: transfer amount exceeds allowance\"\r\n        );\r\n        _approve(_sender, _msgSender(), currentAllowance - _amount);\r\n\r\n        return true;\r\n    }\r\n\r\n    function increaseAllowance(address spender, uint256 addedValue)\r\n        public\r\n        returns (bool)\r\n    {\r\n        _approve(\r\n            _msgSender(),\r\n            spender,\r\n            _allowances[_msgSender()][spender] + addedValue\r\n        );\r\n        return true;\r\n    }\r\n\r\n    function decreaseAllowance(address _spender, uint256 subtractedValue)\r\n        public\r\n        returns (bool)\r\n    {\r\n        uint256 currentAllowance = _allowances[_msgSender()][_spender];\r\n        require(\r\n            currentAllowance >= subtractedValue,\r\n            \"ERC20: decreased allowance below zero\"\r\n        );\r\n        _approve(_msgSender(), _spender, currentAllowance - subtractedValue);\r\n\r\n        return true;\r\n    }\r\n\r\n    // Public interface ...\r\n    function setMaxTxAmountPercent(uint8 _percentage) public onlyOwner {\r\n        require(\r\n            _percentage <= percentageGranularity,\r\n            \"Panda: percentage value to high\"\r\n        );\r\n        maxTxAmountPercentage = _percentage;\r\n    }\r\n\r\n    function setNumTokensSellToAddLiquidity(uint8 _percentage)\r\n        public\r\n        onlyOwner\r\n    {\r\n        require(\r\n            _percentage <= percentageGranularity,\r\n            \"Panda: percentage value to high\"\r\n        );\r\n        numTokensSellToAddLiquidityPercentage = _percentage;\r\n    }\r\n\r\n    function setSwapAndLiquifyEnabled(bool _enabled) public onlyOwner {\r\n        swapAndLiquifyEnabled = _enabled;\r\n        emit SwapAndLiquifyEnabledUpdated(_enabled);\r\n    }\r\n\r\n    function excludeFromFee(address _address) public onlyOwner {\r\n        require(!excludedFromFee[_address], \"Panda: already excluded\");\r\n        excludedFromFee[_address] = true;\r\n    }\r\n\r\n    function includeToFee(address _address) public onlyOwner {\r\n        require(excludedFromFee[_address], \"Panda: already included\");\r\n        excludedFromFee[_address] = false;\r\n    }\r\n\r\n    function pause() public onlyOwner {\r\n        _paused = true;\r\n        emit Paused(msg.sender);\r\n    }\r\n\r\n    function unpause() public onlyOwner {\r\n        _paused = false;\r\n        emit Unpaused(msg.sender);\r\n    }\r\n\r\n    // Private interface ...\r\n    function _swapAndLiquify(uint256 contractTokenBalance) private lockMutex {\r\n        // split the contract balance into halves\r\n        uint256 half = contractTokenBalance / 2;\r\n        uint256 otherHalf = contractTokenBalance - half;\r\n\r\n        // capture the contract's current ETH balance.\r\n        // this is so that we can capture exactly the amount of ETH that the\r\n        // swap creates, and not make the liquidity event include any ETH that\r\n        // has been manually sent to the contract\r\n        uint256 initialBalance = address(this).balance;\r\n\r\n        // swap tokens for ETH\r\n        _swapTokensForEth(half); // <- this breaks the ETH -> HATE swap when swap+liquify is triggered\r\n\r\n        // how much ETH did we just swap into?\r\n        uint256 newBalance = address(this).balance - initialBalance;\r\n\r\n        // add liquidity to uniswap\r\n        _addLiquidity(otherHalf, newBalance);\r\n\r\n        emit SwapAndLiquify(half, newBalance, otherHalf);\r\n    }\r\n\r\n    function _makePairPath() private view returns (address[] memory) {\r\n        address[] memory path = new address[](2);\r\n        path[0] = address(this);\r\n        path[1] = uniswapV2Router.WETH();\r\n        return path;\r\n    }\r\n\r\n    function _swapTokensForEth(uint256 tokenAmount) private {\r\n        address[] memory path = _makePairPath();\r\n\r\n        _approve(address(this), address(uniswapV2Router), tokenAmount);\r\n        uniswapV2Router.swapExactTokensForETHSupportingFeeOnTransferTokens(\r\n            tokenAmount,\r\n            0, // accept any amount of ETH\r\n            path,\r\n            address(this),\r\n            block.timestamp\r\n        );\r\n    }\r\n\r\n    function _addLiquidity(uint256 tokenAmount, uint256 ethAmount) private {\r\n        // approve token transfer to cover all possible scenarios\r\n        _approve(address(this), address(uniswapV2Router), tokenAmount);\r\n\r\n        // add the liquidity\r\n        uniswapV2Router.addLiquidityETH{value: ethAmount}(\r\n            address(this),\r\n            tokenAmount,\r\n            0, // slippage is unavoidable\r\n            0, // slippage is unavoidable\r\n            owner(),\r\n            block.timestamp\r\n        );\r\n    }\r\n\r\n    function _approve(\r\n        address _owner,\r\n        address _spender,\r\n        uint256 _amount\r\n    ) internal virtual {\r\n        require(_owner != address(0), \"ERC20: approve from the zero address\");\r\n        require(_spender != address(0), \"ERC20: approve to the zero address\");\r\n\r\n        _allowances[_owner][_spender] = _amount;\r\n        emit Approval(_owner, _spender, _amount);\r\n    }\r\n\r\n    function _getBalances(address _holder)\r\n        private\r\n        view\r\n        returns (uint256, uint256)\r\n    {\r\n        uint256 balance = _balances[_holder];\r\n        if (balance == 0) {\r\n            return (0, 0);\r\n        }\r\n        uint256 rate = _totalSupply / balance;\r\n        if (rate == 0) {\r\n            return (balance, 0);\r\n        }\r\n        return (balance, totalReward / rate);\r\n    }\r\n\r\n    function _transfer(\r\n        address _sender,\r\n        address _recipient,\r\n        uint256 _amount\r\n    ) internal whenNotPaused {\r\n        require(_sender != address(0), \"ERC20: transfer from the zero address\");\r\n        require(\r\n            _recipient != address(0),\r\n            \"ERC20: transfer to the zero address\"\r\n        );\r\n        require(_amount > 0, \"ERC20: amount must be greater than zero\");\r\n        uint256 maxTxAmount = _maxTxAmount();\r\n        if (_sender != owner() && _recipient != owner()) {\r\n            require(\r\n                _amount <= maxTxAmount,\r\n                \"ERC20: transfer amount exceeds maximum\"\r\n            );\r\n        }\r\n        require(\r\n            balanceOf(_sender) >= _amount,\r\n            \"ERC20: transfer amount exceeds balance\"\r\n        );\r\n        // substruct sender balance and total owned rewards\r\n        _reflectSender(_sender, _amount);\r\n\r\n        // add liquidity logic ...\r\n        uint256 contractTokenBalance = balanceOf(address(this));\r\n        if (contractTokenBalance >= maxTxAmount) {\r\n            // should we ?\r\n            contractTokenBalance = maxTxAmount;\r\n        }\r\n\r\n        uint256 numTokensSellToAddLiquidity = _numTokensSellToAddLiquidity();\r\n        bool overMinTokenBalance = contractTokenBalance >=\r\n            numTokensSellToAddLiquidity;\r\n        if (\r\n            overMinTokenBalance &&\r\n            !locker &&\r\n            _sender != uniswapV2Pair &&\r\n            swapAndLiquifyEnabled\r\n        ) {\r\n            contractTokenBalance = numTokensSellToAddLiquidity;\r\n            _swapAndLiquify(contractTokenBalance);\r\n        }\r\n\r\n        // transfer with fee logic ...\r\n        bool takeFee = true;\r\n        if (excludedFromFee[_sender] && excludedFromFee[_recipient]) {\r\n            takeFee = false;\r\n        }\r\n        if (!takeFee) _disableFee();\r\n        _transferWithFee(_sender, _recipient, _amount);\r\n        if (!takeFee) _enableFee();\r\n    }\r\n\r\n    function _transferWithFee(\r\n        address _sender,\r\n        address _recipient,\r\n        uint256 _amount\r\n    ) private {\r\n        // calculate fee ...\r\n        (\r\n            uint256 _supportFee,\r\n            uint256 _taxFee,\r\n            uint256 _liquidityFee\r\n        ) = _calculateFees(_amount);\r\n        uint256 _toTransferAmount = _amount -\r\n            _supportFee -\r\n            _taxFee -\r\n            _liquidityFee;\r\n\r\n        _balances[_recipient] += _toTransferAmount;\r\n        rewardTotal += _taxFee;\r\n        _balances[address(this)] += _liquidityFee;\r\n\r\n        _takeSupport(_sender, _supportFee);\r\n        emit Transfer(_sender, _recipient, _toTransferAmount);\r\n    }\r\n\r\n    function _reflectSender(address _sender, uint256 _amount) private {\r\n        // substract sender balance\r\n        (uint256 _rBalance, uint256 _rReward) = _getRValues(_sender, _amount);\r\n        _balances[_sender] -= _rBalance;\r\n        rewardTotal -= _rReward;\r\n    }\r\n\r\n    function _getRValues(address _sender, uint256 _amount)\r\n        private\r\n        view\r\n        returns (uint256, uint256)\r\n    {\r\n        (uint256 persistBalance, uint256 rewardBalance) = _getBalances(_sender);\r\n        uint256 total = persistBalance + rewardBalance;\r\n        // split amount into parts\r\n        uint256 rate = total / _amount;\r\n        uint256 substructBalance = persistBalance / rate;\r\n        uint256 substructReward = rewardBalance / rate;\r\n        return (substructBalance, substructReward);\r\n    }\r\n\r\n    function _calculateFees(uint256 _amount)\r\n        private\r\n        view\r\n        returns (\r\n            uint256,\r\n            uint256,\r\n            uint256\r\n        )\r\n    {\r\n        uint256 amountToSupport = (_amount / percentageGranularity) *\r\n            supportFee;\r\n        uint256 amountToCharge = (_amount / percentageGranularity) * taxFee;\r\n        uint256 amountToAddLiquidity = (_amount / percentageGranularity) *\r\n            liquidityFee;\r\n        return (amountToSupport, amountToCharge, amountToAddLiquidity);\r\n    }\r\n\r\n    function _maxTxAmount() private view returns (uint256) {\r\n        return (_totalSupply / percentageGranularity) * maxTxAmountPercentage;\r\n    }\r\n\r\n    function _numTokensSellToAddLiquidity() private view returns (uint256) {\r\n        return\r\n            (_totalSupply / percentageGranularity) *\r\n            numTokensSellToAddLiquidityPercentage;\r\n    }\r\n\r\n    function _disableFee() private {\r\n        taxFeeOrigin = taxFee;\r\n        liquidityFeeOrigin = liquidityFee;\r\n        supportFeeOrigin = supportFeeOrigin;\r\n        taxFee = 0;\r\n        liquidityFee = 0;\r\n        supportFee = 0;\r\n    }\r\n\r\n    function _enableFee() private {\r\n        taxFee = taxFeeOrigin;\r\n        liquidityFee = liquidityFeeOrigin;\r\n        supportFee = supportFeeOrigin;\r\n    }\r\n\r\n    function _takeSupport(address _sender, uint256 _toBeTaken) private {\r\n        _balances[supportWallet] += _toBeTaken;\r\n        totalSupported += _toBeTaken;\r\n        emit Transfer(_sender, supportWallet, _toBeTaken);\r\n    }\r\n}\r\n",
  "sourcePath": "C:/Users/skyne/Dev/work/crypto/hungrypanda/contracts/HungryPanda.sol",
  "compiler": {
    "name": "solc",
    "version": "0.8.6+commit.11564f7e.Emscripten.clang"
  },
  "schemaVersion": "3.4.1",
  "updatedAt": "2021-07-10T09:03:53.341Z",
  "devdoc": {
    "kind": "dev",
    "methods": {
      "owner()": {
        "details": "Returns the address of the current owner."
      },
      "renounceOwnership()": {
        "details": "Leaves the contract without owner. It will not be possible to call `onlyOwner` functions anymore. Can only be called by the current owner. NOTE: Renouncing ownership will leave the contract without an owner, thereby removing any functionality that is only available to the owner."
      },
      "totalSupply()": {
        "details": "Returns the amount of tokens in existence."
      },
      "transferOwnership(address)": {
        "details": "Transfers ownership of the contract to a new account (`newOwner`). Can only be called by the current owner."
      }
    },
    "version": 1
  },
  "userdoc": {
    "kind": "user",
    "methods": {},
    "version": 1
  }
}