{
  "contractName": "HungryPanda",
  "abi": [
    {
      "inputs": [
        {
          "internalType": "address",
          "name": "_router",
          "type": "address"
        },
        {
          "internalType": "address",
          "name": "_wallet",
          "type": "address"
        }
      ],
      "stateMutability": "nonpayable",
      "type": "constructor"
    },
    {
      "anonymous": false,
      "inputs": [
        {
          "indexed": true,
          "internalType": "address",
          "name": "owner",
          "type": "address"
        },
        {
          "indexed": true,
          "internalType": "address",
          "name": "spender",
          "type": "address"
        },
        {
          "indexed": false,
          "internalType": "uint256",
          "name": "value",
          "type": "uint256"
        }
      ],
      "name": "Approval",
      "type": "event"
    },
    {
      "anonymous": false,
      "inputs": [
        {
          "indexed": false,
          "internalType": "uint256",
          "name": "minTokensBeforeSwap",
          "type": "uint256"
        }
      ],
      "name": "MinTokensBeforeSwapUpdated",
      "type": "event"
    },
    {
      "anonymous": false,
      "inputs": [
        {
          "indexed": true,
          "internalType": "address",
          "name": "previousOwner",
          "type": "address"
        },
        {
          "indexed": true,
          "internalType": "address",
          "name": "newOwner",
          "type": "address"
        }
      ],
      "name": "OwnershipTransferred",
      "type": "event"
    },
    {
      "anonymous": false,
      "inputs": [
        {
          "indexed": false,
          "internalType": "address",
          "name": "account",
          "type": "address"
        }
      ],
      "name": "Paused",
      "type": "event"
    },
    {
      "anonymous": false,
      "inputs": [
        {
          "indexed": false,
          "internalType": "uint256",
          "name": "tokensSwapped",
          "type": "uint256"
        },
        {
          "indexed": false,
          "internalType": "uint256",
          "name": "ethReceived",
          "type": "uint256"
        },
        {
          "indexed": false,
          "internalType": "uint256",
          "name": "tokensIntoLiqudity",
          "type": "uint256"
        }
      ],
      "name": "SwapAndLiquify",
      "type": "event"
    },
    {
      "anonymous": false,
      "inputs": [
        {
          "indexed": false,
          "internalType": "bool",
          "name": "enabled",
          "type": "bool"
        }
      ],
      "name": "SwapAndLiquifyEnabledUpdated",
      "type": "event"
    },
    {
      "anonymous": false,
      "inputs": [
        {
          "indexed": true,
          "internalType": "address",
          "name": "from",
          "type": "address"
        },
        {
          "indexed": true,
          "internalType": "address",
          "name": "to",
          "type": "address"
        },
        {
          "indexed": false,
          "internalType": "uint256",
          "name": "value",
          "type": "uint256"
        }
      ],
      "name": "Transfer",
      "type": "event"
    },
    {
      "anonymous": false,
      "inputs": [
        {
          "indexed": false,
          "internalType": "address",
          "name": "account",
          "type": "address"
        }
      ],
      "name": "Unpaused",
      "type": "event"
    },
    {
      "inputs": [],
      "name": "_WETH",
      "outputs": [
        {
          "internalType": "address",
          "name": "",
          "type": "address"
        }
      ],
      "stateMutability": "view",
      "type": "function"
    },
    {
      "inputs": [],
      "name": "bornAtTime",
      "outputs": [
        {
          "internalType": "uint256",
          "name": "",
          "type": "uint256"
        }
      ],
      "stateMutability": "view",
      "type": "function"
    },
    {
      "inputs": [],
      "name": "burnFee",
      "outputs": [
        {
          "internalType": "uint256",
          "name": "",
          "type": "uint256"
        }
      ],
      "stateMutability": "view",
      "type": "function"
    },
    {
      "inputs": [],
      "name": "burnFeeOrigin",
      "outputs": [
        {
          "internalType": "uint256",
          "name": "",
          "type": "uint256"
        }
      ],
      "stateMutability": "view",
      "type": "function"
    },
    {
      "inputs": [],
      "name": "liquidityFee",
      "outputs": [
        {
          "internalType": "uint256",
          "name": "",
          "type": "uint256"
        }
      ],
      "stateMutability": "view",
      "type": "function"
    },
    {
      "inputs": [],
      "name": "liquidityFeeOrigin",
      "outputs": [
        {
          "internalType": "uint256",
          "name": "",
          "type": "uint256"
        }
      ],
      "stateMutability": "view",
      "type": "function"
    },
    {
      "inputs": [],
      "name": "maxTxAmountPercentage",
      "outputs": [
        {
          "internalType": "uint8",
          "name": "",
          "type": "uint8"
        }
      ],
      "stateMutability": "view",
      "type": "function"
    },
    {
      "inputs": [],
      "name": "minimalSupply",
      "outputs": [
        {
          "internalType": "uint256",
          "name": "",
          "type": "uint256"
        }
      ],
      "stateMutability": "view",
      "type": "function"
    },
    {
      "inputs": [],
      "name": "numTokensSellToAddLiquidityPercentage",
      "outputs": [
        {
          "internalType": "uint8",
          "name": "",
          "type": "uint8"
        }
      ],
      "stateMutability": "view",
      "type": "function"
    },
    {
      "inputs": [],
      "name": "owner",
      "outputs": [
        {
          "internalType": "address",
          "name": "",
          "type": "address"
        }
      ],
      "stateMutability": "view",
      "type": "function"
    },
    {
      "inputs": [],
      "name": "percentageGranularity",
      "outputs": [
        {
          "internalType": "uint16",
          "name": "",
          "type": "uint16"
        }
      ],
      "stateMutability": "view",
      "type": "function"
    },
    {
      "inputs": [],
      "name": "renounceOwnership",
      "outputs": [],
      "stateMutability": "nonpayable",
      "type": "function"
    },
    {
      "inputs": [],
      "name": "rewardTotal",
      "outputs": [
        {
          "internalType": "uint256",
          "name": "",
          "type": "uint256"
        }
      ],
      "stateMutability": "view",
      "type": "function"
    },
    {
      "inputs": [],
      "name": "supportFee",
      "outputs": [
        {
          "internalType": "uint256",
          "name": "",
          "type": "uint256"
        }
      ],
      "stateMutability": "view",
      "type": "function"
    },
    {
      "inputs": [],
      "name": "supportFeeOrigin",
      "outputs": [
        {
          "internalType": "uint256",
          "name": "",
          "type": "uint256"
        }
      ],
      "stateMutability": "view",
      "type": "function"
    },
    {
      "inputs": [],
      "name": "supportWallet",
      "outputs": [
        {
          "internalType": "address",
          "name": "",
          "type": "address"
        }
      ],
      "stateMutability": "view",
      "type": "function"
    },
    {
      "inputs": [],
      "name": "swapAndLiquifyEnabled",
      "outputs": [
        {
          "internalType": "bool",
          "name": "",
          "type": "bool"
        }
      ],
      "stateMutability": "view",
      "type": "function"
    },
    {
      "inputs": [],
      "name": "taxFee",
      "outputs": [
        {
          "internalType": "uint256",
          "name": "",
          "type": "uint256"
        }
      ],
      "stateMutability": "view",
      "type": "function"
    },
    {
      "inputs": [],
      "name": "taxFeeOrigin",
      "outputs": [
        {
          "internalType": "uint256",
          "name": "",
          "type": "uint256"
        }
      ],
      "stateMutability": "view",
      "type": "function"
    },
    {
      "inputs": [],
      "name": "totalBurned",
      "outputs": [
        {
          "internalType": "uint256",
          "name": "",
          "type": "uint256"
        }
      ],
      "stateMutability": "view",
      "type": "function"
    },
    {
      "inputs": [],
      "name": "totalReward",
      "outputs": [
        {
          "internalType": "uint256",
          "name": "",
          "type": "uint256"
        }
      ],
      "stateMutability": "view",
      "type": "function"
    },
    {
      "inputs": [],
      "name": "totalSupported",
      "outputs": [
        {
          "internalType": "uint256",
          "name": "",
          "type": "uint256"
        }
      ],
      "stateMutability": "view",
      "type": "function"
    },
    {
      "inputs": [
        {
          "internalType": "address",
          "name": "newOwner",
          "type": "address"
        }
      ],
      "name": "transferOwnership",
      "outputs": [],
      "stateMutability": "nonpayable",
      "type": "function"
    },
    {
      "inputs": [],
      "name": "uniswapV2Pair",
      "outputs": [
        {
          "internalType": "address",
          "name": "",
          "type": "address"
        }
      ],
      "stateMutability": "view",
      "type": "function"
    },
    {
      "inputs": [],
      "name": "uniswapV2Router",
      "outputs": [
        {
          "internalType": "contract IUniswapV2Router02",
          "name": "",
          "type": "address"
        }
      ],
      "stateMutability": "view",
      "type": "function"
    },
    {
      "stateMutability": "payable",
      "type": "receive"
    },
    {
      "inputs": [],
      "name": "name",
      "outputs": [
        {
          "internalType": "string",
          "name": "",
          "type": "string"
        }
      ],
      "stateMutability": "view",
      "type": "function"
    },
    {
      "inputs": [],
      "name": "symbol",
      "outputs": [
        {
          "internalType": "string",
          "name": "",
          "type": "string"
        }
      ],
      "stateMutability": "view",
      "type": "function"
    },
    {
      "inputs": [],
      "name": "decimals",
      "outputs": [
        {
          "internalType": "uint8",
          "name": "",
          "type": "uint8"
        }
      ],
      "stateMutability": "pure",
      "type": "function"
    },
    {
      "inputs": [],
      "name": "totalSupply",
      "outputs": [
        {
          "internalType": "uint256",
          "name": "",
          "type": "uint256"
        }
      ],
      "stateMutability": "view",
      "type": "function"
    },
    {
      "inputs": [
        {
          "internalType": "address",
          "name": "_account",
          "type": "address"
        }
      ],
      "name": "balanceOf",
      "outputs": [
        {
          "internalType": "uint256",
          "name": "",
          "type": "uint256"
        }
      ],
      "stateMutability": "view",
      "type": "function"
    },
    {
      "inputs": [
        {
          "internalType": "address",
          "name": "_recipient",
          "type": "address"
        },
        {
          "internalType": "uint256",
          "name": "_amount",
          "type": "uint256"
        }
      ],
      "name": "transfer",
      "outputs": [
        {
          "internalType": "bool",
          "name": "",
          "type": "bool"
        }
      ],
      "stateMutability": "nonpayable",
      "type": "function"
    },
    {
      "inputs": [
        {
          "internalType": "address",
          "name": "_owner",
          "type": "address"
        },
        {
          "internalType": "address",
          "name": "_spender",
          "type": "address"
        }
      ],
      "name": "allowance",
      "outputs": [
        {
          "internalType": "uint256",
          "name": "",
          "type": "uint256"
        }
      ],
      "stateMutability": "view",
      "type": "function"
    },
    {
      "inputs": [
        {
          "internalType": "address",
          "name": "_spender",
          "type": "address"
        },
        {
          "internalType": "uint256",
          "name": "_amount",
          "type": "uint256"
        }
      ],
      "name": "approve",
      "outputs": [
        {
          "internalType": "bool",
          "name": "",
          "type": "bool"
        }
      ],
      "stateMutability": "nonpayable",
      "type": "function"
    },
    {
      "inputs": [
        {
          "internalType": "address",
          "name": "_sender",
          "type": "address"
        },
        {
          "internalType": "address",
          "name": "_recipient",
          "type": "address"
        },
        {
          "internalType": "uint256",
          "name": "_amount",
          "type": "uint256"
        }
      ],
      "name": "transferFrom",
      "outputs": [
        {
          "internalType": "bool",
          "name": "",
          "type": "bool"
        }
      ],
      "stateMutability": "nonpayable",
      "type": "function"
    },
    {
      "inputs": [
        {
          "internalType": "address",
          "name": "spender",
          "type": "address"
        },
        {
          "internalType": "uint256",
          "name": "addedValue",
          "type": "uint256"
        }
      ],
      "name": "increaseAllowance",
      "outputs": [
        {
          "internalType": "bool",
          "name": "",
          "type": "bool"
        }
      ],
      "stateMutability": "nonpayable",
      "type": "function"
    },
    {
      "inputs": [
        {
          "internalType": "address",
          "name": "_spender",
          "type": "address"
        },
        {
          "internalType": "uint256",
          "name": "subtractedValue",
          "type": "uint256"
        }
      ],
      "name": "decreaseAllowance",
      "outputs": [
        {
          "internalType": "bool",
          "name": "",
          "type": "bool"
        }
      ],
      "stateMutability": "nonpayable",
      "type": "function"
    },
    {
      "inputs": [
        {
          "internalType": "uint8",
          "name": "_percentage",
          "type": "uint8"
        }
      ],
      "name": "setMaxTxAmountPercent",
      "outputs": [],
      "stateMutability": "nonpayable",
      "type": "function"
    },
    {
      "inputs": [
        {
          "internalType": "uint8",
          "name": "_percentage",
          "type": "uint8"
        }
      ],
      "name": "setNumTokensSellToAddLiquidity",
      "outputs": [],
      "stateMutability": "nonpayable",
      "type": "function"
    },
    {
      "inputs": [
        {
          "internalType": "bool",
          "name": "_enabled",
          "type": "bool"
        }
      ],
      "name": "setSwapAndLiquifyEnabled",
      "outputs": [],
      "stateMutability": "nonpayable",
      "type": "function"
    },
    {
      "inputs": [
        {
          "internalType": "address",
          "name": "_address",
          "type": "address"
        }
      ],
      "name": "excludeFromFee",
      "outputs": [],
      "stateMutability": "nonpayable",
      "type": "function"
    },
    {
      "inputs": [
        {
          "internalType": "address",
          "name": "_address",
          "type": "address"
        }
      ],
      "name": "includeToFee",
      "outputs": [],
      "stateMutability": "nonpayable",
      "type": "function"
    },
    {
      "inputs": [],
      "name": "pause",
      "outputs": [],
      "stateMutability": "nonpayable",
      "type": "function"
    },
    {
      "inputs": [],
      "name": "unpause",
      "outputs": [],
      "stateMutability": "nonpayable",
      "type": "function"
    }
  ],
  "bytecode": "0x6101206040526012600a620000159190620009b1565b67016345785d8a00006200002a919062000aee565b6005556040518060400160405280600b81526020017f48756e67727950616e6461000000000000000000000000000000000000000000815250600690805190602001906200007a929190620007aa565b506040518060400160405280600381526020017f484750000000000000000000000000000000000000000000000000000000000081525060079080519060200190620000c8929190620007aa565b506064600860006101000a81548160ff021916908360ff1602179055506001600860016101000a81548160ff021916908360ff160217905550610190600955610190600a556064600b556064600c55600c54600d55600954600e55600a54600f55600b546010556000601155600060125560006013556001601460016101000a81548160ff0219169083151502179055506000601460026101000a81548160ff0219169083151502179055503480156200018157600080fd5b50604051620049c7380380620049c78339818101604052810190620001a79190620008a3565b6000620001b9620007a260201b60201c565b9050806000806101000a81548173ffffffffffffffffffffffffffffffffffffffff021916908373ffffffffffffffffffffffffffffffffffffffff1602179055508073ffffffffffffffffffffffffffffffffffffffff16600073ffffffffffffffffffffffffffffffffffffffff167f8be0079c531659141344cd1fd0a4f28419497f9722a3daafe3b4186f6b6457e060405160405180910390a3504260a08181525050600082905060008173ffffffffffffffffffffffffffffffffffffffff1663c45a01556040518163ffffffff1660e01b815260040160206040518083038186803b158015620002ad57600080fd5b505afa158015620002c2573d6000803e3d6000fd5b505050506040513d601f19601f82011682018060405250810190620002e8919062000871565b73ffffffffffffffffffffffffffffffffffffffff1663c9c65396308473ffffffffffffffffffffffffffffffffffffffff1663ad5c46486040518163ffffffff1660e01b815260040160206040518083038186803b1580156200034b57600080fd5b505afa15801562000360573d6000803e3d6000fd5b505050506040513d601f19601f8201168201806040525081019062000386919062000871565b6040518363ffffffff1660e01b8152600401620003a59291906200090c565b602060405180830381600087803b158015620003c057600080fd5b505af1158015620003d5573d6000803e3d6000fd5b505050506040513d601f19601f82011682018060405250810190620003fb919062000871565b90508173ffffffffffffffffffffffffffffffffffffffff1660c08173ffffffffffffffffffffffffffffffffffffffff1660601b815250508173ffffffffffffffffffffffffffffffffffffffff1663ad5c46486040518163ffffffff1660e01b815260040160206040518083038186803b1580156200047b57600080fd5b505afa15801562000490573d6000803e3d6000fd5b505050506040513d601f19601f82011682018060405250810190620004b6919062000871565b73ffffffffffffffffffffffffffffffffffffffff166101008173ffffffffffffffffffffffffffffffffffffffff1660601b815250508073ffffffffffffffffffffffffffffffffffffffff1660e08173ffffffffffffffffffffffffffffffffffffffff1660601b815250506001600460003073ffffffffffffffffffffffffffffffffffffffff1673ffffffffffffffffffffffffffffffffffffffff16815260200190815260200160002060006101000a81548160ff02191690831515021790555060016004600062000592620007a260201b60201c565b73ffffffffffffffffffffffffffffffffffffffff1673ffffffffffffffffffffffffffffffffffffffff16815260200190815260200160002060006101000a81548160ff0219169083151502179055506001600460008473ffffffffffffffffffffffffffffffffffffffff1673ffffffffffffffffffffffffffffffffffffffff16815260200190815260200160002060006101000a81548160ff0219169083151502179055506001600460008373ffffffffffffffffffffffffffffffffffffffff1673ffffffffffffffffffffffffffffffffffffffff16815260200190815260200160002060006101000a81548160ff0219169083151502179055508273ffffffffffffffffffffffffffffffffffffffff1660808173ffffffffffffffffffffffffffffffffffffffff1660601b8152505060055460016000620006e1620007a260201b60201c565b73ffffffffffffffffffffffffffffffffffffffff1673ffffffffffffffffffffffffffffffffffffffff168152602001908152602001600020819055506200072f620007a260201b60201c565b73ffffffffffffffffffffffffffffffffffffffff16600073ffffffffffffffffffffffffffffffffffffffff167fddf252ad1be2c89b69c2b068fc378daa952ba7f163c4a11628f55a4df523b3ef60055460405162000790919062000939565b60405180910390a35050505062000c5a565b600033905090565b828054620007b89062000b9a565b90600052602060002090601f016020900481019282620007dc576000855562000828565b82601f10620007f757805160ff191683800117855562000828565b8280016001018555821562000828579182015b82811115620008275782518255916020019190600101906200080a565b5b5090506200083791906200083b565b5090565b5b80821115620008565760008160009055506001016200083c565b5090565b6000815190506200086b8162000c40565b92915050565b6000602082840312156200088a576200088962000c2e565b5b60006200089a848285016200085a565b91505092915050565b60008060408385031215620008bd57620008bc62000c2e565b5b6000620008cd858286016200085a565b9250506020620008e0858286016200085a565b9150509250929050565b620008f58162000b4f565b82525050565b620009068162000b83565b82525050565b6000604082019050620009236000830185620008ea565b620009326020830184620008ea565b9392505050565b6000602082019050620009506000830184620008fb565b92915050565b6000808291508390505b6001851115620009a85780860481111562000980576200097f62000bd0565b5b6001851615620009905780820291505b8081029050620009a08562000c33565b945062000960565b94509492505050565b6000620009be8262000b83565b9150620009cb8362000b8d565b9250620009fa7fffffffffffffffffffffffffffffffffffffffffffffffffffffffffffffffff848462000a02565b905092915050565b60008262000a14576001905062000ae7565b8162000a24576000905062000ae7565b816001811462000a3d576002811462000a485762000a7e565b600191505062000ae7565b60ff84111562000a5d5762000a5c62000bd0565b5b8360020a91508482111562000a775762000a7662000bd0565b5b5062000ae7565b5060208310610133831016604e8410600b841016171562000ab85782820a90508381111562000ab25762000ab162000bd0565b5b62000ae7565b62000ac7848484600162000956565b9250905081840481111562000ae15762000ae062000bd0565b5b81810290505b9392505050565b600062000afb8262000b83565b915062000b088362000b83565b9250817fffffffffffffffffffffffffffffffffffffffffffffffffffffffffffffffff048311821515161562000b445762000b4362000bd0565b5b828202905092915050565b600062000b5c8262000b63565b9050919050565b600073ffffffffffffffffffffffffffffffffffffffff82169050919050565b6000819050919050565b600060ff82169050919050565b6000600282049050600182168062000bb357607f821691505b6020821081141562000bca5762000bc962000bff565b5b50919050565b7f4e487b7100000000000000000000000000000000000000000000000000000000600052601160045260246000fd5b7f4e487b7100000000000000000000000000000000000000000000000000000000600052602260045260246000fd5b600080fd5b60008160011c9050919050565b62000c4b8162000b4f565b811462000c5757600080fd5b50565b60805160601c60a05160c05160601c60e05160601c6101005160601c613ce462000ce36000396000611827015260008181610ec40152611ebf015260008181610aa0015281816124e70152818161250e015281816125aa015281816125d101526129dd0152600061121e01526000818161151a0152818161282b01526128b50152613ce46000f3fe6080604052600436106102605760003560e01c80638da5cb5b11610144578063ca302ffa116100b6578063e0af36161161007a578063e0af3616146108db578063ebd3e52314610906578063f2fde38b14610931578063f420a4201461095a578063f959680b14610985578063fce589d8146109b057610267565b8063ca302ffa146107f4578063cf0848f71461081f578063d89135cd14610848578063dcd5775b14610873578063dd62ed3e1461089e57610267565b8063a457c2d711610108578063a457c2d7146106d2578063a9059cbb1461070f578063b0dc2d1c1461074c578063b3fb736914610775578063b60eaaaa146107a0578063c49b9a80146107cb57610267565b80638da5cb5b146105fb57806395d89b411461062657806398118cb4146106515780639e4928311461067c578063a071dcf4146106a757610267565b8063437823ec116101dd57806364fdb469116101a157806364fdb4691461051157806370a082311461053a578063715018a614610577578063750142e61461058e5780638456cb59146105b95780638d000264146105d057610267565b8063437823ec1461043c57806346678d591461046557806349bd5a5e146104905780634a74bb02146104bb57806354b7fd7c146104e657610267565b806323b872dd1161022457806323b872dd14610355578063313ce5671461039257806339509351146103bd5780633a4e0b97146103fa5780633f4ba83a1461042557610267565b806306fdde031461026c578063095ea7b3146102975780630adeb017146102d45780631694505e146102ff57806318160ddd1461032a57610267565b3661026757005b600080fd5b34801561027857600080fd5b506102816109db565b60405161028e91906130a4565b60405180910390f35b3480156102a357600080fd5b506102be60048036038101906102b99190612c24565b610a6d565b6040516102cb919061306e565b60405180910390f35b3480156102e057600080fd5b506102e9610a8b565b6040516102f6919061336d565b60405180910390f35b34801561030b57600080fd5b50610314610a9e565b6040516103219190613089565b60405180910390f35b34801561033657600080fd5b5061033f610ac2565b60405161034c91906132c1565b60405180910390f35b34801561036157600080fd5b5061037c60048036038101906103779190612bd1565b610acc565b604051610389919061306e565b60405180910390f35b34801561039e57600080fd5b506103a7610bcd565b6040516103b4919061336d565b60405180910390f35b3480156103c957600080fd5b506103e460048036038101906103df9190612c24565b610bd6565b6040516103f1919061306e565b60405180910390f35b34801561040657600080fd5b5061040f610c82565b60405161041c91906132c1565b60405180910390f35b34801561043157600080fd5b5061043a610c88565b005b34801561044857600080fd5b50610463600480360381019061045e9190612b37565b610d58565b005b34801561047157600080fd5b5061047a610ebc565b60405161048791906132a6565b60405180910390f35b34801561049c57600080fd5b506104a5610ec2565b6040516104b29190612ff2565b60405180910390f35b3480156104c757600080fd5b506104d0610ee6565b6040516104dd919061306e565b60405180910390f35b3480156104f257600080fd5b506104fb610ef9565b60405161050891906132c1565b60405180910390f35b34801561051d57600080fd5b5061053860048036038101906105339190612c91565b610eff565b005b34801561054657600080fd5b50610561600480360381019061055c9190612b37565b610fe5565b60405161056e91906132c1565b60405180910390f35b34801561058357600080fd5b5061058c61100c565b005b34801561059a57600080fd5b506105a3611146565b6040516105b091906132c1565b60405180910390f35b3480156105c557600080fd5b506105ce61114c565b005b3480156105dc57600080fd5b506105e561121c565b6040516105f291906132c1565b60405180910390f35b34801561060757600080fd5b50610610611240565b60405161061d9190612ff2565b60405180910390f35b34801561063257600080fd5b5061063b611269565b60405161064891906130a4565b60405180910390f35b34801561065d57600080fd5b506106666112fb565b60405161067391906132c1565b60405180910390f35b34801561068857600080fd5b50610691611301565b60405161069e919061336d565b60405180910390f35b3480156106b357600080fd5b506106bc611314565b6040516106c991906132c1565b60405180910390f35b3480156106de57600080fd5b506106f960048036038101906106f49190612c24565b61131a565b604051610706919061306e565b60405180910390f35b34801561071b57600080fd5b5061073660048036038101906107319190612c24565b61140e565b604051610743919061306e565b60405180910390f35b34801561075857600080fd5b50610773600480360381019061076e9190612c91565b61142c565b005b34801561078157600080fd5b5061078a611512565b60405161079791906132c1565b60405180910390f35b3480156107ac57600080fd5b506107b5611518565b6040516107c29190612ff2565b60405180910390f35b3480156107d757600080fd5b506107f260048036038101906107ed9190612c64565b61153c565b005b34801561080057600080fd5b5061080961160c565b60405161081691906132c1565b60405180910390f35b34801561082b57600080fd5b5061084660048036038101906108419190612b37565b611612565b005b34801561085457600080fd5b5061085d611775565b60405161086a91906132c1565b60405180910390f35b34801561087f57600080fd5b5061088861177b565b60405161089591906132c1565b60405180910390f35b3480156108aa57600080fd5b506108c560048036038101906108c09190612b91565b61179e565b6040516108d291906132c1565b60405180910390f35b3480156108e757600080fd5b506108f0611825565b6040516108fd9190612ff2565b60405180910390f35b34801561091257600080fd5b5061091b611849565b60405161092891906132c1565b60405180910390f35b34801561093d57600080fd5b5061095860048036038101906109539190612b37565b61184f565b005b34801561096657600080fd5b5061096f6119f8565b60405161097c91906132c1565b60405180910390f35b34801561099157600080fd5b5061099a6119fe565b6040516109a791906132c1565b60405180910390f35b3480156109bc57600080fd5b506109c5611a04565b6040516109d291906132c1565b60405180910390f35b6060600680546109ea9061372f565b80601f0160208091040260200160405190810160405280929190818152602001828054610a169061372f565b8015610a635780601f10610a3857610100808354040283529160200191610a63565b820191906000526020600020905b815481529060010190602001808311610a4657829003601f168201915b5050505050905090565b6000610a81610a7a611a0a565b8484611a12565b6001905092915050565b600860009054906101000a900460ff1681565b7f000000000000000000000000000000000000000000000000000000000000000081565b6000600554905090565b6000610ad9848484611bdd565b6000600260008673ffffffffffffffffffffffffffffffffffffffff1673ffffffffffffffffffffffffffffffffffffffff1681526020019081526020016000206000610b24611a0a565b73ffffffffffffffffffffffffffffffffffffffff1673ffffffffffffffffffffffffffffffffffffffff16815260200190815260200160002054905082811015610ba4576040517f08c379a0000000000000000000000000000000000000000000000000000000008152600401610b9b906131c6565b60405180910390fd5b610bc185610bb0611a0a565b8584610bbc919061362f565b611a12565b60019150509392505050565b60006012905090565b6000610c78610be3611a0a565b848460026000610bf1611a0a565b73ffffffffffffffffffffffffffffffffffffffff1673ffffffffffffffffffffffffffffffffffffffff16815260200190815260200160002060008873ffffffffffffffffffffffffffffffffffffffff1673ffffffffffffffffffffffffffffffffffffffff16815260200190815260200160002054610c7391906133dd565b611a12565b6001905092915050565b60105481565b610c90611a0a565b73ffffffffffffffffffffffffffffffffffffffff16610cae611240565b73ffffffffffffffffffffffffffffffffffffffff1614610d04576040517f08c379a0000000000000000000000000000000000000000000000000000000008152600401610cfb906131e6565b60405180910390fd5b6000601460026101000a81548160ff0219169083151502179055507f5db9ee0a495bf2e6ff9c91a7834c1ba4fdd244a5e8aa4e537bd38aeae4b073aa33604051610d4e9190612ff2565b60405180910390a1565b610d60611a0a565b73ffffffffffffffffffffffffffffffffffffffff16610d7e611240565b73ffffffffffffffffffffffffffffffffffffffff1614610dd4576040517f08c379a0000000000000000000000000000000000000000000000000000000008152600401610dcb906131e6565b60405180910390fd5b600460008273ffffffffffffffffffffffffffffffffffffffff1673ffffffffffffffffffffffffffffffffffffffff16815260200190815260200160002060009054906101000a900460ff1615610e61576040517f08c379a0000000000000000000000000000000000000000000000000000000008152600401610e5890613186565b60405180910390fd5b6001600460008373ffffffffffffffffffffffffffffffffffffffff1673ffffffffffffffffffffffffffffffffffffffff16815260200190815260200160002060006101000a81548160ff02191690831515021790555050565b61271081565b7f000000000000000000000000000000000000000000000000000000000000000081565b601460019054906101000a900460ff1681565b600f5481565b610f07611a0a565b73ffffffffffffffffffffffffffffffffffffffff16610f25611240565b73ffffffffffffffffffffffffffffffffffffffff1614610f7b576040517f08c379a0000000000000000000000000000000000000000000000000000000008152600401610f72906131e6565b60405180910390fd5b61271061ffff168160ff161115610fc7576040517f08c379a0000000000000000000000000000000000000000000000000000000008152600401610fbe90613166565b60405180910390fd5b80600860016101000a81548160ff021916908360ff16021790555050565b6000806000610ff38461201b565b91509150808261100391906133dd565b92505050919050565b611014611a0a565b73ffffffffffffffffffffffffffffffffffffffff16611032611240565b73ffffffffffffffffffffffffffffffffffffffff1614611088576040517f08c379a000000000000000000000000000000000000000000000000000000000815260040161107f906131e6565b60405180910390fd5b600073ffffffffffffffffffffffffffffffffffffffff1660008054906101000a900473ffffffffffffffffffffffffffffffffffffffff1673ffffffffffffffffffffffffffffffffffffffff167f8be0079c531659141344cd1fd0a4f28419497f9722a3daafe3b4186f6b6457e060405160405180910390a360008060006101000a81548173ffffffffffffffffffffffffffffffffffffffff021916908373ffffffffffffffffffffffffffffffffffffffff160217905550565b60035481565b611154611a0a565b73ffffffffffffffffffffffffffffffffffffffff16611172611240565b73ffffffffffffffffffffffffffffffffffffffff16146111c8576040517f08c379a00000000000000000000000000000000000000000000000000000000081526004016111bf906131e6565b60405180910390fd5b6001601460026101000a81548160ff0219169083151502179055507f62e78cea01bee320cd4e420270b5ea74000d11b0c9f74754ebdbfc544b05a258336040516112129190612ff2565b60405180910390a1565b7f000000000000000000000000000000000000000000000000000000000000000081565b60008060009054906101000a900473ffffffffffffffffffffffffffffffffffffffff16905090565b6060600780546112789061372f565b80601f01602080910402602001604051908101604052809291908181526020018280546112a49061372f565b80156112f15780601f106112c6576101008083540402835291602001916112f1565b820191906000526020600020905b8154815290600101906020018083116112d457829003601f168201915b5050505050905090565b600a5481565b600860019054906101000a900460ff1681565b60095481565b60008060026000611329611a0a565b73ffffffffffffffffffffffffffffffffffffffff1673ffffffffffffffffffffffffffffffffffffffff16815260200190815260200160002060008573ffffffffffffffffffffffffffffffffffffffff1673ffffffffffffffffffffffffffffffffffffffff168152602001908152602001600020549050828110156113e6576040517f08c379a00000000000000000000000000000000000000000000000000000000081526004016113dd90613286565b60405180910390fd5b6114036113f1611a0a565b8585846113fe919061362f565b611a12565b600191505092915050565b600061142261141b611a0a565b8484611bdd565b6001905092915050565b611434611a0a565b73ffffffffffffffffffffffffffffffffffffffff16611452611240565b73ffffffffffffffffffffffffffffffffffffffff16146114a8576040517f08c379a000000000000000000000000000000000000000000000000000000000815260040161149f906131e6565b60405180910390fd5b61271061ffff168160ff1611156114f4576040517f08c379a00000000000000000000000000000000000000000000000000000000081526004016114eb90613166565b60405180910390fd5b80600860006101000a81548160ff021916908360ff16021790555050565b600e5481565b7f000000000000000000000000000000000000000000000000000000000000000081565b611544611a0a565b73ffffffffffffffffffffffffffffffffffffffff16611562611240565b73ffffffffffffffffffffffffffffffffffffffff16146115b8576040517f08c379a00000000000000000000000000000000000000000000000000000000081526004016115af906131e6565b60405180910390fd5b80601460016101000a81548160ff0219169083151502179055507f53726dfcaf90650aa7eb35524f4d3220f07413c8d6cb404cc8c18bf5591bc15981604051611601919061306e565b60405180910390a150565b600b5481565b61161a611a0a565b73ffffffffffffffffffffffffffffffffffffffff16611638611240565b73ffffffffffffffffffffffffffffffffffffffff161461168e576040517f08c379a0000000000000000000000000000000000000000000000000000000008152600401611685906131e6565b60405180910390fd5b600460008273ffffffffffffffffffffffffffffffffffffffff1673ffffffffffffffffffffffffffffffffffffffff16815260200190815260200160002060009054906101000a900460ff1661171a576040517f08c379a000000000000000000000000000000000000000000000000000000000815260040161171190613226565b60405180910390fd5b6000600460008373ffffffffffffffffffffffffffffffffffffffff1673ffffffffffffffffffffffffffffffffffffffff16815260200190815260200160002060006101000a81548160ff02191690831515021790555050565b60135481565b6012600a61178991906134b7565b668e1bc9bf04000061179b91906135d5565b81565b6000600260008473ffffffffffffffffffffffffffffffffffffffff1673ffffffffffffffffffffffffffffffffffffffff16815260200190815260200160002060008373ffffffffffffffffffffffffffffffffffffffff1673ffffffffffffffffffffffffffffffffffffffff16815260200190815260200160002054905092915050565b7f000000000000000000000000000000000000000000000000000000000000000081565b600d5481565b611857611a0a565b73ffffffffffffffffffffffffffffffffffffffff16611875611240565b73ffffffffffffffffffffffffffffffffffffffff16146118cb576040517f08c379a00000000000000000000000000000000000000000000000000000000081526004016118c2906131e6565b60405180910390fd5b600073ffffffffffffffffffffffffffffffffffffffff168173ffffffffffffffffffffffffffffffffffffffff16141561193b576040517f08c379a0000000000000000000000000000000000000000000000000000000008152600401611932906130e6565b60405180910390fd5b8073ffffffffffffffffffffffffffffffffffffffff1660008054906101000a900473ffffffffffffffffffffffffffffffffffffffff1673ffffffffffffffffffffffffffffffffffffffff167f8be0079c531659141344cd1fd0a4f28419497f9722a3daafe3b4186f6b6457e060405160405180910390a3806000806101000a81548173ffffffffffffffffffffffffffffffffffffffff021916908373ffffffffffffffffffffffffffffffffffffffff16021790555050565b60125481565b60115481565b600c5481565b600033905090565b600073ffffffffffffffffffffffffffffffffffffffff168373ffffffffffffffffffffffffffffffffffffffff161415611a82576040517f08c379a0000000000000000000000000000000000000000000000000000000008152600401611a7990613266565b60405180910390fd5b600073ffffffffffffffffffffffffffffffffffffffff168273ffffffffffffffffffffffffffffffffffffffff161415611af2576040517f08c379a0000000000000000000000000000000000000000000000000000000008152600401611ae990613106565b60405180910390fd5b80600260008573ffffffffffffffffffffffffffffffffffffffff1673ffffffffffffffffffffffffffffffffffffffff16815260200190815260200160002060008473ffffffffffffffffffffffffffffffffffffffff1673ffffffffffffffffffffffffffffffffffffffff168152602001908152602001600020819055508173ffffffffffffffffffffffffffffffffffffffff168373ffffffffffffffffffffffffffffffffffffffff167f8c5be1e5ebec7d5bd14f71427d1e84f3dd0314c0f7b2291e5b200ac8c7c3b92583604051611bd091906132c1565b60405180910390a3505050565b601460029054906101000a900460ff1615611c2d576040517f08c379a0000000000000000000000000000000000000000000000000000000008152600401611c2490613146565b60405180910390fd5b600073ffffffffffffffffffffffffffffffffffffffff168373ffffffffffffffffffffffffffffffffffffffff161415611c9d576040517f08c379a0000000000000000000000000000000000000000000000000000000008152600401611c9490613246565b60405180910390fd5b600073ffffffffffffffffffffffffffffffffffffffff168273ffffffffffffffffffffffffffffffffffffffff161415611d0d576040517f08c379a0000000000000000000000000000000000000000000000000000000008152600401611d04906130c6565b60405180910390fd5b60008111611d50576040517f08c379a0000000000000000000000000000000000000000000000000000000008152600401611d4790613206565b60405180910390fd5b6000611d5a6120bc565b9050611d64611240565b73ffffffffffffffffffffffffffffffffffffffff168473ffffffffffffffffffffffffffffffffffffffff1614158015611dd25750611da2611240565b73ffffffffffffffffffffffffffffffffffffffff168373ffffffffffffffffffffffffffffffffffffffff1614155b15611e1b5780821115611e1a576040517f08c379a0000000000000000000000000000000000000000000000000000000008152600401611e11906131a6565b60405180910390fd5b5b81611e2585610fe5565b1015611e66576040517f08c379a0000000000000000000000000000000000000000000000000000000008152600401611e5d90613126565b60405180910390fd5b611e7084836120f4565b6000611e7b30610fe5565b9050818110611e88578190505b6000611e9261217a565b90506000818310159050808015611eb65750601460009054906101000a900460ff16155b8015611f0e57507f000000000000000000000000000000000000000000000000000000000000000073ffffffffffffffffffffffffffffffffffffffff168773ffffffffffffffffffffffffffffffffffffffff1614155b8015611f265750601460019054906101000a900460ff165b15611f3857819250611f37836121b2565b5b600060019050600460008973ffffffffffffffffffffffffffffffffffffffff1673ffffffffffffffffffffffffffffffffffffffff16815260200190815260200160002060009054906101000a900460ff168015611fe05750600460008873ffffffffffffffffffffffffffffffffffffffff1673ffffffffffffffffffffffffffffffffffffffff16815260200190815260200160002060009054906101000a900460ff165b15611fea57600090505b80611ff857611ff7612273565b5b6120038888886122b9565b8061201157612010612449565b5b5050505050505050565b6000806000600160008573ffffffffffffffffffffffffffffffffffffffff1673ffffffffffffffffffffffffffffffffffffffff16815260200190815260200160002054905060008114156120785760008092509250506120b7565b6000816005546120889190613433565b905060008114156120a1578160009350935050506120b7565b81816003546120b09190613433565b9350935050505b915091565b6000600860009054906101000a900460ff1660ff1661271061ffff166005546120e59190613433565b6120ef91906135d5565b905090565b600080612101848461246f565b9150915081600160008673ffffffffffffffffffffffffffffffffffffffff1673ffffffffffffffffffffffffffffffffffffffff1681526020019081526020016000206000828254612154919061362f565b92505081905550806011600082825461216d919061362f565b9250508190555050505050565b6000600860019054906101000a900460ff1660ff1661271061ffff166005546121a39190613433565b6121ad91906135d5565b905090565b6001601460006101000a81548160ff02191690831515021790555060006002826121dc9190613433565b9050600081836121ec919061362f565b905060004790506121fc836124d5565b6000814761220a919061362f565b905061221683826125a4565b7f17bbfb9a6069321b6ded73bd96327c9e6b7212a5cd51ff219cd61370acafb56184828560405161224993929190613336565b60405180910390a1505050506000601460006101000a81548160ff02191690831515021790555050565b600c54600d81905550600954600e81905550600a54600f8190555060105460108190555060006009819055506000600c819055506000600a819055506000600b81905550565b6000806000806122c885612671565b9350935093509350600081838587896122e1919061362f565b6122eb919061362f565b6122f5919061362f565b6122ff919061362f565b905080600160008973ffffffffffffffffffffffffffffffffffffffff1673ffffffffffffffffffffffffffffffffffffffff168152602001908152602001600020600082825461235091906133dd565b92505081905550826011600082825461236991906133dd565b9250508190555081600160003073ffffffffffffffffffffffffffffffffffffffff1673ffffffffffffffffffffffffffffffffffffffff16815260200190815260200160002060008282546123bf91906133dd565b925050819055506123d0888661271a565b6123da8885612824565b8673ffffffffffffffffffffffffffffffffffffffff168873ffffffffffffffffffffffffffffffffffffffff167fddf252ad1be2c89b69c2b068fc378daa952ba7f163c4a11628f55a4df523b3ef8360405161243791906132c1565b60405180910390a35050505050505050565b600e54600981905550600f54600a81905550601054600b81905550600d54600c81905550565b60008060008061247e8661201b565b915091506000818361249091906133dd565b9050600086826124a09190613433565b9050600081856124b09190613433565b9050600082856124c09190613433565b90508181975097505050505050509250929050565b60006124df61293c565b905061250c307f000000000000000000000000000000000000000000000000000000000000000084611a12565b7f000000000000000000000000000000000000000000000000000000000000000073ffffffffffffffffffffffffffffffffffffffff1663791ac9478360008430426040518663ffffffff1660e01b815260040161256e9594939291906132dc565b600060405180830381600087803b15801561258857600080fd5b505af115801561259c573d6000803e3d6000fd5b505050505050565b6125cf307f000000000000000000000000000000000000000000000000000000000000000084611a12565b7f000000000000000000000000000000000000000000000000000000000000000073ffffffffffffffffffffffffffffffffffffffff1663f305d719823085600080612619611240565b426040518863ffffffff1660e01b815260040161263b9695949392919061300d565b6000604051808303818588803b15801561265457600080fd5b505af1158015612668573d6000803e3d6000fd5b50505050505050565b6000806000806000600c5461271061ffff168761268e9190613433565b61269891906135d5565b90506000600b5461271061ffff16886126b19190613433565b6126bb91906135d5565b9050600060095461271061ffff16896126d49190613433565b6126de91906135d5565b90506000600a5461271061ffff168a6126f79190613433565b61270191906135d5565b9050838383839750975097509750505050509193509193565b60008160055461272a919061362f565b90506012600a61273a91906134b7565b668e1bc9bf04000061274c91906135d5565b811015612776576012600a61276191906134b7565b668e1bc9bf04000061277391906135d5565b90505b600081600554612786919061362f565b905060008111612797575050612820565b8160058190555080601360008282546127b091906133dd565b92505081905550600073ffffffffffffffffffffffffffffffffffffffff168473ffffffffffffffffffffffffffffffffffffffff167fddf252ad1be2c89b69c2b068fc378daa952ba7f163c4a11628f55a4df523b3ef8360405161281591906132c1565b60405180910390a350505b5050565b80600160007f000000000000000000000000000000000000000000000000000000000000000073ffffffffffffffffffffffffffffffffffffffff1673ffffffffffffffffffffffffffffffffffffffff168152602001908152602001600020600082825461289391906133dd565b9250508190555080601260008282546128ac91906133dd565b925050819055507f000000000000000000000000000000000000000000000000000000000000000073ffffffffffffffffffffffffffffffffffffffff168273ffffffffffffffffffffffffffffffffffffffff167fddf252ad1be2c89b69c2b068fc378daa952ba7f163c4a11628f55a4df523b3ef8360405161293091906132c1565b60405180910390a35050565b60606000600267ffffffffffffffff81111561295b5761295a61381d565b5b6040519080825280602002602001820160405280156129895781602001602082028036833780820191505090505b50905030816000815181106129a1576129a06137ee565b5b602002602001019073ffffffffffffffffffffffffffffffffffffffff16908173ffffffffffffffffffffffffffffffffffffffff16815250507f000000000000000000000000000000000000000000000000000000000000000073ffffffffffffffffffffffffffffffffffffffff1663ad5c46486040518163ffffffff1660e01b815260040160206040518083038186803b158015612a4157600080fd5b505afa158015612a55573d6000803e3d6000fd5b505050506040513d601f19601f82011682018060405250810190612a799190612b64565b81600181518110612a8d57612a8c6137ee565b5b602002602001019073ffffffffffffffffffffffffffffffffffffffff16908173ffffffffffffffffffffffffffffffffffffffff16815250508091505090565b600081359050612add81613c52565b92915050565b600081519050612af281613c52565b92915050565b600081359050612b0781613c69565b92915050565b600081359050612b1c81613c80565b92915050565b600081359050612b3181613c97565b92915050565b600060208284031215612b4d57612b4c61384c565b5b6000612b5b84828501612ace565b91505092915050565b600060208284031215612b7a57612b7961384c565b5b6000612b8884828501612ae3565b91505092915050565b60008060408385031215612ba857612ba761384c565b5b6000612bb685828601612ace565b9250506020612bc785828601612ace565b9150509250929050565b600080600060608486031215612bea57612be961384c565b5b6000612bf886828701612ace565b9350506020612c0986828701612ace565b9250506040612c1a86828701612b0d565b9150509250925092565b60008060408385031215612c3b57612c3a61384c565b5b6000612c4985828601612ace565b9250506020612c5a85828601612b0d565b9150509250929050565b600060208284031215612c7a57612c7961384c565b5b6000612c8884828501612af8565b91505092915050565b600060208284031215612ca757612ca661384c565b5b6000612cb584828501612b22565b91505092915050565b6000612cca8383612cd6565b60208301905092915050565b612cdf81613663565b82525050565b612cee81613663565b82525050565b6000612cff82613398565b612d0981856133bb565b9350612d1483613388565b8060005b83811015612d45578151612d2c8882612cbe565b9750612d37836133ae565b925050600181019050612d18565b5085935050505092915050565b612d5b81613675565b82525050565b612d6a816136c6565b82525050565b612d79816136ea565b82525050565b6000612d8a826133a3565b612d9481856133cc565b9350612da48185602086016136fc565b612dad81613851565b840191505092915050565b6000612dc56023836133cc565b9150612dd08261386f565b604082019050919050565b6000612de86026836133cc565b9150612df3826138be565b604082019050919050565b6000612e0b6022836133cc565b9150612e168261390d565b604082019050919050565b6000612e2e6026836133cc565b9150612e398261395c565b604082019050919050565b6000612e51600d836133cc565b9150612e5c826139ab565b602082019050919050565b6000612e74601f836133cc565b9150612e7f826139d4565b602082019050919050565b6000612e976017836133cc565b9150612ea2826139fd565b602082019050919050565b6000612eba6026836133cc565b9150612ec582613a26565b604082019050919050565b6000612edd6028836133cc565b9150612ee882613a75565b604082019050919050565b6000612f006020836133cc565b9150612f0b82613ac4565b602082019050919050565b6000612f236027836133cc565b9150612f2e82613aed565b604082019050919050565b6000612f466017836133cc565b9150612f5182613b3c565b602082019050919050565b6000612f696025836133cc565b9150612f7482613b65565b604082019050919050565b6000612f8c6024836133cc565b9150612f9782613bb4565b604082019050919050565b6000612faf6025836133cc565b9150612fba82613c03565b604082019050919050565b612fce81613681565b82525050565b612fdd816136af565b82525050565b612fec816136b9565b82525050565b60006020820190506130076000830184612ce5565b92915050565b600060c0820190506130226000830189612ce5565b61302f6020830188612fd4565b61303c6040830187612d70565b6130496060830186612d70565b6130566080830185612ce5565b61306360a0830184612fd4565b979650505050505050565b60006020820190506130836000830184612d52565b92915050565b600060208201905061309e6000830184612d61565b92915050565b600060208201905081810360008301526130be8184612d7f565b905092915050565b600060208201905081810360008301526130df81612db8565b9050919050565b600060208201905081810360008301526130ff81612ddb565b9050919050565b6000602082019050818103600083015261311f81612dfe565b9050919050565b6000602082019050818103600083015261313f81612e21565b9050919050565b6000602082019050818103600083015261315f81612e44565b9050919050565b6000602082019050818103600083015261317f81612e67565b9050919050565b6000602082019050818103600083015261319f81612e8a565b9050919050565b600060208201905081810360008301526131bf81612ead565b9050919050565b600060208201905081810360008301526131df81612ed0565b9050919050565b600060208201905081810360008301526131ff81612ef3565b9050919050565b6000602082019050818103600083015261321f81612f16565b9050919050565b6000602082019050818103600083015261323f81612f39565b9050919050565b6000602082019050818103600083015261325f81612f5c565b9050919050565b6000602082019050818103600083015261327f81612f7f565b9050919050565b6000602082019050818103600083015261329f81612fa2565b9050919050565b60006020820190506132bb6000830184612fc5565b92915050565b60006020820190506132d66000830184612fd4565b92915050565b600060a0820190506132f16000830188612fd4565b6132fe6020830187612d70565b81810360408301526133108186612cf4565b905061331f6060830185612ce5565b61332c6080830184612fd4565b9695505050505050565b600060608201905061334b6000830186612fd4565b6133586020830185612fd4565b6133656040830184612fd4565b949350505050565b60006020820190506133826000830184612fe3565b92915050565b6000819050602082019050919050565b600081519050919050565b600081519050919050565b6000602082019050919050565b600082825260208201905092915050565b600082825260208201905092915050565b60006133e8826136af565b91506133f3836136af565b9250827fffffffffffffffffffffffffffffffffffffffffffffffffffffffffffffffff0382111561342857613427613761565b5b828201905092915050565b600061343e826136af565b9150613449836136af565b92508261345957613458613790565b5b828204905092915050565b6000808291508390505b60018511156134ae5780860481111561348a57613489613761565b5b60018516156134995780820291505b80810290506134a785613862565b945061346e565b94509492505050565b60006134c2826136af565b91506134cd836136b9565b92506134fa7fffffffffffffffffffffffffffffffffffffffffffffffffffffffffffffffff8484613502565b905092915050565b60008261351257600190506135ce565b8161352057600090506135ce565b816001811461353657600281146135405761356f565b60019150506135ce565b60ff84111561355257613551613761565b5b8360020a91508482111561356957613568613761565b5b506135ce565b5060208310610133831016604e8410600b84101617156135a45782820a90508381111561359f5761359e613761565b5b6135ce565b6135b18484846001613464565b925090508184048111156135c8576135c7613761565b5b81810290505b9392505050565b60006135e0826136af565b91506135eb836136af565b9250817fffffffffffffffffffffffffffffffffffffffffffffffffffffffffffffffff048311821515161561362457613623613761565b5b828202905092915050565b600061363a826136af565b9150613645836136af565b92508282101561365857613657613761565b5b828203905092915050565b600061366e8261368f565b9050919050565b60008115159050919050565b600061ffff82169050919050565b600073ffffffffffffffffffffffffffffffffffffffff82169050919050565b6000819050919050565b600060ff82169050919050565b60006136d1826136d8565b9050919050565b60006136e38261368f565b9050919050565b60006136f5826136af565b9050919050565b60005b8381101561371a5780820151818401526020810190506136ff565b83811115613729576000848401525b50505050565b6000600282049050600182168061374757607f821691505b6020821081141561375b5761375a6137bf565b5b50919050565b7f4e487b7100000000000000000000000000000000000000000000000000000000600052601160045260246000fd5b7f4e487b7100000000000000000000000000000000000000000000000000000000600052601260045260246000fd5b7f4e487b7100000000000000000000000000000000000000000000000000000000600052602260045260246000fd5b7f4e487b7100000000000000000000000000000000000000000000000000000000600052603260045260246000fd5b7f4e487b7100000000000000000000000000000000000000000000000000000000600052604160045260246000fd5b600080fd5b6000601f19601f8301169050919050565b60008160011c9050919050565b7f45524332303a207472616e7366657220746f20746865207a65726f206164647260008201527f6573730000000000000000000000000000000000000000000000000000000000602082015250565b7f4f776e61626c653a206e6577206f776e657220697320746865207a65726f206160008201527f6464726573730000000000000000000000000000000000000000000000000000602082015250565b7f45524332303a20617070726f766520746f20746865207a65726f20616464726560008201527f7373000000000000000000000000000000000000000000000000000000000000602082015250565b7f45524332303a207472616e7366657220616d6f756e742065786365656473206260008201527f616c616e63650000000000000000000000000000000000000000000000000000602082015250565b7f45524332303a2070617573656400000000000000000000000000000000000000600082015250565b7f50616e64613a2070657263656e746167652076616c756520746f206869676800600082015250565b7f50616e64613a20616c7265616479206578636c75646564000000000000000000600082015250565b7f45524332303a207472616e7366657220616d6f756e742065786365656473206d60008201527f6178696d756d0000000000000000000000000000000000000000000000000000602082015250565b7f45524332303a207472616e7366657220616d6f756e742065786365656473206160008201527f6c6c6f77616e6365000000000000000000000000000000000000000000000000602082015250565b7f4f776e61626c653a2063616c6c6572206973206e6f7420746865206f776e6572600082015250565b7f45524332303a20616d6f756e74206d757374206265206772656174657220746860008201527f616e207a65726f00000000000000000000000000000000000000000000000000602082015250565b7f50616e64613a20616c726561647920696e636c75646564000000000000000000600082015250565b7f45524332303a207472616e736665722066726f6d20746865207a65726f20616460008201527f6472657373000000000000000000000000000000000000000000000000000000602082015250565b7f45524332303a20617070726f76652066726f6d20746865207a65726f2061646460008201527f7265737300000000000000000000000000000000000000000000000000000000602082015250565b7f45524332303a2064656372656173656420616c6c6f77616e63652062656c6f7760008201527f207a65726f000000000000000000000000000000000000000000000000000000602082015250565b613c5b81613663565b8114613c6657600080fd5b50565b613c7281613675565b8114613c7d57600080fd5b50565b613c89816136af565b8114613c9457600080fd5b50565b613ca0816136b9565b8114613cab57600080fd5b5056fea2646970667358221220a52d0dc2c1835d5a4a7a127bad50027412add66badbc7d92fc741bc6e8d0a24064736f6c63430008060033",
  "immutableReferences": {
    "396": [
      {
        "length": 32,
        "start": 5402
      },
      {
        "length": 32,
        "start": 10283
      },
      {
        "length": 32,
        "start": 10421
      }
    ],
    "398": [
      {
        "length": 32,
        "start": 4638
      }
    ],
    "401": [
      {
        "length": 32,
        "start": 2720
      },
      {
        "length": 32,
        "start": 9447
      },
      {
        "length": 32,
        "start": 9486
      },
      {
        "length": 32,
        "start": 9642
      },
      {
        "length": 32,
        "start": 9681
      },
      {
        "length": 32,
        "start": 10717
      }
    ],
    "403": [
      {
        "length": 32,
        "start": 3780
      },
      {
        "length": 32,
        "start": 7871
      }
    ],
    "405": [
      {
        "length": 32,
        "start": 6183
      }
    ]
  },
  "source": "// SPDX-License-Identifier: MIT\r\n\r\npragma solidity >=0.8.6 <0.9.0;\r\n\r\nimport \"./interfaces/IERC20.sol\";\r\nimport \"./security/Ownable.sol\";\r\n\r\nimport \"./interfaces/IUniswapV2Router02.sol\";\r\nimport \"./interfaces/IUniswapV2Factory.sol\";\r\n\r\n/*\r\n@@@@@@@@@@@@@@@@@@@@@@@@@@@@@@@@@@@@@@@@@@@@@@@@@@@@@@@@@@@@@@@@@@@@@@@@@@@@@@@@@@@@@@@@@@@@@@@@@@@@@@@@@@@@@@@@@@@@@@@@\r\n@@@@@@@@@@@@@@@@@@@@@@@@@@@@@@@@@@@@@@@@@@@@@@@@@@@@%,.............,&@@@@@@@@@@@@@@@@@@@@@@@@@@@@@@@@@@@@@@@@@@@@@@@@@@@\r\n@@@@@@@@@@@@@@@@@@@@@@@@@@@@@@@@@@@@@@@@@@@@@@@(...(@@@@@@@@@@@@@@@@@*...%@@@@@@@@@@@@@@@@@@@@@@@@@@@@@@@@@@@@@@@@@@@@@@\r\n@@@@@@@@@@@@@@@@@@@@@@@@@@@@@@@@@@@@@@@@@@@@...&@@@@@@@@@@@@@@@@@@@@@@@@@%..*@@@@@@@@@@@@@@@@@@@@@@@@@@@@@@@@@@@@@@@@@@@\r\n@@@@@@@@@@@@@@@@@@@@@@@@@@@@@@@@@@@@@@@@@&..@@#....&@@@@@@&##%@@@@@@@&....&@#..@@@@@@@@@@@@@@@@@@@@@@@@@@@@@@@@@@@@@@@@@\r\n@@@@@@@@@@@@@@@@@@@@@@@@@@@@@@@@@@@@@@@@..@@............#@@@@@@@(,........../@&..@@@@@@@@@@@@@@@@@@@@@@@@@@@@@@@@@@@@@@@\r\n@@@@@@@@@@@@@@@@@@@@@@@@@@@@@@@@@@@@@@/./@@........%@@@@@@@@@@@@@@@@@@.......#@@,.%@@@@@@@@@@@@@@@@@@@@@@@@@@@@@@@@@@@@@\r\n@@@@@@@@@@@@@@@@@@@@@@@@@@@@@@@@@@@@@*.%@@@.....(@@@@@@@@@@@@@@@@@@@@@@@@.....@@@/.#@@@@@@@@@@@@@@@@@@@@@@@@@@@@@@@@@@@@\r\n@@@@@@@@@@@@@@@@@@@@@@@@@@@@@@@@@@@@&.*@@@@*../@@@@@@@@@@@@@@@@@@@@@@@@@@@%..&@@@@,.@@@@@@@@@@@@@@@@@@@@@@@@@@@@@@@@@@@@\r\n@@@@@@@@@@@@@@@@@@@@@@@@@@@@@@@@@@@@..@@@@@..@@@@@.......*@@@@@.......*@@@@@..@@@@@..@@@@@@@@@@@@@@@@@@@@@@@@@@@@@@@@@@@\r\n@@@@@@@@@@@@@@@@@@@@@@@@@@@@@@@@@@@@..@@@@/.%@@@#....@@*.@@@@@@@.%@@....@@@@%.(@@@@..@@@@@@@@@@@@@@@@@@@@@@@@@@@@@@@@@@@\r\n@@@@@@@@@@@@@@@@@@@@@@@@@@@@@@@@@@@@..@@@@..@@@@........@@@@@@@@#........@@@@..@@@@..@@@@@@@@@@@@@@@@@@@@@@@@@@@@@@@@@@@\r\n@@@@@@@@@@@@@@@@@@@@@@@@@@@@@@@@@@@@,.@@@@..@@@@@,..,..@@@@...@@@@.....(@@@@@..@@@&./@@@@@@@@@@@@@@@@@@@@@@@@@@@@@@@@@@@\r\n@@@@@@@@@@@@@@@@@@@@@@@@@@@@@@@@@@@@@.,@@@@..@@@@@@@@@@@@@@@@@@@@@@@@@@@@@@@..@@@@..@@@@@@@@@@@@@@@@@@@@@@@@@@@@@@@@@@@@\r\n@@@@@@@@@@@@@@@@@@@@@@@@@@@@@@@@@@@@@%.*@@.....,@@@@@@@@@@@@@@@@@@@@@@@@@#,...*@@,.&@@@@@@@@@@@@@@@@@@@@@@@@@@@@@@@@@@@@\r\n@@@@@@@@@@@@@@@@@@@@@@@@@@@@@@@@@@@@@@%...............*%&@@@@@@@@&#,..............@@@@@@@@@@@@@@@@@@@@@@@@@@@@@@@@@@@@@@\r\n@@@@@@@@@@@@@@@@@@@@@@@@@@@@@@@@@@@@@@@@..........(@@@@@@@@@&&@@@@@@@@*..........@@@@@@@@@@@@@@@@@@@@@@@@@@@@@@@@@@@@@@@\r\n@@@@@@@@@@@@@@@@@@@@@@@@@@@@@@@@@@@@@@@@@@............,*@#######%*.............@@@@@@@@@@@@@@@@@@@@@@@@@@@@@@@@@@@@@@@@@\r\n@@@@@@@@@@@@@@@@@@@@@@@@@@@@@@@@@@@@@@@@@@@@%............,(#%%#,............%@@@@@@@@@@@@@@@@@@@@@@@@@@@@@@@@@@@@@@@@@@@\r\n@@@@@@@@@@@@@@@@@@@@@@@@@@@@@@@@@@@@@@@@@@@@@@@@.,......../////........,,@@@@@@@@@@@@@@@@@@@@@@@@@@@@@@@@@@@@@@@@@@@@@@@\r\n@@@@@@@@@@@@@@@@@@@@@@@@@@@@@@@@@@@@@@@@@@@@@@@@@@@&......))(((......@@@@@@@@@@@@@@@@@@@@@@@@@@@@@@@@@@@@@@@@@@@@@@@@@@@\r\n@@@@@@@@@@@@@@@@@@@@@@@@@@@@@@@@@@@@@@@@@@@@@@@@@@@@@@&*%@@@@@@@%*&@@@@@@@@@@@@@@@@@@@@@@@@@@@@@@@@@@@@@@@@@@@@@@@@@@@@@\r\n@@@@@@@@@@@@@@@@@@@@@@@@@@@@@@@@@@@@@@@@@@@@@@@@@@@@@@@@@@@@@@@@@@@@@@@@@@@@@@@@@@@@@@@@@@@@@@@@@@@@@@@@@@@@@@@@@@@@@@@@\r\n@@@@@@@@@@@@@@@@@@@@@@@@@@@@@@@@@@@@@@@@@@@@@@@@@@@@@@@@@@@@@@@@@@@@@@@@@@@@@@@@@@@@@@@@@@@@@@@@@@@@@@@@@@@@@@@@@@@@@@@@\r\n@@@@@@@@@@@@@@@@@@@@@@@@@@@@@@@@@@@@@@@@@@@@@@@@@@@@@@@@@@@@@@@@@@@@@@@@@@@@@@@@@@@@@@@@@@@@@@@@@@@@@@@@@@@@@@@@@@@@@@@@\r\n@@@@@@@@@@@@@@@@@@@@@@@@@@@@@@@@@@@@@@@@@@@@@@@@@@@@@@@@@@@@@@@@@@@@@&@@@@@@@@@@@@@@@@@@@@@@@@@@@@@@@@@@@@@@@@@@@@@@@@@@\r\n@@@@@@@@@@@@@@@@@@@@@@@@@@@..@@@@@%..@@*./@@@@@..@@&...@@@@%..@@@..,@@@*,@@@@..@@%..@@&..@@#..@@@@@@@@@@@@@@@@@@@@@@@@@@\r\n@@@@@@@@@@@@@@@@@@@@@@@@@@@..........@@*./@@@@@..@@&..(.,@@%..@&..@@@,....#@@.......@@@@,...#@@@@@@@@@@@@@@@@@@@@@@@@@@@\r\n@@@@@@@@@@@@@@@@@@@@@@@@@@@..@@@@@%..@@*./@@@@@..@@&..@@%..(..@@..@@@@@@,.#@@..@*..@@@@@@..%@@@@@@@@@@@@@@@@@@@@@@@@@@@@\r\n@@@@@@@@@@@@@@@@@@@@@@@@@@@..@@@@@%..@@@...*(...@@@&..@@@@&...@@@...,(*..,@@@..@@@/..@@@@..%@@@@@@@@@@@@@@@@@@@@@@@@@@@@\r\n@@@@@@@@@@@@@@@@@@@@@@@@@@@@@@@@@@@@@@@@@@@@@@@@@@@@@@@@@@@@@@@@@@@@@@@@@@@@@@@@@@@@@@@@@@@@@@@@@@@@@@@@@@@@@@@@@@@@@@@@\r\n@@@@@@@@@@@@@@@@@@@@@@@@@@@@@@@@@@@@@@@@@@@@@@@@@@@@@@@@@@@@@@@@@@@@@@@@@@@@@@@@@@@@@@@@@@@@@@@@@@@@@@@@@@@@@@@@@@@@@@@@\r\n@@@@@@@@@@@@@@@@@@@@@@@@@@@@@@@@@@..**,...@@@(../@@@@@...@@@@@..@@@..*,....@@@@@@...@@@@@@@@@@@@@@@@@@@@@@@@@@@@@@@@@@@@\r\n@@@@@@@@@@@@@@@@@@@@@@@@@@@@@@@@@@..@@@@.,@@/.,,.*@@@@..(.,@@@..@@@..@@@@@..&@@@,.%..@@@@@@@@@@@@@@@@@@@@@@@@@@@@@@@@@@@\r\n@@@@@@@@@@@@@@@@@@@@@@@@@@@@@@@@@@..(((%@@@,.*&&,.,@@@..@@%..&..@@@..@@@@@..#@%..&&%..@@@@@@@@@@@@@@@@@@@@@@@@@@@@@@@@@@\r\n@@@@@@@@@@@@@@@@@@@@@@@@@@@@@@@@@@..@@@@@@,./@@@@(.,@@..@@@@@...@@@..@@%,..&@#..@@@@@..@@@@@@@@@@@@@@@@@@@@@@@@@@@@@@@@@\r\n@@@@@@@@@@@@@@@@@@@@@@@@@@@@@@@@@@@@@@@@@@@@@@@@@@@@@@@@@@@@@@@@@@@@@@@@@@@@@@@@@@@@@@@@@@@@@@@@@@@@@@@@@@@@@@@@@@@@@@@@\r\n */\r\n\r\ncontract HungryPanda is Ownable, IERC20 {\r\n    mapping(address => uint256) private _balances;\r\n    mapping(address => mapping(address => uint256)) private _allowances;\r\n    uint256 public totalReward;\r\n    mapping(address => bool) private excludedFromFee;\r\n\r\n    uint8 private constant _decimals = 18;\r\n    uint256 private constant DECIMALFACTOR = 10**_decimals;\r\n    uint256 private _totalSupply = 10**17 * DECIMALFACTOR; // 100 000 000 000 000 000\r\n\r\n    string private _name = \"HungryPanda\";\r\n    string private _symbol = \"HGP\";\r\n\r\n    uint256 public constant minimalSupply = 4 * 10**16 * DECIMALFACTOR; // 60% can be burnt 40 000 000 000 000 000\r\n    uint16 public constant percentageGranularity = 10000;\r\n    uint8 public maxTxAmountPercentage = 100; // 1%\r\n    uint8 public numTokensSellToAddLiquidityPercentage = 1; // 0,01%\r\n\r\n    uint256 public taxFee = 400; // 4%\r\n    uint256 public liquidityFee = 400; // 4%\r\n    uint256 public supportFee = 100; // 1%\r\n    uint256 public burnFee = 100; // 1%\r\n\r\n    uint256 public burnFeeOrigin = burnFee;\r\n    uint256 public taxFeeOrigin = taxFee;\r\n    uint256 public liquidityFeeOrigin = liquidityFee;\r\n    uint256 public supportFeeOrigin = supportFee;\r\n\r\n    uint256 public rewardTotal = 0;\r\n    uint256 public totalSupported = 0;\r\n    uint256 public totalBurned = 0;\r\n\r\n    address public immutable supportWallet;\r\n\r\n    uint256 public immutable bornAtTime;\r\n\r\n    IUniswapV2Router02 public immutable uniswapV2Router;\r\n    address public immutable uniswapV2Pair;\r\n    address public immutable _WETH;\r\n\r\n    bool locker;\r\n    bool public swapAndLiquifyEnabled = true;\r\n    bool private _paused = false;\r\n\r\n    event MinTokensBeforeSwapUpdated(uint256 minTokensBeforeSwap);\r\n    event SwapAndLiquifyEnabledUpdated(bool enabled);\r\n    event SwapAndLiquify(\r\n        uint256 tokensSwapped,\r\n        uint256 ethReceived,\r\n        uint256 tokensIntoLiqudity\r\n    );\r\n\r\n    event Paused(address account);\r\n    event Unpaused(address account);\r\n\r\n    modifier lockMutex {\r\n        locker = true;\r\n        _;\r\n        locker = false;\r\n    }\r\n\r\n    modifier whenNotPaused {\r\n        require(!_paused, \"ERC20: paused\");\r\n        _;\r\n    }\r\n\r\n    constructor(address _router, address _wallet) Ownable() {\r\n        bornAtTime = block.timestamp;\r\n\r\n        IUniswapV2Router02 _uniswapV2Router = IUniswapV2Router02(_router);\r\n        // Create a uniswap pair for this new token\r\n        address _uniswapV2Pair = IUniswapV2Factory(_uniswapV2Router.factory())\r\n        .createPair(address(this), _uniswapV2Router.WETH());\r\n\r\n        // set the rest of the contract variables\r\n        uniswapV2Router = _uniswapV2Router;\r\n        _WETH = _uniswapV2Router.WETH();\r\n        uniswapV2Pair = _uniswapV2Pair;\r\n        // transfer ownership to contract\r\n        excludedFromFee[address(this)] = true;\r\n        excludedFromFee[_msgSender()] = true;\r\n        excludedFromFee[address(_uniswapV2Router)] = true;\r\n        excludedFromFee[_uniswapV2Pair] = true;\r\n\r\n        supportWallet = _wallet;\r\n\r\n        _balances[_msgSender()] = _totalSupply;\r\n        emit Transfer(address(0), _msgSender(), _totalSupply);\r\n    }\r\n\r\n    //to recieve ETH from uniswapV2Router when swaping\r\n    receive() external payable {}\r\n\r\n    function name() public view returns (string memory) {\r\n        return _name;\r\n    }\r\n\r\n    function symbol() public view returns (string memory) {\r\n        return _symbol;\r\n    }\r\n\r\n    function decimals() public pure returns (uint8) {\r\n        return _decimals;\r\n    }\r\n\r\n    function totalSupply() public view override returns (uint256) {\r\n        return _totalSupply;\r\n    }\r\n\r\n    function balanceOf(address _account)\r\n        public\r\n        view\r\n        override\r\n        returns (uint256)\r\n    {\r\n        (uint256 constBalance, uint256 rewardBalance) = _getBalances(_account);\r\n        return (constBalance + rewardBalance);\r\n    }\r\n\r\n    function transfer(address _recipient, uint256 _amount)\r\n        public\r\n        override\r\n        returns (bool)\r\n    {\r\n        _transfer(_msgSender(), _recipient, _amount);\r\n        return true;\r\n    }\r\n\r\n    function allowance(address _owner, address _spender)\r\n        public\r\n        view\r\n        override\r\n        returns (uint256)\r\n    {\r\n        return _allowances[_owner][_spender];\r\n    }\r\n\r\n    function approve(address _spender, uint256 _amount)\r\n        public\r\n        override\r\n        returns (bool)\r\n    {\r\n        _approve(_msgSender(), _spender, _amount);\r\n        return true;\r\n    }\r\n\r\n    function transferFrom(\r\n        address _sender,\r\n        address _recipient,\r\n        uint256 _amount\r\n    ) public override returns (bool) {\r\n        _transfer(_sender, _recipient, _amount);\r\n\r\n        uint256 currentAllowance = _allowances[_sender][_msgSender()];\r\n        require(\r\n            currentAllowance >= _amount,\r\n            \"ERC20: transfer amount exceeds allowance\"\r\n        );\r\n        _approve(_sender, _msgSender(), currentAllowance - _amount);\r\n\r\n        return true;\r\n    }\r\n\r\n    function increaseAllowance(address spender, uint256 addedValue)\r\n        public\r\n        returns (bool)\r\n    {\r\n        _approve(\r\n            _msgSender(),\r\n            spender,\r\n            _allowances[_msgSender()][spender] + addedValue\r\n        );\r\n        return true;\r\n    }\r\n\r\n    function decreaseAllowance(address _spender, uint256 subtractedValue)\r\n        public\r\n        returns (bool)\r\n    {\r\n        uint256 currentAllowance = _allowances[_msgSender()][_spender];\r\n        require(\r\n            currentAllowance >= subtractedValue,\r\n            \"ERC20: decreased allowance below zero\"\r\n        );\r\n        _approve(_msgSender(), _spender, currentAllowance - subtractedValue);\r\n\r\n        return true;\r\n    }\r\n\r\n    // Public interface ...\r\n    function setMaxTxAmountPercent(uint8 _percentage) public onlyOwner {\r\n        require(\r\n            _percentage <= percentageGranularity,\r\n            \"Panda: percentage value to high\"\r\n        );\r\n        maxTxAmountPercentage = _percentage;\r\n    }\r\n\r\n    function setNumTokensSellToAddLiquidity(uint8 _percentage)\r\n        public\r\n        onlyOwner\r\n    {\r\n        require(\r\n            _percentage <= percentageGranularity,\r\n            \"Panda: percentage value to high\"\r\n        );\r\n        numTokensSellToAddLiquidityPercentage = _percentage;\r\n    }\r\n\r\n    function setSwapAndLiquifyEnabled(bool _enabled) public onlyOwner {\r\n        swapAndLiquifyEnabled = _enabled;\r\n        emit SwapAndLiquifyEnabledUpdated(_enabled);\r\n    }\r\n\r\n    function excludeFromFee(address _address) public onlyOwner {\r\n        require(!excludedFromFee[_address], \"Panda: already excluded\");\r\n        excludedFromFee[_address] = true;\r\n    }\r\n\r\n    function includeToFee(address _address) public onlyOwner {\r\n        require(excludedFromFee[_address], \"Panda: already included\");\r\n        excludedFromFee[_address] = false;\r\n    }\r\n\r\n    function pause() public onlyOwner {\r\n        _paused = true;\r\n        emit Paused(msg.sender);\r\n    }\r\n\r\n    function unpause() public onlyOwner {\r\n        _paused = false;\r\n        emit Unpaused(msg.sender);\r\n    }\r\n\r\n    // Private interface ...\r\n    function _swapAndLiquify(uint256 contractTokenBalance) private lockMutex {\r\n        // split the contract balance into halves\r\n        uint256 half = contractTokenBalance / 2;\r\n        uint256 otherHalf = contractTokenBalance - half;\r\n\r\n        // capture the contract's current ETH balance.\r\n        // this is so that we can capture exactly the amount of ETH that the\r\n        // swap creates, and not make the liquidity event include any ETH that\r\n        // has been manually sent to the contract\r\n        uint256 initialBalance = address(this).balance;\r\n\r\n        // swap tokens for ETH\r\n        _swapTokensForEth(half); // <- this breaks the ETH -> HATE swap when swap+liquify is triggered\r\n\r\n        // how much ETH did we just swap into?\r\n        uint256 newBalance = address(this).balance - initialBalance;\r\n\r\n        // add liquidity to uniswap\r\n        _addLiquidity(otherHalf, newBalance);\r\n\r\n        emit SwapAndLiquify(half, newBalance, otherHalf);\r\n    }\r\n\r\n    function _makePairPath() private view returns (address[] memory) {\r\n        address[] memory path = new address[](2);\r\n        path[0] = address(this);\r\n        path[1] = uniswapV2Router.WETH();\r\n        return path;\r\n    }\r\n\r\n    function _swapTokensForEth(uint256 tokenAmount) private {\r\n        address[] memory path = _makePairPath();\r\n\r\n        _approve(address(this), address(uniswapV2Router), tokenAmount);\r\n        uniswapV2Router.swapExactTokensForETHSupportingFeeOnTransferTokens(\r\n            tokenAmount,\r\n            0, // accept any amount of ETH\r\n            path,\r\n            address(this),\r\n            block.timestamp\r\n        );\r\n    }\r\n\r\n    function _addLiquidity(uint256 tokenAmount, uint256 ethAmount) private {\r\n        // approve token transfer to cover all possible scenarios\r\n        _approve(address(this), address(uniswapV2Router), tokenAmount);\r\n\r\n        // add the liquidity\r\n        uniswapV2Router.addLiquidityETH{value: ethAmount}(\r\n            address(this),\r\n            tokenAmount,\r\n            0, // slippage is unavoidable\r\n            0, // slippage is unavoidable\r\n            owner(),\r\n            block.timestamp\r\n        );\r\n    }\r\n\r\n    function _approve(\r\n        address _owner,\r\n        address _spender,\r\n        uint256 _amount\r\n    ) internal virtual {\r\n        require(_owner != address(0), \"ERC20: approve from the zero address\");\r\n        require(_spender != address(0), \"ERC20: approve to the zero address\");\r\n\r\n        _allowances[_owner][_spender] = _amount;\r\n        emit Approval(_owner, _spender, _amount);\r\n    }\r\n\r\n    function _getBalances(address _holder)\r\n        private\r\n        view\r\n        returns (uint256, uint256)\r\n    {\r\n        uint256 balance = _balances[_holder];\r\n        if (balance == 0) {\r\n            return (0, 0);\r\n        }\r\n        uint256 rate = _totalSupply / balance;\r\n        if (rate == 0) {\r\n            return (balance, 0);\r\n        }\r\n        return (balance, totalReward / rate);\r\n    }\r\n\r\n    function _transfer(\r\n        address _sender,\r\n        address _recipient,\r\n        uint256 _amount\r\n    ) internal whenNotPaused {\r\n        require(_sender != address(0), \"ERC20: transfer from the zero address\");\r\n        require(\r\n            _recipient != address(0),\r\n            \"ERC20: transfer to the zero address\"\r\n        );\r\n        require(_amount > 0, \"ERC20: amount must be greater than zero\");\r\n        uint256 maxTxAmount = _maxTxAmount();\r\n        if (_sender != owner() && _recipient != owner()) {\r\n            require(\r\n                _amount <= maxTxAmount,\r\n                \"ERC20: transfer amount exceeds maximum\"\r\n            );\r\n        }\r\n        require(\r\n            balanceOf(_sender) >= _amount,\r\n            \"ERC20: transfer amount exceeds balance\"\r\n        );\r\n        // substruct sender balance and total owned rewards\r\n        _reflectSender(_sender, _amount);\r\n\r\n        // add liquidity logic ...\r\n        uint256 contractTokenBalance = balanceOf(address(this));\r\n        if (contractTokenBalance >= maxTxAmount) {\r\n            // should we ?\r\n            contractTokenBalance = maxTxAmount;\r\n        }\r\n\r\n        uint256 numTokensSellToAddLiquidity = _numTokensSellToAddLiquidity();\r\n        bool overMinTokenBalance = contractTokenBalance >=\r\n            numTokensSellToAddLiquidity;\r\n        if (\r\n            overMinTokenBalance &&\r\n            !locker &&\r\n            _sender != uniswapV2Pair &&\r\n            swapAndLiquifyEnabled\r\n        ) {\r\n            contractTokenBalance = numTokensSellToAddLiquidity;\r\n            _swapAndLiquify(contractTokenBalance);\r\n        }\r\n\r\n        // transfer with fee logic ...\r\n        bool takeFee = true;\r\n        if (excludedFromFee[_sender] && excludedFromFee[_recipient]) {\r\n            takeFee = false;\r\n        }\r\n        if (!takeFee) _disableFee();\r\n        _transferWithFee(_sender, _recipient, _amount);\r\n        if (!takeFee) _enableFee();\r\n    }\r\n\r\n    function _transferWithFee(\r\n        address _sender,\r\n        address _recipient,\r\n        uint256 _amount\r\n    ) private {\r\n        // calculate fee ...\r\n        (\r\n            uint256 _burnFee,\r\n            uint256 _supportFee,\r\n            uint256 _taxFee,\r\n            uint256 _liquidityFee\r\n        ) = _calculateFees(_amount);\r\n        uint256 _toTransferAmount = _amount -\r\n            _burnFee -\r\n            _supportFee -\r\n            _taxFee -\r\n            _liquidityFee;\r\n\r\n        _balances[_recipient] += _toTransferAmount;\r\n        rewardTotal += _taxFee;\r\n        // reflect fees\r\n        _balances[address(this)] += _liquidityFee;\r\n        _burn(_sender, _burnFee);\r\n        _takeSupport(_sender, _supportFee);\r\n        emit Transfer(_sender, _recipient, _toTransferAmount);\r\n    }\r\n\r\n    function _reflectSender(address _sender, uint256 _amount) private {\r\n        // substract sender balance\r\n        (uint256 _rBalance, uint256 _rReward) = _getRValues(_sender, _amount);\r\n        _balances[_sender] -= _rBalance;\r\n        // if rewardTotal is zero substructReward is also zero\r\n        rewardTotal -= _rReward;\r\n    }\r\n\r\n    function _getRValues(address _sender, uint256 _amount)\r\n        private\r\n        view\r\n        returns (uint256, uint256)\r\n    {\r\n        (uint256 persistBalance, uint256 rewardBalance) = _getBalances(_sender);\r\n        uint256 total = persistBalance + rewardBalance;\r\n        // split amount into parts\r\n        uint256 rate = total / _amount;\r\n        uint256 substructBalance = persistBalance / rate;\r\n        uint256 substructReward = rewardBalance / rate;\r\n        return (substructBalance, substructReward);\r\n    }\r\n\r\n    function _calculateFees(uint256 _amount)\r\n        private\r\n        view\r\n        returns (\r\n            uint256,\r\n            uint256,\r\n            uint256,\r\n            uint256\r\n        )\r\n    {\r\n        uint256 amountToBurn = (_amount / percentageGranularity) * burnFee;\r\n        uint256 amountToSupport = (_amount / percentageGranularity) *\r\n            supportFee;\r\n        uint256 amountToCharge = (_amount / percentageGranularity) * taxFee;\r\n        uint256 amountToAddLiquidity = (_amount / percentageGranularity) *\r\n            liquidityFee;\r\n        return (\r\n            amountToBurn,\r\n            amountToSupport,\r\n            amountToCharge,\r\n            amountToAddLiquidity\r\n        );\r\n    }\r\n\r\n    function _maxTxAmount() private view returns (uint256) {\r\n        return (_totalSupply / percentageGranularity) * maxTxAmountPercentage;\r\n    }\r\n\r\n    function _numTokensSellToAddLiquidity() private view returns (uint256) {\r\n        return\r\n            (_totalSupply / percentageGranularity) *\r\n            numTokensSellToAddLiquidityPercentage;\r\n    }\r\n\r\n    function _disableFee() private {\r\n        burnFeeOrigin = burnFee;\r\n        taxFeeOrigin = taxFee;\r\n        liquidityFeeOrigin = liquidityFee;\r\n        supportFeeOrigin = supportFeeOrigin;\r\n        taxFee = 0;\r\n        burnFee = 0;\r\n        liquidityFee = 0;\r\n        supportFee = 0;\r\n    }\r\n\r\n    function _enableFee() private {\r\n        taxFee = taxFeeOrigin;\r\n        liquidityFee = liquidityFeeOrigin;\r\n        supportFee = supportFeeOrigin;\r\n        burnFee = burnFeeOrigin;\r\n    }\r\n\r\n    function _takeSupport(address _sender, uint256 _toBeTaken) private {\r\n        _balances[supportWallet] += _toBeTaken;\r\n        totalSupported += _toBeTaken;\r\n        emit Transfer(_sender, supportWallet, _toBeTaken);\r\n    }\r\n\r\n    function _burn(address _sender, uint256 _toBeBurned) private {\r\n        uint256 newSupply = _totalSupply - _toBeBurned;\r\n        if (newSupply < minimalSupply) {\r\n            newSupply = minimalSupply;\r\n        }\r\n        uint256 reallyBurned = _totalSupply - newSupply;\r\n        if (reallyBurned <= 0) {\r\n            return;\r\n        }\r\n        _totalSupply = newSupply;\r\n        totalBurned += reallyBurned;\r\n        emit Transfer(_sender, address(0), reallyBurned);\r\n    }\r\n}\r\n",
  "sourcePath": "C:/Users/skyne/Dev/work/crypto/hungrypanda/contracts/HungryPanda.sol",
  "compiler": {
    "name": "solc",
    "version": "0.8.6+commit.11564f7e.Emscripten.clang"
  },
  "schemaVersion": "3.4.1",
  "updatedAt": "2021-07-10T08:20:43.359Z",
  "devdoc": {
    "kind": "dev",
    "methods": {
      "owner()": {
        "details": "Returns the address of the current owner."
      },
      "renounceOwnership()": {
        "details": "Leaves the contract without owner. It will not be possible to call `onlyOwner` functions anymore. Can only be called by the current owner. NOTE: Renouncing ownership will leave the contract without an owner, thereby removing any functionality that is only available to the owner."
      },
      "totalSupply()": {
        "details": "Returns the amount of tokens in existence."
      },
      "transferOwnership(address)": {
        "details": "Transfers ownership of the contract to a new account (`newOwner`). Can only be called by the current owner."
      }
    },
    "version": 1
  },
  "userdoc": {
    "kind": "user",
    "methods": {},
    "version": 1
  }
}