{
  "contractName": "HungryPanda",
  "abi": [
    {
      "inputs": [
        {
          "internalType": "address",
          "name": "_router",
          "type": "address"
        },
        {
          "internalType": "address",
          "name": "_wallet",
          "type": "address"
        }
      ],
      "stateMutability": "nonpayable",
      "type": "constructor"
    },
    {
      "anonymous": false,
      "inputs": [
        {
          "indexed": true,
          "internalType": "address",
          "name": "owner",
          "type": "address"
        },
        {
          "indexed": true,
          "internalType": "address",
          "name": "spender",
          "type": "address"
        },
        {
          "indexed": false,
          "internalType": "uint256",
          "name": "value",
          "type": "uint256"
        }
      ],
      "name": "Approval",
      "type": "event"
    },
    {
      "anonymous": false,
      "inputs": [
        {
          "indexed": false,
          "internalType": "uint256",
          "name": "minTokensBeforeSwap",
          "type": "uint256"
        }
      ],
      "name": "MinTokensBeforeSwapUpdated",
      "type": "event"
    },
    {
      "anonymous": false,
      "inputs": [
        {
          "indexed": true,
          "internalType": "address",
          "name": "previousOwner",
          "type": "address"
        },
        {
          "indexed": true,
          "internalType": "address",
          "name": "newOwner",
          "type": "address"
        }
      ],
      "name": "OwnershipTransferred",
      "type": "event"
    },
    {
      "anonymous": false,
      "inputs": [
        {
          "indexed": false,
          "internalType": "uint256",
          "name": "tokensSwapped",
          "type": "uint256"
        },
        {
          "indexed": false,
          "internalType": "uint256",
          "name": "ethReceived",
          "type": "uint256"
        },
        {
          "indexed": false,
          "internalType": "uint256",
          "name": "tokensIntoLiqudity",
          "type": "uint256"
        }
      ],
      "name": "SwapAndLiquify",
      "type": "event"
    },
    {
      "anonymous": false,
      "inputs": [
        {
          "indexed": false,
          "internalType": "bool",
          "name": "enabled",
          "type": "bool"
        }
      ],
      "name": "SwapAndLiquifyEnabledUpdated",
      "type": "event"
    },
    {
      "anonymous": false,
      "inputs": [
        {
          "indexed": true,
          "internalType": "address",
          "name": "from",
          "type": "address"
        },
        {
          "indexed": true,
          "internalType": "address",
          "name": "to",
          "type": "address"
        },
        {
          "indexed": false,
          "internalType": "uint256",
          "name": "value",
          "type": "uint256"
        }
      ],
      "name": "Transfer",
      "type": "event"
    },
    {
      "inputs": [],
      "name": "_WETH",
      "outputs": [
        {
          "internalType": "address",
          "name": "",
          "type": "address"
        }
      ],
      "stateMutability": "view",
      "type": "function"
    },
    {
      "inputs": [],
      "name": "bornAtTime",
      "outputs": [
        {
          "internalType": "uint256",
          "name": "",
          "type": "uint256"
        }
      ],
      "stateMutability": "view",
      "type": "function"
    },
    {
      "inputs": [],
      "name": "burnFee",
      "outputs": [
        {
          "internalType": "uint256",
          "name": "",
          "type": "uint256"
        }
      ],
      "stateMutability": "view",
      "type": "function"
    },
    {
      "inputs": [],
      "name": "burnFeeOrigin",
      "outputs": [
        {
          "internalType": "uint256",
          "name": "",
          "type": "uint256"
        }
      ],
      "stateMutability": "view",
      "type": "function"
    },
    {
      "inputs": [],
      "name": "feeGranularity",
      "outputs": [
        {
          "internalType": "uint256",
          "name": "",
          "type": "uint256"
        }
      ],
      "stateMutability": "view",
      "type": "function"
    },
    {
      "inputs": [
        {
          "internalType": "uint256",
          "name": "",
          "type": "uint256"
        }
      ],
      "name": "holdersRewarded",
      "outputs": [
        {
          "internalType": "address",
          "name": "",
          "type": "address"
        }
      ],
      "stateMutability": "view",
      "type": "function"
    },
    {
      "inputs": [],
      "name": "liquidityFee",
      "outputs": [
        {
          "internalType": "uint256",
          "name": "",
          "type": "uint256"
        }
      ],
      "stateMutability": "view",
      "type": "function"
    },
    {
      "inputs": [],
      "name": "liquidityFeeOrigin",
      "outputs": [
        {
          "internalType": "uint256",
          "name": "",
          "type": "uint256"
        }
      ],
      "stateMutability": "view",
      "type": "function"
    },
    {
      "inputs": [],
      "name": "maxTxAmount",
      "outputs": [
        {
          "internalType": "uint256",
          "name": "",
          "type": "uint256"
        }
      ],
      "stateMutability": "view",
      "type": "function"
    },
    {
      "inputs": [],
      "name": "minimalSupply",
      "outputs": [
        {
          "internalType": "uint256",
          "name": "",
          "type": "uint256"
        }
      ],
      "stateMutability": "view",
      "type": "function"
    },
    {
      "inputs": [],
      "name": "numTokensSellToAddLiquidity",
      "outputs": [
        {
          "internalType": "uint256",
          "name": "",
          "type": "uint256"
        }
      ],
      "stateMutability": "view",
      "type": "function"
    },
    {
      "inputs": [],
      "name": "owner",
      "outputs": [
        {
          "internalType": "address",
          "name": "",
          "type": "address"
        }
      ],
      "stateMutability": "view",
      "type": "function"
    },
    {
      "inputs": [],
      "name": "renounceOwnership",
      "outputs": [],
      "stateMutability": "nonpayable",
      "type": "function"
    },
    {
      "inputs": [],
      "name": "rewardTotal",
      "outputs": [
        {
          "internalType": "uint256",
          "name": "",
          "type": "uint256"
        }
      ],
      "stateMutability": "view",
      "type": "function"
    },
    {
      "inputs": [],
      "name": "supportFee",
      "outputs": [
        {
          "internalType": "uint256",
          "name": "",
          "type": "uint256"
        }
      ],
      "stateMutability": "view",
      "type": "function"
    },
    {
      "inputs": [],
      "name": "supportFeeOrigin",
      "outputs": [
        {
          "internalType": "uint256",
          "name": "",
          "type": "uint256"
        }
      ],
      "stateMutability": "view",
      "type": "function"
    },
    {
      "inputs": [],
      "name": "supportWallet",
      "outputs": [
        {
          "internalType": "address",
          "name": "",
          "type": "address"
        }
      ],
      "stateMutability": "view",
      "type": "function"
    },
    {
      "inputs": [],
      "name": "swapAndLiquifyEnabled",
      "outputs": [
        {
          "internalType": "bool",
          "name": "",
          "type": "bool"
        }
      ],
      "stateMutability": "view",
      "type": "function"
    },
    {
      "inputs": [],
      "name": "taxFee",
      "outputs": [
        {
          "internalType": "uint256",
          "name": "",
          "type": "uint256"
        }
      ],
      "stateMutability": "view",
      "type": "function"
    },
    {
      "inputs": [],
      "name": "taxFeeOrigin",
      "outputs": [
        {
          "internalType": "uint256",
          "name": "",
          "type": "uint256"
        }
      ],
      "stateMutability": "view",
      "type": "function"
    },
    {
      "inputs": [],
      "name": "totalBurned",
      "outputs": [
        {
          "internalType": "uint256",
          "name": "",
          "type": "uint256"
        }
      ],
      "stateMutability": "view",
      "type": "function"
    },
    {
      "inputs": [],
      "name": "totalSupported",
      "outputs": [
        {
          "internalType": "uint256",
          "name": "",
          "type": "uint256"
        }
      ],
      "stateMutability": "view",
      "type": "function"
    },
    {
      "inputs": [
        {
          "internalType": "address",
          "name": "newOwner",
          "type": "address"
        }
      ],
      "name": "transferOwnership",
      "outputs": [],
      "stateMutability": "nonpayable",
      "type": "function"
    },
    {
      "inputs": [],
      "name": "uniswapV2Pair",
      "outputs": [
        {
          "internalType": "address",
          "name": "",
          "type": "address"
        }
      ],
      "stateMutability": "view",
      "type": "function"
    },
    {
      "inputs": [],
      "name": "uniswapV2Router",
      "outputs": [
        {
          "internalType": "contract IUniswapV2Router02",
          "name": "",
          "type": "address"
        }
      ],
      "stateMutability": "view",
      "type": "function"
    },
    {
      "stateMutability": "payable",
      "type": "receive"
    },
    {
      "inputs": [
        {
          "internalType": "bool",
          "name": "_enabled",
          "type": "bool"
        }
      ],
      "name": "setSwapAndLiquifyEnabled",
      "outputs": [],
      "stateMutability": "nonpayable",
      "type": "function"
    },
    {
      "inputs": [
        {
          "internalType": "uint256",
          "name": "period",
          "type": "uint256"
        }
      ],
      "name": "timePeriods",
      "outputs": [
        {
          "internalType": "uint256",
          "name": "",
          "type": "uint256"
        }
      ],
      "stateMutability": "view",
      "type": "function"
    },
    {
      "inputs": [],
      "name": "calculateMaxTxAmount",
      "outputs": [
        {
          "internalType": "uint256",
          "name": "",
          "type": "uint256"
        }
      ],
      "stateMutability": "view",
      "type": "function"
    },
    {
      "inputs": [],
      "name": "calculateExtraFee",
      "outputs": [
        {
          "internalType": "uint256",
          "name": "",
          "type": "uint256"
        }
      ],
      "stateMutability": "view",
      "type": "function"
    },
    {
      "inputs": [
        {
          "internalType": "address",
          "name": "_address",
          "type": "address"
        }
      ],
      "name": "excludeFromFee",
      "outputs": [],
      "stateMutability": "nonpayable",
      "type": "function"
    },
    {
      "inputs": [
        {
          "internalType": "address",
          "name": "_address",
          "type": "address"
        }
      ],
      "name": "includeToFee",
      "outputs": [],
      "stateMutability": "nonpayable",
      "type": "function"
    },
    {
      "inputs": [],
      "name": "name",
      "outputs": [
        {
          "internalType": "string",
          "name": "",
          "type": "string"
        }
      ],
      "stateMutability": "view",
      "type": "function"
    },
    {
      "inputs": [],
      "name": "symbol",
      "outputs": [
        {
          "internalType": "string",
          "name": "",
          "type": "string"
        }
      ],
      "stateMutability": "view",
      "type": "function"
    },
    {
      "inputs": [],
      "name": "decimals",
      "outputs": [
        {
          "internalType": "uint8",
          "name": "",
          "type": "uint8"
        }
      ],
      "stateMutability": "pure",
      "type": "function"
    },
    {
      "inputs": [],
      "name": "totalSupply",
      "outputs": [
        {
          "internalType": "uint256",
          "name": "",
          "type": "uint256"
        }
      ],
      "stateMutability": "view",
      "type": "function"
    },
    {
      "inputs": [
        {
          "internalType": "address",
          "name": "_account",
          "type": "address"
        }
      ],
      "name": "balanceOf",
      "outputs": [
        {
          "internalType": "uint256",
          "name": "",
          "type": "uint256"
        }
      ],
      "stateMutability": "view",
      "type": "function"
    },
    {
      "inputs": [
        {
          "internalType": "address",
          "name": "_recipient",
          "type": "address"
        },
        {
          "internalType": "uint256",
          "name": "_amount",
          "type": "uint256"
        }
      ],
      "name": "transfer",
      "outputs": [
        {
          "internalType": "bool",
          "name": "",
          "type": "bool"
        }
      ],
      "stateMutability": "nonpayable",
      "type": "function"
    },
    {
      "inputs": [
        {
          "internalType": "address",
          "name": "_owner",
          "type": "address"
        },
        {
          "internalType": "address",
          "name": "_spender",
          "type": "address"
        }
      ],
      "name": "allowance",
      "outputs": [
        {
          "internalType": "uint256",
          "name": "",
          "type": "uint256"
        }
      ],
      "stateMutability": "view",
      "type": "function"
    },
    {
      "inputs": [
        {
          "internalType": "address",
          "name": "_spender",
          "type": "address"
        },
        {
          "internalType": "uint256",
          "name": "_amount",
          "type": "uint256"
        }
      ],
      "name": "approve",
      "outputs": [
        {
          "internalType": "bool",
          "name": "",
          "type": "bool"
        }
      ],
      "stateMutability": "nonpayable",
      "type": "function"
    },
    {
      "inputs": [
        {
          "internalType": "address",
          "name": "_sender",
          "type": "address"
        },
        {
          "internalType": "address",
          "name": "_recipient",
          "type": "address"
        },
        {
          "internalType": "uint256",
          "name": "_amount",
          "type": "uint256"
        }
      ],
      "name": "transferFrom",
      "outputs": [
        {
          "internalType": "bool",
          "name": "",
          "type": "bool"
        }
      ],
      "stateMutability": "nonpayable",
      "type": "function"
    },
    {
      "inputs": [
        {
          "internalType": "address",
          "name": "spender",
          "type": "address"
        },
        {
          "internalType": "uint256",
          "name": "addedValue",
          "type": "uint256"
        }
      ],
      "name": "increaseAllowance",
      "outputs": [
        {
          "internalType": "bool",
          "name": "",
          "type": "bool"
        }
      ],
      "stateMutability": "nonpayable",
      "type": "function"
    },
    {
      "inputs": [
        {
          "internalType": "address",
          "name": "_spender",
          "type": "address"
        },
        {
          "internalType": "uint256",
          "name": "subtractedValue",
          "type": "uint256"
        }
      ],
      "name": "decreaseAllowance",
      "outputs": [
        {
          "internalType": "bool",
          "name": "",
          "type": "bool"
        }
      ],
      "stateMutability": "nonpayable",
      "type": "function"
    },
    {
      "inputs": [],
      "name": "totalHolders",
      "outputs": [
        {
          "internalType": "uint256",
          "name": "",
          "type": "uint256"
        }
      ],
      "stateMutability": "view",
      "type": "function"
    }
  ],
  "bytecode": "0x6101206040526012600a620000159190620009cd565b66038d7ea4c6800062000029919062000b0a565b6005556040518060400160405280600b81526020017f48756e67727950616e64610000000000000000000000000000000000000000008152506006908051906020019062000079929190620007c6565b506040518060400160405280600381526020017f484e50000000000000000000000000000000000000000000000000000000000081525060079080519060200190620000c7929190620007c6565b50600460085560016009556004600a556001600b55600854600c55600954600d55600a54600e55600b54600f556000601055600060115560006012556001601360016101000a81548160ff0219169083151502179055503480156200012b57600080fd5b5060405162004bd438038062004bd48339818101604052810190620001519190620008bf565b600062000163620007be60201b60201c565b9050806000806101000a81548173ffffffffffffffffffffffffffffffffffffffff021916908373ffffffffffffffffffffffffffffffffffffffff1602179055508073ffffffffffffffffffffffffffffffffffffffff16600073ffffffffffffffffffffffffffffffffffffffff167f8be0079c531659141344cd1fd0a4f28419497f9722a3daafe3b4186f6b6457e060405160405180910390a3504260a08181525050600082905060008173ffffffffffffffffffffffffffffffffffffffff1663c45a01556040518163ffffffff1660e01b815260040160206040518083038186803b1580156200025757600080fd5b505afa1580156200026c573d6000803e3d6000fd5b505050506040513d601f19601f820116820180604052508101906200029291906200088d565b73ffffffffffffffffffffffffffffffffffffffff1663c9c65396308473ffffffffffffffffffffffffffffffffffffffff1663ad5c46486040518163ffffffff1660e01b815260040160206040518083038186803b158015620002f557600080fd5b505afa1580156200030a573d6000803e3d6000fd5b505050506040513d601f19601f820116820180604052508101906200033091906200088d565b6040518363ffffffff1660e01b81526004016200034f92919062000928565b602060405180830381600087803b1580156200036a57600080fd5b505af11580156200037f573d6000803e3d6000fd5b505050506040513d601f19601f82011682018060405250810190620003a591906200088d565b90508173ffffffffffffffffffffffffffffffffffffffff1660c08173ffffffffffffffffffffffffffffffffffffffff1660601b815250508173ffffffffffffffffffffffffffffffffffffffff1663ad5c46486040518163ffffffff1660e01b815260040160206040518083038186803b1580156200042557600080fd5b505afa1580156200043a573d6000803e3d6000fd5b505050506040513d601f19601f820116820180604052508101906200046091906200088d565b73ffffffffffffffffffffffffffffffffffffffff166101008173ffffffffffffffffffffffffffffffffffffffff1660601b815250508073ffffffffffffffffffffffffffffffffffffffff1660e08173ffffffffffffffffffffffffffffffffffffffff1660601b815250506001600260003073ffffffffffffffffffffffffffffffffffffffff1673ffffffffffffffffffffffffffffffffffffffff16815260200190815260200160002060006101000a81548160ff0219169083151502179055506001600260006200053c620007be60201b60201c565b73ffffffffffffffffffffffffffffffffffffffff1673ffffffffffffffffffffffffffffffffffffffff16815260200190815260200160002060006101000a81548160ff0219169083151502179055506001600260008473ffffffffffffffffffffffffffffffffffffffff1673ffffffffffffffffffffffffffffffffffffffff16815260200190815260200160002060006101000a81548160ff0219169083151502179055506001600260008373ffffffffffffffffffffffffffffffffffffffff1673ffffffffffffffffffffffffffffffffffffffff16815260200190815260200160002060006101000a81548160ff02191690831515021790555060036200064f620007be60201b60201c565b9080600181540180825580915050600190039060005260206000200160009091909190916101000a81548173ffffffffffffffffffffffffffffffffffffffff021916908373ffffffffffffffffffffffffffffffffffffffff1602179055508273ffffffffffffffffffffffffffffffffffffffff1660808173ffffffffffffffffffffffffffffffffffffffff1660601b8152505060055460016000620006fd620007be60201b60201c565b73ffffffffffffffffffffffffffffffffffffffff1673ffffffffffffffffffffffffffffffffffffffff168152602001908152602001600020819055506200074b620007be60201b60201c565b73ffffffffffffffffffffffffffffffffffffffff16600073ffffffffffffffffffffffffffffffffffffffff167fddf252ad1be2c89b69c2b068fc378daa952ba7f163c4a11628f55a4df523b3ef600554604051620007ac919062000955565b60405180910390a35050505062000c76565b600033905090565b828054620007d49062000bb6565b90600052602060002090601f016020900481019282620007f8576000855562000844565b82601f106200081357805160ff191683800117855562000844565b8280016001018555821562000844579182015b828111156200084357825182559160200191906001019062000826565b5b50905062000853919062000857565b5090565b5b808211156200087257600081600090555060010162000858565b5090565b600081519050620008878162000c5c565b92915050565b600060208284031215620008a657620008a562000c4a565b5b6000620008b68482850162000876565b91505092915050565b60008060408385031215620008d957620008d862000c4a565b5b6000620008e98582860162000876565b9250506020620008fc8582860162000876565b9150509250929050565b620009118162000b6b565b82525050565b620009228162000b9f565b82525050565b60006040820190506200093f600083018562000906565b6200094e602083018462000906565b9392505050565b60006020820190506200096c600083018462000917565b92915050565b6000808291508390505b6001851115620009c4578086048111156200099c576200099b62000bec565b5b6001851615620009ac5780820291505b8081029050620009bc8562000c4f565b94506200097c565b94509492505050565b6000620009da8262000b9f565b9150620009e78362000ba9565b925062000a167fffffffffffffffffffffffffffffffffffffffffffffffffffffffffffffffff848462000a1e565b905092915050565b60008262000a30576001905062000b03565b8162000a40576000905062000b03565b816001811462000a59576002811462000a645762000a9a565b600191505062000b03565b60ff84111562000a795762000a7862000bec565b5b8360020a91508482111562000a935762000a9262000bec565b5b5062000b03565b5060208310610133831016604e8410600b841016171562000ad45782820a90508381111562000ace5762000acd62000bec565b5b62000b03565b62000ae3848484600162000972565b9250905081840481111562000afd5762000afc62000bec565b5b81810290505b9392505050565b600062000b178262000b9f565b915062000b248362000b9f565b9250817fffffffffffffffffffffffffffffffffffffffffffffffffffffffffffffffff048311821515161562000b605762000b5f62000bec565b5b828202905092915050565b600062000b788262000b7f565b9050919050565b600073ffffffffffffffffffffffffffffffffffffffff82169050919050565b6000819050919050565b600060ff82169050919050565b6000600282049050600182168062000bcf57607f821691505b6020821081141562000be65762000be562000c1b565b5b50919050565b7f4e487b7100000000000000000000000000000000000000000000000000000000600052601160045260246000fd5b7f4e487b7100000000000000000000000000000000000000000000000000000000600052602260045260246000fd5b600080fd5b60008160011c9050919050565b62000c678162000b6b565b811462000c7357600080fd5b50565b60805160601c60a05160c05160601c60e05160601c6101005160601c613ece62000d0660003960006118a001526000818161102c0152611f68015260008181610add01528181612597015281816125be0152818161265a015281816126810152612c8b0152600081816111fc015261127201526000818161147501528181612ad90152612b630152613ece6000f3fe6080604052600436106102605760003560e01c80638da5cb5b11610144578063cf0848f7116100b6578063e0af36161161007a578063e0af36161461092b578063ebd3e52314610956578063f2fde38b14610981578063f420a420146109aa578063f959680b146109d5578063fce589d814610a0057610267565b8063cf0848f714610832578063d89135cd1461085b578063dcd5775b14610886578063dd62ed3e146108b1578063dd6e7a86146108ee57610267565b8063a9059cbb11610108578063a9059cbb14610720578063b3fb73691461075d578063b60eaaaa14610788578063c4107711146107b3578063c49b9a80146107de578063ca302ffa1461080757610267565b80638da5cb5b1461063757806395d89b411461066257806398118cb41461068d578063a071dcf4146106b8578063a457c2d7146106e357610267565b8063437823ec116101dd57806354b7fd7c116101a157806354b7fd7c1461052557806370a0823114610550578063715018a61461058d5780637e3770f5146105a45780638c0b5e22146105e15780638d0002641461060c57610267565b8063437823ec1461045057806344cd5d721461047957806349bd5a5e146104a45780634a74bb02146104cf57806353d74fdf146104fa57610267565b806318160ddd1161022457806318160ddd1461035557806323b872dd14610380578063313ce567146103bd57806339509351146103e85780633a4e0b971461042557610267565b806306fdde031461026c578063095ea7b3146102975780631694505e146102d457806316a3e46b146102ff57806317c572721461032a57610267565b3661026757005b600080fd5b34801561027857600080fd5b50610281610a2b565b60405161028e91906132e8565b60405180910390f35b3480156102a357600080fd5b506102be60048036038101906102b99190612ebd565b610abd565b6040516102cb91906132b2565b60405180910390f35b3480156102e057600080fd5b506102e9610adb565b6040516102f691906132cd565b60405180910390f35b34801561030b57600080fd5b50610314610aff565b60405161032191906134aa565b60405180910390f35b34801561033657600080fd5b5061033f610b4f565b60405161034c91906134aa565b60405180910390f35b34801561036157600080fd5b5061036a610b54565b60405161037791906134aa565b60405180910390f35b34801561038c57600080fd5b506103a760048036038101906103a29190612e6a565b610b5e565b6040516103b491906132b2565b60405180910390f35b3480156103c957600080fd5b506103d2610c5f565b6040516103df9190613556565b60405180910390f35b3480156103f457600080fd5b5061040f600480360381019061040a9190612ebd565b610c68565b60405161041c91906132b2565b60405180910390f35b34801561043157600080fd5b5061043a610d14565b60405161044791906134aa565b60405180910390f35b34801561045c57600080fd5b5061047760048036038101906104729190612dd0565b610d1a565b005b34801561048557600080fd5b5061048e611009565b60405161049b91906134aa565b60405180910390f35b3480156104b057600080fd5b506104b961102a565b6040516104c69190613236565b60405180910390f35b3480156104db57600080fd5b506104e461104e565b6040516104f191906132b2565b60405180910390f35b34801561050657600080fd5b5061050f611061565b60405161051c91906134aa565b60405180910390f35b34801561053157600080fd5b5061053a61106e565b60405161054791906134aa565b60405180910390f35b34801561055c57600080fd5b5061057760048036038101906105729190612dd0565b611074565b60405161058491906134aa565b60405180910390f35b34801561059957600080fd5b506105a26110bd565b005b3480156105b057600080fd5b506105cb60048036038101906105c69190612f2a565b6111f7565b6040516105d891906134aa565b60405180910390f35b3480156105ed57600080fd5b506105f661124e565b60405161060391906134aa565b60405180910390f35b34801561061857600080fd5b50610621611270565b60405161062e91906134aa565b60405180910390f35b34801561064357600080fd5b5061064c611294565b6040516106599190613236565b60405180910390f35b34801561066e57600080fd5b506106776112bd565b60405161068491906132e8565b60405180910390f35b34801561069957600080fd5b506106a261134f565b6040516106af91906134aa565b60405180910390f35b3480156106c457600080fd5b506106cd611355565b6040516106da91906134aa565b60405180910390f35b3480156106ef57600080fd5b5061070a60048036038101906107059190612ebd565b61135b565b60405161071791906132b2565b60405180910390f35b34801561072c57600080fd5b5061074760048036038101906107429190612ebd565b61144f565b60405161075491906132b2565b60405180910390f35b34801561076957600080fd5b5061077261146d565b60405161077f91906134aa565b60405180910390f35b34801561079457600080fd5b5061079d611473565b6040516107aa9190613236565b60405180910390f35b3480156107bf57600080fd5b506107c8611497565b6040516107d591906134aa565b60405180910390f35b3480156107ea57600080fd5b5061080560048036038101906108009190612efd565b611513565b005b34801561081357600080fd5b5061081c6115e3565b60405161082991906134aa565b60405180910390f35b34801561083e57600080fd5b5061085960048036038101906108549190612dd0565b6115e9565b005b34801561086757600080fd5b506108706117af565b60405161087d91906134aa565b60405180910390f35b34801561089257600080fd5b5061089b6117b5565b6040516108a891906134aa565b60405180910390f35b3480156108bd57600080fd5b506108d860048036038101906108d39190612e2a565b6117d8565b6040516108e591906134aa565b60405180910390f35b3480156108fa57600080fd5b5061091560048036038101906109109190612f2a565b61185f565b6040516109229190613236565b60405180910390f35b34801561093757600080fd5b5061094061189e565b60405161094d9190613236565b60405180910390f35b34801561096257600080fd5b5061096b6118c2565b60405161097891906134aa565b60405180910390f35b34801561098d57600080fd5b506109a860048036038101906109a39190612dd0565b6118c8565b005b3480156109b657600080fd5b506109bf611a71565b6040516109cc91906134aa565b60405180910390f35b3480156109e157600080fd5b506109ea611a77565b6040516109f791906134aa565b60405180910390f35b348015610a0c57600080fd5b50610a15611a7d565b604051610a2291906134aa565b60405180910390f35b606060068054610a3a9061390a565b80601f0160208091040260200160405190810160405280929190818152602001828054610a669061390a565b8015610ab35780601f10610a8857610100808354040283529160200191610ab3565b820191906000526020600020905b815481529060010190602001808311610a9657829003601f168201915b5050505050905090565b6000610ad1610aca611a83565b8484611a8b565b6001905092915050565b7f000000000000000000000000000000000000000000000000000000000000000081565b600080610b0d6102586111f7565b9050600a811015610b4657600281600a610b279190613818565b600a54610b3491906137be565b610b3e919061361c565b915050610b4c565b60009150505b90565b606481565b6000600554905090565b6000610b6b848484611c56565b6000600460008673ffffffffffffffffffffffffffffffffffffffff1673ffffffffffffffffffffffffffffffffffffffff1681526020019081526020016000206000610bb6611a83565b73ffffffffffffffffffffffffffffffffffffffff1673ffffffffffffffffffffffffffffffffffffffff16815260200190815260200160002054905082811015610c36576040517f08c379a0000000000000000000000000000000000000000000000000000000008152600401610c2d906133ca565b60405180910390fd5b610c5385610c42611a83565b8584610c4e9190613818565b611a8b565b60019150509392505050565b60006012905090565b6000610d0a610c75611a83565b848460046000610c83611a83565b73ffffffffffffffffffffffffffffffffffffffff1673ffffffffffffffffffffffffffffffffffffffff16815260200190815260200160002060008873ffffffffffffffffffffffffffffffffffffffff1673ffffffffffffffffffffffffffffffffffffffff16815260200190815260200160002054610d0591906135c6565b611a8b565b6001905092915050565b600f5481565b610d22611a83565b73ffffffffffffffffffffffffffffffffffffffff16610d40611294565b73ffffffffffffffffffffffffffffffffffffffff1614610d96576040517f08c379a0000000000000000000000000000000000000000000000000000000008152600401610d8d906133ea565b60405180910390fd5b600260008273ffffffffffffffffffffffffffffffffffffffff1673ffffffffffffffffffffffffffffffffffffffff16815260200190815260200160002060009054906101000a900460ff1615610e23576040517f08c379a0000000000000000000000000000000000000000000000000000000008152600401610e1a9061338a565b60405180910390fd5b6000600380549050905060005b81811015610fac5760038181548110610e4c57610e4b613a41565b5b9060005260206000200160009054906101000a900473ffffffffffffffffffffffffffffffffffffffff1673ffffffffffffffffffffffffffffffffffffffff168373ffffffffffffffffffffffffffffffffffffffff161415610f99576003600183610eb99190613818565b81548110610eca57610ec9613a41565b5b9060005260206000200160009054906101000a900473ffffffffffffffffffffffffffffffffffffffff1660038281548110610f0957610f08613a41565b5b9060005260206000200160006101000a81548173ffffffffffffffffffffffffffffffffffffffff021916908373ffffffffffffffffffffffffffffffffffffffff1602179055506003805480610f6357610f62613a12565b5b6001900381819060005260206000200160006101000a81549073ffffffffffffffffffffffffffffffffffffffff021916905590555b8080610fa49061393c565b915050610e30565b506001600260008473ffffffffffffffffffffffffffffffffffffffff1673ffffffffffffffffffffffffffffffffffffffff16815260200190815260200160002060006101000a81548160ff0219169083151502179055505050565b6012600a61101791906136a0565b64e8d4a5100061102791906137be565b81565b7f000000000000000000000000000000000000000000000000000000000000000081565b601360019054906101000a900460ff1681565b6000600380549050905090565b600e5481565b6000600160008373ffffffffffffffffffffffffffffffffffffffff1673ffffffffffffffffffffffffffffffffffffffff168152602001908152602001600020549050919050565b6110c5611a83565b73ffffffffffffffffffffffffffffffffffffffff166110e3611294565b73ffffffffffffffffffffffffffffffffffffffff1614611139576040517f08c379a0000000000000000000000000000000000000000000000000000000008152600401611130906133ea565b60405180910390fd5b600073ffffffffffffffffffffffffffffffffffffffff1660008054906101000a900473ffffffffffffffffffffffffffffffffffffffff1673ffffffffffffffffffffffffffffffffffffffff167f8be0079c531659141344cd1fd0a4f28419497f9722a3daafe3b4186f6b6457e060405160405180910390a360008060006101000a81548173ffffffffffffffffffffffffffffffffffffffff021916908373ffffffffffffffffffffffffffffffffffffffff160217905550565b6000807f0000000000000000000000000000000000000000000000000000000000000000426112269190613818565b9050600060018483611238919061361c565b61124291906135c6565b90508092505050919050565b6012600a61125c91906136a0565b655af3107a400061126d91906137be565b81565b7f000000000000000000000000000000000000000000000000000000000000000081565b60008060009054906101000a900473ffffffffffffffffffffffffffffffffffffffff16905090565b6060600780546112cc9061390a565b80601f01602080910402602001604051908101604052809291908181526020018280546112f89061390a565b80156113455780601f1061131a57610100808354040283529160200191611345565b820191906000526020600020905b81548152906001019060200180831161132857829003601f168201915b5050505050905090565b600a5481565b60085481565b6000806004600061136a611a83565b73ffffffffffffffffffffffffffffffffffffffff1673ffffffffffffffffffffffffffffffffffffffff16815260200190815260200160002060008573ffffffffffffffffffffffffffffffffffffffff1673ffffffffffffffffffffffffffffffffffffffff16815260200190815260200160002054905082811015611427576040517f08c379a000000000000000000000000000000000000000000000000000000000815260040161141e9061348a565b60405180910390fd5b611444611432611a83565b85858461143f9190613818565b611a8b565b600191505092915050565b600061146361145c611a83565b8484611c56565b6001905092915050565b600c5481565b7f000000000000000000000000000000000000000000000000000000000000000081565b6000806114a460b46111f7565b9050600a8110156114ed5780600a6114bc9190613818565b6012600a6114ca91906136a0565b655af3107a40006114db91906137be565b6114e5919061361c565b915050611510565b6012600a6114fb91906136a0565b655af3107a400061150c91906137be565b9150505b90565b61151b611a83565b73ffffffffffffffffffffffffffffffffffffffff16611539611294565b73ffffffffffffffffffffffffffffffffffffffff161461158f576040517f08c379a0000000000000000000000000000000000000000000000000000000008152600401611586906133ea565b60405180910390fd5b80601360016101000a81548160ff0219169083151502179055507f53726dfcaf90650aa7eb35524f4d3220f07413c8d6cb404cc8c18bf5591bc159816040516115d891906132b2565b60405180910390a150565b600b5481565b6115f1611a83565b73ffffffffffffffffffffffffffffffffffffffff1661160f611294565b73ffffffffffffffffffffffffffffffffffffffff1614611665576040517f08c379a000000000000000000000000000000000000000000000000000000000815260040161165c906133ea565b60405180910390fd5b600260008273ffffffffffffffffffffffffffffffffffffffff1673ffffffffffffffffffffffffffffffffffffffff16815260200190815260200160002060009054906101000a900460ff166116f1576040517f08c379a00000000000000000000000000000000000000000000000000000000081526004016116e89061342a565b60405180910390fd5b6000600260008373ffffffffffffffffffffffffffffffffffffffff1673ffffffffffffffffffffffffffffffffffffffff16815260200190815260200160002060006101000a81548160ff0219169083151502179055506003819080600181540180825580915050600190039060005260206000200160009091909190916101000a81548173ffffffffffffffffffffffffffffffffffffffff021916908373ffffffffffffffffffffffffffffffffffffffff16021790555050565b60105481565b6012600a6117c391906136a0565b66016bcc41e900006117d591906137be565b81565b6000600460008473ffffffffffffffffffffffffffffffffffffffff1673ffffffffffffffffffffffffffffffffffffffff16815260200190815260200160002060008373ffffffffffffffffffffffffffffffffffffffff1673ffffffffffffffffffffffffffffffffffffffff16815260200190815260200160002054905092915050565b6003818154811061186f57600080fd5b906000526020600020016000915054906101000a900473ffffffffffffffffffffffffffffffffffffffff1681565b7f000000000000000000000000000000000000000000000000000000000000000081565b600d5481565b6118d0611a83565b73ffffffffffffffffffffffffffffffffffffffff166118ee611294565b73ffffffffffffffffffffffffffffffffffffffff1614611944576040517f08c379a000000000000000000000000000000000000000000000000000000000815260040161193b906133ea565b60405180910390fd5b600073ffffffffffffffffffffffffffffffffffffffff168173ffffffffffffffffffffffffffffffffffffffff1614156119b4576040517f08c379a00000000000000000000000000000000000000000000000000000000081526004016119ab9061332a565b60405180910390fd5b8073ffffffffffffffffffffffffffffffffffffffff1660008054906101000a900473ffffffffffffffffffffffffffffffffffffffff1673ffffffffffffffffffffffffffffffffffffffff167f8be0079c531659141344cd1fd0a4f28419497f9722a3daafe3b4186f6b6457e060405160405180910390a3806000806101000a81548173ffffffffffffffffffffffffffffffffffffffff021916908373ffffffffffffffffffffffffffffffffffffffff16021790555050565b60125481565b60115481565b60095481565b600033905090565b600073ffffffffffffffffffffffffffffffffffffffff168373ffffffffffffffffffffffffffffffffffffffff161415611afb576040517f08c379a0000000000000000000000000000000000000000000000000000000008152600401611af29061346a565b60405180910390fd5b600073ffffffffffffffffffffffffffffffffffffffff168273ffffffffffffffffffffffffffffffffffffffff161415611b6b576040517f08c379a0000000000000000000000000000000000000000000000000000000008152600401611b629061334a565b60405180910390fd5b80600460008573ffffffffffffffffffffffffffffffffffffffff1673ffffffffffffffffffffffffffffffffffffffff16815260200190815260200160002060008473ffffffffffffffffffffffffffffffffffffffff1673ffffffffffffffffffffffffffffffffffffffff168152602001908152602001600020819055508173ffffffffffffffffffffffffffffffffffffffff168373ffffffffffffffffffffffffffffffffffffffff167f8c5be1e5ebec7d5bd14f71427d1e84f3dd0314c0f7b2291e5b200ac8c7c3b92583604051611c4991906134aa565b60405180910390a3505050565b600073ffffffffffffffffffffffffffffffffffffffff168373ffffffffffffffffffffffffffffffffffffffff161415611cc6576040517f08c379a0000000000000000000000000000000000000000000000000000000008152600401611cbd9061344a565b60405180910390fd5b600073ffffffffffffffffffffffffffffffffffffffff168273ffffffffffffffffffffffffffffffffffffffff161415611d36576040517f08c379a0000000000000000000000000000000000000000000000000000000008152600401611d2d9061330a565b60405180910390fd5b60008111611d79576040517f08c379a0000000000000000000000000000000000000000000000000000000008152600401611d709061340a565b60405180910390fd5b6000600160008573ffffffffffffffffffffffffffffffffffffffff1673ffffffffffffffffffffffffffffffffffffffff16815260200190815260200160002054905081811015611e00576040517f08c379a0000000000000000000000000000000000000000000000000000000008152600401611df79061336a565b60405180910390fd5b611e08611294565b73ffffffffffffffffffffffffffffffffffffffff168473ffffffffffffffffffffffffffffffffffffffff1614158015611e765750611e46611294565b73ffffffffffffffffffffffffffffffffffffffff168373ffffffffffffffffffffffffffffffffffffffff1614155b15611ecc576000611e85611497565b905080831115611eca576040517f08c379a0000000000000000000000000000000000000000000000000000000008152600401611ec1906133aa565b60405180910390fd5b505b6000611ed730611074565b90506012600a611ee791906136a0565b655af3107a4000611ef891906137be565b8110611f20576012600a611f0c91906136a0565b655af3107a4000611f1d91906137be565b90505b60006012600a611f3091906136a0565b64e8d4a51000611f4091906137be565b8210159050808015611f5f5750601360009054906101000a900460ff16155b8015611fb757507f000000000000000000000000000000000000000000000000000000000000000073ffffffffffffffffffffffffffffffffffffffff168673ffffffffffffffffffffffffffffffffffffffff1614155b8015611fcf5750601360019054906101000a900460ff165b15611ffe576012600a611fe291906136a0565b64e8d4a51000611ff291906137be565b9150611ffd826120e0565b5b600060019050600260008873ffffffffffffffffffffffffffffffffffffffff1673ffffffffffffffffffffffffffffffffffffffff16815260200190815260200160002060009054906101000a900460ff1680156120a65750600260008773ffffffffffffffffffffffffffffffffffffffff1673ffffffffffffffffffffffffffffffffffffffff16815260200190815260200160002060009054906101000a900460ff165b156120b057600090505b806120be576120bd6121a1565b5b6120c98787876121e7565b806120d7576120d661255f565b5b50505050505050565b6001601360006101000a81548160ff021916908315150217905550600060028261210a919061361c565b90506000818361211a9190613818565b9050600047905061212a83612585565b600081476121389190613818565b90506121448382612654565b7f17bbfb9a6069321b6ded73bd96327c9e6b7212a5cd51ff219cd61370acafb5618482856040516121779392919061351f565b60405180910390a1505050506000601360006101000a81548160ff02191690831515021790555050565b600854600c81905550600954600d81905550600a54600e81905550600f54600f81905550600060088190555060006009819055506000600a819055506000600b81905550565b60008060008060006121f886612721565b9450945094509450945060003073ffffffffffffffffffffffffffffffffffffffff168873ffffffffffffffffffffffffffffffffffffffff161415801561228a5750600260008a73ffffffffffffffffffffffffffffffffffffffff1673ffffffffffffffffffffffffffffffffffffffff16815260200190815260200160002060009054906101000a900460ff16155b80156122df5750600260008973ffffffffffffffffffffffffffffffffffffffff1673ffffffffffffffffffffffffffffffffffffffff16815260200190815260200160002060009054906101000a900460ff165b156122ef576122ec610aff565b90505b6000816064896122ff919061361c565b61230991906137be565b905080836123179190613818565b92506123238a866127ee565b61232d8a886129d8565b6123378a87612ad2565b83600160003073ffffffffffffffffffffffffffffffffffffffff1673ffffffffffffffffffffffffffffffffffffffff168152602001908152602001600020600082825461238691906135c6565b9250508190555087600160008c73ffffffffffffffffffffffffffffffffffffffff1673ffffffffffffffffffffffffffffffffffffffff16815260200190815260200160002060008282546123dc9190613818565b9250508190555082600160008b73ffffffffffffffffffffffffffffffffffffffff1673ffffffffffffffffffffffffffffffffffffffff168152602001908152602001600020600082825461243291906135c6565b92505081905550600260008a73ffffffffffffffffffffffffffffffffffffffff1673ffffffffffffffffffffffffffffffffffffffff16815260200190815260200160002060009054906101000a900460ff166124ee576003899080600181540180825580915050600190039060005260206000200160009091909190916101000a81548173ffffffffffffffffffffffffffffffffffffffff021916908373ffffffffffffffffffffffffffffffffffffffff1602179055505b8873ffffffffffffffffffffffffffffffffffffffff168a73ffffffffffffffffffffffffffffffffffffffff167fddf252ad1be2c89b69c2b068fc378daa952ba7f163c4a11628f55a4df523b3ef8560405161254b91906134aa565b60405180910390a350505050505050505050565b600c54600881905550600d54600981905550600e54600a81905550600f54600b81905550565b600061258f612bea565b90506125bc307f000000000000000000000000000000000000000000000000000000000000000084611a8b565b7f000000000000000000000000000000000000000000000000000000000000000073ffffffffffffffffffffffffffffffffffffffff1663791ac9478360008430426040518663ffffffff1660e01b815260040161261e9594939291906134c5565b600060405180830381600087803b15801561263857600080fd5b505af115801561264c573d6000803e3d6000fd5b505050505050565b61267f307f000000000000000000000000000000000000000000000000000000000000000084611a8b565b7f000000000000000000000000000000000000000000000000000000000000000073ffffffffffffffffffffffffffffffffffffffff1663f305d7198230856000806126c9611294565b426040518863ffffffff1660e01b81526004016126eb96959493929190613251565b6000604051808303818588803b15801561270457600080fd5b505af1158015612718573d6000803e3d6000fd5b50505050505050565b60008060008060008060095460648861273a919061361c565b61274491906137be565b90506000600b54606489612758919061361c565b61276291906137be565b9050600060085460648a612776919061361c565b61278091906137be565b90506000600a5460648b612794919061361c565b61279e91906137be565b90506000818385878e6127b19190613818565b6127bb9190613818565b6127c59190613818565b6127cf9190613818565b9050848484848499509950995099509950505050505091939590929450565b806011600082825461280091906135c6565b9250508190555060006012600a61281791906136a0565b600554612824919061361c565b905060005b6003805490508110156129d25760006003828154811061284c5761284b613a41565b5b9060005260206000200160009054906101000a900473ffffffffffffffffffffffffffffffffffffffff16905060006012600a61288991906136a0565b600160008473ffffffffffffffffffffffffffffffffffffffff1673ffffffffffffffffffffffffffffffffffffffff168152602001908152602001600020546128d3919061361c565b905060008114156128e55750506129bf565b600081856128f3919061361c565b866128fe919061361c565b905080600160008573ffffffffffffffffffffffffffffffffffffffff1673ffffffffffffffffffffffffffffffffffffffff168152602001908152602001600020600082825461294f91906135c6565b925050819055508273ffffffffffffffffffffffffffffffffffffffff168773ffffffffffffffffffffffffffffffffffffffff167fddf252ad1be2c89b69c2b068fc378daa952ba7f163c4a11628f55a4df523b3ef836040516129b391906134aa565b60405180910390a35050505b80806129ca9061393c565b915050612829565b50505050565b6000816005546129e89190613818565b90506012600a6129f891906136a0565b66016bcc41e90000612a0a91906137be565b811015612a34576012600a612a1f91906136a0565b66016bcc41e90000612a3191906137be565b90505b600081600554612a449190613818565b9050816005819055508060106000828254612a5f91906135c6565b92505081905550600073ffffffffffffffffffffffffffffffffffffffff168473ffffffffffffffffffffffffffffffffffffffff167fddf252ad1be2c89b69c2b068fc378daa952ba7f163c4a11628f55a4df523b3ef83604051612ac491906134aa565b60405180910390a350505050565b80600160007f000000000000000000000000000000000000000000000000000000000000000073ffffffffffffffffffffffffffffffffffffffff1673ffffffffffffffffffffffffffffffffffffffff1681526020019081526020016000206000828254612b4191906135c6565b925050819055508060126000828254612b5a91906135c6565b925050819055507f000000000000000000000000000000000000000000000000000000000000000073ffffffffffffffffffffffffffffffffffffffff168273ffffffffffffffffffffffffffffffffffffffff167fddf252ad1be2c89b69c2b068fc378daa952ba7f163c4a11628f55a4df523b3ef83604051612bde91906134aa565b60405180910390a35050565b60606000600267ffffffffffffffff811115612c0957612c08613a70565b5b604051908082528060200260200182016040528015612c375781602001602082028036833780820191505090505b5090503081600081518110612c4f57612c4e613a41565b5b602002602001019073ffffffffffffffffffffffffffffffffffffffff16908173ffffffffffffffffffffffffffffffffffffffff16815250507f000000000000000000000000000000000000000000000000000000000000000073ffffffffffffffffffffffffffffffffffffffff1663ad5c46486040518163ffffffff1660e01b815260040160206040518083038186803b158015612cef57600080fd5b505afa158015612d03573d6000803e3d6000fd5b505050506040513d601f19601f82011682018060405250810190612d279190612dfd565b81600181518110612d3b57612d3a613a41565b5b602002602001019073ffffffffffffffffffffffffffffffffffffffff16908173ffffffffffffffffffffffffffffffffffffffff16815250508091505090565b600081359050612d8b81613e53565b92915050565b600081519050612da081613e53565b92915050565b600081359050612db581613e6a565b92915050565b600081359050612dca81613e81565b92915050565b600060208284031215612de657612de5613a9f565b5b6000612df484828501612d7c565b91505092915050565b600060208284031215612e1357612e12613a9f565b5b6000612e2184828501612d91565b91505092915050565b60008060408385031215612e4157612e40613a9f565b5b6000612e4f85828601612d7c565b9250506020612e6085828601612d7c565b9150509250929050565b600080600060608486031215612e8357612e82613a9f565b5b6000612e9186828701612d7c565b9350506020612ea286828701612d7c565b9250506040612eb386828701612dbb565b9150509250925092565b60008060408385031215612ed457612ed3613a9f565b5b6000612ee285828601612d7c565b9250506020612ef385828601612dbb565b9150509250929050565b600060208284031215612f1357612f12613a9f565b5b6000612f2184828501612da6565b91505092915050565b600060208284031215612f4057612f3f613a9f565b5b6000612f4e84828501612dbb565b91505092915050565b6000612f638383612f6f565b60208301905092915050565b612f788161384c565b82525050565b612f878161384c565b82525050565b6000612f9882613581565b612fa281856135a4565b9350612fad83613571565b8060005b83811015612fde578151612fc58882612f57565b9750612fd083613597565b925050600181019050612fb1565b5085935050505092915050565b612ff48161385e565b82525050565b613003816138a1565b82525050565b613012816138c5565b82525050565b60006130238261358c565b61302d81856135b5565b935061303d8185602086016138d7565b61304681613aa4565b840191505092915050565b600061305e6023836135b5565b915061306982613ac2565b604082019050919050565b60006130816026836135b5565b915061308c82613b11565b604082019050919050565b60006130a46022836135b5565b91506130af82613b60565b604082019050919050565b60006130c76026836135b5565b91506130d282613baf565b604082019050919050565b60006130ea6017836135b5565b91506130f582613bfe565b602082019050919050565b600061310d6026836135b5565b915061311882613c27565b604082019050919050565b60006131306028836135b5565b915061313b82613c76565b604082019050919050565b60006131536020836135b5565b915061315e82613cc5565b602082019050919050565b60006131766027836135b5565b915061318182613cee565b604082019050919050565b60006131996017836135b5565b91506131a482613d3d565b602082019050919050565b60006131bc6025836135b5565b91506131c782613d66565b604082019050919050565b60006131df6024836135b5565b91506131ea82613db5565b604082019050919050565b60006132026025836135b5565b915061320d82613e04565b604082019050919050565b6132218161388a565b82525050565b61323081613894565b82525050565b600060208201905061324b6000830184612f7e565b92915050565b600060c0820190506132666000830189612f7e565b6132736020830188613218565b6132806040830187613009565b61328d6060830186613009565b61329a6080830185612f7e565b6132a760a0830184613218565b979650505050505050565b60006020820190506132c76000830184612feb565b92915050565b60006020820190506132e26000830184612ffa565b92915050565b600060208201905081810360008301526133028184613018565b905092915050565b6000602082019050818103600083015261332381613051565b9050919050565b6000602082019050818103600083015261334381613074565b9050919050565b6000602082019050818103600083015261336381613097565b9050919050565b60006020820190508181036000830152613383816130ba565b9050919050565b600060208201905081810360008301526133a3816130dd565b9050919050565b600060208201905081810360008301526133c381613100565b9050919050565b600060208201905081810360008301526133e381613123565b9050919050565b6000602082019050818103600083015261340381613146565b9050919050565b6000602082019050818103600083015261342381613169565b9050919050565b600060208201905081810360008301526134438161318c565b9050919050565b60006020820190508181036000830152613463816131af565b9050919050565b60006020820190508181036000830152613483816131d2565b9050919050565b600060208201905081810360008301526134a3816131f5565b9050919050565b60006020820190506134bf6000830184613218565b92915050565b600060a0820190506134da6000830188613218565b6134e76020830187613009565b81810360408301526134f98186612f8d565b90506135086060830185612f7e565b6135156080830184613218565b9695505050505050565b60006060820190506135346000830186613218565b6135416020830185613218565b61354e6040830184613218565b949350505050565b600060208201905061356b6000830184613227565b92915050565b6000819050602082019050919050565b600081519050919050565b600081519050919050565b6000602082019050919050565b600082825260208201905092915050565b600082825260208201905092915050565b60006135d18261388a565b91506135dc8361388a565b9250827fffffffffffffffffffffffffffffffffffffffffffffffffffffffffffffffff0382111561361157613610613985565b5b828201905092915050565b60006136278261388a565b91506136328361388a565b925082613642576136416139b4565b5b828204905092915050565b6000808291508390505b60018511156136975780860481111561367357613672613985565b5b60018516156136825780820291505b808102905061369085613ab5565b9450613657565b94509492505050565b60006136ab8261388a565b91506136b683613894565b92506136e37fffffffffffffffffffffffffffffffffffffffffffffffffffffffffffffffff84846136eb565b905092915050565b6000826136fb57600190506137b7565b8161370957600090506137b7565b816001811461371f576002811461372957613758565b60019150506137b7565b60ff84111561373b5761373a613985565b5b8360020a91508482111561375257613751613985565b5b506137b7565b5060208310610133831016604e8410600b841016171561378d5782820a90508381111561378857613787613985565b5b6137b7565b61379a848484600161364d565b925090508184048111156137b1576137b0613985565b5b81810290505b9392505050565b60006137c98261388a565b91506137d48361388a565b9250817fffffffffffffffffffffffffffffffffffffffffffffffffffffffffffffffff048311821515161561380d5761380c613985565b5b828202905092915050565b60006138238261388a565b915061382e8361388a565b92508282101561384157613840613985565b5b828203905092915050565b60006138578261386a565b9050919050565b60008115159050919050565b600073ffffffffffffffffffffffffffffffffffffffff82169050919050565b6000819050919050565b600060ff82169050919050565b60006138ac826138b3565b9050919050565b60006138be8261386a565b9050919050565b60006138d08261388a565b9050919050565b60005b838110156138f55780820151818401526020810190506138da565b83811115613904576000848401525b50505050565b6000600282049050600182168061392257607f821691505b60208210811415613936576139356139e3565b5b50919050565b60006139478261388a565b91507fffffffffffffffffffffffffffffffffffffffffffffffffffffffffffffffff82141561397a57613979613985565b5b600182019050919050565b7f4e487b7100000000000000000000000000000000000000000000000000000000600052601160045260246000fd5b7f4e487b7100000000000000000000000000000000000000000000000000000000600052601260045260246000fd5b7f4e487b7100000000000000000000000000000000000000000000000000000000600052602260045260246000fd5b7f4e487b7100000000000000000000000000000000000000000000000000000000600052603160045260246000fd5b7f4e487b7100000000000000000000000000000000000000000000000000000000600052603260045260246000fd5b7f4e487b7100000000000000000000000000000000000000000000000000000000600052604160045260246000fd5b600080fd5b6000601f19601f8301169050919050565b60008160011c9050919050565b7f45524332303a207472616e7366657220746f20746865207a65726f206164647260008201527f6573730000000000000000000000000000000000000000000000000000000000602082015250565b7f4f776e61626c653a206e6577206f776e657220697320746865207a65726f206160008201527f6464726573730000000000000000000000000000000000000000000000000000602082015250565b7f45524332303a20617070726f766520746f20746865207a65726f20616464726560008201527f7373000000000000000000000000000000000000000000000000000000000000602082015250565b7f45524332303a207472616e7366657220616d6f756e742065786365656473206260008201527f616c616e63650000000000000000000000000000000000000000000000000000602082015250565b7f50616e64613a20616c7265616479206578636c75646564000000000000000000600082015250565b7f45524332303a207472616e7366657220616d6f756e742065786365656473206d60008201527f6178696d756d0000000000000000000000000000000000000000000000000000602082015250565b7f45524332303a207472616e7366657220616d6f756e742065786365656473206160008201527f6c6c6f77616e6365000000000000000000000000000000000000000000000000602082015250565b7f4f776e61626c653a2063616c6c6572206973206e6f7420746865206f776e6572600082015250565b7f45524332303a20616d6f756e74206d757374206265206772656174657220746860008201527f616e207a65726f00000000000000000000000000000000000000000000000000602082015250565b7f50616e64613a20616c726561647920696e636c75646564000000000000000000600082015250565b7f45524332303a207472616e736665722066726f6d20746865207a65726f20616460008201527f6472657373000000000000000000000000000000000000000000000000000000602082015250565b7f45524332303a20617070726f76652066726f6d20746865207a65726f2061646460008201527f7265737300000000000000000000000000000000000000000000000000000000602082015250565b7f45524332303a2064656372656173656420616c6c6f77616e63652062656c6f7760008201527f207a65726f000000000000000000000000000000000000000000000000000000602082015250565b613e5c8161384c565b8114613e6757600080fd5b50565b613e738161385e565b8114613e7e57600080fd5b50565b613e8a8161388a565b8114613e9557600080fd5b5056fea2646970667358221220a25219bf801f49249b549b194b6bb10e5e87a375eaed175ff083502c2a3e2cd064736f6c63430008060033",
  "immutableReferences": {
    "177": [
      {
        "length": 32,
        "start": 5237
      },
      {
        "length": 32,
        "start": 10969
      },
      {
        "length": 32,
        "start": 11107
      }
    ],
    "182": [
      {
        "length": 32,
        "start": 4604
      },
      {
        "length": 32,
        "start": 4722
      }
    ],
    "185": [
      {
        "length": 32,
        "start": 2781
      },
      {
        "length": 32,
        "start": 9623
      },
      {
        "length": 32,
        "start": 9662
      },
      {
        "length": 32,
        "start": 9818
      },
      {
        "length": 32,
        "start": 9857
      },
      {
        "length": 32,
        "start": 11403
      }
    ],
    "187": [
      {
        "length": 32,
        "start": 4140
      },
      {
        "length": 32,
        "start": 8040
      }
    ],
    "189": [
      {
        "length": 32,
        "start": 6304
      }
    ]
  },
  "source": "// SPDX-License-Identifier: MIT\r\n\r\npragma solidity >=0.8.6 <0.9.0;\r\n\r\n/**\r\n1. All holders receives fee from each transaction\r\n2. Holder can see and claim his fee on our site\r\n3. Tokens are burn on each transaction until 70% are burn.\r\n4. Transactions charged with some fee. That fee is proportionally shared between holders\r\n5. After token is deployed and initial liquidity is deployed all tokens are assigned to contract address\r\n6. Liquidity pool on pancake is assigned to contract address not the owner\r\n */\r\n\r\nimport \"@openzeppelin/contracts/token/ERC20/IERC20.sol\";\r\nimport \"@openzeppelin/contracts/access/Ownable.sol\";\r\n\r\ninterface IUniswapV2Router02 {\r\n    function WETH() external view returns (address);\r\n\r\n    function factory() external view returns (address);\r\n\r\n    function swapExactTokensForETHSupportingFeeOnTransferTokens(\r\n        uint256 amountIn,\r\n        uint256 amountOutMin,\r\n        address[] calldata path,\r\n        address to,\r\n        uint256 deadline\r\n    ) external payable;\r\n\r\n    function addLiquidityETH(\r\n        address token,\r\n        uint256 amountTokenDesired,\r\n        uint256 amountTokenMin,\r\n        uint256 amountETHMin,\r\n        address to,\r\n        uint256 deadline\r\n    ) external payable;\r\n\r\n    function getAmountsOut(uint256 amountIn, address[] memory path)\r\n        external\r\n        view\r\n        returns (uint256[] memory amounts);\r\n\r\n    function getAmountsIn(uint256 amountOut, address[] memory path)\r\n        external\r\n        view\r\n        returns (uint256[] memory amounts);\r\n}\r\n\r\ninterface IUniswapV2Factory {\r\n    function createPair(address token1, address token2)\r\n        external\r\n        returns (address);\r\n}\r\n\r\ncontract HungryPanda is Ownable, IERC20 {\r\n    mapping(address => uint256) private _balances;\r\n    mapping(address => bool) private excludedFromFee;\r\n    address[] public holdersRewarded;\r\n\r\n    mapping(address => mapping(address => uint256)) private _allowances;\r\n\r\n    uint8 private constant _decimals = 18;\r\n    uint256 private constant DECIMALFACTOR = 10**_decimals;\r\n    uint256 private _totalSupply = 10**15 * DECIMALFACTOR;\r\n\r\n    string private _name = \"HungryPanda\";\r\n    string private _symbol = \"HNP\";\r\n\r\n    uint256 public constant maxTxAmount = 10**14 * DECIMALFACTOR; // 1%\r\n    uint256 public constant minimalSupply = 4 * 10**14 * DECIMALFACTOR; // 70% can be burnt\r\n    uint256 public constant numTokensSellToAddLiquidity =\r\n        10 * 10**11 * DECIMALFACTOR; // 0.1%\r\n\r\n    uint256 public taxFee = 4;\r\n    uint256 public burnFee = 1;\r\n    uint256 public liquidityFee = 4;\r\n    uint256 public supportFee = 1;\r\n    uint256 public taxFeeOrigin = taxFee;\r\n    uint256 public burnFeeOrigin = burnFee;\r\n    uint256 public liquidityFeeOrigin = liquidityFee;\r\n    uint256 public supportFeeOrigin = supportFee;\r\n\r\n    uint256 public totalBurned = 0;\r\n    uint256 public rewardTotal = 0;\r\n    uint256 public totalSupported = 0;\r\n    address public immutable supportWallet;\r\n\r\n    uint256 public constant feeGranularity = 100;\r\n    uint256 public immutable bornAtTime;\r\n\r\n    IUniswapV2Router02 public immutable uniswapV2Router;\r\n    address public immutable uniswapV2Pair;\r\n    address public immutable _WETH;\r\n\r\n    bool inSwapAndLiquify;\r\n    bool public swapAndLiquifyEnabled = true;\r\n\r\n    event MinTokensBeforeSwapUpdated(uint256 minTokensBeforeSwap);\r\n    event SwapAndLiquifyEnabledUpdated(bool enabled);\r\n    event SwapAndLiquify(\r\n        uint256 tokensSwapped,\r\n        uint256 ethReceived,\r\n        uint256 tokensIntoLiqudity\r\n    );\r\n\r\n    modifier lockTheSwap {\r\n        inSwapAndLiquify = true;\r\n        _;\r\n        inSwapAndLiquify = false;\r\n    }\r\n\r\n    constructor(address _router, address _wallet) Ownable() {\r\n        bornAtTime = block.timestamp;\r\n\r\n        IUniswapV2Router02 _uniswapV2Router = IUniswapV2Router02(_router);\r\n        // Create a uniswap pair for this new token\r\n        address _uniswapV2Pair = IUniswapV2Factory(_uniswapV2Router.factory())\r\n        .createPair(address(this), _uniswapV2Router.WETH());\r\n\r\n        // set the rest of the contract variables\r\n        uniswapV2Router = _uniswapV2Router;\r\n        _WETH = _uniswapV2Router.WETH();\r\n        uniswapV2Pair = _uniswapV2Pair;\r\n        // transfer ownership to contract\r\n        excludedFromFee[address(this)] = true;\r\n        excludedFromFee[_msgSender()] = true;\r\n        excludedFromFee[address(_uniswapV2Router)] = true;\r\n        excludedFromFee[_uniswapV2Pair] = true;\r\n        // must be added explicitly ...\r\n        holdersRewarded.push(_msgSender());\r\n\r\n        supportWallet = _wallet;\r\n\r\n        _balances[_msgSender()] = _totalSupply;\r\n        emit Transfer(address(0), _msgSender(), _totalSupply);\r\n    }\r\n\r\n    //to recieve ETH from uniswapV2Router when swaping\r\n    receive() external payable {}\r\n\r\n    function burn(address _sender, uint256 _toBeBurned) private {\r\n        uint256 newSupply = _totalSupply - _toBeBurned;\r\n        if (newSupply < minimalSupply) {\r\n            newSupply = minimalSupply;\r\n        }\r\n        uint256 reallyBurned = _totalSupply - newSupply;\r\n        _totalSupply = newSupply;\r\n        totalBurned += reallyBurned;\r\n        emit Transfer(_sender, address(0), reallyBurned);\r\n    }\r\n\r\n    function shareRewards(address _sender, uint256 _fee) private {\r\n        rewardTotal += _fee;\r\n        uint256 integer = _totalSupply / DECIMALFACTOR;\r\n        for (uint256 index = 0; index < holdersRewarded.length; index++) {\r\n            address holder = holdersRewarded[index];\r\n            uint256 balance = _balances[holder] / DECIMALFACTOR;\r\n            if (balance == 0) {\r\n                continue;\r\n            }\r\n            uint256 reward = _fee / (integer / balance);\r\n            _balances[holder] += reward;\r\n            emit Transfer(_sender, holder, reward);\r\n        }\r\n    }\r\n\r\n    function takeSupport(address _sender, uint256 _toBeTaken) private {\r\n        _balances[supportWallet] += _toBeTaken;\r\n        totalSupported += _toBeTaken;\r\n        emit Transfer(_sender, supportWallet, _toBeTaken);\r\n    }\r\n\r\n    function setSwapAndLiquifyEnabled(bool _enabled) public onlyOwner {\r\n        swapAndLiquifyEnabled = _enabled;\r\n        emit SwapAndLiquifyEnabledUpdated(_enabled);\r\n    }\r\n\r\n    function timePeriods(uint256 period) public view returns (uint256) {\r\n        uint256 timeAfter = block.timestamp - bornAtTime;\r\n        uint256 periods = timeAfter / period + 1; // starts from 1\r\n        return periods;\r\n    }\r\n\r\n    function calculateMaxTxAmount() public view returns (uint256) {\r\n        uint256 periods = timePeriods(3 minutes);\r\n        if (periods < 10) {\r\n            return maxTxAmount / (10 - periods);\r\n        }\r\n        return maxTxAmount;\r\n    }\r\n\r\n    function calculateExtraFee() public view returns (uint256) {\r\n        uint256 periods = timePeriods(10 minutes);\r\n        if (periods < 10) {\r\n            return (liquidityFee * (10 - periods)) / 2; // x * 4, x * 3, x * 2 ... x * 0;\r\n        }\r\n        return 0;\r\n    }\r\n\r\n    function excludeFromFee(address _address) public onlyOwner {\r\n        require(!excludedFromFee[_address], \"Panda: already excluded\");\r\n        uint256 len = holdersRewarded.length;\r\n        for (uint256 index = 0; index < len; index++) {\r\n            if (_address == holdersRewarded[index]) {\r\n                holdersRewarded[index] = holdersRewarded[len - 1];\r\n                holdersRewarded.pop();\r\n            }\r\n        }\r\n        excludedFromFee[_address] = true;\r\n    }\r\n\r\n    function includeToFee(address _address) public onlyOwner {\r\n        require(excludedFromFee[_address], \"Panda: already included\");\r\n        excludedFromFee[_address] = false;\r\n        holdersRewarded.push(_address);\r\n    }\r\n\r\n    function name() public view returns (string memory) {\r\n        return _name;\r\n    }\r\n\r\n    function symbol() public view returns (string memory) {\r\n        return _symbol;\r\n    }\r\n\r\n    function decimals() public pure returns (uint8) {\r\n        return _decimals;\r\n    }\r\n\r\n    function totalSupply() public view override returns (uint256) {\r\n        return _totalSupply;\r\n    }\r\n\r\n    function balanceOf(address _account)\r\n        public\r\n        view\r\n        override\r\n        returns (uint256)\r\n    {\r\n        return _balances[_account];\r\n    }\r\n\r\n    function transfer(address _recipient, uint256 _amount)\r\n        public\r\n        override\r\n        returns (bool)\r\n    {\r\n        _transfer(_msgSender(), _recipient, _amount);\r\n        return true;\r\n    }\r\n\r\n    function allowance(address _owner, address _spender)\r\n        public\r\n        view\r\n        override\r\n        returns (uint256)\r\n    {\r\n        return _allowances[_owner][_spender];\r\n    }\r\n\r\n    function approve(address _spender, uint256 _amount)\r\n        public\r\n        override\r\n        returns (bool)\r\n    {\r\n        _approve(_msgSender(), _spender, _amount);\r\n        return true;\r\n    }\r\n\r\n    function transferFrom(\r\n        address _sender,\r\n        address _recipient,\r\n        uint256 _amount\r\n    ) public override returns (bool) {\r\n        _transfer(_sender, _recipient, _amount);\r\n\r\n        uint256 currentAllowance = _allowances[_sender][_msgSender()];\r\n        require(\r\n            currentAllowance >= _amount,\r\n            \"ERC20: transfer amount exceeds allowance\"\r\n        );\r\n        _approve(_sender, _msgSender(), currentAllowance - _amount);\r\n\r\n        return true;\r\n    }\r\n\r\n    function increaseAllowance(address spender, uint256 addedValue)\r\n        public\r\n        returns (bool)\r\n    {\r\n        _approve(\r\n            _msgSender(),\r\n            spender,\r\n            _allowances[_msgSender()][spender] + addedValue\r\n        );\r\n        return true;\r\n    }\r\n\r\n    function decreaseAllowance(address _spender, uint256 subtractedValue)\r\n        public\r\n        returns (bool)\r\n    {\r\n        uint256 currentAllowance = _allowances[_msgSender()][_spender];\r\n        require(\r\n            currentAllowance >= subtractedValue,\r\n            \"ERC20: decreased allowance below zero\"\r\n        );\r\n        _approve(_msgSender(), _spender, currentAllowance - subtractedValue);\r\n\r\n        return true;\r\n    }\r\n\r\n    function swapAndLiquify(uint256 contractTokenBalance) private lockTheSwap {\r\n        // split the contract balance into halves\r\n        uint256 half = contractTokenBalance / 2;\r\n        uint256 otherHalf = contractTokenBalance - half;\r\n\r\n        // capture the contract's current ETH balance.\r\n        // this is so that we can capture exactly the amount of ETH that the\r\n        // swap creates, and not make the liquidity event include any ETH that\r\n        // has been manually sent to the contract\r\n        uint256 initialBalance = address(this).balance;\r\n\r\n        // swap tokens for ETH\r\n        swapTokensForEth(half); // <- this breaks the ETH -> HATE swap when swap+liquify is triggered\r\n\r\n        // how much ETH did we just swap into?\r\n        uint256 newBalance = address(this).balance - initialBalance;\r\n\r\n        // add liquidity to uniswap\r\n        addLiquidity(otherHalf, newBalance);\r\n\r\n        emit SwapAndLiquify(half, newBalance, otherHalf);\r\n    }\r\n\r\n    function makePairPath() private view returns (address[] memory) {\r\n        address[] memory path = new address[](2);\r\n        path[0] = address(this);\r\n        path[1] = uniswapV2Router.WETH();\r\n        return path;\r\n    }\r\n\r\n    function swapTokensForEth(uint256 tokenAmount) private {\r\n        address[] memory path = makePairPath();\r\n\r\n        _approve(address(this), address(uniswapV2Router), tokenAmount);\r\n        uniswapV2Router.swapExactTokensForETHSupportingFeeOnTransferTokens(\r\n            tokenAmount,\r\n            0, // accept any amount of ETH\r\n            path,\r\n            address(this),\r\n            block.timestamp\r\n        );\r\n    }\r\n\r\n    function addLiquidity(uint256 tokenAmount, uint256 ethAmount) private {\r\n        // approve token transfer to cover all possible scenarios\r\n        _approve(address(this), address(uniswapV2Router), tokenAmount);\r\n\r\n        // add the liquidity\r\n        uniswapV2Router.addLiquidityETH{value: ethAmount}(\r\n            address(this),\r\n            tokenAmount,\r\n            0, // slippage is unavoidable\r\n            0, // slippage is unavoidable\r\n            owner(),\r\n            block.timestamp\r\n        );\r\n    }\r\n\r\n    // if _sender is a pair (excludedFromFee), then _recipient sells tokens, extra charge _recipient but not a sender\r\n    function _transfer(\r\n        address _sender,\r\n        address _recipient,\r\n        uint256 _amount\r\n    ) internal virtual {\r\n        require(_sender != address(0), \"ERC20: transfer from the zero address\");\r\n        require(\r\n            _recipient != address(0),\r\n            \"ERC20: transfer to the zero address\"\r\n        );\r\n        require(_amount > 0, \"ERC20: amount must be greater than zero\");\r\n        uint256 senderBalance = _balances[_sender];\r\n        require(\r\n            senderBalance >= _amount,\r\n            \"ERC20: transfer amount exceeds balance\"\r\n        );\r\n        if (_sender != owner() && _recipient != owner()) {\r\n            uint256 _maxTxAmount = calculateMaxTxAmount();\r\n            require(\r\n                _amount <= _maxTxAmount,\r\n                \"ERC20: transfer amount exceeds maximum\"\r\n            );\r\n        }\r\n\r\n        uint256 contractTokenBalance = balanceOf(address(this));\r\n        if (contractTokenBalance >= maxTxAmount) {\r\n            // should we ?\r\n            contractTokenBalance = maxTxAmount;\r\n        }\r\n        bool overMinTokenBalance = contractTokenBalance >=\r\n            numTokensSellToAddLiquidity;\r\n        if (\r\n            overMinTokenBalance &&\r\n            !inSwapAndLiquify &&\r\n            _sender != uniswapV2Pair &&\r\n            swapAndLiquifyEnabled\r\n        ) {\r\n            contractTokenBalance = numTokensSellToAddLiquidity;\r\n            swapAndLiquify(contractTokenBalance);\r\n        }\r\n        bool takeFee = true;\r\n        if (excludedFromFee[_sender] && excludedFromFee[_recipient]) {\r\n            takeFee = false;\r\n        }\r\n        if (!takeFee) disableFee();\r\n        _transferWithFee(_sender, _recipient, _amount);\r\n        if (!takeFee) enableFee();\r\n    }\r\n\r\n    function getValues(uint256 _amount)\r\n        private\r\n        view\r\n        returns (\r\n            uint256,\r\n            uint256,\r\n            uint256,\r\n            uint256,\r\n            uint256\r\n        )\r\n    {\r\n        uint256 amountToBurn = (_amount / feeGranularity) * burnFee;\r\n        uint256 amountToSupport = (_amount / feeGranularity) * supportFee;\r\n        uint256 amountToCharge = (_amount / feeGranularity) * taxFee;\r\n        uint256 amountToAddLiquidity = (_amount / feeGranularity) *\r\n            liquidityFee;\r\n        uint256 amountToReceive = _amount -\r\n            amountToBurn -\r\n            amountToSupport -\r\n            amountToCharge -\r\n            amountToAddLiquidity;\r\n        return (\r\n            amountToBurn,\r\n            amountToSupport,\r\n            amountToCharge,\r\n            amountToAddLiquidity,\r\n            amountToReceive\r\n        );\r\n    }\r\n\r\n    // _transferWithFee charges sender and recepient. Any tokens movement are charged to motivate holders hold tokens\r\n    function _transferWithFee(\r\n        address _sender,\r\n        address _recipient,\r\n        uint256 _amount\r\n    ) private {\r\n        (\r\n            uint256 amountToBurn,\r\n            uint256 amountToSupport,\r\n            uint256 amountToCharge,\r\n            uint256 amountToAddLiquidity,\r\n            uint256 amountToReceive\r\n        ) = getValues(_amount);\r\n\r\n        uint256 extraFee = 0;\r\n        if (\r\n            _recipient != address(this) &&\r\n            !excludedFromFee[_sender] &&\r\n            excludedFromFee[_recipient]\r\n        ) {\r\n            extraFee = calculateExtraFee();\r\n        }\r\n        uint256 toExtraFee = (_amount / feeGranularity) * extraFee;\r\n        amountToReceive -= toExtraFee;\r\n        // collect fees\r\n        shareRewards(_sender, amountToCharge);\r\n        burn(_sender, amountToBurn);\r\n        takeSupport(_sender, amountToSupport);\r\n\r\n        _balances[address(this)] += amountToAddLiquidity;\r\n        _balances[_sender] -= _amount;\r\n        _balances[_recipient] += amountToReceive;\r\n        if (!excludedFromFee[_recipient]) {\r\n            holdersRewarded.push(_recipient);\r\n        }\r\n        emit Transfer(_sender, _recipient, amountToReceive);\r\n    }\r\n\r\n    function _approve(\r\n        address _owner,\r\n        address _spender,\r\n        uint256 _amount\r\n    ) internal virtual {\r\n        require(_owner != address(0), \"ERC20: approve from the zero address\");\r\n        require(_spender != address(0), \"ERC20: approve to the zero address\");\r\n\r\n        _allowances[_owner][_spender] = _amount;\r\n        emit Approval(_owner, _spender, _amount);\r\n    }\r\n\r\n    function disableFee() private {\r\n        taxFeeOrigin = taxFee;\r\n        burnFeeOrigin = burnFee;\r\n        liquidityFeeOrigin = liquidityFee;\r\n        supportFeeOrigin = supportFeeOrigin;\r\n        taxFee = 0;\r\n        burnFee = 0;\r\n        liquidityFee = 0;\r\n        supportFee = 0;\r\n    }\r\n\r\n    function enableFee() private {\r\n        taxFee = taxFeeOrigin;\r\n        burnFee = burnFeeOrigin;\r\n        liquidityFee = liquidityFeeOrigin;\r\n        supportFee = supportFeeOrigin;\r\n    }\r\n\r\n    function totalHolders() public view returns (uint256) {\r\n        return holdersRewarded.length;\r\n    }\r\n}\r\n",
  "sourcePath": "C:/Users/skyne/Dev/work/crypto/hungrypanda/contracts/HungryPanda.sol",
  "compiler": {
    "name": "solc",
    "version": "0.8.6+commit.11564f7e.Emscripten.clang"
  },
  "schemaVersion": "3.4.1",
  "updatedAt": "2021-07-01T16:46:27.080Z",
  "devdoc": {
    "kind": "dev",
    "methods": {
      "owner()": {
        "details": "Returns the address of the current owner."
      },
      "renounceOwnership()": {
        "details": "Leaves the contract without owner. It will not be possible to call `onlyOwner` functions anymore. Can only be called by the current owner. NOTE: Renouncing ownership will leave the contract without an owner, thereby removing any functionality that is only available to the owner."
      },
      "totalSupply()": {
        "details": "Returns the amount of tokens in existence."
      },
      "transferOwnership(address)": {
        "details": "Transfers ownership of the contract to a new account (`newOwner`). Can only be called by the current owner."
      }
    },
    "version": 1
  },
  "userdoc": {
    "kind": "user",
    "methods": {},
    "version": 1
  }
}