{
  "contractName": "HungryPanda",
  "abi": [
    {
      "inputs": [
        {
          "internalType": "address",
          "name": "_router",
          "type": "address"
        },
        {
          "internalType": "address",
          "name": "_wallet",
          "type": "address"
        }
      ],
      "stateMutability": "nonpayable",
      "type": "constructor"
    },
    {
      "anonymous": false,
      "inputs": [
        {
          "indexed": true,
          "internalType": "address",
          "name": "owner",
          "type": "address"
        },
        {
          "indexed": true,
          "internalType": "address",
          "name": "spender",
          "type": "address"
        },
        {
          "indexed": false,
          "internalType": "uint256",
          "name": "value",
          "type": "uint256"
        }
      ],
      "name": "Approval",
      "type": "event"
    },
    {
      "anonymous": false,
      "inputs": [
        {
          "indexed": false,
          "internalType": "uint256",
          "name": "minTokensBeforeSwap",
          "type": "uint256"
        }
      ],
      "name": "MinTokensBeforeSwapUpdated",
      "type": "event"
    },
    {
      "anonymous": false,
      "inputs": [
        {
          "indexed": true,
          "internalType": "address",
          "name": "previousOwner",
          "type": "address"
        },
        {
          "indexed": true,
          "internalType": "address",
          "name": "newOwner",
          "type": "address"
        }
      ],
      "name": "OwnershipTransferred",
      "type": "event"
    },
    {
      "anonymous": false,
      "inputs": [
        {
          "indexed": false,
          "internalType": "uint256",
          "name": "tokensSwapped",
          "type": "uint256"
        },
        {
          "indexed": false,
          "internalType": "uint256",
          "name": "ethReceived",
          "type": "uint256"
        },
        {
          "indexed": false,
          "internalType": "uint256",
          "name": "tokensIntoLiqudity",
          "type": "uint256"
        }
      ],
      "name": "SwapAndLiquify",
      "type": "event"
    },
    {
      "anonymous": false,
      "inputs": [
        {
          "indexed": false,
          "internalType": "bool",
          "name": "enabled",
          "type": "bool"
        }
      ],
      "name": "SwapAndLiquifyEnabledUpdated",
      "type": "event"
    },
    {
      "anonymous": false,
      "inputs": [
        {
          "indexed": true,
          "internalType": "address",
          "name": "from",
          "type": "address"
        },
        {
          "indexed": true,
          "internalType": "address",
          "name": "to",
          "type": "address"
        },
        {
          "indexed": false,
          "internalType": "uint256",
          "name": "value",
          "type": "uint256"
        }
      ],
      "name": "Transfer",
      "type": "event"
    },
    {
      "inputs": [],
      "name": "_WETH",
      "outputs": [
        {
          "internalType": "address",
          "name": "",
          "type": "address"
        }
      ],
      "stateMutability": "view",
      "type": "function",
      "constant": true
    },
    {
      "inputs": [],
      "name": "bornAtTime",
      "outputs": [
        {
          "internalType": "uint256",
          "name": "",
          "type": "uint256"
        }
      ],
      "stateMutability": "view",
      "type": "function",
      "constant": true
    },
    {
      "inputs": [],
      "name": "burnFee",
      "outputs": [
        {
          "internalType": "uint256",
          "name": "",
          "type": "uint256"
        }
      ],
      "stateMutability": "view",
      "type": "function",
      "constant": true
    },
    {
      "inputs": [],
      "name": "burnFeeOrigin",
      "outputs": [
        {
          "internalType": "uint256",
          "name": "",
          "type": "uint256"
        }
      ],
      "stateMutability": "view",
      "type": "function",
      "constant": true
    },
    {
      "inputs": [],
      "name": "feeGranularity",
      "outputs": [
        {
          "internalType": "uint256",
          "name": "",
          "type": "uint256"
        }
      ],
      "stateMutability": "view",
      "type": "function",
      "constant": true
    },
    {
      "inputs": [
        {
          "internalType": "uint256",
          "name": "",
          "type": "uint256"
        }
      ],
      "name": "holdersRewarded",
      "outputs": [
        {
          "internalType": "address",
          "name": "",
          "type": "address"
        }
      ],
      "stateMutability": "view",
      "type": "function",
      "constant": true
    },
    {
      "inputs": [],
      "name": "liquidityFee",
      "outputs": [
        {
          "internalType": "uint256",
          "name": "",
          "type": "uint256"
        }
      ],
      "stateMutability": "view",
      "type": "function",
      "constant": true
    },
    {
      "inputs": [],
      "name": "liquidityFeeOrigin",
      "outputs": [
        {
          "internalType": "uint256",
          "name": "",
          "type": "uint256"
        }
      ],
      "stateMutability": "view",
      "type": "function",
      "constant": true
    },
    {
      "inputs": [],
      "name": "maxTxAmount",
      "outputs": [
        {
          "internalType": "uint256",
          "name": "",
          "type": "uint256"
        }
      ],
      "stateMutability": "view",
      "type": "function",
      "constant": true
    },
    {
      "inputs": [],
      "name": "minimalSupply",
      "outputs": [
        {
          "internalType": "uint256",
          "name": "",
          "type": "uint256"
        }
      ],
      "stateMutability": "view",
      "type": "function",
      "constant": true
    },
    {
      "inputs": [],
      "name": "numTokensSellToAddLiquidity",
      "outputs": [
        {
          "internalType": "uint256",
          "name": "",
          "type": "uint256"
        }
      ],
      "stateMutability": "view",
      "type": "function",
      "constant": true
    },
    {
      "inputs": [],
      "name": "owner",
      "outputs": [
        {
          "internalType": "address",
          "name": "",
          "type": "address"
        }
      ],
      "stateMutability": "view",
      "type": "function",
      "constant": true
    },
    {
      "inputs": [],
      "name": "renounceOwnership",
      "outputs": [],
      "stateMutability": "nonpayable",
      "type": "function"
    },
    {
      "inputs": [],
      "name": "rewardTotal",
      "outputs": [
        {
          "internalType": "uint256",
          "name": "",
          "type": "uint256"
        }
      ],
      "stateMutability": "view",
      "type": "function",
      "constant": true
    },
    {
      "inputs": [],
      "name": "supportFee",
      "outputs": [
        {
          "internalType": "uint256",
          "name": "",
          "type": "uint256"
        }
      ],
      "stateMutability": "view",
      "type": "function",
      "constant": true
    },
    {
      "inputs": [],
      "name": "supportFeeOrigin",
      "outputs": [
        {
          "internalType": "uint256",
          "name": "",
          "type": "uint256"
        }
      ],
      "stateMutability": "view",
      "type": "function",
      "constant": true
    },
    {
      "inputs": [],
      "name": "supportWallet",
      "outputs": [
        {
          "internalType": "address",
          "name": "",
          "type": "address"
        }
      ],
      "stateMutability": "view",
      "type": "function",
      "constant": true
    },
    {
      "inputs": [],
      "name": "swapAndLiquifyEnabled",
      "outputs": [
        {
          "internalType": "bool",
          "name": "",
          "type": "bool"
        }
      ],
      "stateMutability": "view",
      "type": "function",
      "constant": true
    },
    {
      "inputs": [],
      "name": "taxFee",
      "outputs": [
        {
          "internalType": "uint256",
          "name": "",
          "type": "uint256"
        }
      ],
      "stateMutability": "view",
      "type": "function",
      "constant": true
    },
    {
      "inputs": [],
      "name": "taxFeeOrigin",
      "outputs": [
        {
          "internalType": "uint256",
          "name": "",
          "type": "uint256"
        }
      ],
      "stateMutability": "view",
      "type": "function",
      "constant": true
    },
    {
      "inputs": [],
      "name": "totalBurned",
      "outputs": [
        {
          "internalType": "uint256",
          "name": "",
          "type": "uint256"
        }
      ],
      "stateMutability": "view",
      "type": "function",
      "constant": true
    },
    {
      "inputs": [],
      "name": "totalSupported",
      "outputs": [
        {
          "internalType": "uint256",
          "name": "",
          "type": "uint256"
        }
      ],
      "stateMutability": "view",
      "type": "function",
      "constant": true
    },
    {
      "inputs": [
        {
          "internalType": "address",
          "name": "newOwner",
          "type": "address"
        }
      ],
      "name": "transferOwnership",
      "outputs": [],
      "stateMutability": "nonpayable",
      "type": "function"
    },
    {
      "inputs": [],
      "name": "uniswapV2Pair",
      "outputs": [
        {
          "internalType": "address",
          "name": "",
          "type": "address"
        }
      ],
      "stateMutability": "view",
      "type": "function",
      "constant": true
    },
    {
      "inputs": [],
      "name": "uniswapV2Router",
      "outputs": [
        {
          "internalType": "contract IUniswapV2Router02",
          "name": "",
          "type": "address"
        }
      ],
      "stateMutability": "view",
      "type": "function",
      "constant": true
    },
    {
      "stateMutability": "payable",
      "type": "receive",
      "payable": true
    },
    {
      "inputs": [
        {
          "internalType": "bool",
          "name": "_enabled",
          "type": "bool"
        }
      ],
      "name": "setSwapAndLiquifyEnabled",
      "outputs": [],
      "stateMutability": "nonpayable",
      "type": "function"
    },
    {
      "inputs": [
        {
          "internalType": "address",
          "name": "_address",
          "type": "address"
        }
      ],
      "name": "excludeFromFee",
      "outputs": [],
      "stateMutability": "nonpayable",
      "type": "function"
    },
    {
      "inputs": [
        {
          "internalType": "address",
          "name": "_address",
          "type": "address"
        }
      ],
      "name": "includeToFee",
      "outputs": [],
      "stateMutability": "nonpayable",
      "type": "function"
    },
    {
      "inputs": [],
      "name": "name",
      "outputs": [
        {
          "internalType": "string",
          "name": "",
          "type": "string"
        }
      ],
      "stateMutability": "view",
      "type": "function",
      "constant": true
    },
    {
      "inputs": [],
      "name": "symbol",
      "outputs": [
        {
          "internalType": "string",
          "name": "",
          "type": "string"
        }
      ],
      "stateMutability": "view",
      "type": "function",
      "constant": true
    },
    {
      "inputs": [],
      "name": "decimals",
      "outputs": [
        {
          "internalType": "uint8",
          "name": "",
          "type": "uint8"
        }
      ],
      "stateMutability": "pure",
      "type": "function",
      "constant": true
    },
    {
      "inputs": [],
      "name": "totalSupply",
      "outputs": [
        {
          "internalType": "uint256",
          "name": "",
          "type": "uint256"
        }
      ],
      "stateMutability": "view",
      "type": "function",
      "constant": true
    },
    {
      "inputs": [
        {
          "internalType": "address",
          "name": "_account",
          "type": "address"
        }
      ],
      "name": "balanceOf",
      "outputs": [
        {
          "internalType": "uint256",
          "name": "",
          "type": "uint256"
        }
      ],
      "stateMutability": "view",
      "type": "function",
      "constant": true
    },
    {
      "inputs": [
        {
          "internalType": "address",
          "name": "_recipient",
          "type": "address"
        },
        {
          "internalType": "uint256",
          "name": "_amount",
          "type": "uint256"
        }
      ],
      "name": "transfer",
      "outputs": [
        {
          "internalType": "bool",
          "name": "",
          "type": "bool"
        }
      ],
      "stateMutability": "nonpayable",
      "type": "function"
    },
    {
      "inputs": [
        {
          "internalType": "address",
          "name": "_owner",
          "type": "address"
        },
        {
          "internalType": "address",
          "name": "_spender",
          "type": "address"
        }
      ],
      "name": "allowance",
      "outputs": [
        {
          "internalType": "uint256",
          "name": "",
          "type": "uint256"
        }
      ],
      "stateMutability": "view",
      "type": "function",
      "constant": true
    },
    {
      "inputs": [
        {
          "internalType": "address",
          "name": "_spender",
          "type": "address"
        },
        {
          "internalType": "uint256",
          "name": "_amount",
          "type": "uint256"
        }
      ],
      "name": "approve",
      "outputs": [
        {
          "internalType": "bool",
          "name": "",
          "type": "bool"
        }
      ],
      "stateMutability": "nonpayable",
      "type": "function"
    },
    {
      "inputs": [
        {
          "internalType": "address",
          "name": "_sender",
          "type": "address"
        },
        {
          "internalType": "address",
          "name": "_recipient",
          "type": "address"
        },
        {
          "internalType": "uint256",
          "name": "_amount",
          "type": "uint256"
        }
      ],
      "name": "transferFrom",
      "outputs": [
        {
          "internalType": "bool",
          "name": "",
          "type": "bool"
        }
      ],
      "stateMutability": "nonpayable",
      "type": "function"
    },
    {
      "inputs": [
        {
          "internalType": "address",
          "name": "spender",
          "type": "address"
        },
        {
          "internalType": "uint256",
          "name": "addedValue",
          "type": "uint256"
        }
      ],
      "name": "increaseAllowance",
      "outputs": [
        {
          "internalType": "bool",
          "name": "",
          "type": "bool"
        }
      ],
      "stateMutability": "nonpayable",
      "type": "function"
    },
    {
      "inputs": [
        {
          "internalType": "address",
          "name": "_spender",
          "type": "address"
        },
        {
          "internalType": "uint256",
          "name": "subtractedValue",
          "type": "uint256"
        }
      ],
      "name": "decreaseAllowance",
      "outputs": [
        {
          "internalType": "bool",
          "name": "",
          "type": "bool"
        }
      ],
      "stateMutability": "nonpayable",
      "type": "function"
    },
    {
      "inputs": [],
      "name": "totalHolders",
      "outputs": [
        {
          "internalType": "uint256",
          "name": "",
          "type": "uint256"
        }
      ],
      "stateMutability": "view",
      "type": "function",
      "constant": true
    }
  ],
  "bytecode": "0x6101206040526012600a620000159190620009cd565b66038d7ea4c6800062000029919062000b0a565b6005556040518060400160405280600b81526020017f48756e67727950616e64610000000000000000000000000000000000000000008152506006908051906020019062000079929190620007c6565b506040518060400160405280600381526020017f484e50000000000000000000000000000000000000000000000000000000000081525060079080519060200190620000c7929190620007c6565b50600460085560016009556004600a556001600b55600854600c55600954600d55600a54600e55600b54600f556000601055600060115560006012556001601360016101000a81548160ff0219169083151502179055503480156200012b57600080fd5b50604051620048fe380380620048fe8339818101604052810190620001519190620008bf565b600062000163620007be60201b60201c565b9050806000806101000a81548173ffffffffffffffffffffffffffffffffffffffff021916908373ffffffffffffffffffffffffffffffffffffffff1602179055508073ffffffffffffffffffffffffffffffffffffffff16600073ffffffffffffffffffffffffffffffffffffffff167f8be0079c531659141344cd1fd0a4f28419497f9722a3daafe3b4186f6b6457e060405160405180910390a3504260a08181525050600082905060008173ffffffffffffffffffffffffffffffffffffffff1663c45a01556040518163ffffffff1660e01b815260040160206040518083038186803b1580156200025757600080fd5b505afa1580156200026c573d6000803e3d6000fd5b505050506040513d601f19601f820116820180604052508101906200029291906200088d565b73ffffffffffffffffffffffffffffffffffffffff1663c9c65396308473ffffffffffffffffffffffffffffffffffffffff1663ad5c46486040518163ffffffff1660e01b815260040160206040518083038186803b158015620002f557600080fd5b505afa1580156200030a573d6000803e3d6000fd5b505050506040513d601f19601f820116820180604052508101906200033091906200088d565b6040518363ffffffff1660e01b81526004016200034f92919062000928565b602060405180830381600087803b1580156200036a57600080fd5b505af11580156200037f573d6000803e3d6000fd5b505050506040513d601f19601f82011682018060405250810190620003a591906200088d565b90508173ffffffffffffffffffffffffffffffffffffffff1660c08173ffffffffffffffffffffffffffffffffffffffff1660601b815250508173ffffffffffffffffffffffffffffffffffffffff1663ad5c46486040518163ffffffff1660e01b815260040160206040518083038186803b1580156200042557600080fd5b505afa1580156200043a573d6000803e3d6000fd5b505050506040513d601f19601f820116820180604052508101906200046091906200088d565b73ffffffffffffffffffffffffffffffffffffffff166101008173ffffffffffffffffffffffffffffffffffffffff1660601b815250508073ffffffffffffffffffffffffffffffffffffffff1660e08173ffffffffffffffffffffffffffffffffffffffff1660601b815250506001600260003073ffffffffffffffffffffffffffffffffffffffff1673ffffffffffffffffffffffffffffffffffffffff16815260200190815260200160002060006101000a81548160ff0219169083151502179055506001600260006200053c620007be60201b60201c565b73ffffffffffffffffffffffffffffffffffffffff1673ffffffffffffffffffffffffffffffffffffffff16815260200190815260200160002060006101000a81548160ff0219169083151502179055506001600260008473ffffffffffffffffffffffffffffffffffffffff1673ffffffffffffffffffffffffffffffffffffffff16815260200190815260200160002060006101000a81548160ff0219169083151502179055506001600260008373ffffffffffffffffffffffffffffffffffffffff1673ffffffffffffffffffffffffffffffffffffffff16815260200190815260200160002060006101000a81548160ff02191690831515021790555060036200064f620007be60201b60201c565b9080600181540180825580915050600190039060005260206000200160009091909190916101000a81548173ffffffffffffffffffffffffffffffffffffffff021916908373ffffffffffffffffffffffffffffffffffffffff1602179055508273ffffffffffffffffffffffffffffffffffffffff1660808173ffffffffffffffffffffffffffffffffffffffff1660601b8152505060055460016000620006fd620007be60201b60201c565b73ffffffffffffffffffffffffffffffffffffffff1673ffffffffffffffffffffffffffffffffffffffff168152602001908152602001600020819055506200074b620007be60201b60201c565b73ffffffffffffffffffffffffffffffffffffffff16600073ffffffffffffffffffffffffffffffffffffffff167fddf252ad1be2c89b69c2b068fc378daa952ba7f163c4a11628f55a4df523b3ef600554604051620007ac919062000955565b60405180910390a35050505062000c76565b600033905090565b828054620007d49062000bb6565b90600052602060002090601f016020900481019282620007f8576000855562000844565b82601f106200081357805160ff191683800117855562000844565b8280016001018555821562000844579182015b828111156200084357825182559160200191906001019062000826565b5b50905062000853919062000857565b5090565b5b808211156200087257600081600090555060010162000858565b5090565b600081519050620008878162000c5c565b92915050565b600060208284031215620008a657620008a562000c4a565b5b6000620008b68482850162000876565b91505092915050565b60008060408385031215620008d957620008d862000c4a565b5b6000620008e98582860162000876565b9250506020620008fc8582860162000876565b9150509250929050565b620009118162000b6b565b82525050565b620009228162000b9f565b82525050565b60006040820190506200093f600083018562000906565b6200094e602083018462000906565b9392505050565b60006020820190506200096c600083018462000917565b92915050565b6000808291508390505b6001851115620009c4578086048111156200099c576200099b62000bec565b5b6001851615620009ac5780820291505b8081029050620009bc8562000c4f565b94506200097c565b94509492505050565b6000620009da8262000b9f565b9150620009e78362000ba9565b925062000a167fffffffffffffffffffffffffffffffffffffffffffffffffffffffffffffffff848462000a1e565b905092915050565b60008262000a30576001905062000b03565b8162000a40576000905062000b03565b816001811462000a59576002811462000a645762000a9a565b600191505062000b03565b60ff84111562000a795762000a7862000bec565b5b8360020a91508482111562000a935762000a9262000bec565b5b5062000b03565b5060208310610133831016604e8410600b841016171562000ad45782820a90508381111562000ace5762000acd62000bec565b5b62000b03565b62000ae3848484600162000972565b9250905081840481111562000afd5762000afc62000bec565b5b81810290505b9392505050565b600062000b178262000b9f565b915062000b248362000b9f565b9250817fffffffffffffffffffffffffffffffffffffffffffffffffffffffffffffffff048311821515161562000b605762000b5f62000bec565b5b828202905092915050565b600062000b788262000b7f565b9050919050565b600073ffffffffffffffffffffffffffffffffffffffff82169050919050565b6000819050919050565b600060ff82169050919050565b6000600282049050600182168062000bcf57607f821691505b6020821081141562000be65762000be562000c1b565b5b50919050565b7f4e487b7100000000000000000000000000000000000000000000000000000000600052601160045260246000fd5b7f4e487b7100000000000000000000000000000000000000000000000000000000600052602260045260246000fd5b600080fd5b60008160011c9050919050565b62000c678162000b6b565b811462000c7357600080fd5b50565b60805160601c60a05160c05160601c60e05160601c6101005160601c613bff62000cff60003960006116c9015260008181610f280152611da2015260008181610a29015281816122b8015281816122df0152818161237b015281816123a201526129bc0152600061111701526000818161131a0152818161280a01526128940152613bff6000f3fe60806040526004361061023f5760003560e01c806395d89b411161012e578063d89135cd116100ab578063ebd3e5231161006f578063ebd3e523146108a2578063f2fde38b146108cd578063f420a420146108f6578063f959680b14610921578063fce589d81461094c57610246565b8063d89135cd146107a7578063dcd5775b146107d2578063dd62ed3e146107fd578063dd6e7a861461083a578063e0af36161461087757610246565b8063b3fb7369116100f2578063b3fb7369146106d4578063b60eaaaa146106ff578063c49b9a801461072a578063ca302ffa14610753578063cf0848f71461077e57610246565b806395d89b41146105d957806398118cb414610604578063a071dcf41461062f578063a457c2d71461065a578063a9059cbb1461069757610246565b806344cd5d72116101bc57806370a082311161018057806370a0823114610504578063715018a6146105415780638c0b5e22146105585780638d000264146105835780638da5cb5b146105ae57610246565b806344cd5d721461042d57806349bd5a5e146104585780634a74bb021461048357806353d74fdf146104ae57806354b7fd7c146104d957610246565b806323b872dd1161020357806323b872dd14610334578063313ce56714610371578063395093511461039c5780633a4e0b97146103d9578063437823ec1461040457610246565b806306fdde031461024b578063095ea7b3146102765780631694505e146102b357806317c57272146102de57806318160ddd1461030957610246565b3661024657005b600080fd5b34801561025757600080fd5b50610260610977565b60405161026d9190613019565b60405180910390f35b34801561028257600080fd5b5061029d60048036038101906102989190612bee565b610a09565b6040516102aa9190612fe3565b60405180910390f35b3480156102bf57600080fd5b506102c8610a27565b6040516102d59190612ffe565b60405180910390f35b3480156102ea57600080fd5b506102f3610a4b565b60405161030091906131db565b60405180910390f35b34801561031557600080fd5b5061031e610a50565b60405161032b91906131db565b60405180910390f35b34801561034057600080fd5b5061035b60048036038101906103569190612b9b565b610a5a565b6040516103689190612fe3565b60405180910390f35b34801561037d57600080fd5b50610386610b5b565b6040516103939190613287565b60405180910390f35b3480156103a857600080fd5b506103c360048036038101906103be9190612bee565b610b64565b6040516103d09190612fe3565b60405180910390f35b3480156103e557600080fd5b506103ee610c10565b6040516103fb91906131db565b60405180910390f35b34801561041057600080fd5b5061042b60048036038101906104269190612b01565b610c16565b005b34801561043957600080fd5b50610442610f05565b60405161044f91906131db565b60405180910390f35b34801561046457600080fd5b5061046d610f26565b60405161047a9190612f67565b60405180910390f35b34801561048f57600080fd5b50610498610f4a565b6040516104a59190612fe3565b60405180910390f35b3480156104ba57600080fd5b506104c3610f5d565b6040516104d091906131db565b60405180910390f35b3480156104e557600080fd5b506104ee610f6a565b6040516104fb91906131db565b60405180910390f35b34801561051057600080fd5b5061052b60048036038101906105269190612b01565b610f70565b60405161053891906131db565b60405180910390f35b34801561054d57600080fd5b50610556610fb9565b005b34801561056457600080fd5b5061056d6110f3565b60405161057a91906131db565b60405180910390f35b34801561058f57600080fd5b50610598611115565b6040516105a591906131db565b60405180910390f35b3480156105ba57600080fd5b506105c3611139565b6040516105d09190612f67565b60405180910390f35b3480156105e557600080fd5b506105ee611162565b6040516105fb9190613019565b60405180910390f35b34801561061057600080fd5b506106196111f4565b60405161062691906131db565b60405180910390f35b34801561063b57600080fd5b506106446111fa565b60405161065191906131db565b60405180910390f35b34801561066657600080fd5b50610681600480360381019061067c9190612bee565b611200565b60405161068e9190612fe3565b60405180910390f35b3480156106a357600080fd5b506106be60048036038101906106b99190612bee565b6112f4565b6040516106cb9190612fe3565b60405180910390f35b3480156106e057600080fd5b506106e9611312565b6040516106f691906131db565b60405180910390f35b34801561070b57600080fd5b50610714611318565b6040516107219190612f67565b60405180910390f35b34801561073657600080fd5b50610751600480360381019061074c9190612c2e565b61133c565b005b34801561075f57600080fd5b5061076861140c565b60405161077591906131db565b60405180910390f35b34801561078a57600080fd5b506107a560048036038101906107a09190612b01565b611412565b005b3480156107b357600080fd5b506107bc6115d8565b6040516107c991906131db565b60405180910390f35b3480156107de57600080fd5b506107e76115de565b6040516107f491906131db565b60405180910390f35b34801561080957600080fd5b50610824600480360381019061081f9190612b5b565b611601565b60405161083191906131db565b60405180910390f35b34801561084657600080fd5b50610861600480360381019061085c9190612c5b565b611688565b60405161086e9190612f67565b60405180910390f35b34801561088357600080fd5b5061088c6116c7565b6040516108999190612f67565b60405180910390f35b3480156108ae57600080fd5b506108b76116eb565b6040516108c491906131db565b60405180910390f35b3480156108d957600080fd5b506108f460048036038101906108ef9190612b01565b6116f1565b005b34801561090257600080fd5b5061090b61189a565b60405161091891906131db565b60405180910390f35b34801561092d57600080fd5b506109366118a0565b60405161094391906131db565b60405180910390f35b34801561095857600080fd5b506109616118a6565b60405161096e91906131db565b60405180910390f35b6060600680546109869061363b565b80601f01602080910402602001604051908101604052809291908181526020018280546109b29061363b565b80156109ff5780601f106109d4576101008083540402835291602001916109ff565b820191906000526020600020905b8154815290600101906020018083116109e257829003601f168201915b5050505050905090565b6000610a1d610a166118ac565b84846118b4565b6001905092915050565b7f000000000000000000000000000000000000000000000000000000000000000081565b606481565b6000600554905090565b6000610a67848484611a7f565b6000600460008673ffffffffffffffffffffffffffffffffffffffff1673ffffffffffffffffffffffffffffffffffffffff1681526020019081526020016000206000610ab26118ac565b73ffffffffffffffffffffffffffffffffffffffff1673ffffffffffffffffffffffffffffffffffffffff16815260200190815260200160002054905082811015610b32576040517f08c379a0000000000000000000000000000000000000000000000000000000008152600401610b29906130fb565b60405180910390fd5b610b4f85610b3e6118ac565b8584610b4a9190613549565b6118b4565b60019150509392505050565b60006012905090565b6000610c06610b716118ac565b848460046000610b7f6118ac565b73ffffffffffffffffffffffffffffffffffffffff1673ffffffffffffffffffffffffffffffffffffffff16815260200190815260200160002060008873ffffffffffffffffffffffffffffffffffffffff1673ffffffffffffffffffffffffffffffffffffffff16815260200190815260200160002054610c0191906132f7565b6118b4565b6001905092915050565b600f5481565b610c1e6118ac565b73ffffffffffffffffffffffffffffffffffffffff16610c3c611139565b73ffffffffffffffffffffffffffffffffffffffff1614610c92576040517f08c379a0000000000000000000000000000000000000000000000000000000008152600401610c899061311b565b60405180910390fd5b600260008273ffffffffffffffffffffffffffffffffffffffff1673ffffffffffffffffffffffffffffffffffffffff16815260200190815260200160002060009054906101000a900460ff1615610d1f576040517f08c379a0000000000000000000000000000000000000000000000000000000008152600401610d16906130bb565b60405180910390fd5b6000600380549050905060005b81811015610ea85760038181548110610d4857610d47613772565b5b9060005260206000200160009054906101000a900473ffffffffffffffffffffffffffffffffffffffff1673ffffffffffffffffffffffffffffffffffffffff168373ffffffffffffffffffffffffffffffffffffffff161415610e95576003600183610db59190613549565b81548110610dc657610dc5613772565b5b9060005260206000200160009054906101000a900473ffffffffffffffffffffffffffffffffffffffff1660038281548110610e0557610e04613772565b5b9060005260206000200160006101000a81548173ffffffffffffffffffffffffffffffffffffffff021916908373ffffffffffffffffffffffffffffffffffffffff1602179055506003805480610e5f57610e5e613743565b5b6001900381819060005260206000200160006101000a81549073ffffffffffffffffffffffffffffffffffffffff021916905590555b8080610ea09061366d565b915050610d2c565b506001600260008473ffffffffffffffffffffffffffffffffffffffff1673ffffffffffffffffffffffffffffffffffffffff16815260200190815260200160002060006101000a81548160ff0219169083151502179055505050565b6012600a610f1391906133d1565b64e8d4a51000610f2391906134ef565b81565b7f000000000000000000000000000000000000000000000000000000000000000081565b601360019054906101000a900460ff1681565b6000600380549050905090565b600e5481565b6000600160008373ffffffffffffffffffffffffffffffffffffffff1673ffffffffffffffffffffffffffffffffffffffff168152602001908152602001600020549050919050565b610fc16118ac565b73ffffffffffffffffffffffffffffffffffffffff16610fdf611139565b73ffffffffffffffffffffffffffffffffffffffff1614611035576040517f08c379a000000000000000000000000000000000000000000000000000000000815260040161102c9061311b565b60405180910390fd5b600073ffffffffffffffffffffffffffffffffffffffff1660008054906101000a900473ffffffffffffffffffffffffffffffffffffffff1673ffffffffffffffffffffffffffffffffffffffff167f8be0079c531659141344cd1fd0a4f28419497f9722a3daafe3b4186f6b6457e060405160405180910390a360008060006101000a81548173ffffffffffffffffffffffffffffffffffffffff021916908373ffffffffffffffffffffffffffffffffffffffff160217905550565b6012600a61110191906133d1565b655af3107a400061111291906134ef565b81565b7f000000000000000000000000000000000000000000000000000000000000000081565b60008060009054906101000a900473ffffffffffffffffffffffffffffffffffffffff16905090565b6060600780546111719061363b565b80601f016020809104026020016040519081016040528092919081815260200182805461119d9061363b565b80156111ea5780601f106111bf576101008083540402835291602001916111ea565b820191906000526020600020905b8154815290600101906020018083116111cd57829003601f168201915b5050505050905090565b600a5481565b60085481565b6000806004600061120f6118ac565b73ffffffffffffffffffffffffffffffffffffffff1673ffffffffffffffffffffffffffffffffffffffff16815260200190815260200160002060008573ffffffffffffffffffffffffffffffffffffffff1673ffffffffffffffffffffffffffffffffffffffff168152602001908152602001600020549050828110156112cc576040517f08c379a00000000000000000000000000000000000000000000000000000000081526004016112c3906131bb565b60405180910390fd5b6112e96112d76118ac565b8585846112e49190613549565b6118b4565b600191505092915050565b60006113086113016118ac565b8484611a7f565b6001905092915050565b600c5481565b7f000000000000000000000000000000000000000000000000000000000000000081565b6113446118ac565b73ffffffffffffffffffffffffffffffffffffffff16611362611139565b73ffffffffffffffffffffffffffffffffffffffff16146113b8576040517f08c379a00000000000000000000000000000000000000000000000000000000081526004016113af9061311b565b60405180910390fd5b80601360016101000a81548160ff0219169083151502179055507f53726dfcaf90650aa7eb35524f4d3220f07413c8d6cb404cc8c18bf5591bc159816040516114019190612fe3565b60405180910390a150565b600b5481565b61141a6118ac565b73ffffffffffffffffffffffffffffffffffffffff16611438611139565b73ffffffffffffffffffffffffffffffffffffffff161461148e576040517f08c379a00000000000000000000000000000000000000000000000000000000081526004016114859061311b565b60405180910390fd5b600260008273ffffffffffffffffffffffffffffffffffffffff1673ffffffffffffffffffffffffffffffffffffffff16815260200190815260200160002060009054906101000a900460ff1661151a576040517f08c379a00000000000000000000000000000000000000000000000000000000081526004016115119061315b565b60405180910390fd5b6000600260008373ffffffffffffffffffffffffffffffffffffffff1673ffffffffffffffffffffffffffffffffffffffff16815260200190815260200160002060006101000a81548160ff0219169083151502179055506003819080600181540180825580915050600190039060005260206000200160009091909190916101000a81548173ffffffffffffffffffffffffffffffffffffffff021916908373ffffffffffffffffffffffffffffffffffffffff16021790555050565b60105481565b6012600a6115ec91906133d1565b66016bcc41e900006115fe91906134ef565b81565b6000600460008473ffffffffffffffffffffffffffffffffffffffff1673ffffffffffffffffffffffffffffffffffffffff16815260200190815260200160002060008373ffffffffffffffffffffffffffffffffffffffff1673ffffffffffffffffffffffffffffffffffffffff16815260200190815260200160002054905092915050565b6003818154811061169857600080fd5b906000526020600020016000915054906101000a900473ffffffffffffffffffffffffffffffffffffffff1681565b7f000000000000000000000000000000000000000000000000000000000000000081565b600d5481565b6116f96118ac565b73ffffffffffffffffffffffffffffffffffffffff16611717611139565b73ffffffffffffffffffffffffffffffffffffffff161461176d576040517f08c379a00000000000000000000000000000000000000000000000000000000081526004016117649061311b565b60405180910390fd5b600073ffffffffffffffffffffffffffffffffffffffff168173ffffffffffffffffffffffffffffffffffffffff1614156117dd576040517f08c379a00000000000000000000000000000000000000000000000000000000081526004016117d49061305b565b60405180910390fd5b8073ffffffffffffffffffffffffffffffffffffffff1660008054906101000a900473ffffffffffffffffffffffffffffffffffffffff1673ffffffffffffffffffffffffffffffffffffffff167f8be0079c531659141344cd1fd0a4f28419497f9722a3daafe3b4186f6b6457e060405160405180910390a3806000806101000a81548173ffffffffffffffffffffffffffffffffffffffff021916908373ffffffffffffffffffffffffffffffffffffffff16021790555050565b60125481565b60115481565b60095481565b600033905090565b600073ffffffffffffffffffffffffffffffffffffffff168373ffffffffffffffffffffffffffffffffffffffff161415611924576040517f08c379a000000000000000000000000000000000000000000000000000000000815260040161191b9061319b565b60405180910390fd5b600073ffffffffffffffffffffffffffffffffffffffff168273ffffffffffffffffffffffffffffffffffffffff161415611994576040517f08c379a000000000000000000000000000000000000000000000000000000000815260040161198b9061307b565b60405180910390fd5b80600460008573ffffffffffffffffffffffffffffffffffffffff1673ffffffffffffffffffffffffffffffffffffffff16815260200190815260200160002060008473ffffffffffffffffffffffffffffffffffffffff1673ffffffffffffffffffffffffffffffffffffffff168152602001908152602001600020819055508173ffffffffffffffffffffffffffffffffffffffff168373ffffffffffffffffffffffffffffffffffffffff167f8c5be1e5ebec7d5bd14f71427d1e84f3dd0314c0f7b2291e5b200ac8c7c3b92583604051611a7291906131db565b60405180910390a3505050565b600073ffffffffffffffffffffffffffffffffffffffff168373ffffffffffffffffffffffffffffffffffffffff161415611aef576040517f08c379a0000000000000000000000000000000000000000000000000000000008152600401611ae69061317b565b60405180910390fd5b600073ffffffffffffffffffffffffffffffffffffffff168273ffffffffffffffffffffffffffffffffffffffff161415611b5f576040517f08c379a0000000000000000000000000000000000000000000000000000000008152600401611b569061303b565b60405180910390fd5b60008111611ba2576040517f08c379a0000000000000000000000000000000000000000000000000000000008152600401611b999061313b565b60405180910390fd5b6000600160008573ffffffffffffffffffffffffffffffffffffffff1673ffffffffffffffffffffffffffffffffffffffff16815260200190815260200160002054905081811015611c29576040517f08c379a0000000000000000000000000000000000000000000000000000000008152600401611c209061309b565b60405180910390fd5b611c31611139565b73ffffffffffffffffffffffffffffffffffffffff168473ffffffffffffffffffffffffffffffffffffffff1614158015611c9f5750611c6f611139565b73ffffffffffffffffffffffffffffffffffffffff168373ffffffffffffffffffffffffffffffffffffffff1614155b15611d06576012600a611cb291906133d1565b655af3107a4000611cc391906134ef565b821115611d05576040517f08c379a0000000000000000000000000000000000000000000000000000000008152600401611cfc906130db565b60405180910390fd5b5b6000611d1130610f70565b90506012600a611d2191906133d1565b655af3107a4000611d3291906134ef565b8110611d5a576012600a611d4691906133d1565b655af3107a4000611d5791906134ef565b90505b60006012600a611d6a91906133d1565b64e8d4a51000611d7a91906134ef565b8210159050808015611d995750601360009054906101000a900460ff16155b8015611df157507f000000000000000000000000000000000000000000000000000000000000000073ffffffffffffffffffffffffffffffffffffffff168673ffffffffffffffffffffffffffffffffffffffff1614155b8015611e095750601360019054906101000a900460ff165b15611e38576012600a611e1c91906133d1565b64e8d4a51000611e2c91906134ef565b9150611e3782611f1a565b5b600060019050600260008873ffffffffffffffffffffffffffffffffffffffff1673ffffffffffffffffffffffffffffffffffffffff16815260200190815260200160002060009054906101000a900460ff168015611ee05750600260008773ffffffffffffffffffffffffffffffffffffffff1673ffffffffffffffffffffffffffffffffffffffff16815260200190815260200160002060009054906101000a900460ff165b15611eea57600090505b80611ef857611ef7611fdb565b5b611f03878787612021565b80611f1157611f10612280565b5b50505050505050565b6001601360006101000a81548160ff0219169083151502179055506000600282611f44919061334d565b905060008183611f549190613549565b90506000479050611f64836122a6565b60008147611f729190613549565b9050611f7e8382612375565b7f17bbfb9a6069321b6ded73bd96327c9e6b7212a5cd51ff219cd61370acafb561848285604051611fb193929190613250565b60405180910390a1505050506000601360006101000a81548160ff02191690831515021790555050565b600854600c81905550600954600d81905550600a54600e81905550600f54600f81905550600060088190555060006009819055506000600a819055506000600b81905550565b600080600080600061203286612442565b94509450945094509450612046888461250f565b61205088866126f9565b61205a8885612803565b81600160003073ffffffffffffffffffffffffffffffffffffffff1673ffffffffffffffffffffffffffffffffffffffff16815260200190815260200160002060008282546120a991906132f7565b9250508190555085600160008a73ffffffffffffffffffffffffffffffffffffffff1673ffffffffffffffffffffffffffffffffffffffff16815260200190815260200160002060008282546120ff9190613549565b9250508190555080600160008973ffffffffffffffffffffffffffffffffffffffff1673ffffffffffffffffffffffffffffffffffffffff168152602001908152602001600020600082825461215591906132f7565b92505081905550600260008873ffffffffffffffffffffffffffffffffffffffff1673ffffffffffffffffffffffffffffffffffffffff16815260200190815260200160002060009054906101000a900460ff16612211576003879080600181540180825580915050600190039060005260206000200160009091909190916101000a81548173ffffffffffffffffffffffffffffffffffffffff021916908373ffffffffffffffffffffffffffffffffffffffff1602179055505b8673ffffffffffffffffffffffffffffffffffffffff168873ffffffffffffffffffffffffffffffffffffffff167fddf252ad1be2c89b69c2b068fc378daa952ba7f163c4a11628f55a4df523b3ef8360405161226e91906131db565b60405180910390a35050505050505050565b600c54600881905550600d54600981905550600e54600a81905550600f54600b81905550565b60006122b061291b565b90506122dd307f0000000000000000000000000000000000000000000000000000000000000000846118b4565b7f000000000000000000000000000000000000000000000000000000000000000073ffffffffffffffffffffffffffffffffffffffff1663791ac9478360008430426040518663ffffffff1660e01b815260040161233f9594939291906131f6565b600060405180830381600087803b15801561235957600080fd5b505af115801561236d573d6000803e3d6000fd5b505050505050565b6123a0307f0000000000000000000000000000000000000000000000000000000000000000846118b4565b7f000000000000000000000000000000000000000000000000000000000000000073ffffffffffffffffffffffffffffffffffffffff1663f305d7198230856000806123ea611139565b426040518863ffffffff1660e01b815260040161240c96959493929190612f82565b6000604051808303818588803b15801561242557600080fd5b505af1158015612439573d6000803e3d6000fd5b50505050505050565b60008060008060008060095460648861245b919061334d565b61246591906134ef565b90506000600b54606489612479919061334d565b61248391906134ef565b9050600060085460648a612497919061334d565b6124a191906134ef565b90506000600a5460648b6124b5919061334d565b6124bf91906134ef565b90506000818385878e6124d29190613549565b6124dc9190613549565b6124e69190613549565b6124f09190613549565b9050848484848499509950995099509950505050505091939590929450565b806011600082825461252191906132f7565b9250508190555060006012600a61253891906133d1565b600554612545919061334d565b905060005b6003805490508110156126f35760006003828154811061256d5761256c613772565b5b9060005260206000200160009054906101000a900473ffffffffffffffffffffffffffffffffffffffff16905060006012600a6125aa91906133d1565b600160008473ffffffffffffffffffffffffffffffffffffffff1673ffffffffffffffffffffffffffffffffffffffff168152602001908152602001600020546125f4919061334d565b905060008114156126065750506126e0565b60008185612614919061334d565b8661261f919061334d565b905080600160008573ffffffffffffffffffffffffffffffffffffffff1673ffffffffffffffffffffffffffffffffffffffff168152602001908152602001600020600082825461267091906132f7565b925050819055508273ffffffffffffffffffffffffffffffffffffffff168773ffffffffffffffffffffffffffffffffffffffff167fddf252ad1be2c89b69c2b068fc378daa952ba7f163c4a11628f55a4df523b3ef836040516126d491906131db565b60405180910390a35050505b80806126eb9061366d565b91505061254a565b50505050565b6000816005546127099190613549565b90506012600a61271991906133d1565b66016bcc41e9000061272b91906134ef565b811015612755576012600a61274091906133d1565b66016bcc41e9000061275291906134ef565b90505b6000816005546127659190613549565b9050600081116127765750506127ff565b81600581905550806010600082825461278f91906132f7565b92505081905550600073ffffffffffffffffffffffffffffffffffffffff168473ffffffffffffffffffffffffffffffffffffffff167fddf252ad1be2c89b69c2b068fc378daa952ba7f163c4a11628f55a4df523b3ef836040516127f491906131db565b60405180910390a350505b5050565b80600160007f000000000000000000000000000000000000000000000000000000000000000073ffffffffffffffffffffffffffffffffffffffff1673ffffffffffffffffffffffffffffffffffffffff168152602001908152602001600020600082825461287291906132f7565b92505081905550806012600082825461288b91906132f7565b925050819055507f000000000000000000000000000000000000000000000000000000000000000073ffffffffffffffffffffffffffffffffffffffff168273ffffffffffffffffffffffffffffffffffffffff167fddf252ad1be2c89b69c2b068fc378daa952ba7f163c4a11628f55a4df523b3ef8360405161290f91906131db565b60405180910390a35050565b60606000600267ffffffffffffffff81111561293a576129396137a1565b5b6040519080825280602002602001820160405280156129685781602001602082028036833780820191505090505b50905030816000815181106129805761297f613772565b5b602002602001019073ffffffffffffffffffffffffffffffffffffffff16908173ffffffffffffffffffffffffffffffffffffffff16815250507f000000000000000000000000000000000000000000000000000000000000000073ffffffffffffffffffffffffffffffffffffffff1663ad5c46486040518163ffffffff1660e01b815260040160206040518083038186803b158015612a2057600080fd5b505afa158015612a34573d6000803e3d6000fd5b505050506040513d601f19601f82011682018060405250810190612a589190612b2e565b81600181518110612a6c57612a6b613772565b5b602002602001019073ffffffffffffffffffffffffffffffffffffffff16908173ffffffffffffffffffffffffffffffffffffffff16815250508091505090565b600081359050612abc81613b84565b92915050565b600081519050612ad181613b84565b92915050565b600081359050612ae681613b9b565b92915050565b600081359050612afb81613bb2565b92915050565b600060208284031215612b1757612b166137d0565b5b6000612b2584828501612aad565b91505092915050565b600060208284031215612b4457612b436137d0565b5b6000612b5284828501612ac2565b91505092915050565b60008060408385031215612b7257612b716137d0565b5b6000612b8085828601612aad565b9250506020612b9185828601612aad565b9150509250929050565b600080600060608486031215612bb457612bb36137d0565b5b6000612bc286828701612aad565b9350506020612bd386828701612aad565b9250506040612be486828701612aec565b9150509250925092565b60008060408385031215612c0557612c046137d0565b5b6000612c1385828601612aad565b9250506020612c2485828601612aec565b9150509250929050565b600060208284031215612c4457612c436137d0565b5b6000612c5284828501612ad7565b91505092915050565b600060208284031215612c7157612c706137d0565b5b6000612c7f84828501612aec565b91505092915050565b6000612c948383612ca0565b60208301905092915050565b612ca98161357d565b82525050565b612cb88161357d565b82525050565b6000612cc9826132b2565b612cd381856132d5565b9350612cde836132a2565b8060005b83811015612d0f578151612cf68882612c88565b9750612d01836132c8565b925050600181019050612ce2565b5085935050505092915050565b612d258161358f565b82525050565b612d34816135d2565b82525050565b612d43816135f6565b82525050565b6000612d54826132bd565b612d5e81856132e6565b9350612d6e818560208601613608565b612d77816137d5565b840191505092915050565b6000612d8f6023836132e6565b9150612d9a826137f3565b604082019050919050565b6000612db26026836132e6565b9150612dbd82613842565b604082019050919050565b6000612dd56022836132e6565b9150612de082613891565b604082019050919050565b6000612df86026836132e6565b9150612e03826138e0565b604082019050919050565b6000612e1b6017836132e6565b9150612e268261392f565b602082019050919050565b6000612e3e6026836132e6565b9150612e4982613958565b604082019050919050565b6000612e616028836132e6565b9150612e6c826139a7565b604082019050919050565b6000612e846020836132e6565b9150612e8f826139f6565b602082019050919050565b6000612ea76027836132e6565b9150612eb282613a1f565b604082019050919050565b6000612eca6017836132e6565b9150612ed582613a6e565b602082019050919050565b6000612eed6025836132e6565b9150612ef882613a97565b604082019050919050565b6000612f106024836132e6565b9150612f1b82613ae6565b604082019050919050565b6000612f336025836132e6565b9150612f3e82613b35565b604082019050919050565b612f52816135bb565b82525050565b612f61816135c5565b82525050565b6000602082019050612f7c6000830184612caf565b92915050565b600060c082019050612f976000830189612caf565b612fa46020830188612f49565b612fb16040830187612d3a565b612fbe6060830186612d3a565b612fcb6080830185612caf565b612fd860a0830184612f49565b979650505050505050565b6000602082019050612ff86000830184612d1c565b92915050565b60006020820190506130136000830184612d2b565b92915050565b600060208201905081810360008301526130338184612d49565b905092915050565b6000602082019050818103600083015261305481612d82565b9050919050565b6000602082019050818103600083015261307481612da5565b9050919050565b6000602082019050818103600083015261309481612dc8565b9050919050565b600060208201905081810360008301526130b481612deb565b9050919050565b600060208201905081810360008301526130d481612e0e565b9050919050565b600060208201905081810360008301526130f481612e31565b9050919050565b6000602082019050818103600083015261311481612e54565b9050919050565b6000602082019050818103600083015261313481612e77565b9050919050565b6000602082019050818103600083015261315481612e9a565b9050919050565b6000602082019050818103600083015261317481612ebd565b9050919050565b6000602082019050818103600083015261319481612ee0565b9050919050565b600060208201905081810360008301526131b481612f03565b9050919050565b600060208201905081810360008301526131d481612f26565b9050919050565b60006020820190506131f06000830184612f49565b92915050565b600060a08201905061320b6000830188612f49565b6132186020830187612d3a565b818103604083015261322a8186612cbe565b90506132396060830185612caf565b6132466080830184612f49565b9695505050505050565b60006060820190506132656000830186612f49565b6132726020830185612f49565b61327f6040830184612f49565b949350505050565b600060208201905061329c6000830184612f58565b92915050565b6000819050602082019050919050565b600081519050919050565b600081519050919050565b6000602082019050919050565b600082825260208201905092915050565b600082825260208201905092915050565b6000613302826135bb565b915061330d836135bb565b9250827fffffffffffffffffffffffffffffffffffffffffffffffffffffffffffffffff03821115613342576133416136b6565b5b828201905092915050565b6000613358826135bb565b9150613363836135bb565b925082613373576133726136e5565b5b828204905092915050565b6000808291508390505b60018511156133c8578086048111156133a4576133a36136b6565b5b60018516156133b35780820291505b80810290506133c1856137e6565b9450613388565b94509492505050565b60006133dc826135bb565b91506133e7836135c5565b92506134147fffffffffffffffffffffffffffffffffffffffffffffffffffffffffffffffff848461341c565b905092915050565b60008261342c57600190506134e8565b8161343a57600090506134e8565b8160018114613450576002811461345a57613489565b60019150506134e8565b60ff84111561346c5761346b6136b6565b5b8360020a915084821115613483576134826136b6565b5b506134e8565b5060208310610133831016604e8410600b84101617156134be5782820a9050838111156134b9576134b86136b6565b5b6134e8565b6134cb848484600161337e565b925090508184048111156134e2576134e16136b6565b5b81810290505b9392505050565b60006134fa826135bb565b9150613505836135bb565b9250817fffffffffffffffffffffffffffffffffffffffffffffffffffffffffffffffff048311821515161561353e5761353d6136b6565b5b828202905092915050565b6000613554826135bb565b915061355f836135bb565b925082821015613572576135716136b6565b5b828203905092915050565b60006135888261359b565b9050919050565b60008115159050919050565b600073ffffffffffffffffffffffffffffffffffffffff82169050919050565b6000819050919050565b600060ff82169050919050565b60006135dd826135e4565b9050919050565b60006135ef8261359b565b9050919050565b6000613601826135bb565b9050919050565b60005b8381101561362657808201518184015260208101905061360b565b83811115613635576000848401525b50505050565b6000600282049050600182168061365357607f821691505b6020821081141561366757613666613714565b5b50919050565b6000613678826135bb565b91507fffffffffffffffffffffffffffffffffffffffffffffffffffffffffffffffff8214156136ab576136aa6136b6565b5b600182019050919050565b7f4e487b7100000000000000000000000000000000000000000000000000000000600052601160045260246000fd5b7f4e487b7100000000000000000000000000000000000000000000000000000000600052601260045260246000fd5b7f4e487b7100000000000000000000000000000000000000000000000000000000600052602260045260246000fd5b7f4e487b7100000000000000000000000000000000000000000000000000000000600052603160045260246000fd5b7f4e487b7100000000000000000000000000000000000000000000000000000000600052603260045260246000fd5b7f4e487b7100000000000000000000000000000000000000000000000000000000600052604160045260246000fd5b600080fd5b6000601f19601f8301169050919050565b60008160011c9050919050565b7f45524332303a207472616e7366657220746f20746865207a65726f206164647260008201527f6573730000000000000000000000000000000000000000000000000000000000602082015250565b7f4f776e61626c653a206e6577206f776e657220697320746865207a65726f206160008201527f6464726573730000000000000000000000000000000000000000000000000000602082015250565b7f45524332303a20617070726f766520746f20746865207a65726f20616464726560008201527f7373000000000000000000000000000000000000000000000000000000000000602082015250565b7f45524332303a207472616e7366657220616d6f756e742065786365656473206260008201527f616c616e63650000000000000000000000000000000000000000000000000000602082015250565b7f50616e64613a20616c7265616479206578636c75646564000000000000000000600082015250565b7f45524332303a207472616e7366657220616d6f756e742065786365656473206d60008201527f6178696d756d0000000000000000000000000000000000000000000000000000602082015250565b7f45524332303a207472616e7366657220616d6f756e742065786365656473206160008201527f6c6c6f77616e6365000000000000000000000000000000000000000000000000602082015250565b7f4f776e61626c653a2063616c6c6572206973206e6f7420746865206f776e6572600082015250565b7f45524332303a20616d6f756e74206d757374206265206772656174657220746860008201527f616e207a65726f00000000000000000000000000000000000000000000000000602082015250565b7f50616e64613a20616c726561647920696e636c75646564000000000000000000600082015250565b7f45524332303a207472616e736665722066726f6d20746865207a65726f20616460008201527f6472657373000000000000000000000000000000000000000000000000000000602082015250565b7f45524332303a20617070726f76652066726f6d20746865207a65726f2061646460008201527f7265737300000000000000000000000000000000000000000000000000000000602082015250565b7f45524332303a2064656372656173656420616c6c6f77616e63652062656c6f7760008201527f207a65726f000000000000000000000000000000000000000000000000000000602082015250565b613b8d8161357d565b8114613b9857600080fd5b50565b613ba48161358f565b8114613baf57600080fd5b50565b613bbb816135bb565b8114613bc657600080fd5b5056fea2646970667358221220f1b97b070c1e53d17102bc9c8f33d3ce160c5ef449b895a75f6c5d22d5ecf06364736f6c63430008060033",
  "immutableReferences": {
    "794": [
      {
        "length": 32,
        "start": 4890
      },
      {
        "length": 32,
        "start": 10250
      },
      {
        "length": 32,
        "start": 10388
      }
    ],
    "799": [
      {
        "length": 32,
        "start": 4375
      }
    ],
    "802": [
      {
        "length": 32,
        "start": 2601
      },
      {
        "length": 32,
        "start": 8888
      },
      {
        "length": 32,
        "start": 8927
      },
      {
        "length": 32,
        "start": 9083
      },
      {
        "length": 32,
        "start": 9122
      },
      {
        "length": 32,
        "start": 10684
      }
    ],
    "804": [
      {
        "length": 32,
        "start": 3880
      },
      {
        "length": 32,
        "start": 7586
      }
    ],
    "806": [
      {
        "length": 32,
        "start": 5833
      }
    ]
  },
  "source": "// SPDX-License-Identifier: MIT\r\n\r\npragma solidity >=0.8.6 <0.9.0;\r\n\r\nimport \"./IERC20.sol\";\r\nimport \"./Ownable.sol\";\r\n\r\ninterface IUniswapV2Router02 {\r\n    function WETH() external view returns (address);\r\n\r\n    function factory() external view returns (address);\r\n\r\n    function swapExactTokensForETHSupportingFeeOnTransferTokens(\r\n        uint256 amountIn,\r\n        uint256 amountOutMin,\r\n        address[] calldata path,\r\n        address to,\r\n        uint256 deadline\r\n    ) external payable;\r\n\r\n    function addLiquidityETH(\r\n        address token,\r\n        uint256 amountTokenDesired,\r\n        uint256 amountTokenMin,\r\n        uint256 amountETHMin,\r\n        address to,\r\n        uint256 deadline\r\n    ) external payable;\r\n\r\n    function getAmountsOut(uint256 amountIn, address[] memory path)\r\n        external\r\n        view\r\n        returns (uint256[] memory amounts);\r\n\r\n    function getAmountsIn(uint256 amountOut, address[] memory path)\r\n        external\r\n        view\r\n        returns (uint256[] memory amounts);\r\n}\r\n\r\ninterface IUniswapV2Factory {\r\n    function createPair(address token1, address token2)\r\n        external\r\n        returns (address);\r\n}\r\n\r\n/*\r\n@@@@@@@@@@@@@@@@@@@@@@@@@@@@@@@@@@@@@@@@@@@@@@@@@@@@@@@@@@@@@@@@@@@@@@@@@@@@@@@@@@@@@@@@@@@@@@@@@@@@@@@@@@@@@@@@@@@@@@@@\r\n@@@@@@@@@@@@@@@@@@@@@@@@@@@@@@@@@@@@@@@@@@@@@@@@@@@@%,.............,&@@@@@@@@@@@@@@@@@@@@@@@@@@@@@@@@@@@@@@@@@@@@@@@@@@@\r\n@@@@@@@@@@@@@@@@@@@@@@@@@@@@@@@@@@@@@@@@@@@@@@@(...(@@@@@@@@@@@@@@@@@*...%@@@@@@@@@@@@@@@@@@@@@@@@@@@@@@@@@@@@@@@@@@@@@@\r\n@@@@@@@@@@@@@@@@@@@@@@@@@@@@@@@@@@@@@@@@@@@@...&@@@@@@@@@@@@@@@@@@@@@@@@@%..*@@@@@@@@@@@@@@@@@@@@@@@@@@@@@@@@@@@@@@@@@@@\r\n@@@@@@@@@@@@@@@@@@@@@@@@@@@@@@@@@@@@@@@@@&..@@#....&@@@@@@&##%@@@@@@@&....&@#..@@@@@@@@@@@@@@@@@@@@@@@@@@@@@@@@@@@@@@@@@\r\n@@@@@@@@@@@@@@@@@@@@@@@@@@@@@@@@@@@@@@@@..@@............#@@@@@@@(,........../@&..@@@@@@@@@@@@@@@@@@@@@@@@@@@@@@@@@@@@@@@\r\n@@@@@@@@@@@@@@@@@@@@@@@@@@@@@@@@@@@@@@/./@@........%@@@@@@@@@@@@@@@@@@.......#@@,.%@@@@@@@@@@@@@@@@@@@@@@@@@@@@@@@@@@@@@\r\n@@@@@@@@@@@@@@@@@@@@@@@@@@@@@@@@@@@@@*.%@@@.....(@@@@@@@@@@@@@@@@@@@@@@@@.....@@@/.#@@@@@@@@@@@@@@@@@@@@@@@@@@@@@@@@@@@@\r\n@@@@@@@@@@@@@@@@@@@@@@@@@@@@@@@@@@@@&.*@@@@*../@@@@@@@@@@@@@@@@@@@@@@@@@@@%..&@@@@,.@@@@@@@@@@@@@@@@@@@@@@@@@@@@@@@@@@@@\r\n@@@@@@@@@@@@@@@@@@@@@@@@@@@@@@@@@@@@..@@@@@..@@@@@.......*@@@@@.......*@@@@@..@@@@@..@@@@@@@@@@@@@@@@@@@@@@@@@@@@@@@@@@@\r\n@@@@@@@@@@@@@@@@@@@@@@@@@@@@@@@@@@@@..@@@@/.%@@@#....@@*.@@@@@@@.%@@....@@@@%.(@@@@..@@@@@@@@@@@@@@@@@@@@@@@@@@@@@@@@@@@\r\n@@@@@@@@@@@@@@@@@@@@@@@@@@@@@@@@@@@@..@@@@..@@@@........@@@@@@@@#........@@@@..@@@@..@@@@@@@@@@@@@@@@@@@@@@@@@@@@@@@@@@@\r\n@@@@@@@@@@@@@@@@@@@@@@@@@@@@@@@@@@@@,.@@@@..@@@@@,..,..@@@@...@@@@.....(@@@@@..@@@&./@@@@@@@@@@@@@@@@@@@@@@@@@@@@@@@@@@@\r\n@@@@@@@@@@@@@@@@@@@@@@@@@@@@@@@@@@@@@.,@@@@..@@@@@@@@@@@@@@@@@@@@@@@@@@@@@@@..@@@@..@@@@@@@@@@@@@@@@@@@@@@@@@@@@@@@@@@@@\r\n@@@@@@@@@@@@@@@@@@@@@@@@@@@@@@@@@@@@@%.*@@.....,@@@@@@@@@@@@@@@@@@@@@@@@@#,...*@@,.&@@@@@@@@@@@@@@@@@@@@@@@@@@@@@@@@@@@@\r\n@@@@@@@@@@@@@@@@@@@@@@@@@@@@@@@@@@@@@@%...............*%&@@@@@@@@&#,..............@@@@@@@@@@@@@@@@@@@@@@@@@@@@@@@@@@@@@@\r\n@@@@@@@@@@@@@@@@@@@@@@@@@@@@@@@@@@@@@@@@..........(@@@@@@@@@&&@@@@@@@@*..........@@@@@@@@@@@@@@@@@@@@@@@@@@@@@@@@@@@@@@@\r\n@@@@@@@@@@@@@@@@@@@@@@@@@@@@@@@@@@@@@@@@@@............,*@#######%*.............@@@@@@@@@@@@@@@@@@@@@@@@@@@@@@@@@@@@@@@@@\r\n@@@@@@@@@@@@@@@@@@@@@@@@@@@@@@@@@@@@@@@@@@@@%............,(#%%#,............%@@@@@@@@@@@@@@@@@@@@@@@@@@@@@@@@@@@@@@@@@@@\r\n@@@@@@@@@@@@@@@@@@@@@@@@@@@@@@@@@@@@@@@@@@@@@@@@.,......../////........,,@@@@@@@@@@@@@@@@@@@@@@@@@@@@@@@@@@@@@@@@@@@@@@@\r\n@@@@@@@@@@@@@@@@@@@@@@@@@@@@@@@@@@@@@@@@@@@@@@@@@@@&......))(((......@@@@@@@@@@@@@@@@@@@@@@@@@@@@@@@@@@@@@@@@@@@@@@@@@@@\r\n@@@@@@@@@@@@@@@@@@@@@@@@@@@@@@@@@@@@@@@@@@@@@@@@@@@@@@&*%@@@@@@@%*&@@@@@@@@@@@@@@@@@@@@@@@@@@@@@@@@@@@@@@@@@@@@@@@@@@@@@\r\n@@@@@@@@@@@@@@@@@@@@@@@@@@@@@@@@@@@@@@@@@@@@@@@@@@@@@@@@@@@@@@@@@@@@@@@@@@@@@@@@@@@@@@@@@@@@@@@@@@@@@@@@@@@@@@@@@@@@@@@@\r\n@@@@@@@@@@@@@@@@@@@@@@@@@@@@@@@@@@@@@@@@@@@@@@@@@@@@@@@@@@@@@@@@@@@@@@@@@@@@@@@@@@@@@@@@@@@@@@@@@@@@@@@@@@@@@@@@@@@@@@@@\r\n@@@@@@@@@@@@@@@@@@@@@@@@@@@@@@@@@@@@@@@@@@@@@@@@@@@@@@@@@@@@@@@@@@@@@@@@@@@@@@@@@@@@@@@@@@@@@@@@@@@@@@@@@@@@@@@@@@@@@@@@\r\n@@@@@@@@@@@@@@@@@@@@@@@@@@@@@@@@@@@@@@@@@@@@@@@@@@@@@@@@@@@@@@@@@@@@@&@@@@@@@@@@@@@@@@@@@@@@@@@@@@@@@@@@@@@@@@@@@@@@@@@@\r\n@@@@@@@@@@@@@@@@@@@@@@@@@@@..@@@@@%..@@*./@@@@@..@@&...@@@@%..@@@..,@@@*,@@@@..@@%..@@&..@@#..@@@@@@@@@@@@@@@@@@@@@@@@@@\r\n@@@@@@@@@@@@@@@@@@@@@@@@@@@..........@@*./@@@@@..@@&..(.,@@%..@&..@@@,....#@@.......@@@@,...#@@@@@@@@@@@@@@@@@@@@@@@@@@@\r\n@@@@@@@@@@@@@@@@@@@@@@@@@@@..@@@@@%..@@*./@@@@@..@@&..@@%..(..@@..@@@@@@,.#@@..@*..@@@@@@..%@@@@@@@@@@@@@@@@@@@@@@@@@@@@\r\n@@@@@@@@@@@@@@@@@@@@@@@@@@@..@@@@@%..@@@...*(...@@@&..@@@@&...@@@...,(*..,@@@..@@@/..@@@@..%@@@@@@@@@@@@@@@@@@@@@@@@@@@@\r\n@@@@@@@@@@@@@@@@@@@@@@@@@@@@@@@@@@@@@@@@@@@@@@@@@@@@@@@@@@@@@@@@@@@@@@@@@@@@@@@@@@@@@@@@@@@@@@@@@@@@@@@@@@@@@@@@@@@@@@@@\r\n@@@@@@@@@@@@@@@@@@@@@@@@@@@@@@@@@@@@@@@@@@@@@@@@@@@@@@@@@@@@@@@@@@@@@@@@@@@@@@@@@@@@@@@@@@@@@@@@@@@@@@@@@@@@@@@@@@@@@@@@\r\n@@@@@@@@@@@@@@@@@@@@@@@@@@@@@@@@@@..**,...@@@(../@@@@@...@@@@@..@@@..*,....@@@@@@...@@@@@@@@@@@@@@@@@@@@@@@@@@@@@@@@@@@@\r\n@@@@@@@@@@@@@@@@@@@@@@@@@@@@@@@@@@..@@@@.,@@/.,,.*@@@@..(.,@@@..@@@..@@@@@..&@@@,.%..@@@@@@@@@@@@@@@@@@@@@@@@@@@@@@@@@@@\r\n@@@@@@@@@@@@@@@@@@@@@@@@@@@@@@@@@@..(((%@@@,.*&&,.,@@@..@@%..&..@@@..@@@@@..#@%..&&%..@@@@@@@@@@@@@@@@@@@@@@@@@@@@@@@@@@\r\n@@@@@@@@@@@@@@@@@@@@@@@@@@@@@@@@@@..@@@@@@,./@@@@(.,@@..@@@@@...@@@..@@%,..&@#..@@@@@..@@@@@@@@@@@@@@@@@@@@@@@@@@@@@@@@@\r\n@@@@@@@@@@@@@@@@@@@@@@@@@@@@@@@@@@@@@@@@@@@@@@@@@@@@@@@@@@@@@@@@@@@@@@@@@@@@@@@@@@@@@@@@@@@@@@@@@@@@@@@@@@@@@@@@@@@@@@@@\r\n */\r\n\r\n/**\r\n1. Holders who are included into rewards also charged by constant fee. That fee is proportionally shared between holders\r\n2. Rewards sent to holders immediatelly\r\n3. Tokens are burn on each transaction until 60% are burn.\r\n4. Liquidity pool on pancake must be locked using Unicrypt Locker\r\n */\r\n\r\ncontract HungryPanda is Ownable, IERC20 {\r\n    mapping(address => uint256) private _balances;\r\n    mapping(address => bool) private excludedFromFee;\r\n    address[] public holdersRewarded;\r\n\r\n    mapping(address => mapping(address => uint256)) private _allowances;\r\n\r\n    uint8 private constant _decimals = 18;\r\n    uint256 private constant DECIMALFACTOR = 10**_decimals;\r\n    uint256 private _totalSupply = 10**15 * DECIMALFACTOR;\r\n\r\n    string private _name = \"HungryPanda\";\r\n    string private _symbol = \"HNP\";\r\n\r\n    uint256 public constant maxTxAmount = 10**14 * DECIMALFACTOR; // 1%\r\n    uint256 public constant minimalSupply = 4 * 10**14 * DECIMALFACTOR; // 60% can be burnt\r\n    uint256 public constant numTokensSellToAddLiquidity =\r\n        10 * 10**11 * DECIMALFACTOR; // 0.1%\r\n\r\n    uint256 public taxFee = 4;\r\n    uint256 public burnFee = 1;\r\n    uint256 public liquidityFee = 4;\r\n    uint256 public supportFee = 1;\r\n    uint256 public taxFeeOrigin = taxFee;\r\n    uint256 public burnFeeOrigin = burnFee;\r\n    uint256 public liquidityFeeOrigin = liquidityFee;\r\n    uint256 public supportFeeOrigin = supportFee;\r\n\r\n    uint256 public totalBurned = 0;\r\n    uint256 public rewardTotal = 0;\r\n    uint256 public totalSupported = 0;\r\n    address public immutable supportWallet;\r\n\r\n    uint256 public constant feeGranularity = 100;\r\n    uint256 public immutable bornAtTime;\r\n\r\n    IUniswapV2Router02 public immutable uniswapV2Router;\r\n    address public immutable uniswapV2Pair;\r\n    address public immutable _WETH;\r\n\r\n    bool inSwapAndLiquify;\r\n    bool public swapAndLiquifyEnabled = true;\r\n\r\n    event MinTokensBeforeSwapUpdated(uint256 minTokensBeforeSwap);\r\n    event SwapAndLiquifyEnabledUpdated(bool enabled);\r\n    event SwapAndLiquify(\r\n        uint256 tokensSwapped,\r\n        uint256 ethReceived,\r\n        uint256 tokensIntoLiqudity\r\n    );\r\n\r\n    modifier lockTheSwap {\r\n        inSwapAndLiquify = true;\r\n        _;\r\n        inSwapAndLiquify = false;\r\n    }\r\n\r\n    constructor(address _router, address _wallet) Ownable() {\r\n        bornAtTime = block.timestamp;\r\n\r\n        IUniswapV2Router02 _uniswapV2Router = IUniswapV2Router02(_router);\r\n        // Create a uniswap pair for this new token\r\n        address _uniswapV2Pair = IUniswapV2Factory(_uniswapV2Router.factory())\r\n        .createPair(address(this), _uniswapV2Router.WETH());\r\n\r\n        // set the rest of the contract variables\r\n        uniswapV2Router = _uniswapV2Router;\r\n        _WETH = _uniswapV2Router.WETH();\r\n        uniswapV2Pair = _uniswapV2Pair;\r\n        // transfer ownership to contract\r\n        excludedFromFee[address(this)] = true;\r\n        excludedFromFee[_msgSender()] = true;\r\n        excludedFromFee[address(_uniswapV2Router)] = true;\r\n        excludedFromFee[_uniswapV2Pair] = true;\r\n        // must be added explicitly ...\r\n        holdersRewarded.push(_msgSender());\r\n\r\n        supportWallet = _wallet;\r\n\r\n        _balances[_msgSender()] = _totalSupply;\r\n        emit Transfer(address(0), _msgSender(), _totalSupply);\r\n    }\r\n\r\n    //to recieve ETH from uniswapV2Router when swaping\r\n    receive() external payable {}\r\n\r\n    function burn(address _sender, uint256 _toBeBurned) private {\r\n        uint256 newSupply = _totalSupply - _toBeBurned;\r\n        if (newSupply < minimalSupply) {\r\n            newSupply = minimalSupply;\r\n        }\r\n        uint256 reallyBurned = _totalSupply - newSupply;\r\n        if (reallyBurned <= 0) {\r\n            return;\r\n        }\r\n        _totalSupply = newSupply;\r\n        totalBurned += reallyBurned;\r\n        emit Transfer(_sender, address(0), reallyBurned);\r\n    }\r\n\r\n    function shareRewards(address _sender, uint256 _fee) private {\r\n        rewardTotal += _fee;\r\n        uint256 integer = _totalSupply / DECIMALFACTOR;\r\n        for (uint256 index = 0; index < holdersRewarded.length; index++) {\r\n            address holder = holdersRewarded[index];\r\n            uint256 balance = _balances[holder] / DECIMALFACTOR;\r\n            if (balance == 0) {\r\n                continue;\r\n            }\r\n            uint256 reward = _fee / (integer / balance);\r\n            _balances[holder] += reward;\r\n            emit Transfer(_sender, holder, reward);\r\n        }\r\n    }\r\n\r\n    function takeSupport(address _sender, uint256 _toBeTaken) private {\r\n        _balances[supportWallet] += _toBeTaken;\r\n        totalSupported += _toBeTaken;\r\n        emit Transfer(_sender, supportWallet, _toBeTaken);\r\n    }\r\n\r\n    function setSwapAndLiquifyEnabled(bool _enabled) public onlyOwner {\r\n        swapAndLiquifyEnabled = _enabled;\r\n        emit SwapAndLiquifyEnabledUpdated(_enabled);\r\n    }\r\n\r\n    function excludeFromFee(address _address) public onlyOwner {\r\n        require(!excludedFromFee[_address], \"Panda: already excluded\");\r\n        uint256 len = holdersRewarded.length;\r\n        for (uint256 index = 0; index < len; index++) {\r\n            if (_address == holdersRewarded[index]) {\r\n                holdersRewarded[index] = holdersRewarded[len - 1];\r\n                holdersRewarded.pop();\r\n            }\r\n        }\r\n        excludedFromFee[_address] = true;\r\n    }\r\n\r\n    function includeToFee(address _address) public onlyOwner {\r\n        require(excludedFromFee[_address], \"Panda: already included\");\r\n        excludedFromFee[_address] = false;\r\n        holdersRewarded.push(_address);\r\n    }\r\n\r\n    function name() public view returns (string memory) {\r\n        return _name;\r\n    }\r\n\r\n    function symbol() public view returns (string memory) {\r\n        return _symbol;\r\n    }\r\n\r\n    function decimals() public pure returns (uint8) {\r\n        return _decimals;\r\n    }\r\n\r\n    function totalSupply() public view override returns (uint256) {\r\n        return _totalSupply;\r\n    }\r\n\r\n    function balanceOf(address _account)\r\n        public\r\n        view\r\n        override\r\n        returns (uint256)\r\n    {\r\n        return _balances[_account];\r\n    }\r\n\r\n    function transfer(address _recipient, uint256 _amount)\r\n        public\r\n        override\r\n        returns (bool)\r\n    {\r\n        _transfer(_msgSender(), _recipient, _amount);\r\n        return true;\r\n    }\r\n\r\n    function allowance(address _owner, address _spender)\r\n        public\r\n        view\r\n        override\r\n        returns (uint256)\r\n    {\r\n        return _allowances[_owner][_spender];\r\n    }\r\n\r\n    function approve(address _spender, uint256 _amount)\r\n        public\r\n        override\r\n        returns (bool)\r\n    {\r\n        _approve(_msgSender(), _spender, _amount);\r\n        return true;\r\n    }\r\n\r\n    function transferFrom(\r\n        address _sender,\r\n        address _recipient,\r\n        uint256 _amount\r\n    ) public override returns (bool) {\r\n        _transfer(_sender, _recipient, _amount);\r\n\r\n        uint256 currentAllowance = _allowances[_sender][_msgSender()];\r\n        require(\r\n            currentAllowance >= _amount,\r\n            \"ERC20: transfer amount exceeds allowance\"\r\n        );\r\n        _approve(_sender, _msgSender(), currentAllowance - _amount);\r\n\r\n        return true;\r\n    }\r\n\r\n    function increaseAllowance(address spender, uint256 addedValue)\r\n        public\r\n        returns (bool)\r\n    {\r\n        _approve(\r\n            _msgSender(),\r\n            spender,\r\n            _allowances[_msgSender()][spender] + addedValue\r\n        );\r\n        return true;\r\n    }\r\n\r\n    function decreaseAllowance(address _spender, uint256 subtractedValue)\r\n        public\r\n        returns (bool)\r\n    {\r\n        uint256 currentAllowance = _allowances[_msgSender()][_spender];\r\n        require(\r\n            currentAllowance >= subtractedValue,\r\n            \"ERC20: decreased allowance below zero\"\r\n        );\r\n        _approve(_msgSender(), _spender, currentAllowance - subtractedValue);\r\n\r\n        return true;\r\n    }\r\n\r\n    function swapAndLiquify(uint256 contractTokenBalance) private lockTheSwap {\r\n        // split the contract balance into halves\r\n        uint256 half = contractTokenBalance / 2;\r\n        uint256 otherHalf = contractTokenBalance - half;\r\n\r\n        // capture the contract's current ETH balance.\r\n        // this is so that we can capture exactly the amount of ETH that the\r\n        // swap creates, and not make the liquidity event include any ETH that\r\n        // has been manually sent to the contract\r\n        uint256 initialBalance = address(this).balance;\r\n\r\n        // swap tokens for ETH\r\n        swapTokensForEth(half); // <- this breaks the ETH -> HATE swap when swap+liquify is triggered\r\n\r\n        // how much ETH did we just swap into?\r\n        uint256 newBalance = address(this).balance - initialBalance;\r\n\r\n        // add liquidity to uniswap\r\n        addLiquidity(otherHalf, newBalance);\r\n\r\n        emit SwapAndLiquify(half, newBalance, otherHalf);\r\n    }\r\n\r\n    function makePairPath() private view returns (address[] memory) {\r\n        address[] memory path = new address[](2);\r\n        path[0] = address(this);\r\n        path[1] = uniswapV2Router.WETH();\r\n        return path;\r\n    }\r\n\r\n    function swapTokensForEth(uint256 tokenAmount) private {\r\n        address[] memory path = makePairPath();\r\n\r\n        _approve(address(this), address(uniswapV2Router), tokenAmount);\r\n        uniswapV2Router.swapExactTokensForETHSupportingFeeOnTransferTokens(\r\n            tokenAmount,\r\n            0, // accept any amount of ETH\r\n            path,\r\n            address(this),\r\n            block.timestamp\r\n        );\r\n    }\r\n\r\n    function addLiquidity(uint256 tokenAmount, uint256 ethAmount) private {\r\n        // approve token transfer to cover all possible scenarios\r\n        _approve(address(this), address(uniswapV2Router), tokenAmount);\r\n\r\n        // add the liquidity\r\n        uniswapV2Router.addLiquidityETH{value: ethAmount}(\r\n            address(this),\r\n            tokenAmount,\r\n            0, // slippage is unavoidable\r\n            0, // slippage is unavoidable\r\n            owner(),\r\n            block.timestamp\r\n        );\r\n    }\r\n\r\n    // if _sender is a pair (excludedFromFee), then _recipient sells tokens, extra charge _recipient but not a sender\r\n    function _transfer(\r\n        address _sender,\r\n        address _recipient,\r\n        uint256 _amount\r\n    ) internal virtual {\r\n        require(_sender != address(0), \"ERC20: transfer from the zero address\");\r\n        require(\r\n            _recipient != address(0),\r\n            \"ERC20: transfer to the zero address\"\r\n        );\r\n        require(_amount > 0, \"ERC20: amount must be greater than zero\");\r\n        uint256 senderBalance = _balances[_sender];\r\n        require(\r\n            senderBalance >= _amount,\r\n            \"ERC20: transfer amount exceeds balance\"\r\n        );\r\n        if (_sender != owner() && _recipient != owner()) {\r\n            require(\r\n                _amount <= maxTxAmount,\r\n                \"ERC20: transfer amount exceeds maximum\"\r\n            );\r\n        }\r\n\r\n        uint256 contractTokenBalance = balanceOf(address(this));\r\n        if (contractTokenBalance >= maxTxAmount) {\r\n            // should we ?\r\n            contractTokenBalance = maxTxAmount;\r\n        }\r\n        bool overMinTokenBalance = contractTokenBalance >=\r\n            numTokensSellToAddLiquidity;\r\n        if (\r\n            overMinTokenBalance &&\r\n            !inSwapAndLiquify &&\r\n            _sender != uniswapV2Pair &&\r\n            swapAndLiquifyEnabled\r\n        ) {\r\n            contractTokenBalance = numTokensSellToAddLiquidity;\r\n            swapAndLiquify(contractTokenBalance);\r\n        }\r\n        bool takeFee = true;\r\n        if (excludedFromFee[_sender] && excludedFromFee[_recipient]) {\r\n            takeFee = false;\r\n        }\r\n        if (!takeFee) disableFee();\r\n        _transferWithFee(_sender, _recipient, _amount);\r\n        if (!takeFee) enableFee();\r\n    }\r\n\r\n    function getValues(uint256 _amount)\r\n        private\r\n        view\r\n        returns (\r\n            uint256,\r\n            uint256,\r\n            uint256,\r\n            uint256,\r\n            uint256\r\n        )\r\n    {\r\n        uint256 amountToBurn = (_amount / feeGranularity) * burnFee;\r\n        uint256 amountToSupport = (_amount / feeGranularity) * supportFee;\r\n        uint256 amountToCharge = (_amount / feeGranularity) * taxFee;\r\n        uint256 amountToAddLiquidity = (_amount / feeGranularity) *\r\n            liquidityFee;\r\n        uint256 amountToReceive = _amount -\r\n            amountToBurn -\r\n            amountToSupport -\r\n            amountToCharge -\r\n            amountToAddLiquidity;\r\n        return (\r\n            amountToBurn,\r\n            amountToSupport,\r\n            amountToCharge,\r\n            amountToAddLiquidity,\r\n            amountToReceive\r\n        );\r\n    }\r\n\r\n    // _transferWithFee charges sender and recepient. Any tokens movement are charged to motivate holders hold tokens\r\n    function _transferWithFee(\r\n        address _sender,\r\n        address _recipient,\r\n        uint256 _amount\r\n    ) private {\r\n        (\r\n            uint256 amountToBurn,\r\n            uint256 amountToSupport,\r\n            uint256 amountToCharge,\r\n            uint256 amountToAddLiquidity,\r\n            uint256 amountToReceive\r\n        ) = getValues(_amount);\r\n        // collect fees\r\n        shareRewards(_sender, amountToCharge);\r\n        burn(_sender, amountToBurn);\r\n        takeSupport(_sender, amountToSupport);\r\n\r\n        _balances[address(this)] += amountToAddLiquidity;\r\n        _balances[_sender] -= _amount;\r\n        _balances[_recipient] += amountToReceive;\r\n        if (!excludedFromFee[_recipient]) {\r\n            holdersRewarded.push(_recipient);\r\n        }\r\n        emit Transfer(_sender, _recipient, amountToReceive);\r\n    }\r\n\r\n    function _approve(\r\n        address _owner,\r\n        address _spender,\r\n        uint256 _amount\r\n    ) internal virtual {\r\n        require(_owner != address(0), \"ERC20: approve from the zero address\");\r\n        require(_spender != address(0), \"ERC20: approve to the zero address\");\r\n\r\n        _allowances[_owner][_spender] = _amount;\r\n        emit Approval(_owner, _spender, _amount);\r\n    }\r\n\r\n    function disableFee() private {\r\n        taxFeeOrigin = taxFee;\r\n        burnFeeOrigin = burnFee;\r\n        liquidityFeeOrigin = liquidityFee;\r\n        supportFeeOrigin = supportFeeOrigin;\r\n        taxFee = 0;\r\n        burnFee = 0;\r\n        liquidityFee = 0;\r\n        supportFee = 0;\r\n    }\r\n\r\n    function enableFee() private {\r\n        taxFee = taxFeeOrigin;\r\n        burnFee = burnFeeOrigin;\r\n        liquidityFee = liquidityFeeOrigin;\r\n        supportFee = supportFeeOrigin;\r\n    }\r\n\r\n    function totalHolders() public view returns (uint256) {\r\n        return holdersRewarded.length;\r\n    }\r\n}\r\n",
  "sourcePath": "C:/Users/skyne/Dev/work/crypto/hungrypanda/contracts/HungryPanda.sol",
  "compiler": {
    "name": "solc",
    "version": "0.8.6+commit.11564f7e.Emscripten.clang"
  },
  "schemaVersion": "3.4.1",
  "updatedAt": "2021-07-02T11:52:28.986Z",
  "networkType": "ethereum",
  "devdoc": {
    "kind": "dev",
    "methods": {
      "owner()": {
        "details": "Returns the address of the current owner."
      },
      "renounceOwnership()": {
        "details": "Leaves the contract without owner. It will not be possible to call `onlyOwner` functions anymore. Can only be called by the current owner. NOTE: Renouncing ownership will leave the contract without an owner, thereby removing any functionality that is only available to the owner."
      },
      "totalSupply()": {
        "details": "Returns the amount of tokens in existence."
      },
      "transferOwnership(address)": {
        "details": "Transfers ownership of the contract to a new account (`newOwner`). Can only be called by the current owner."
      }
    },
    "version": 1
  },
  "userdoc": {
    "kind": "user",
    "methods": {},
    "notice": "1. Holders who are included into rewards also charged by constant fee. That fee is proportionally shared between holders 2. Rewards sent to holders immediatelly 3. Tokens are burn on each transaction until 60% are burn. 4. Liquidity pool on pancake must be locked using Unicrypt Locker",
    "version": 1
  }
}