{
  "contractName": "HungryPanda",
  "abi": [
    {
      "inputs": [
        {
          "internalType": "address",
          "name": "_router",
          "type": "address"
        },
        {
          "internalType": "address",
          "name": "_wallet",
          "type": "address"
        }
      ],
      "stateMutability": "nonpayable",
      "type": "constructor"
    },
    {
      "anonymous": false,
      "inputs": [
        {
          "indexed": true,
          "internalType": "address",
          "name": "owner",
          "type": "address"
        },
        {
          "indexed": true,
          "internalType": "address",
          "name": "spender",
          "type": "address"
        },
        {
          "indexed": false,
          "internalType": "uint256",
          "name": "value",
          "type": "uint256"
        }
      ],
      "name": "Approval",
      "type": "event"
    },
    {
      "anonymous": false,
      "inputs": [
        {
          "indexed": false,
          "internalType": "uint256",
          "name": "minTokensBeforeSwap",
          "type": "uint256"
        }
      ],
      "name": "MinTokensBeforeSwapUpdated",
      "type": "event"
    },
    {
      "anonymous": false,
      "inputs": [
        {
          "indexed": true,
          "internalType": "address",
          "name": "previousOwner",
          "type": "address"
        },
        {
          "indexed": true,
          "internalType": "address",
          "name": "newOwner",
          "type": "address"
        }
      ],
      "name": "OwnershipTransferred",
      "type": "event"
    },
    {
      "anonymous": false,
      "inputs": [
        {
          "indexed": false,
          "internalType": "address",
          "name": "account",
          "type": "address"
        }
      ],
      "name": "Paused",
      "type": "event"
    },
    {
      "anonymous": false,
      "inputs": [
        {
          "indexed": false,
          "internalType": "uint256",
          "name": "tokensSwapped",
          "type": "uint256"
        },
        {
          "indexed": false,
          "internalType": "uint256",
          "name": "ethReceived",
          "type": "uint256"
        },
        {
          "indexed": false,
          "internalType": "uint256",
          "name": "tokensIntoLiqudity",
          "type": "uint256"
        }
      ],
      "name": "SwapAndLiquify",
      "type": "event"
    },
    {
      "anonymous": false,
      "inputs": [
        {
          "indexed": false,
          "internalType": "bool",
          "name": "enabled",
          "type": "bool"
        }
      ],
      "name": "SwapAndLiquifyEnabledUpdated",
      "type": "event"
    },
    {
      "anonymous": false,
      "inputs": [
        {
          "indexed": true,
          "internalType": "address",
          "name": "from",
          "type": "address"
        },
        {
          "indexed": true,
          "internalType": "address",
          "name": "to",
          "type": "address"
        },
        {
          "indexed": false,
          "internalType": "uint256",
          "name": "value",
          "type": "uint256"
        }
      ],
      "name": "Transfer",
      "type": "event"
    },
    {
      "anonymous": false,
      "inputs": [
        {
          "indexed": false,
          "internalType": "address",
          "name": "account",
          "type": "address"
        }
      ],
      "name": "Unpaused",
      "type": "event"
    },
    {
      "inputs": [],
      "name": "_WETH",
      "outputs": [
        {
          "internalType": "address",
          "name": "",
          "type": "address"
        }
      ],
      "stateMutability": "view",
      "type": "function"
    },
    {
      "inputs": [],
      "name": "bornAtTime",
      "outputs": [
        {
          "internalType": "uint256",
          "name": "",
          "type": "uint256"
        }
      ],
      "stateMutability": "view",
      "type": "function"
    },
    {
      "inputs": [],
      "name": "burnFee",
      "outputs": [
        {
          "internalType": "uint256",
          "name": "",
          "type": "uint256"
        }
      ],
      "stateMutability": "view",
      "type": "function"
    },
    {
      "inputs": [],
      "name": "burnFeeOrigin",
      "outputs": [
        {
          "internalType": "uint256",
          "name": "",
          "type": "uint256"
        }
      ],
      "stateMutability": "view",
      "type": "function"
    },
    {
      "inputs": [],
      "name": "feeGranularity",
      "outputs": [
        {
          "internalType": "uint256",
          "name": "",
          "type": "uint256"
        }
      ],
      "stateMutability": "view",
      "type": "function"
    },
    {
      "inputs": [],
      "name": "liquidityFee",
      "outputs": [
        {
          "internalType": "uint256",
          "name": "",
          "type": "uint256"
        }
      ],
      "stateMutability": "view",
      "type": "function"
    },
    {
      "inputs": [],
      "name": "liquidityFeeOrigin",
      "outputs": [
        {
          "internalType": "uint256",
          "name": "",
          "type": "uint256"
        }
      ],
      "stateMutability": "view",
      "type": "function"
    },
    {
      "inputs": [],
      "name": "maxTxAmount",
      "outputs": [
        {
          "internalType": "uint256",
          "name": "",
          "type": "uint256"
        }
      ],
      "stateMutability": "view",
      "type": "function"
    },
    {
      "inputs": [],
      "name": "minimalSupply",
      "outputs": [
        {
          "internalType": "uint256",
          "name": "",
          "type": "uint256"
        }
      ],
      "stateMutability": "view",
      "type": "function"
    },
    {
      "inputs": [],
      "name": "numTokensSellToAddLiquidity",
      "outputs": [
        {
          "internalType": "uint256",
          "name": "",
          "type": "uint256"
        }
      ],
      "stateMutability": "view",
      "type": "function"
    },
    {
      "inputs": [],
      "name": "owner",
      "outputs": [
        {
          "internalType": "address",
          "name": "",
          "type": "address"
        }
      ],
      "stateMutability": "view",
      "type": "function"
    },
    {
      "inputs": [],
      "name": "renounceOwnership",
      "outputs": [],
      "stateMutability": "nonpayable",
      "type": "function"
    },
    {
      "inputs": [],
      "name": "supportFee",
      "outputs": [
        {
          "internalType": "uint256",
          "name": "",
          "type": "uint256"
        }
      ],
      "stateMutability": "view",
      "type": "function"
    },
    {
      "inputs": [],
      "name": "supportFeeOrigin",
      "outputs": [
        {
          "internalType": "uint256",
          "name": "",
          "type": "uint256"
        }
      ],
      "stateMutability": "view",
      "type": "function"
    },
    {
      "inputs": [],
      "name": "supportWallet",
      "outputs": [
        {
          "internalType": "address",
          "name": "",
          "type": "address"
        }
      ],
      "stateMutability": "view",
      "type": "function"
    },
    {
      "inputs": [],
      "name": "swapAndLiquifyEnabled",
      "outputs": [
        {
          "internalType": "bool",
          "name": "",
          "type": "bool"
        }
      ],
      "stateMutability": "view",
      "type": "function"
    },
    {
      "inputs": [],
      "name": "totalBurned",
      "outputs": [
        {
          "internalType": "uint256",
          "name": "",
          "type": "uint256"
        }
      ],
      "stateMutability": "view",
      "type": "function"
    },
    {
      "inputs": [],
      "name": "totalSupported",
      "outputs": [
        {
          "internalType": "uint256",
          "name": "",
          "type": "uint256"
        }
      ],
      "stateMutability": "view",
      "type": "function"
    },
    {
      "inputs": [
        {
          "internalType": "address",
          "name": "newOwner",
          "type": "address"
        }
      ],
      "name": "transferOwnership",
      "outputs": [],
      "stateMutability": "nonpayable",
      "type": "function"
    },
    {
      "inputs": [],
      "name": "uniswapV2Pair",
      "outputs": [
        {
          "internalType": "address",
          "name": "",
          "type": "address"
        }
      ],
      "stateMutability": "view",
      "type": "function"
    },
    {
      "inputs": [],
      "name": "uniswapV2Router",
      "outputs": [
        {
          "internalType": "contract IUniswapV2Router02",
          "name": "",
          "type": "address"
        }
      ],
      "stateMutability": "view",
      "type": "function"
    },
    {
      "stateMutability": "payable",
      "type": "receive"
    },
    {
      "inputs": [
        {
          "internalType": "bool",
          "name": "_enabled",
          "type": "bool"
        }
      ],
      "name": "setSwapAndLiquifyEnabled",
      "outputs": [],
      "stateMutability": "nonpayable",
      "type": "function"
    },
    {
      "inputs": [
        {
          "internalType": "address",
          "name": "_address",
          "type": "address"
        }
      ],
      "name": "includeToFee",
      "outputs": [],
      "stateMutability": "nonpayable",
      "type": "function"
    },
    {
      "inputs": [
        {
          "internalType": "address",
          "name": "_address",
          "type": "address"
        }
      ],
      "name": "excludeFromFee",
      "outputs": [],
      "stateMutability": "nonpayable",
      "type": "function"
    },
    {
      "inputs": [],
      "name": "pause",
      "outputs": [],
      "stateMutability": "nonpayable",
      "type": "function"
    },
    {
      "inputs": [],
      "name": "unpause",
      "outputs": [],
      "stateMutability": "nonpayable",
      "type": "function"
    },
    {
      "inputs": [],
      "name": "name",
      "outputs": [
        {
          "internalType": "string",
          "name": "",
          "type": "string"
        }
      ],
      "stateMutability": "view",
      "type": "function"
    },
    {
      "inputs": [],
      "name": "symbol",
      "outputs": [
        {
          "internalType": "string",
          "name": "",
          "type": "string"
        }
      ],
      "stateMutability": "view",
      "type": "function"
    },
    {
      "inputs": [],
      "name": "decimals",
      "outputs": [
        {
          "internalType": "uint8",
          "name": "",
          "type": "uint8"
        }
      ],
      "stateMutability": "pure",
      "type": "function"
    },
    {
      "inputs": [],
      "name": "totalSupply",
      "outputs": [
        {
          "internalType": "uint256",
          "name": "",
          "type": "uint256"
        }
      ],
      "stateMutability": "view",
      "type": "function"
    },
    {
      "inputs": [
        {
          "internalType": "address",
          "name": "_account",
          "type": "address"
        }
      ],
      "name": "balanceOf",
      "outputs": [
        {
          "internalType": "uint256",
          "name": "",
          "type": "uint256"
        }
      ],
      "stateMutability": "view",
      "type": "function"
    },
    {
      "inputs": [
        {
          "internalType": "address",
          "name": "_recipient",
          "type": "address"
        },
        {
          "internalType": "uint256",
          "name": "_amount",
          "type": "uint256"
        }
      ],
      "name": "transfer",
      "outputs": [
        {
          "internalType": "bool",
          "name": "",
          "type": "bool"
        }
      ],
      "stateMutability": "nonpayable",
      "type": "function"
    },
    {
      "inputs": [
        {
          "internalType": "address",
          "name": "_owner",
          "type": "address"
        },
        {
          "internalType": "address",
          "name": "_spender",
          "type": "address"
        }
      ],
      "name": "allowance",
      "outputs": [
        {
          "internalType": "uint256",
          "name": "",
          "type": "uint256"
        }
      ],
      "stateMutability": "view",
      "type": "function"
    },
    {
      "inputs": [
        {
          "internalType": "address",
          "name": "_spender",
          "type": "address"
        },
        {
          "internalType": "uint256",
          "name": "_amount",
          "type": "uint256"
        }
      ],
      "name": "approve",
      "outputs": [
        {
          "internalType": "bool",
          "name": "",
          "type": "bool"
        }
      ],
      "stateMutability": "nonpayable",
      "type": "function"
    },
    {
      "inputs": [
        {
          "internalType": "address",
          "name": "_sender",
          "type": "address"
        },
        {
          "internalType": "address",
          "name": "_recipient",
          "type": "address"
        },
        {
          "internalType": "uint256",
          "name": "_amount",
          "type": "uint256"
        }
      ],
      "name": "transferFrom",
      "outputs": [
        {
          "internalType": "bool",
          "name": "",
          "type": "bool"
        }
      ],
      "stateMutability": "nonpayable",
      "type": "function"
    },
    {
      "inputs": [
        {
          "internalType": "address",
          "name": "spender",
          "type": "address"
        },
        {
          "internalType": "uint256",
          "name": "addedValue",
          "type": "uint256"
        }
      ],
      "name": "increaseAllowance",
      "outputs": [
        {
          "internalType": "bool",
          "name": "",
          "type": "bool"
        }
      ],
      "stateMutability": "nonpayable",
      "type": "function"
    },
    {
      "inputs": [
        {
          "internalType": "address",
          "name": "_spender",
          "type": "address"
        },
        {
          "internalType": "uint256",
          "name": "subtractedValue",
          "type": "uint256"
        }
      ],
      "name": "decreaseAllowance",
      "outputs": [
        {
          "internalType": "bool",
          "name": "",
          "type": "bool"
        }
      ],
      "stateMutability": "nonpayable",
      "type": "function"
    }
  ],
  "bytecode": "0x6101206040526012600a62000015919062000967565b67016345785d8a00006200002a919062000aa4565b6004556040518060400160405280600b81526020017f48756e67727950616e6461000000000000000000000000000000000000000000815250600590805190602001906200007a92919062000760565b506040518060400160405280600381526020017f484750000000000000000000000000000000000000000000000000000000000081525060069080519060200190620000c892919062000760565b506002600755600b6008556002600955600754600a55600854600b55600954600c556000600d556000600e556001600f60016101000a81548160ff0219169083151502179055506000600f60026101000a81548160ff0219169083151502179055503480156200013757600080fd5b50604051620044363803806200443683398181016040528101906200015d919062000859565b60006200016f6200075860201b60201c565b9050806000806101000a81548173ffffffffffffffffffffffffffffffffffffffff021916908373ffffffffffffffffffffffffffffffffffffffff1602179055508073ffffffffffffffffffffffffffffffffffffffff16600073ffffffffffffffffffffffffffffffffffffffff167f8be0079c531659141344cd1fd0a4f28419497f9722a3daafe3b4186f6b6457e060405160405180910390a3504260a08181525050600082905060008173ffffffffffffffffffffffffffffffffffffffff1663c45a01556040518163ffffffff1660e01b815260040160206040518083038186803b1580156200026357600080fd5b505afa15801562000278573d6000803e3d6000fd5b505050506040513d601f19601f820116820180604052508101906200029e919062000827565b73ffffffffffffffffffffffffffffffffffffffff1663c9c65396308473ffffffffffffffffffffffffffffffffffffffff1663ad5c46486040518163ffffffff1660e01b815260040160206040518083038186803b1580156200030157600080fd5b505afa15801562000316573d6000803e3d6000fd5b505050506040513d601f19601f820116820180604052508101906200033c919062000827565b6040518363ffffffff1660e01b81526004016200035b929190620008c2565b602060405180830381600087803b1580156200037657600080fd5b505af11580156200038b573d6000803e3d6000fd5b505050506040513d601f19601f82011682018060405250810190620003b1919062000827565b90508173ffffffffffffffffffffffffffffffffffffffff1660c08173ffffffffffffffffffffffffffffffffffffffff1660601b815250508173ffffffffffffffffffffffffffffffffffffffff1663ad5c46486040518163ffffffff1660e01b815260040160206040518083038186803b1580156200043157600080fd5b505afa15801562000446573d6000803e3d6000fd5b505050506040513d601f19601f820116820180604052508101906200046c919062000827565b73ffffffffffffffffffffffffffffffffffffffff166101008173ffffffffffffffffffffffffffffffffffffffff1660601b815250508073ffffffffffffffffffffffffffffffffffffffff1660e08173ffffffffffffffffffffffffffffffffffffffff1660601b815250506001600260003073ffffffffffffffffffffffffffffffffffffffff1673ffffffffffffffffffffffffffffffffffffffff16815260200190815260200160002060006101000a81548160ff021916908315150217905550600160026000620005486200075860201b60201c565b73ffffffffffffffffffffffffffffffffffffffff1673ffffffffffffffffffffffffffffffffffffffff16815260200190815260200160002060006101000a81548160ff0219169083151502179055506001600260008473ffffffffffffffffffffffffffffffffffffffff1673ffffffffffffffffffffffffffffffffffffffff16815260200190815260200160002060006101000a81548160ff0219169083151502179055506001600260008373ffffffffffffffffffffffffffffffffffffffff1673ffffffffffffffffffffffffffffffffffffffff16815260200190815260200160002060006101000a81548160ff0219169083151502179055508273ffffffffffffffffffffffffffffffffffffffff1660808173ffffffffffffffffffffffffffffffffffffffff1660601b8152505060045460016000620006976200075860201b60201c565b73ffffffffffffffffffffffffffffffffffffffff1673ffffffffffffffffffffffffffffffffffffffff16815260200190815260200160002081905550620006e56200075860201b60201c565b73ffffffffffffffffffffffffffffffffffffffff16600073ffffffffffffffffffffffffffffffffffffffff167fddf252ad1be2c89b69c2b068fc378daa952ba7f163c4a11628f55a4df523b3ef600454604051620007469190620008ef565b60405180910390a35050505062000c10565b600033905090565b8280546200076e9062000b50565b90600052602060002090601f016020900481019282620007925760008555620007de565b82601f10620007ad57805160ff1916838001178555620007de565b82800160010185558215620007de579182015b82811115620007dd578251825591602001919060010190620007c0565b5b509050620007ed9190620007f1565b5090565b5b808211156200080c576000816000905550600101620007f2565b5090565b600081519050620008218162000bf6565b92915050565b60006020828403121562000840576200083f62000be4565b5b6000620008508482850162000810565b91505092915050565b6000806040838503121562000873576200087262000be4565b5b6000620008838582860162000810565b9250506020620008968582860162000810565b9150509250929050565b620008ab8162000b05565b82525050565b620008bc8162000b39565b82525050565b6000604082019050620008d96000830185620008a0565b620008e86020830184620008a0565b9392505050565b6000602082019050620009066000830184620008b1565b92915050565b6000808291508390505b60018511156200095e5780860481111562000936576200093562000b86565b5b6001851615620009465780820291505b8081029050620009568562000be9565b945062000916565b94509492505050565b6000620009748262000b39565b9150620009818362000b43565b9250620009b07fffffffffffffffffffffffffffffffffffffffffffffffffffffffffffffffff8484620009b8565b905092915050565b600082620009ca576001905062000a9d565b81620009da576000905062000a9d565b8160018114620009f35760028114620009fe5762000a34565b600191505062000a9d565b60ff84111562000a135762000a1262000b86565b5b8360020a91508482111562000a2d5762000a2c62000b86565b5b5062000a9d565b5060208310610133831016604e8410600b841016171562000a6e5782820a90508381111562000a685762000a6762000b86565b5b62000a9d565b62000a7d84848460016200090c565b9250905081840481111562000a975762000a9662000b86565b5b81810290505b9392505050565b600062000ab18262000b39565b915062000abe8362000b39565b9250817fffffffffffffffffffffffffffffffffffffffffffffffffffffffffffffffff048311821515161562000afa5762000af962000b86565b5b828202905092915050565b600062000b128262000b19565b9050919050565b600073ffffffffffffffffffffffffffffffffffffffff82169050919050565b6000819050919050565b600060ff82169050919050565b6000600282049050600182168062000b6957607f821691505b6020821081141562000b805762000b7f62000bb5565b5b50919050565b7f4e487b7100000000000000000000000000000000000000000000000000000000600052601160045260246000fd5b7f4e487b7100000000000000000000000000000000000000000000000000000000600052602260045260246000fd5b600080fd5b60008160011c9050919050565b62000c018162000b05565b811462000c0d57600080fd5b50565b60805160601c60a05160c05160601c60e05160601c6101005160601c61379d62000c996000396000611549015260008181610d920152611c7001526000818161094d015281816120a9015281816120d00152818161216c0152818161219301526125930152600061104501526000818161123c015281816123e1015261246b015261379d6000f3fe60806040526004361061021e5760003560e01c80638c0b5e2211610123578063ca302ffa116100ab578063e0af36161161006f578063e0af3616146107c6578063ebd3e523146107f1578063f2fde38b1461081c578063f420a42014610845578063fce589d81461087057610225565b8063ca302ffa146106df578063cf0848f71461070a578063d89135cd14610733578063dcd5775b1461075e578063dd62ed3e1461078957610225565b806398118cb4116100f257806398118cb4146105e6578063a457c2d714610611578063a9059cbb1461064e578063b60eaaaa1461068b578063c49b9a80146106b657610225565b80638c0b5e221461053a5780638d000264146105655780638da5cb5b1461059057806395d89b41146105bb57610225565b80633f4ba83a116101a65780634a74bb02116101755780634a74bb021461047957806354b7fd7c146104a457806370a08231146104cf578063715018a61461050c5780638456cb591461052357610225565b80633f4ba83a146103e3578063437823ec146103fa57806344cd5d721461042357806349bd5a5e1461044e57610225565b806318160ddd116101ed57806318160ddd146102e857806323b872dd14610313578063313ce56714610350578063395093511461037b5780633a4e0b97146103b857610225565b806306fdde031461022a578063095ea7b3146102555780631694505e1461029257806317c57272146102bd57610225565b3661022557005b600080fd5b34801561023657600080fd5b5061023f61089b565b60405161024c9190612be6565b60405180910390f35b34801561026157600080fd5b5061027c600480360381019061027791906127c5565b61092d565b6040516102899190612bb0565b60405180910390f35b34801561029e57600080fd5b506102a761094b565b6040516102b49190612bcb565b60405180910390f35b3480156102c957600080fd5b506102d261096f565b6040516102df9190612dc8565b60405180910390f35b3480156102f457600080fd5b506102fd610974565b60405161030a9190612dc8565b60405180910390f35b34801561031f57600080fd5b5061033a60048036038101906103359190612772565b61097e565b6040516103479190612bb0565b60405180910390f35b34801561035c57600080fd5b50610365610a7f565b6040516103729190612e74565b60405180910390f35b34801561038757600080fd5b506103a2600480360381019061039d91906127c5565b610a88565b6040516103af9190612bb0565b60405180910390f35b3480156103c457600080fd5b506103cd610b34565b6040516103da9190612dc8565b60405180910390f35b3480156103ef57600080fd5b506103f8610b3a565b005b34801561040657600080fd5b50610421600480360381019061041c91906126d8565b610c0a565b005b34801561042f57600080fd5b50610438610d6e565b6040516104459190612dc8565b60405180910390f35b34801561045a57600080fd5b50610463610d90565b6040516104709190612b34565b60405180910390f35b34801561048557600080fd5b5061048e610db4565b60405161049b9190612bb0565b60405180910390f35b3480156104b057600080fd5b506104b9610dc7565b6040516104c69190612dc8565b60405180910390f35b3480156104db57600080fd5b506104f660048036038101906104f191906126d8565b610dcd565b6040516105039190612dc8565b60405180910390f35b34801561051857600080fd5b50610521610e16565b005b34801561052f57600080fd5b50610538610f50565b005b34801561054657600080fd5b5061054f611020565b60405161055c9190612dc8565b60405180910390f35b34801561057157600080fd5b5061057a611043565b6040516105879190612dc8565b60405180910390f35b34801561059c57600080fd5b506105a5611067565b6040516105b29190612b34565b60405180910390f35b3480156105c757600080fd5b506105d0611090565b6040516105dd9190612be6565b60405180910390f35b3480156105f257600080fd5b506105fb611122565b6040516106089190612dc8565b60405180910390f35b34801561061d57600080fd5b50610638600480360381019061063391906127c5565b611128565b6040516106459190612bb0565b60405180910390f35b34801561065a57600080fd5b50610675600480360381019061067091906127c5565b61121c565b6040516106829190612bb0565b60405180910390f35b34801561069757600080fd5b506106a061123a565b6040516106ad9190612b34565b60405180910390f35b3480156106c257600080fd5b506106dd60048036038101906106d89190612805565b61125e565b005b3480156106eb57600080fd5b506106f461132e565b6040516107019190612dc8565b60405180910390f35b34801561071657600080fd5b50610731600480360381019061072c91906126d8565b611334565b005b34801561073f57600080fd5b50610748611497565b6040516107559190612dc8565b60405180910390f35b34801561076a57600080fd5b5061077361149d565b6040516107809190612dc8565b60405180910390f35b34801561079557600080fd5b506107b060048036038101906107ab9190612732565b6114c0565b6040516107bd9190612dc8565b60405180910390f35b3480156107d257600080fd5b506107db611547565b6040516107e89190612b34565b60405180910390f35b3480156107fd57600080fd5b5061080661156b565b6040516108139190612dc8565b60405180910390f35b34801561082857600080fd5b50610843600480360381019061083e91906126d8565b611571565b005b34801561085157600080fd5b5061085a61171a565b6040516108679190612dc8565b60405180910390f35b34801561087c57600080fd5b50610885611720565b6040516108929190612dc8565b60405180910390f35b6060600580546108aa90613228565b80601f01602080910402602001604051908101604052809291908181526020018280546108d690613228565b80156109235780601f106108f857610100808354040283529160200191610923565b820191906000526020600020905b81548152906001019060200180831161090657829003601f168201915b5050505050905090565b600061094161093a611726565b848461172e565b6001905092915050565b7f000000000000000000000000000000000000000000000000000000000000000081565b606481565b6000600454905090565b600061098b8484846118f9565b6000600360008673ffffffffffffffffffffffffffffffffffffffff1673ffffffffffffffffffffffffffffffffffffffff16815260200190815260200160002060006109d6611726565b73ffffffffffffffffffffffffffffffffffffffff1673ffffffffffffffffffffffffffffffffffffffff16815260200190815260200160002054905082811015610a56576040517f08c379a0000000000000000000000000000000000000000000000000000000008152600401610a4d90612ce8565b60405180910390fd5b610a7385610a62611726565b8584610a6e9190613136565b61172e565b60019150509392505050565b60006012905090565b6000610b2a610a95611726565b848460036000610aa3611726565b73ffffffffffffffffffffffffffffffffffffffff1673ffffffffffffffffffffffffffffffffffffffff16815260200190815260200160002060008873ffffffffffffffffffffffffffffffffffffffff1673ffffffffffffffffffffffffffffffffffffffff16815260200190815260200160002054610b259190612ee4565b61172e565b6001905092915050565b600c5481565b610b42611726565b73ffffffffffffffffffffffffffffffffffffffff16610b60611067565b73ffffffffffffffffffffffffffffffffffffffff1614610bb6576040517f08c379a0000000000000000000000000000000000000000000000000000000008152600401610bad90612d08565b60405180910390fd5b6000600f60026101000a81548160ff0219169083151502179055507f5db9ee0a495bf2e6ff9c91a7834c1ba4fdd244a5e8aa4e537bd38aeae4b073aa33604051610c009190612b34565b60405180910390a1565b610c12611726565b73ffffffffffffffffffffffffffffffffffffffff16610c30611067565b73ffffffffffffffffffffffffffffffffffffffff1614610c86576040517f08c379a0000000000000000000000000000000000000000000000000000000008152600401610c7d90612d08565b60405180910390fd5b600260008273ffffffffffffffffffffffffffffffffffffffff1673ffffffffffffffffffffffffffffffffffffffff16815260200190815260200160002060009054906101000a900460ff1615610d13576040517f08c379a0000000000000000000000000000000000000000000000000000000008152600401610d0a90612ca8565b60405180910390fd5b6001600260008373ffffffffffffffffffffffffffffffffffffffff1673ffffffffffffffffffffffffffffffffffffffff16815260200190815260200160002060006101000a81548160ff02191690831515021790555050565b6012600a610d7c9190612fbe565b655af3107a4000610d8d91906130dc565b81565b7f000000000000000000000000000000000000000000000000000000000000000081565b600f60019054906101000a900460ff1681565b600b5481565b6000600160008373ffffffffffffffffffffffffffffffffffffffff1673ffffffffffffffffffffffffffffffffffffffff168152602001908152602001600020549050919050565b610e1e611726565b73ffffffffffffffffffffffffffffffffffffffff16610e3c611067565b73ffffffffffffffffffffffffffffffffffffffff1614610e92576040517f08c379a0000000000000000000000000000000000000000000000000000000008152600401610e8990612d08565b60405180910390fd5b600073ffffffffffffffffffffffffffffffffffffffff1660008054906101000a900473ffffffffffffffffffffffffffffffffffffffff1673ffffffffffffffffffffffffffffffffffffffff167f8be0079c531659141344cd1fd0a4f28419497f9722a3daafe3b4186f6b6457e060405160405180910390a360008060006101000a81548173ffffffffffffffffffffffffffffffffffffffff021916908373ffffffffffffffffffffffffffffffffffffffff160217905550565b610f58611726565b73ffffffffffffffffffffffffffffffffffffffff16610f76611067565b73ffffffffffffffffffffffffffffffffffffffff1614610fcc576040517f08c379a0000000000000000000000000000000000000000000000000000000008152600401610fc390612d08565b60405180910390fd5b6001600f60026101000a81548160ff0219169083151502179055507f62e78cea01bee320cd4e420270b5ea74000d11b0c9f74754ebdbfc544b05a258336040516110169190612b34565b60405180910390a1565b6012600a61102e9190612fbe565b66038d7ea4c6800061104091906130dc565b81565b7f000000000000000000000000000000000000000000000000000000000000000081565b60008060009054906101000a900473ffffffffffffffffffffffffffffffffffffffff16905090565b60606006805461109f90613228565b80601f01602080910402602001604051908101604052809291908181526020018280546110cb90613228565b80156111185780601f106110ed57610100808354040283529160200191611118565b820191906000526020600020905b8154815290600101906020018083116110fb57829003601f168201915b5050505050905090565b60085481565b60008060036000611137611726565b73ffffffffffffffffffffffffffffffffffffffff1673ffffffffffffffffffffffffffffffffffffffff16815260200190815260200160002060008573ffffffffffffffffffffffffffffffffffffffff1673ffffffffffffffffffffffffffffffffffffffff168152602001908152602001600020549050828110156111f4576040517f08c379a00000000000000000000000000000000000000000000000000000000081526004016111eb90612da8565b60405180910390fd5b6112116111ff611726565b85858461120c9190613136565b61172e565b600191505092915050565b6000611230611229611726565b84846118f9565b6001905092915050565b7f000000000000000000000000000000000000000000000000000000000000000081565b611266611726565b73ffffffffffffffffffffffffffffffffffffffff16611284611067565b73ffffffffffffffffffffffffffffffffffffffff16146112da576040517f08c379a00000000000000000000000000000000000000000000000000000000081526004016112d190612d08565b60405180910390fd5b80600f60016101000a81548160ff0219169083151502179055507f53726dfcaf90650aa7eb35524f4d3220f07413c8d6cb404cc8c18bf5591bc159816040516113239190612bb0565b60405180910390a150565b60095481565b61133c611726565b73ffffffffffffffffffffffffffffffffffffffff1661135a611067565b73ffffffffffffffffffffffffffffffffffffffff16146113b0576040517f08c379a00000000000000000000000000000000000000000000000000000000081526004016113a790612d08565b60405180910390fd5b600260008273ffffffffffffffffffffffffffffffffffffffff1673ffffffffffffffffffffffffffffffffffffffff16815260200190815260200160002060009054906101000a900460ff1661143c576040517f08c379a000000000000000000000000000000000000000000000000000000000815260040161143390612d48565b60405180910390fd5b6000600260008373ffffffffffffffffffffffffffffffffffffffff1673ffffffffffffffffffffffffffffffffffffffff16815260200190815260200160002060006101000a81548160ff02191690831515021790555050565b600d5481565b6012600a6114ab9190612fbe565b668e1bc9bf0400006114bd91906130dc565b81565b6000600360008473ffffffffffffffffffffffffffffffffffffffff1673ffffffffffffffffffffffffffffffffffffffff16815260200190815260200160002060008373ffffffffffffffffffffffffffffffffffffffff1673ffffffffffffffffffffffffffffffffffffffff16815260200190815260200160002054905092915050565b7f000000000000000000000000000000000000000000000000000000000000000081565b600a5481565b611579611726565b73ffffffffffffffffffffffffffffffffffffffff16611597611067565b73ffffffffffffffffffffffffffffffffffffffff16146115ed576040517f08c379a00000000000000000000000000000000000000000000000000000000081526004016115e490612d08565b60405180910390fd5b600073ffffffffffffffffffffffffffffffffffffffff168173ffffffffffffffffffffffffffffffffffffffff16141561165d576040517f08c379a000000000000000000000000000000000000000000000000000000000815260040161165490612c28565b60405180910390fd5b8073ffffffffffffffffffffffffffffffffffffffff1660008054906101000a900473ffffffffffffffffffffffffffffffffffffffff1673ffffffffffffffffffffffffffffffffffffffff167f8be0079c531659141344cd1fd0a4f28419497f9722a3daafe3b4186f6b6457e060405160405180910390a3806000806101000a81548173ffffffffffffffffffffffffffffffffffffffff021916908373ffffffffffffffffffffffffffffffffffffffff16021790555050565b600e5481565b60075481565b600033905090565b600073ffffffffffffffffffffffffffffffffffffffff168373ffffffffffffffffffffffffffffffffffffffff16141561179e576040517f08c379a000000000000000000000000000000000000000000000000000000000815260040161179590612d88565b60405180910390fd5b600073ffffffffffffffffffffffffffffffffffffffff168273ffffffffffffffffffffffffffffffffffffffff16141561180e576040517f08c379a000000000000000000000000000000000000000000000000000000000815260040161180590612c48565b60405180910390fd5b80600360008573ffffffffffffffffffffffffffffffffffffffff1673ffffffffffffffffffffffffffffffffffffffff16815260200190815260200160002060008473ffffffffffffffffffffffffffffffffffffffff1673ffffffffffffffffffffffffffffffffffffffff168152602001908152602001600020819055508173ffffffffffffffffffffffffffffffffffffffff168373ffffffffffffffffffffffffffffffffffffffff167f8c5be1e5ebec7d5bd14f71427d1e84f3dd0314c0f7b2291e5b200ac8c7c3b925836040516118ec9190612dc8565b60405180910390a3505050565b600f60029054906101000a900460ff1615611949576040517f08c379a000000000000000000000000000000000000000000000000000000000815260040161194090612c88565b60405180910390fd5b600073ffffffffffffffffffffffffffffffffffffffff168373ffffffffffffffffffffffffffffffffffffffff1614156119b9576040517f08c379a00000000000000000000000000000000000000000000000000000000081526004016119b090612d68565b60405180910390fd5b600073ffffffffffffffffffffffffffffffffffffffff168273ffffffffffffffffffffffffffffffffffffffff161415611a29576040517f08c379a0000000000000000000000000000000000000000000000000000000008152600401611a2090612c08565b60405180910390fd5b60008111611a6c576040517f08c379a0000000000000000000000000000000000000000000000000000000008152600401611a6390612d28565b60405180910390fd5b6000600160008573ffffffffffffffffffffffffffffffffffffffff1673ffffffffffffffffffffffffffffffffffffffff16815260200190815260200160002054905081811015611af3576040517f08c379a0000000000000000000000000000000000000000000000000000000008152600401611aea90612c68565b60405180910390fd5b611afb611067565b73ffffffffffffffffffffffffffffffffffffffff168473ffffffffffffffffffffffffffffffffffffffff1614158015611b695750611b39611067565b73ffffffffffffffffffffffffffffffffffffffff168373ffffffffffffffffffffffffffffffffffffffff1614155b15611bd1576012600a611b7c9190612fbe565b66038d7ea4c68000611b8e91906130dc565b821115611bd0576040517f08c379a0000000000000000000000000000000000000000000000000000000008152600401611bc790612cc8565b60405180910390fd5b5b6000611bdc30610dcd565b90506012600a611bec9190612fbe565b66038d7ea4c68000611bfe91906130dc565b8110611c27576012600a611c129190612fbe565b66038d7ea4c68000611c2491906130dc565b90505b60006012600a611c379190612fbe565b655af3107a4000611c4891906130dc565b8210159050808015611c675750600f60009054906101000a900460ff16155b8015611cbf57507f000000000000000000000000000000000000000000000000000000000000000073ffffffffffffffffffffffffffffffffffffffff168673ffffffffffffffffffffffffffffffffffffffff1614155b8015611cd75750600f60019054906101000a900460ff165b15611d07576012600a611cea9190612fbe565b655af3107a4000611cfb91906130dc565b9150611d0682611de9565b5b600060019050600260008873ffffffffffffffffffffffffffffffffffffffff1673ffffffffffffffffffffffffffffffffffffffff16815260200190815260200160002060009054906101000a900460ff168015611daf5750600260008773ffffffffffffffffffffffffffffffffffffffff1673ffffffffffffffffffffffffffffffffffffffff16815260200190815260200160002060009054906101000a900460ff165b15611db957600090505b80611dc757611dc6611eaa565b5b611dd2878787611edf565b80611de057611ddf61207a565b5b50505050505050565b6001600f60006101000a81548160ff0219169083151502179055506000600282611e139190612f3a565b905060008183611e239190613136565b90506000479050611e3383612097565b60008147611e419190613136565b9050611e4d8382612166565b7f17bbfb9a6069321b6ded73bd96327c9e6b7212a5cd51ff219cd61370acafb561848285604051611e8093929190612e3d565b60405180910390a1505050506000600f60006101000a81548160ff02191690831515021790555050565b600754600a81905550600854600b81905550600c54600c81905550600060078190555060006008819055506000600981905550565b600080600080611eee85612233565b9350935093509350611f0087856122d0565b611f0a87846123da565b81600160003073ffffffffffffffffffffffffffffffffffffffff1673ffffffffffffffffffffffffffffffffffffffff1681526020019081526020016000206000828254611f599190612ee4565b9250508190555084600160008973ffffffffffffffffffffffffffffffffffffffff1673ffffffffffffffffffffffffffffffffffffffff1681526020019081526020016000206000828254611faf9190613136565b9250508190555080600160008873ffffffffffffffffffffffffffffffffffffffff1673ffffffffffffffffffffffffffffffffffffffff16815260200190815260200160002060008282546120059190612ee4565b925050819055508573ffffffffffffffffffffffffffffffffffffffff168773ffffffffffffffffffffffffffffffffffffffff167fddf252ad1be2c89b69c2b068fc378daa952ba7f163c4a11628f55a4df523b3ef836040516120699190612dc8565b60405180910390a350505050505050565b600a54600781905550600b54600881905550600c54600981905550565b60006120a16124f2565b90506120ce307f00000000000000000000000000000000000000000000000000000000000000008461172e565b7f000000000000000000000000000000000000000000000000000000000000000073ffffffffffffffffffffffffffffffffffffffff1663791ac9478360008430426040518663ffffffff1660e01b8152600401612130959493929190612de3565b600060405180830381600087803b15801561214a57600080fd5b505af115801561215e573d6000803e3d6000fd5b505050505050565b612191307f00000000000000000000000000000000000000000000000000000000000000008461172e565b7f000000000000000000000000000000000000000000000000000000000000000073ffffffffffffffffffffffffffffffffffffffff1663f305d7198230856000806121db611067565b426040518863ffffffff1660e01b81526004016121fd96959493929190612b4f565b6000604051808303818588803b15801561221657600080fd5b505af115801561222a573d6000803e3d6000fd5b50505050505050565b600080600080600060075460648761224b9190612f3a565b61225591906130dc565b905060006009546064886122699190612f3a565b61227391906130dc565b905060006008546064896122879190612f3a565b61229191906130dc565b905060008183858b6122a39190613136565b6122ad9190613136565b6122b79190613136565b9050838383839750975097509750505050509193509193565b6000816004546122e09190613136565b90506012600a6122f09190612fbe565b668e1bc9bf04000061230291906130dc565b81101561232c576012600a6123179190612fbe565b668e1bc9bf04000061232991906130dc565b90505b60008160045461233c9190613136565b90506000811161234d5750506123d6565b8160048190555080600d60008282546123669190612ee4565b92505081905550600073ffffffffffffffffffffffffffffffffffffffff168473ffffffffffffffffffffffffffffffffffffffff167fddf252ad1be2c89b69c2b068fc378daa952ba7f163c4a11628f55a4df523b3ef836040516123cb9190612dc8565b60405180910390a350505b5050565b80600160007f000000000000000000000000000000000000000000000000000000000000000073ffffffffffffffffffffffffffffffffffffffff1673ffffffffffffffffffffffffffffffffffffffff16815260200190815260200160002060008282546124499190612ee4565b9250508190555080600e60008282546124629190612ee4565b925050819055507f000000000000000000000000000000000000000000000000000000000000000073ffffffffffffffffffffffffffffffffffffffff168273ffffffffffffffffffffffffffffffffffffffff167fddf252ad1be2c89b69c2b068fc378daa952ba7f163c4a11628f55a4df523b3ef836040516124e69190612dc8565b60405180910390a35050565b60606000600267ffffffffffffffff81111561251157612510613316565b5b60405190808252806020026020018201604052801561253f5781602001602082028036833780820191505090505b5090503081600081518110612557576125566132e7565b5b602002602001019073ffffffffffffffffffffffffffffffffffffffff16908173ffffffffffffffffffffffffffffffffffffffff16815250507f000000000000000000000000000000000000000000000000000000000000000073ffffffffffffffffffffffffffffffffffffffff1663ad5c46486040518163ffffffff1660e01b815260040160206040518083038186803b1580156125f757600080fd5b505afa15801561260b573d6000803e3d6000fd5b505050506040513d601f19601f8201168201806040525081019061262f9190612705565b81600181518110612643576126426132e7565b5b602002602001019073ffffffffffffffffffffffffffffffffffffffff16908173ffffffffffffffffffffffffffffffffffffffff16815250508091505090565b60008135905061269381613722565b92915050565b6000815190506126a881613722565b92915050565b6000813590506126bd81613739565b92915050565b6000813590506126d281613750565b92915050565b6000602082840312156126ee576126ed613345565b5b60006126fc84828501612684565b91505092915050565b60006020828403121561271b5761271a613345565b5b600061272984828501612699565b91505092915050565b6000806040838503121561274957612748613345565b5b600061275785828601612684565b925050602061276885828601612684565b9150509250929050565b60008060006060848603121561278b5761278a613345565b5b600061279986828701612684565b93505060206127aa86828701612684565b92505060406127bb868287016126c3565b9150509250925092565b600080604083850312156127dc576127db613345565b5b60006127ea85828601612684565b92505060206127fb858286016126c3565b9150509250929050565b60006020828403121561281b5761281a613345565b5b6000612829848285016126ae565b91505092915050565b600061283e838361284a565b60208301905092915050565b6128538161316a565b82525050565b6128628161316a565b82525050565b600061287382612e9f565b61287d8185612ec2565b935061288883612e8f565b8060005b838110156128b95781516128a08882612832565b97506128ab83612eb5565b92505060018101905061288c565b5085935050505092915050565b6128cf8161317c565b82525050565b6128de816131bf565b82525050565b6128ed816131e3565b82525050565b60006128fe82612eaa565b6129088185612ed3565b93506129188185602086016131f5565b6129218161334a565b840191505092915050565b6000612939602383612ed3565b915061294482613368565b604082019050919050565b600061295c602683612ed3565b9150612967826133b7565b604082019050919050565b600061297f602283612ed3565b915061298a82613406565b604082019050919050565b60006129a2602683612ed3565b91506129ad82613455565b604082019050919050565b60006129c5600d83612ed3565b91506129d0826134a4565b602082019050919050565b60006129e8601783612ed3565b91506129f3826134cd565b602082019050919050565b6000612a0b602683612ed3565b9150612a16826134f6565b604082019050919050565b6000612a2e602883612ed3565b9150612a3982613545565b604082019050919050565b6000612a51602083612ed3565b9150612a5c82613594565b602082019050919050565b6000612a74602783612ed3565b9150612a7f826135bd565b604082019050919050565b6000612a97601783612ed3565b9150612aa28261360c565b602082019050919050565b6000612aba602583612ed3565b9150612ac582613635565b604082019050919050565b6000612add602483612ed3565b9150612ae882613684565b604082019050919050565b6000612b00602583612ed3565b9150612b0b826136d3565b604082019050919050565b612b1f816131a8565b82525050565b612b2e816131b2565b82525050565b6000602082019050612b496000830184612859565b92915050565b600060c082019050612b646000830189612859565b612b716020830188612b16565b612b7e60408301876128e4565b612b8b60608301866128e4565b612b986080830185612859565b612ba560a0830184612b16565b979650505050505050565b6000602082019050612bc560008301846128c6565b92915050565b6000602082019050612be060008301846128d5565b92915050565b60006020820190508181036000830152612c0081846128f3565b905092915050565b60006020820190508181036000830152612c218161292c565b9050919050565b60006020820190508181036000830152612c418161294f565b9050919050565b60006020820190508181036000830152612c6181612972565b9050919050565b60006020820190508181036000830152612c8181612995565b9050919050565b60006020820190508181036000830152612ca1816129b8565b9050919050565b60006020820190508181036000830152612cc1816129db565b9050919050565b60006020820190508181036000830152612ce1816129fe565b9050919050565b60006020820190508181036000830152612d0181612a21565b9050919050565b60006020820190508181036000830152612d2181612a44565b9050919050565b60006020820190508181036000830152612d4181612a67565b9050919050565b60006020820190508181036000830152612d6181612a8a565b9050919050565b60006020820190508181036000830152612d8181612aad565b9050919050565b60006020820190508181036000830152612da181612ad0565b9050919050565b60006020820190508181036000830152612dc181612af3565b9050919050565b6000602082019050612ddd6000830184612b16565b92915050565b600060a082019050612df86000830188612b16565b612e0560208301876128e4565b8181036040830152612e178186612868565b9050612e266060830185612859565b612e336080830184612b16565b9695505050505050565b6000606082019050612e526000830186612b16565b612e5f6020830185612b16565b612e6c6040830184612b16565b949350505050565b6000602082019050612e896000830184612b25565b92915050565b6000819050602082019050919050565b600081519050919050565b600081519050919050565b6000602082019050919050565b600082825260208201905092915050565b600082825260208201905092915050565b6000612eef826131a8565b9150612efa836131a8565b9250827fffffffffffffffffffffffffffffffffffffffffffffffffffffffffffffffff03821115612f2f57612f2e61325a565b5b828201905092915050565b6000612f45826131a8565b9150612f50836131a8565b925082612f6057612f5f613289565b5b828204905092915050565b6000808291508390505b6001851115612fb557808604811115612f9157612f9061325a565b5b6001851615612fa05780820291505b8081029050612fae8561335b565b9450612f75565b94509492505050565b6000612fc9826131a8565b9150612fd4836131b2565b92506130017fffffffffffffffffffffffffffffffffffffffffffffffffffffffffffffffff8484613009565b905092915050565b60008261301957600190506130d5565b8161302757600090506130d5565b816001811461303d576002811461304757613076565b60019150506130d5565b60ff8411156130595761305861325a565b5b8360020a9150848211156130705761306f61325a565b5b506130d5565b5060208310610133831016604e8410600b84101617156130ab5782820a9050838111156130a6576130a561325a565b5b6130d5565b6130b88484846001612f6b565b925090508184048111156130cf576130ce61325a565b5b81810290505b9392505050565b60006130e7826131a8565b91506130f2836131a8565b9250817fffffffffffffffffffffffffffffffffffffffffffffffffffffffffffffffff048311821515161561312b5761312a61325a565b5b828202905092915050565b6000613141826131a8565b915061314c836131a8565b92508282101561315f5761315e61325a565b5b828203905092915050565b600061317582613188565b9050919050565b60008115159050919050565b600073ffffffffffffffffffffffffffffffffffffffff82169050919050565b6000819050919050565b600060ff82169050919050565b60006131ca826131d1565b9050919050565b60006131dc82613188565b9050919050565b60006131ee826131a8565b9050919050565b60005b838110156132135780820151818401526020810190506131f8565b83811115613222576000848401525b50505050565b6000600282049050600182168061324057607f821691505b60208210811415613254576132536132b8565b5b50919050565b7f4e487b7100000000000000000000000000000000000000000000000000000000600052601160045260246000fd5b7f4e487b7100000000000000000000000000000000000000000000000000000000600052601260045260246000fd5b7f4e487b7100000000000000000000000000000000000000000000000000000000600052602260045260246000fd5b7f4e487b7100000000000000000000000000000000000000000000000000000000600052603260045260246000fd5b7f4e487b7100000000000000000000000000000000000000000000000000000000600052604160045260246000fd5b600080fd5b6000601f19601f8301169050919050565b60008160011c9050919050565b7f45524332303a207472616e7366657220746f20746865207a65726f206164647260008201527f6573730000000000000000000000000000000000000000000000000000000000602082015250565b7f4f776e61626c653a206e6577206f776e657220697320746865207a65726f206160008201527f6464726573730000000000000000000000000000000000000000000000000000602082015250565b7f45524332303a20617070726f766520746f20746865207a65726f20616464726560008201527f7373000000000000000000000000000000000000000000000000000000000000602082015250565b7f45524332303a207472616e7366657220616d6f756e742065786365656473206260008201527f616c616e63650000000000000000000000000000000000000000000000000000602082015250565b7f45524332303a2070617573656400000000000000000000000000000000000000600082015250565b7f50616e64613a20616c7265616479206578636c75646564000000000000000000600082015250565b7f45524332303a207472616e7366657220616d6f756e742065786365656473206d60008201527f6178696d756d0000000000000000000000000000000000000000000000000000602082015250565b7f45524332303a207472616e7366657220616d6f756e742065786365656473206160008201527f6c6c6f77616e6365000000000000000000000000000000000000000000000000602082015250565b7f4f776e61626c653a2063616c6c6572206973206e6f7420746865206f776e6572600082015250565b7f45524332303a20616d6f756e74206d757374206265206772656174657220746860008201527f616e207a65726f00000000000000000000000000000000000000000000000000602082015250565b7f50616e64613a20616c726561647920696e636c75646564000000000000000000600082015250565b7f45524332303a207472616e736665722066726f6d20746865207a65726f20616460008201527f6472657373000000000000000000000000000000000000000000000000000000602082015250565b7f45524332303a20617070726f76652066726f6d20746865207a65726f2061646460008201527f7265737300000000000000000000000000000000000000000000000000000000602082015250565b7f45524332303a2064656372656173656420616c6c6f77616e63652062656c6f7760008201527f207a65726f000000000000000000000000000000000000000000000000000000602082015250565b61372b8161316a565b811461373657600080fd5b50565b6137428161317c565b811461374d57600080fd5b50565b613759816131a8565b811461376457600080fd5b5056fea2646970667358221220975ead2c3827d06a728ab613f36e7b74a67ff14abf76e0db164d5e078051f7f264736f6c63430008060033",
  "immutableReferences": {
    "782": [
      {
        "length": 32,
        "start": 4668
      },
      {
        "length": 32,
        "start": 9185
      },
      {
        "length": 32,
        "start": 9323
      }
    ],
    "787": [
      {
        "length": 32,
        "start": 4165
      }
    ],
    "790": [
      {
        "length": 32,
        "start": 2381
      },
      {
        "length": 32,
        "start": 8361
      },
      {
        "length": 32,
        "start": 8400
      },
      {
        "length": 32,
        "start": 8556
      },
      {
        "length": 32,
        "start": 8595
      },
      {
        "length": 32,
        "start": 9619
      }
    ],
    "792": [
      {
        "length": 32,
        "start": 3474
      },
      {
        "length": 32,
        "start": 7280
      }
    ],
    "794": [
      {
        "length": 32,
        "start": 5449
      }
    ]
  },
  "source": "// SPDX-License-Identifier: MIT\r\n\r\npragma solidity >=0.8.6 <0.9.0;\r\n\r\nimport \"./IERC20.sol\";\r\nimport \"./Ownable.sol\";\r\n\r\ninterface IUniswapV2Router02 {\r\n    function WETH() external view returns (address);\r\n\r\n    function factory() external view returns (address);\r\n\r\n    function swapExactTokensForETHSupportingFeeOnTransferTokens(\r\n        uint256 amountIn,\r\n        uint256 amountOutMin,\r\n        address[] calldata path,\r\n        address to,\r\n        uint256 deadline\r\n    ) external payable;\r\n\r\n    function addLiquidityETH(\r\n        address token,\r\n        uint256 amountTokenDesired,\r\n        uint256 amountTokenMin,\r\n        uint256 amountETHMin,\r\n        address to,\r\n        uint256 deadline\r\n    ) external payable;\r\n\r\n    function getAmountsOut(uint256 amountIn, address[] memory path)\r\n        external\r\n        view\r\n        returns (uint256[] memory amounts);\r\n\r\n    function getAmountsIn(uint256 amountOut, address[] memory path)\r\n        external\r\n        view\r\n        returns (uint256[] memory amounts);\r\n}\r\n\r\ninterface IUniswapV2Factory {\r\n    function createPair(address token1, address token2)\r\n        external\r\n        returns (address);\r\n}\r\n\r\n/*\r\n@@@@@@@@@@@@@@@@@@@@@@@@@@@@@@@@@@@@@@@@@@@@@@@@@@@@@@@@@@@@@@@@@@@@@@@@@@@@@@@@@@@@@@@@@@@@@@@@@@@@@@@@@@@@@@@@@@@@@@@@\r\n@@@@@@@@@@@@@@@@@@@@@@@@@@@@@@@@@@@@@@@@@@@@@@@@@@@@%,.............,&@@@@@@@@@@@@@@@@@@@@@@@@@@@@@@@@@@@@@@@@@@@@@@@@@@@\r\n@@@@@@@@@@@@@@@@@@@@@@@@@@@@@@@@@@@@@@@@@@@@@@@(...(@@@@@@@@@@@@@@@@@*...%@@@@@@@@@@@@@@@@@@@@@@@@@@@@@@@@@@@@@@@@@@@@@@\r\n@@@@@@@@@@@@@@@@@@@@@@@@@@@@@@@@@@@@@@@@@@@@...&@@@@@@@@@@@@@@@@@@@@@@@@@%..*@@@@@@@@@@@@@@@@@@@@@@@@@@@@@@@@@@@@@@@@@@@\r\n@@@@@@@@@@@@@@@@@@@@@@@@@@@@@@@@@@@@@@@@@&..@@#....&@@@@@@&##%@@@@@@@&....&@#..@@@@@@@@@@@@@@@@@@@@@@@@@@@@@@@@@@@@@@@@@\r\n@@@@@@@@@@@@@@@@@@@@@@@@@@@@@@@@@@@@@@@@..@@............#@@@@@@@(,........../@&..@@@@@@@@@@@@@@@@@@@@@@@@@@@@@@@@@@@@@@@\r\n@@@@@@@@@@@@@@@@@@@@@@@@@@@@@@@@@@@@@@/./@@........%@@@@@@@@@@@@@@@@@@.......#@@,.%@@@@@@@@@@@@@@@@@@@@@@@@@@@@@@@@@@@@@\r\n@@@@@@@@@@@@@@@@@@@@@@@@@@@@@@@@@@@@@*.%@@@.....(@@@@@@@@@@@@@@@@@@@@@@@@.....@@@/.#@@@@@@@@@@@@@@@@@@@@@@@@@@@@@@@@@@@@\r\n@@@@@@@@@@@@@@@@@@@@@@@@@@@@@@@@@@@@&.*@@@@*../@@@@@@@@@@@@@@@@@@@@@@@@@@@%..&@@@@,.@@@@@@@@@@@@@@@@@@@@@@@@@@@@@@@@@@@@\r\n@@@@@@@@@@@@@@@@@@@@@@@@@@@@@@@@@@@@..@@@@@..@@@@@.......*@@@@@.......*@@@@@..@@@@@..@@@@@@@@@@@@@@@@@@@@@@@@@@@@@@@@@@@\r\n@@@@@@@@@@@@@@@@@@@@@@@@@@@@@@@@@@@@..@@@@/.%@@@#....@@*.@@@@@@@.%@@....@@@@%.(@@@@..@@@@@@@@@@@@@@@@@@@@@@@@@@@@@@@@@@@\r\n@@@@@@@@@@@@@@@@@@@@@@@@@@@@@@@@@@@@..@@@@..@@@@........@@@@@@@@#........@@@@..@@@@..@@@@@@@@@@@@@@@@@@@@@@@@@@@@@@@@@@@\r\n@@@@@@@@@@@@@@@@@@@@@@@@@@@@@@@@@@@@,.@@@@..@@@@@,..,..@@@@...@@@@.....(@@@@@..@@@&./@@@@@@@@@@@@@@@@@@@@@@@@@@@@@@@@@@@\r\n@@@@@@@@@@@@@@@@@@@@@@@@@@@@@@@@@@@@@.,@@@@..@@@@@@@@@@@@@@@@@@@@@@@@@@@@@@@..@@@@..@@@@@@@@@@@@@@@@@@@@@@@@@@@@@@@@@@@@\r\n@@@@@@@@@@@@@@@@@@@@@@@@@@@@@@@@@@@@@%.*@@.....,@@@@@@@@@@@@@@@@@@@@@@@@@#,...*@@,.&@@@@@@@@@@@@@@@@@@@@@@@@@@@@@@@@@@@@\r\n@@@@@@@@@@@@@@@@@@@@@@@@@@@@@@@@@@@@@@%...............*%&@@@@@@@@&#,..............@@@@@@@@@@@@@@@@@@@@@@@@@@@@@@@@@@@@@@\r\n@@@@@@@@@@@@@@@@@@@@@@@@@@@@@@@@@@@@@@@@..........(@@@@@@@@@&&@@@@@@@@*..........@@@@@@@@@@@@@@@@@@@@@@@@@@@@@@@@@@@@@@@\r\n@@@@@@@@@@@@@@@@@@@@@@@@@@@@@@@@@@@@@@@@@@............,*@#######%*.............@@@@@@@@@@@@@@@@@@@@@@@@@@@@@@@@@@@@@@@@@\r\n@@@@@@@@@@@@@@@@@@@@@@@@@@@@@@@@@@@@@@@@@@@@%............,(#%%#,............%@@@@@@@@@@@@@@@@@@@@@@@@@@@@@@@@@@@@@@@@@@@\r\n@@@@@@@@@@@@@@@@@@@@@@@@@@@@@@@@@@@@@@@@@@@@@@@@.,......../////........,,@@@@@@@@@@@@@@@@@@@@@@@@@@@@@@@@@@@@@@@@@@@@@@@\r\n@@@@@@@@@@@@@@@@@@@@@@@@@@@@@@@@@@@@@@@@@@@@@@@@@@@&......))(((......@@@@@@@@@@@@@@@@@@@@@@@@@@@@@@@@@@@@@@@@@@@@@@@@@@@\r\n@@@@@@@@@@@@@@@@@@@@@@@@@@@@@@@@@@@@@@@@@@@@@@@@@@@@@@&*%@@@@@@@%*&@@@@@@@@@@@@@@@@@@@@@@@@@@@@@@@@@@@@@@@@@@@@@@@@@@@@@\r\n@@@@@@@@@@@@@@@@@@@@@@@@@@@@@@@@@@@@@@@@@@@@@@@@@@@@@@@@@@@@@@@@@@@@@@@@@@@@@@@@@@@@@@@@@@@@@@@@@@@@@@@@@@@@@@@@@@@@@@@@\r\n@@@@@@@@@@@@@@@@@@@@@@@@@@@@@@@@@@@@@@@@@@@@@@@@@@@@@@@@@@@@@@@@@@@@@@@@@@@@@@@@@@@@@@@@@@@@@@@@@@@@@@@@@@@@@@@@@@@@@@@@\r\n@@@@@@@@@@@@@@@@@@@@@@@@@@@@@@@@@@@@@@@@@@@@@@@@@@@@@@@@@@@@@@@@@@@@@@@@@@@@@@@@@@@@@@@@@@@@@@@@@@@@@@@@@@@@@@@@@@@@@@@@\r\n@@@@@@@@@@@@@@@@@@@@@@@@@@@@@@@@@@@@@@@@@@@@@@@@@@@@@@@@@@@@@@@@@@@@@&@@@@@@@@@@@@@@@@@@@@@@@@@@@@@@@@@@@@@@@@@@@@@@@@@@\r\n@@@@@@@@@@@@@@@@@@@@@@@@@@@..@@@@@%..@@*./@@@@@..@@&...@@@@%..@@@..,@@@*,@@@@..@@%..@@&..@@#..@@@@@@@@@@@@@@@@@@@@@@@@@@\r\n@@@@@@@@@@@@@@@@@@@@@@@@@@@..........@@*./@@@@@..@@&..(.,@@%..@&..@@@,....#@@.......@@@@,...#@@@@@@@@@@@@@@@@@@@@@@@@@@@\r\n@@@@@@@@@@@@@@@@@@@@@@@@@@@..@@@@@%..@@*./@@@@@..@@&..@@%..(..@@..@@@@@@,.#@@..@*..@@@@@@..%@@@@@@@@@@@@@@@@@@@@@@@@@@@@\r\n@@@@@@@@@@@@@@@@@@@@@@@@@@@..@@@@@%..@@@...*(...@@@&..@@@@&...@@@...,(*..,@@@..@@@/..@@@@..%@@@@@@@@@@@@@@@@@@@@@@@@@@@@\r\n@@@@@@@@@@@@@@@@@@@@@@@@@@@@@@@@@@@@@@@@@@@@@@@@@@@@@@@@@@@@@@@@@@@@@@@@@@@@@@@@@@@@@@@@@@@@@@@@@@@@@@@@@@@@@@@@@@@@@@@@\r\n@@@@@@@@@@@@@@@@@@@@@@@@@@@@@@@@@@@@@@@@@@@@@@@@@@@@@@@@@@@@@@@@@@@@@@@@@@@@@@@@@@@@@@@@@@@@@@@@@@@@@@@@@@@@@@@@@@@@@@@@\r\n@@@@@@@@@@@@@@@@@@@@@@@@@@@@@@@@@@..**,...@@@(../@@@@@...@@@@@..@@@..*,....@@@@@@...@@@@@@@@@@@@@@@@@@@@@@@@@@@@@@@@@@@@\r\n@@@@@@@@@@@@@@@@@@@@@@@@@@@@@@@@@@..@@@@.,@@/.,,.*@@@@..(.,@@@..@@@..@@@@@..&@@@,.%..@@@@@@@@@@@@@@@@@@@@@@@@@@@@@@@@@@@\r\n@@@@@@@@@@@@@@@@@@@@@@@@@@@@@@@@@@..(((%@@@,.*&&,.,@@@..@@%..&..@@@..@@@@@..#@%..&&%..@@@@@@@@@@@@@@@@@@@@@@@@@@@@@@@@@@\r\n@@@@@@@@@@@@@@@@@@@@@@@@@@@@@@@@@@..@@@@@@,./@@@@(.,@@..@@@@@...@@@..@@%,..&@#..@@@@@..@@@@@@@@@@@@@@@@@@@@@@@@@@@@@@@@@\r\n@@@@@@@@@@@@@@@@@@@@@@@@@@@@@@@@@@@@@@@@@@@@@@@@@@@@@@@@@@@@@@@@@@@@@@@@@@@@@@@@@@@@@@@@@@@@@@@@@@@@@@@@@@@@@@@@@@@@@@@@\r\n */\r\n\r\n/**\r\n1. Holders who are included into rewards also charged by constant fee. That fee is proportionally shared between holders\r\n2. Rewards sent to holders immediatelly\r\n3. Tokens are burn on each transaction until 60% are burn.\r\n4. Liquidity pool on pancake must be locked using Unicrypt Locker\r\n */\r\n\r\ncontract HungryPanda is Ownable, IERC20 {\r\n    mapping(address => uint256) private _balances;\r\n    mapping(address => bool) private excludedFromFee;\r\n\r\n    mapping(address => mapping(address => uint256)) private _allowances;\r\n\r\n    uint8 private constant _decimals = 18;\r\n    uint256 private constant DECIMALFACTOR = 10**_decimals;\r\n    uint256 private _totalSupply = 10**17 * DECIMALFACTOR; // 100 000 000 000 000 000\r\n\r\n    string private _name = \"HungryPanda\";\r\n    string private _symbol = \"HGP\";\r\n\r\n    uint256 public constant maxTxAmount = 10**15 * DECIMALFACTOR; // 1% 1 000 000 000 000 000\r\n    uint256 public constant minimalSupply = 4 * 10**16 * DECIMALFACTOR; // 60% can be burnt 40 000 000 000 000 000\r\n    uint256 public constant numTokensSellToAddLiquidity =\r\n        10 * 10**13 * DECIMALFACTOR; // 0.01% 10 000 000 000 000\r\n\r\n    uint256 public burnFee = 2;\r\n    uint256 public liquidityFee = 11;\r\n    uint256 public supportFee = 2;\r\n\r\n    uint256 public burnFeeOrigin = burnFee;\r\n    uint256 public liquidityFeeOrigin = liquidityFee;\r\n    uint256 public supportFeeOrigin = supportFee;\r\n\r\n    uint256 public totalBurned = 0;\r\n    uint256 public totalSupported = 0;\r\n    address public immutable supportWallet;\r\n\r\n    uint256 public constant feeGranularity = 100;\r\n    uint256 public immutable bornAtTime;\r\n\r\n    IUniswapV2Router02 public immutable uniswapV2Router;\r\n    address public immutable uniswapV2Pair;\r\n    address public immutable _WETH;\r\n\r\n    bool inSwapAndLiquify;\r\n    bool public swapAndLiquifyEnabled = true;\r\n    bool private _paused = false;\r\n\r\n    event MinTokensBeforeSwapUpdated(uint256 minTokensBeforeSwap);\r\n    event SwapAndLiquifyEnabledUpdated(bool enabled);\r\n    event SwapAndLiquify(\r\n        uint256 tokensSwapped,\r\n        uint256 ethReceived,\r\n        uint256 tokensIntoLiqudity\r\n    );\r\n\r\n    event Paused(address account);\r\n    event Unpaused(address account);\r\n\r\n    modifier lockTheSwap {\r\n        inSwapAndLiquify = true;\r\n        _;\r\n        inSwapAndLiquify = false;\r\n    }\r\n\r\n    modifier whenNotPaused {\r\n        require(!_paused, \"ERC20: paused\");\r\n        _;\r\n    }\r\n\r\n    constructor(address _router, address _wallet) Ownable() {\r\n        bornAtTime = block.timestamp;\r\n\r\n        IUniswapV2Router02 _uniswapV2Router = IUniswapV2Router02(_router);\r\n        // Create a uniswap pair for this new token\r\n        address _uniswapV2Pair = IUniswapV2Factory(_uniswapV2Router.factory())\r\n        .createPair(address(this), _uniswapV2Router.WETH());\r\n\r\n        // set the rest of the contract variables\r\n        uniswapV2Router = _uniswapV2Router;\r\n        _WETH = _uniswapV2Router.WETH();\r\n        uniswapV2Pair = _uniswapV2Pair;\r\n        // transfer ownership to contract\r\n        excludedFromFee[address(this)] = true;\r\n        excludedFromFee[_msgSender()] = true;\r\n        excludedFromFee[address(_uniswapV2Router)] = true;\r\n        excludedFromFee[_uniswapV2Pair] = true;\r\n\r\n        supportWallet = _wallet;\r\n\r\n        _balances[_msgSender()] = _totalSupply;\r\n        emit Transfer(address(0), _msgSender(), _totalSupply);\r\n    }\r\n\r\n    //to recieve ETH from uniswapV2Router when swaping\r\n    receive() external payable {}\r\n\r\n    function burn(address _sender, uint256 _toBeBurned) private {\r\n        uint256 newSupply = _totalSupply - _toBeBurned;\r\n        if (newSupply < minimalSupply) {\r\n            newSupply = minimalSupply;\r\n        }\r\n        uint256 reallyBurned = _totalSupply - newSupply;\r\n        if (reallyBurned <= 0) {\r\n            return;\r\n        }\r\n        _totalSupply = newSupply;\r\n        totalBurned += reallyBurned;\r\n        emit Transfer(_sender, address(0), reallyBurned);\r\n    }\r\n\r\n    function takeSupport(address _sender, uint256 _toBeTaken) private {\r\n        _balances[supportWallet] += _toBeTaken;\r\n        totalSupported += _toBeTaken;\r\n        emit Transfer(_sender, supportWallet, _toBeTaken);\r\n    }\r\n\r\n    function setSwapAndLiquifyEnabled(bool _enabled) public onlyOwner {\r\n        swapAndLiquifyEnabled = _enabled;\r\n        emit SwapAndLiquifyEnabledUpdated(_enabled);\r\n    }\r\n\r\n    function includeToFee(address _address) public onlyOwner {\r\n        require(excludedFromFee[_address], \"Panda: already included\");\r\n        excludedFromFee[_address] = false;\r\n    }\r\n\r\n    function excludeFromFee(address _address) public onlyOwner {\r\n        require(!excludedFromFee[_address], \"Panda: already excluded\");\r\n        excludedFromFee[_address] = true;\r\n    }\r\n\r\n    function pause() public onlyOwner {\r\n        _paused = true;\r\n        emit Paused(msg.sender);\r\n    }\r\n\r\n    function unpause() public onlyOwner {\r\n        _paused = false;\r\n        emit Unpaused(msg.sender);\r\n    }\r\n\r\n    function name() public view returns (string memory) {\r\n        return _name;\r\n    }\r\n\r\n    function symbol() public view returns (string memory) {\r\n        return _symbol;\r\n    }\r\n\r\n    function decimals() public pure returns (uint8) {\r\n        return _decimals;\r\n    }\r\n\r\n    function totalSupply() public view override returns (uint256) {\r\n        return _totalSupply;\r\n    }\r\n\r\n    function balanceOf(address _account)\r\n        public\r\n        view\r\n        override\r\n        returns (uint256)\r\n    {\r\n        return _balances[_account];\r\n    }\r\n\r\n    function transfer(address _recipient, uint256 _amount)\r\n        public\r\n        override\r\n        returns (bool)\r\n    {\r\n        _transfer(_msgSender(), _recipient, _amount);\r\n        return true;\r\n    }\r\n\r\n    function allowance(address _owner, address _spender)\r\n        public\r\n        view\r\n        override\r\n        returns (uint256)\r\n    {\r\n        return _allowances[_owner][_spender];\r\n    }\r\n\r\n    function approve(address _spender, uint256 _amount)\r\n        public\r\n        override\r\n        returns (bool)\r\n    {\r\n        _approve(_msgSender(), _spender, _amount);\r\n        return true;\r\n    }\r\n\r\n    function transferFrom(\r\n        address _sender,\r\n        address _recipient,\r\n        uint256 _amount\r\n    ) public override returns (bool) {\r\n        _transfer(_sender, _recipient, _amount);\r\n\r\n        uint256 currentAllowance = _allowances[_sender][_msgSender()];\r\n        require(\r\n            currentAllowance >= _amount,\r\n            \"ERC20: transfer amount exceeds allowance\"\r\n        );\r\n        _approve(_sender, _msgSender(), currentAllowance - _amount);\r\n\r\n        return true;\r\n    }\r\n\r\n    function increaseAllowance(address spender, uint256 addedValue)\r\n        public\r\n        returns (bool)\r\n    {\r\n        _approve(\r\n            _msgSender(),\r\n            spender,\r\n            _allowances[_msgSender()][spender] + addedValue\r\n        );\r\n        return true;\r\n    }\r\n\r\n    function decreaseAllowance(address _spender, uint256 subtractedValue)\r\n        public\r\n        returns (bool)\r\n    {\r\n        uint256 currentAllowance = _allowances[_msgSender()][_spender];\r\n        require(\r\n            currentAllowance >= subtractedValue,\r\n            \"ERC20: decreased allowance below zero\"\r\n        );\r\n        _approve(_msgSender(), _spender, currentAllowance - subtractedValue);\r\n\r\n        return true;\r\n    }\r\n\r\n    function swapAndLiquify(uint256 contractTokenBalance) private lockTheSwap {\r\n        // split the contract balance into halves\r\n        uint256 half = contractTokenBalance / 2;\r\n        uint256 otherHalf = contractTokenBalance - half;\r\n\r\n        // capture the contract's current ETH balance.\r\n        // this is so that we can capture exactly the amount of ETH that the\r\n        // swap creates, and not make the liquidity event include any ETH that\r\n        // has been manually sent to the contract\r\n        uint256 initialBalance = address(this).balance;\r\n\r\n        // swap tokens for ETH\r\n        swapTokensForEth(half); // <- this breaks the ETH -> HATE swap when swap+liquify is triggered\r\n\r\n        // how much ETH did we just swap into?\r\n        uint256 newBalance = address(this).balance - initialBalance;\r\n\r\n        // add liquidity to uniswap\r\n        addLiquidity(otherHalf, newBalance);\r\n\r\n        emit SwapAndLiquify(half, newBalance, otherHalf);\r\n    }\r\n\r\n    function makePairPath() private view returns (address[] memory) {\r\n        address[] memory path = new address[](2);\r\n        path[0] = address(this);\r\n        path[1] = uniswapV2Router.WETH();\r\n        return path;\r\n    }\r\n\r\n    function swapTokensForEth(uint256 tokenAmount) private {\r\n        address[] memory path = makePairPath();\r\n\r\n        _approve(address(this), address(uniswapV2Router), tokenAmount);\r\n        uniswapV2Router.swapExactTokensForETHSupportingFeeOnTransferTokens(\r\n            tokenAmount,\r\n            0, // accept any amount of ETH\r\n            path,\r\n            address(this),\r\n            block.timestamp\r\n        );\r\n    }\r\n\r\n    function addLiquidity(uint256 tokenAmount, uint256 ethAmount) private {\r\n        // approve token transfer to cover all possible scenarios\r\n        _approve(address(this), address(uniswapV2Router), tokenAmount);\r\n\r\n        // add the liquidity\r\n        uniswapV2Router.addLiquidityETH{value: ethAmount}(\r\n            address(this),\r\n            tokenAmount,\r\n            0, // slippage is unavoidable\r\n            0, // slippage is unavoidable\r\n            owner(),\r\n            block.timestamp\r\n        );\r\n    }\r\n\r\n    // if _sender is a pair (excludedFromFee), then _recipient sells tokens, extra charge _recipient but not a sender\r\n    function _transfer(\r\n        address _sender,\r\n        address _recipient,\r\n        uint256 _amount\r\n    ) internal whenNotPaused {\r\n        require(_sender != address(0), \"ERC20: transfer from the zero address\");\r\n        require(\r\n            _recipient != address(0),\r\n            \"ERC20: transfer to the zero address\"\r\n        );\r\n        require(_amount > 0, \"ERC20: amount must be greater than zero\");\r\n        uint256 senderBalance = _balances[_sender];\r\n        require(\r\n            senderBalance >= _amount,\r\n            \"ERC20: transfer amount exceeds balance\"\r\n        );\r\n        if (_sender != owner() && _recipient != owner()) {\r\n            require(\r\n                _amount <= maxTxAmount,\r\n                \"ERC20: transfer amount exceeds maximum\"\r\n            );\r\n        }\r\n\r\n        uint256 contractTokenBalance = balanceOf(address(this));\r\n        if (contractTokenBalance >= maxTxAmount) {\r\n            // should we ?\r\n            contractTokenBalance = maxTxAmount;\r\n        }\r\n\r\n        bool overMinTokenBalance = contractTokenBalance >=\r\n            numTokensSellToAddLiquidity;\r\n        if (\r\n            overMinTokenBalance &&\r\n            !inSwapAndLiquify &&\r\n            _sender != uniswapV2Pair &&\r\n            swapAndLiquifyEnabled\r\n        ) {\r\n            contractTokenBalance = numTokensSellToAddLiquidity;\r\n            swapAndLiquify(contractTokenBalance);\r\n        }\r\n        bool takeFee = true;\r\n        if (excludedFromFee[_sender] && excludedFromFee[_recipient]) {\r\n            takeFee = false;\r\n        }\r\n        if (!takeFee) disableFee();\r\n        _transferWithFee(_sender, _recipient, _amount);\r\n        if (!takeFee) enableFee();\r\n    }\r\n\r\n    function getValues(uint256 _amount)\r\n        private\r\n        view\r\n        returns (\r\n            uint256,\r\n            uint256,\r\n            uint256,\r\n            uint256\r\n        )\r\n    {\r\n        uint256 amountToBurn = (_amount / feeGranularity) * burnFee;\r\n        uint256 amountToSupport = (_amount / feeGranularity) * supportFee;\r\n\r\n        uint256 amountToAddLiquidity = (_amount / feeGranularity) *\r\n            liquidityFee;\r\n        uint256 amountToReceive = _amount -\r\n            amountToBurn -\r\n            amountToSupport -\r\n            amountToAddLiquidity;\r\n        return (\r\n            amountToBurn,\r\n            amountToSupport,\r\n            amountToAddLiquidity,\r\n            amountToReceive\r\n        );\r\n    }\r\n\r\n    // _transferWithFee charges sender and recepient. Any tokens movement are charged to motivate holders hold tokens\r\n    function _transferWithFee(\r\n        address _sender,\r\n        address _recipient,\r\n        uint256 _amount\r\n    ) private {\r\n        (\r\n            uint256 amountToBurn,\r\n            uint256 amountToSupport,\r\n            uint256 amountToAddLiquidity,\r\n            uint256 amountToReceive\r\n        ) = getValues(_amount);\r\n        burn(_sender, amountToBurn);\r\n        takeSupport(_sender, amountToSupport);\r\n\r\n        _balances[address(this)] += amountToAddLiquidity;\r\n        _balances[_sender] -= _amount;\r\n        _balances[_recipient] += amountToReceive;\r\n        emit Transfer(_sender, _recipient, amountToReceive);\r\n    }\r\n\r\n    function _approve(\r\n        address _owner,\r\n        address _spender,\r\n        uint256 _amount\r\n    ) internal virtual {\r\n        require(_owner != address(0), \"ERC20: approve from the zero address\");\r\n        require(_spender != address(0), \"ERC20: approve to the zero address\");\r\n\r\n        _allowances[_owner][_spender] = _amount;\r\n        emit Approval(_owner, _spender, _amount);\r\n    }\r\n\r\n    function disableFee() private {\r\n        burnFeeOrigin = burnFee;\r\n        liquidityFeeOrigin = liquidityFee;\r\n        supportFeeOrigin = supportFeeOrigin;\r\n        burnFee = 0;\r\n        liquidityFee = 0;\r\n        supportFee = 0;\r\n    }\r\n\r\n    function enableFee() private {\r\n        burnFee = burnFeeOrigin;\r\n        liquidityFee = liquidityFeeOrigin;\r\n        supportFee = supportFeeOrigin;\r\n    }\r\n}\r\n",
  "sourcePath": "C:/Users/skyne/Dev/work/crypto/hungrypanda/contracts/HungryPanda.sol",
  "compiler": {
    "name": "solc",
    "version": "0.8.6+commit.11564f7e.Emscripten.clang"
  },
  "schemaVersion": "3.4.1",
  "updatedAt": "2021-07-08T11:25:52.024Z",
  "devdoc": {
    "kind": "dev",
    "methods": {
      "owner()": {
        "details": "Returns the address of the current owner."
      },
      "renounceOwnership()": {
        "details": "Leaves the contract without owner. It will not be possible to call `onlyOwner` functions anymore. Can only be called by the current owner. NOTE: Renouncing ownership will leave the contract without an owner, thereby removing any functionality that is only available to the owner."
      },
      "totalSupply()": {
        "details": "Returns the amount of tokens in existence."
      },
      "transferOwnership(address)": {
        "details": "Transfers ownership of the contract to a new account (`newOwner`). Can only be called by the current owner."
      }
    },
    "version": 1
  },
  "userdoc": {
    "kind": "user",
    "methods": {},
    "notice": "1. Holders who are included into rewards also charged by constant fee. That fee is proportionally shared between holders 2. Rewards sent to holders immediatelly 3. Tokens are burn on each transaction until 60% are burn. 4. Liquidity pool on pancake must be locked using Unicrypt Locker",
    "version": 1
  }
}