{
  "contractName": "HungryPanda",
  "abi": [
    {
      "inputs": [
        {
          "internalType": "address",
          "name": "_router",
          "type": "address"
        },
        {
          "internalType": "address",
          "name": "_wallet",
          "type": "address"
        }
      ],
      "stateMutability": "nonpayable",
      "type": "constructor"
    },
    {
      "anonymous": false,
      "inputs": [
        {
          "indexed": true,
          "internalType": "address",
          "name": "owner",
          "type": "address"
        },
        {
          "indexed": true,
          "internalType": "address",
          "name": "spender",
          "type": "address"
        },
        {
          "indexed": false,
          "internalType": "uint256",
          "name": "value",
          "type": "uint256"
        }
      ],
      "name": "Approval",
      "type": "event"
    },
    {
      "anonymous": false,
      "inputs": [
        {
          "indexed": false,
          "internalType": "uint256",
          "name": "minTokensBeforeSwap",
          "type": "uint256"
        }
      ],
      "name": "MinTokensBeforeSwapUpdated",
      "type": "event"
    },
    {
      "anonymous": false,
      "inputs": [
        {
          "indexed": true,
          "internalType": "address",
          "name": "previousOwner",
          "type": "address"
        },
        {
          "indexed": true,
          "internalType": "address",
          "name": "newOwner",
          "type": "address"
        }
      ],
      "name": "OwnershipTransferred",
      "type": "event"
    },
    {
      "anonymous": false,
      "inputs": [
        {
          "indexed": false,
          "internalType": "address",
          "name": "account",
          "type": "address"
        }
      ],
      "name": "Paused",
      "type": "event"
    },
    {
      "anonymous": false,
      "inputs": [
        {
          "indexed": false,
          "internalType": "uint256",
          "name": "tokensSwapped",
          "type": "uint256"
        },
        {
          "indexed": false,
          "internalType": "uint256",
          "name": "ethReceived",
          "type": "uint256"
        },
        {
          "indexed": false,
          "internalType": "uint256",
          "name": "tokensIntoLiqudity",
          "type": "uint256"
        }
      ],
      "name": "SwapAndLiquify",
      "type": "event"
    },
    {
      "anonymous": false,
      "inputs": [
        {
          "indexed": false,
          "internalType": "bool",
          "name": "enabled",
          "type": "bool"
        }
      ],
      "name": "SwapAndLiquifyEnabledUpdated",
      "type": "event"
    },
    {
      "anonymous": false,
      "inputs": [
        {
          "indexed": true,
          "internalType": "address",
          "name": "from",
          "type": "address"
        },
        {
          "indexed": true,
          "internalType": "address",
          "name": "to",
          "type": "address"
        },
        {
          "indexed": false,
          "internalType": "uint256",
          "name": "value",
          "type": "uint256"
        }
      ],
      "name": "Transfer",
      "type": "event"
    },
    {
      "anonymous": false,
      "inputs": [
        {
          "indexed": false,
          "internalType": "address",
          "name": "account",
          "type": "address"
        }
      ],
      "name": "Unpaused",
      "type": "event"
    },
    {
      "inputs": [],
      "name": "_WETH",
      "outputs": [
        {
          "internalType": "address",
          "name": "",
          "type": "address"
        }
      ],
      "stateMutability": "view",
      "type": "function"
    },
    {
      "inputs": [],
      "name": "bornAtTime",
      "outputs": [
        {
          "internalType": "uint256",
          "name": "",
          "type": "uint256"
        }
      ],
      "stateMutability": "view",
      "type": "function"
    },
    {
      "inputs": [],
      "name": "liquidityFee",
      "outputs": [
        {
          "internalType": "uint256",
          "name": "",
          "type": "uint256"
        }
      ],
      "stateMutability": "view",
      "type": "function"
    },
    {
      "inputs": [],
      "name": "liquidityFeeOrigin",
      "outputs": [
        {
          "internalType": "uint256",
          "name": "",
          "type": "uint256"
        }
      ],
      "stateMutability": "view",
      "type": "function"
    },
    {
      "inputs": [],
      "name": "maxTxAmountPercentage",
      "outputs": [
        {
          "internalType": "uint8",
          "name": "",
          "type": "uint8"
        }
      ],
      "stateMutability": "view",
      "type": "function"
    },
    {
      "inputs": [],
      "name": "minimalSupply",
      "outputs": [
        {
          "internalType": "uint256",
          "name": "",
          "type": "uint256"
        }
      ],
      "stateMutability": "view",
      "type": "function"
    },
    {
      "inputs": [],
      "name": "numTokensSellToAddLiquidityPercentage",
      "outputs": [
        {
          "internalType": "uint8",
          "name": "",
          "type": "uint8"
        }
      ],
      "stateMutability": "view",
      "type": "function"
    },
    {
      "inputs": [],
      "name": "owner",
      "outputs": [
        {
          "internalType": "address",
          "name": "",
          "type": "address"
        }
      ],
      "stateMutability": "view",
      "type": "function"
    },
    {
      "inputs": [],
      "name": "percentageGranularity",
      "outputs": [
        {
          "internalType": "uint16",
          "name": "",
          "type": "uint16"
        }
      ],
      "stateMutability": "view",
      "type": "function"
    },
    {
      "inputs": [],
      "name": "renounceOwnership",
      "outputs": [],
      "stateMutability": "nonpayable",
      "type": "function"
    },
    {
      "inputs": [],
      "name": "rewardTotal",
      "outputs": [
        {
          "internalType": "uint256",
          "name": "",
          "type": "uint256"
        }
      ],
      "stateMutability": "view",
      "type": "function"
    },
    {
      "inputs": [],
      "name": "supportFee",
      "outputs": [
        {
          "internalType": "uint256",
          "name": "",
          "type": "uint256"
        }
      ],
      "stateMutability": "view",
      "type": "function"
    },
    {
      "inputs": [],
      "name": "supportFeeOrigin",
      "outputs": [
        {
          "internalType": "uint256",
          "name": "",
          "type": "uint256"
        }
      ],
      "stateMutability": "view",
      "type": "function"
    },
    {
      "inputs": [],
      "name": "supportWallet",
      "outputs": [
        {
          "internalType": "address",
          "name": "",
          "type": "address"
        }
      ],
      "stateMutability": "view",
      "type": "function"
    },
    {
      "inputs": [],
      "name": "swapAndLiquifyEnabled",
      "outputs": [
        {
          "internalType": "bool",
          "name": "",
          "type": "bool"
        }
      ],
      "stateMutability": "view",
      "type": "function"
    },
    {
      "inputs": [],
      "name": "taxFee",
      "outputs": [
        {
          "internalType": "uint256",
          "name": "",
          "type": "uint256"
        }
      ],
      "stateMutability": "view",
      "type": "function"
    },
    {
      "inputs": [],
      "name": "taxFeeOrigin",
      "outputs": [
        {
          "internalType": "uint256",
          "name": "",
          "type": "uint256"
        }
      ],
      "stateMutability": "view",
      "type": "function"
    },
    {
      "inputs": [],
      "name": "totalBurned",
      "outputs": [
        {
          "internalType": "uint256",
          "name": "",
          "type": "uint256"
        }
      ],
      "stateMutability": "view",
      "type": "function"
    },
    {
      "inputs": [],
      "name": "totalReward",
      "outputs": [
        {
          "internalType": "uint256",
          "name": "",
          "type": "uint256"
        }
      ],
      "stateMutability": "view",
      "type": "function"
    },
    {
      "inputs": [],
      "name": "totalSupported",
      "outputs": [
        {
          "internalType": "uint256",
          "name": "",
          "type": "uint256"
        }
      ],
      "stateMutability": "view",
      "type": "function"
    },
    {
      "inputs": [
        {
          "internalType": "address",
          "name": "newOwner",
          "type": "address"
        }
      ],
      "name": "transferOwnership",
      "outputs": [],
      "stateMutability": "nonpayable",
      "type": "function"
    },
    {
      "inputs": [],
      "name": "uniswapV2Pair",
      "outputs": [
        {
          "internalType": "address",
          "name": "",
          "type": "address"
        }
      ],
      "stateMutability": "view",
      "type": "function"
    },
    {
      "inputs": [],
      "name": "uniswapV2Router",
      "outputs": [
        {
          "internalType": "contract IUniswapV2Router02",
          "name": "",
          "type": "address"
        }
      ],
      "stateMutability": "view",
      "type": "function"
    },
    {
      "stateMutability": "payable",
      "type": "receive"
    },
    {
      "inputs": [],
      "name": "name",
      "outputs": [
        {
          "internalType": "string",
          "name": "",
          "type": "string"
        }
      ],
      "stateMutability": "view",
      "type": "function"
    },
    {
      "inputs": [],
      "name": "symbol",
      "outputs": [
        {
          "internalType": "string",
          "name": "",
          "type": "string"
        }
      ],
      "stateMutability": "view",
      "type": "function"
    },
    {
      "inputs": [],
      "name": "decimals",
      "outputs": [
        {
          "internalType": "uint8",
          "name": "",
          "type": "uint8"
        }
      ],
      "stateMutability": "pure",
      "type": "function"
    },
    {
      "inputs": [],
      "name": "totalSupply",
      "outputs": [
        {
          "internalType": "uint256",
          "name": "",
          "type": "uint256"
        }
      ],
      "stateMutability": "view",
      "type": "function"
    },
    {
      "inputs": [
        {
          "internalType": "address",
          "name": "_account",
          "type": "address"
        }
      ],
      "name": "balanceOf",
      "outputs": [
        {
          "internalType": "uint256",
          "name": "",
          "type": "uint256"
        }
      ],
      "stateMutability": "view",
      "type": "function"
    },
    {
      "inputs": [
        {
          "internalType": "address",
          "name": "_recipient",
          "type": "address"
        },
        {
          "internalType": "uint256",
          "name": "_amount",
          "type": "uint256"
        }
      ],
      "name": "transfer",
      "outputs": [
        {
          "internalType": "bool",
          "name": "",
          "type": "bool"
        }
      ],
      "stateMutability": "nonpayable",
      "type": "function"
    },
    {
      "inputs": [
        {
          "internalType": "address",
          "name": "_owner",
          "type": "address"
        },
        {
          "internalType": "address",
          "name": "_spender",
          "type": "address"
        }
      ],
      "name": "allowance",
      "outputs": [
        {
          "internalType": "uint256",
          "name": "",
          "type": "uint256"
        }
      ],
      "stateMutability": "view",
      "type": "function"
    },
    {
      "inputs": [
        {
          "internalType": "address",
          "name": "_spender",
          "type": "address"
        },
        {
          "internalType": "uint256",
          "name": "_amount",
          "type": "uint256"
        }
      ],
      "name": "approve",
      "outputs": [
        {
          "internalType": "bool",
          "name": "",
          "type": "bool"
        }
      ],
      "stateMutability": "nonpayable",
      "type": "function"
    },
    {
      "inputs": [
        {
          "internalType": "address",
          "name": "_sender",
          "type": "address"
        },
        {
          "internalType": "address",
          "name": "_recipient",
          "type": "address"
        },
        {
          "internalType": "uint256",
          "name": "_amount",
          "type": "uint256"
        }
      ],
      "name": "transferFrom",
      "outputs": [
        {
          "internalType": "bool",
          "name": "",
          "type": "bool"
        }
      ],
      "stateMutability": "nonpayable",
      "type": "function"
    },
    {
      "inputs": [
        {
          "internalType": "address",
          "name": "spender",
          "type": "address"
        },
        {
          "internalType": "uint256",
          "name": "addedValue",
          "type": "uint256"
        }
      ],
      "name": "increaseAllowance",
      "outputs": [
        {
          "internalType": "bool",
          "name": "",
          "type": "bool"
        }
      ],
      "stateMutability": "nonpayable",
      "type": "function"
    },
    {
      "inputs": [
        {
          "internalType": "address",
          "name": "_spender",
          "type": "address"
        },
        {
          "internalType": "uint256",
          "name": "subtractedValue",
          "type": "uint256"
        }
      ],
      "name": "decreaseAllowance",
      "outputs": [
        {
          "internalType": "bool",
          "name": "",
          "type": "bool"
        }
      ],
      "stateMutability": "nonpayable",
      "type": "function"
    },
    {
      "inputs": [
        {
          "internalType": "uint8",
          "name": "_percentage",
          "type": "uint8"
        }
      ],
      "name": "setMaxTxAmountPercent",
      "outputs": [],
      "stateMutability": "nonpayable",
      "type": "function"
    },
    {
      "inputs": [
        {
          "internalType": "uint8",
          "name": "_percentage",
          "type": "uint8"
        }
      ],
      "name": "setNumTokensSellToAddLiquidity",
      "outputs": [],
      "stateMutability": "nonpayable",
      "type": "function"
    },
    {
      "inputs": [
        {
          "internalType": "bool",
          "name": "_enabled",
          "type": "bool"
        }
      ],
      "name": "setSwapAndLiquifyEnabled",
      "outputs": [],
      "stateMutability": "nonpayable",
      "type": "function"
    },
    {
      "inputs": [
        {
          "internalType": "address",
          "name": "_address",
          "type": "address"
        }
      ],
      "name": "excludeFromFee",
      "outputs": [],
      "stateMutability": "nonpayable",
      "type": "function"
    },
    {
      "inputs": [
        {
          "internalType": "address",
          "name": "_address",
          "type": "address"
        }
      ],
      "name": "includeToFee",
      "outputs": [],
      "stateMutability": "nonpayable",
      "type": "function"
    },
    {
      "inputs": [],
      "name": "pause",
      "outputs": [],
      "stateMutability": "nonpayable",
      "type": "function"
    },
    {
      "inputs": [],
      "name": "unpause",
      "outputs": [],
      "stateMutability": "nonpayable",
      "type": "function"
    }
  ],
  "bytecode": "0x6101206040526012600a620000159190620009a5565b67016345785d8a00006200002a919062000ae2565b6005556040518060400160405280600b81526020017f48756e67727950616e6461000000000000000000000000000000000000000000815250600690805190602001906200007a9291906200079e565b506040518060400160405280600381526020017f484750000000000000000000000000000000000000000000000000000000000081525060079080519060200190620000c89291906200079e565b506064600860006101000a81548160ff021916908360ff1602179055506001600860016101000a81548160ff021916908360ff16021790555060c86009556101f4600a5560c8600b55600954600c55600a54600d55600b54600e556000600f55600060105560006011556001601260016101000a81548160ff0219169083151502179055506000601260026101000a81548160ff0219169083151502179055503480156200017557600080fd5b50604051620047dd380380620047dd83398181016040528101906200019b919062000897565b6000620001ad6200079660201b60201c565b9050806000806101000a81548173ffffffffffffffffffffffffffffffffffffffff021916908373ffffffffffffffffffffffffffffffffffffffff1602179055508073ffffffffffffffffffffffffffffffffffffffff16600073ffffffffffffffffffffffffffffffffffffffff167f8be0079c531659141344cd1fd0a4f28419497f9722a3daafe3b4186f6b6457e060405160405180910390a3504260a08181525050600082905060008173ffffffffffffffffffffffffffffffffffffffff1663c45a01556040518163ffffffff1660e01b815260040160206040518083038186803b158015620002a157600080fd5b505afa158015620002b6573d6000803e3d6000fd5b505050506040513d601f19601f82011682018060405250810190620002dc919062000865565b73ffffffffffffffffffffffffffffffffffffffff1663c9c65396308473ffffffffffffffffffffffffffffffffffffffff1663ad5c46486040518163ffffffff1660e01b815260040160206040518083038186803b1580156200033f57600080fd5b505afa15801562000354573d6000803e3d6000fd5b505050506040513d601f19601f820116820180604052508101906200037a919062000865565b6040518363ffffffff1660e01b81526004016200039992919062000900565b602060405180830381600087803b158015620003b457600080fd5b505af1158015620003c9573d6000803e3d6000fd5b505050506040513d601f19601f82011682018060405250810190620003ef919062000865565b90508173ffffffffffffffffffffffffffffffffffffffff1660c08173ffffffffffffffffffffffffffffffffffffffff1660601b815250508173ffffffffffffffffffffffffffffffffffffffff1663ad5c46486040518163ffffffff1660e01b815260040160206040518083038186803b1580156200046f57600080fd5b505afa15801562000484573d6000803e3d6000fd5b505050506040513d601f19601f82011682018060405250810190620004aa919062000865565b73ffffffffffffffffffffffffffffffffffffffff166101008173ffffffffffffffffffffffffffffffffffffffff1660601b815250508073ffffffffffffffffffffffffffffffffffffffff1660e08173ffffffffffffffffffffffffffffffffffffffff1660601b815250506001600460003073ffffffffffffffffffffffffffffffffffffffff1673ffffffffffffffffffffffffffffffffffffffff16815260200190815260200160002060006101000a81548160ff021916908315150217905550600160046000620005866200079660201b60201c565b73ffffffffffffffffffffffffffffffffffffffff1673ffffffffffffffffffffffffffffffffffffffff16815260200190815260200160002060006101000a81548160ff0219169083151502179055506001600460008473ffffffffffffffffffffffffffffffffffffffff1673ffffffffffffffffffffffffffffffffffffffff16815260200190815260200160002060006101000a81548160ff0219169083151502179055506001600460008373ffffffffffffffffffffffffffffffffffffffff1673ffffffffffffffffffffffffffffffffffffffff16815260200190815260200160002060006101000a81548160ff0219169083151502179055508273ffffffffffffffffffffffffffffffffffffffff1660808173ffffffffffffffffffffffffffffffffffffffff1660601b8152505060055460016000620006d56200079660201b60201c565b73ffffffffffffffffffffffffffffffffffffffff1673ffffffffffffffffffffffffffffffffffffffff16815260200190815260200160002081905550620007236200079660201b60201c565b73ffffffffffffffffffffffffffffffffffffffff16600073ffffffffffffffffffffffffffffffffffffffff167fddf252ad1be2c89b69c2b068fc378daa952ba7f163c4a11628f55a4df523b3ef6005546040516200078491906200092d565b60405180910390a35050505062000c4e565b600033905090565b828054620007ac9062000b8e565b90600052602060002090601f016020900481019282620007d057600085556200081c565b82601f10620007eb57805160ff19168380011785556200081c565b828001600101855582156200081c579182015b828111156200081b578251825591602001919060010190620007fe565b5b5090506200082b91906200082f565b5090565b5b808211156200084a57600081600090555060010162000830565b5090565b6000815190506200085f8162000c34565b92915050565b6000602082840312156200087e576200087d62000c22565b5b60006200088e848285016200084e565b91505092915050565b60008060408385031215620008b157620008b062000c22565b5b6000620008c1858286016200084e565b9250506020620008d4858286016200084e565b9150509250929050565b620008e98162000b43565b82525050565b620008fa8162000b77565b82525050565b6000604082019050620009176000830185620008de565b620009266020830184620008de565b9392505050565b6000602082019050620009446000830184620008ef565b92915050565b6000808291508390505b60018511156200099c5780860481111562000974576200097362000bc4565b5b6001851615620009845780820291505b8081029050620009948562000c27565b945062000954565b94509492505050565b6000620009b28262000b77565b9150620009bf8362000b81565b9250620009ee7fffffffffffffffffffffffffffffffffffffffffffffffffffffffffffffffff8484620009f6565b905092915050565b60008262000a08576001905062000adb565b8162000a18576000905062000adb565b816001811462000a31576002811462000a3c5762000a72565b600191505062000adb565b60ff84111562000a515762000a5062000bc4565b5b8360020a91508482111562000a6b5762000a6a62000bc4565b5b5062000adb565b5060208310610133831016604e8410600b841016171562000aac5782820a90508381111562000aa65762000aa562000bc4565b5b62000adb565b62000abb84848460016200094a565b9250905081840481111562000ad55762000ad462000bc4565b5b81810290505b9392505050565b600062000aef8262000b77565b915062000afc8362000b77565b9250817fffffffffffffffffffffffffffffffffffffffffffffffffffffffffffffffff048311821515161562000b385762000b3762000bc4565b5b828202905092915050565b600062000b508262000b57565b9050919050565b600073ffffffffffffffffffffffffffffffffffffffff82169050919050565b6000819050919050565b600060ff82169050919050565b6000600282049050600182168062000ba757607f821691505b6020821081141562000bbe5762000bbd62000bf3565b5b50919050565b7f4e487b7100000000000000000000000000000000000000000000000000000000600052601160045260246000fd5b7f4e487b7100000000000000000000000000000000000000000000000000000000600052602260045260246000fd5b600080fd5b60008160011c9050919050565b62000c3f8162000b43565b811462000c4b57600080fd5b50565b60805160601c60a05160c05160601c60e05160601c6101005160601c613b0662000cd760003960006117bb015260008181610e580152611e47015260008181610a340152818161243c01528181612463015281816124ff0152818161252601526127ff015260006111b20152600081816114ae0152818161264d01526126d70152613b066000f3fe60806040526004361061024a5760003560e01c80638d00026411610139578063b60eaaaa116100b6578063dcd5775b1161007a578063dcd5775b1461085d578063dd62ed3e14610888578063e0af3616146108c5578063f2fde38b146108f0578063f420a42014610919578063f959680b1461094457610251565b8063b60eaaaa1461078a578063c49b9a80146107b5578063ca302ffa146107de578063cf0848f714610809578063d89135cd1461083257610251565b8063a071dcf4116100fd578063a071dcf414610691578063a457c2d7146106bc578063a9059cbb146106f9578063b0dc2d1c14610736578063b3fb73691461075f57610251565b80638d000264146105ba5780638da5cb5b146105e557806395d89b411461061057806398118cb41461063b5780639e4928311461066657610251565b8063437823ec116101c757806364fdb4691161018b57806364fdb469146104fb57806370a0823114610524578063715018a614610561578063750142e6146105785780638456cb59146105a357610251565b8063437823ec1461042657806346678d591461044f57806349bd5a5e1461047a5780634a74bb02146104a557806354b7fd7c146104d057610251565b806323b872dd1161020e57806323b872dd1461033f578063313ce5671461037c57806339509351146103a75780633a4e0b97146103e45780633f4ba83a1461040f57610251565b806306fdde0314610256578063095ea7b3146102815780630adeb017146102be5780631694505e146102e957806318160ddd1461031457610251565b3661025157005b600080fd5b34801561026257600080fd5b5061026b61096f565b6040516102789190612ec6565b60405180910390f35b34801561028d57600080fd5b506102a860048036038101906102a39190612a46565b610a01565b6040516102b59190612e90565b60405180910390f35b3480156102ca57600080fd5b506102d3610a1f565b6040516102e0919061318f565b60405180910390f35b3480156102f557600080fd5b506102fe610a32565b60405161030b9190612eab565b60405180910390f35b34801561032057600080fd5b50610329610a56565b60405161033691906130e3565b60405180910390f35b34801561034b57600080fd5b50610366600480360381019061036191906129f3565b610a60565b6040516103739190612e90565b60405180910390f35b34801561038857600080fd5b50610391610b61565b60405161039e919061318f565b60405180910390f35b3480156103b357600080fd5b506103ce60048036038101906103c99190612a46565b610b6a565b6040516103db9190612e90565b60405180910390f35b3480156103f057600080fd5b506103f9610c16565b60405161040691906130e3565b60405180910390f35b34801561041b57600080fd5b50610424610c1c565b005b34801561043257600080fd5b5061044d60048036038101906104489190612959565b610cec565b005b34801561045b57600080fd5b50610464610e50565b60405161047191906130c8565b60405180910390f35b34801561048657600080fd5b5061048f610e56565b60405161049c9190612e14565b60405180910390f35b3480156104b157600080fd5b506104ba610e7a565b6040516104c79190612e90565b60405180910390f35b3480156104dc57600080fd5b506104e5610e8d565b6040516104f291906130e3565b60405180910390f35b34801561050757600080fd5b50610522600480360381019061051d9190612ab3565b610e93565b005b34801561053057600080fd5b5061054b60048036038101906105469190612959565b610f79565b60405161055891906130e3565b60405180910390f35b34801561056d57600080fd5b50610576610fa0565b005b34801561058457600080fd5b5061058d6110da565b60405161059a91906130e3565b60405180910390f35b3480156105af57600080fd5b506105b86110e0565b005b3480156105c657600080fd5b506105cf6111b0565b6040516105dc91906130e3565b60405180910390f35b3480156105f157600080fd5b506105fa6111d4565b6040516106079190612e14565b60405180910390f35b34801561061c57600080fd5b506106256111fd565b6040516106329190612ec6565b60405180910390f35b34801561064757600080fd5b5061065061128f565b60405161065d91906130e3565b60405180910390f35b34801561067257600080fd5b5061067b611295565b604051610688919061318f565b60405180910390f35b34801561069d57600080fd5b506106a66112a8565b6040516106b391906130e3565b60405180910390f35b3480156106c857600080fd5b506106e360048036038101906106de9190612a46565b6112ae565b6040516106f09190612e90565b60405180910390f35b34801561070557600080fd5b50610720600480360381019061071b9190612a46565b6113a2565b60405161072d9190612e90565b60405180910390f35b34801561074257600080fd5b5061075d60048036038101906107589190612ab3565b6113c0565b005b34801561076b57600080fd5b506107746114a6565b60405161078191906130e3565b60405180910390f35b34801561079657600080fd5b5061079f6114ac565b6040516107ac9190612e14565b60405180910390f35b3480156107c157600080fd5b506107dc60048036038101906107d79190612a86565b6114d0565b005b3480156107ea57600080fd5b506107f36115a0565b60405161080091906130e3565b60405180910390f35b34801561081557600080fd5b50610830600480360381019061082b9190612959565b6115a6565b005b34801561083e57600080fd5b50610847611709565b60405161085491906130e3565b60405180910390f35b34801561086957600080fd5b5061087261170f565b60405161087f91906130e3565b60405180910390f35b34801561089457600080fd5b506108af60048036038101906108aa91906129b3565b611732565b6040516108bc91906130e3565b60405180910390f35b3480156108d157600080fd5b506108da6117b9565b6040516108e79190612e14565b60405180910390f35b3480156108fc57600080fd5b5061091760048036038101906109129190612959565b6117dd565b005b34801561092557600080fd5b5061092e611986565b60405161093b91906130e3565b60405180910390f35b34801561095057600080fd5b5061095961198c565b60405161096691906130e3565b60405180910390f35b60606006805461097e90613551565b80601f01602080910402602001604051908101604052809291908181526020018280546109aa90613551565b80156109f75780601f106109cc576101008083540402835291602001916109f7565b820191906000526020600020905b8154815290600101906020018083116109da57829003601f168201915b5050505050905090565b6000610a15610a0e611992565b848461199a565b6001905092915050565b600860009054906101000a900460ff1681565b7f000000000000000000000000000000000000000000000000000000000000000081565b6000600554905090565b6000610a6d848484611b65565b6000600260008673ffffffffffffffffffffffffffffffffffffffff1673ffffffffffffffffffffffffffffffffffffffff1681526020019081526020016000206000610ab8611992565b73ffffffffffffffffffffffffffffffffffffffff1673ffffffffffffffffffffffffffffffffffffffff16815260200190815260200160002054905082811015610b38576040517f08c379a0000000000000000000000000000000000000000000000000000000008152600401610b2f90612fe8565b60405180910390fd5b610b5585610b44611992565b8584610b509190613451565b61199a565b60019150509392505050565b60006012905090565b6000610c0c610b77611992565b848460026000610b85611992565b73ffffffffffffffffffffffffffffffffffffffff1673ffffffffffffffffffffffffffffffffffffffff16815260200190815260200160002060008873ffffffffffffffffffffffffffffffffffffffff1673ffffffffffffffffffffffffffffffffffffffff16815260200190815260200160002054610c0791906131ff565b61199a565b6001905092915050565b600e5481565b610c24611992565b73ffffffffffffffffffffffffffffffffffffffff16610c426111d4565b73ffffffffffffffffffffffffffffffffffffffff1614610c98576040517f08c379a0000000000000000000000000000000000000000000000000000000008152600401610c8f90613008565b60405180910390fd5b6000601260026101000a81548160ff0219169083151502179055507f5db9ee0a495bf2e6ff9c91a7834c1ba4fdd244a5e8aa4e537bd38aeae4b073aa33604051610ce29190612e14565b60405180910390a1565b610cf4611992565b73ffffffffffffffffffffffffffffffffffffffff16610d126111d4565b73ffffffffffffffffffffffffffffffffffffffff1614610d68576040517f08c379a0000000000000000000000000000000000000000000000000000000008152600401610d5f90613008565b60405180910390fd5b600460008273ffffffffffffffffffffffffffffffffffffffff1673ffffffffffffffffffffffffffffffffffffffff16815260200190815260200160002060009054906101000a900460ff1615610df5576040517f08c379a0000000000000000000000000000000000000000000000000000000008152600401610dec90612fa8565b60405180910390fd5b6001600460008373ffffffffffffffffffffffffffffffffffffffff1673ffffffffffffffffffffffffffffffffffffffff16815260200190815260200160002060006101000a81548160ff02191690831515021790555050565b61271081565b7f000000000000000000000000000000000000000000000000000000000000000081565b601260019054906101000a900460ff1681565b600d5481565b610e9b611992565b73ffffffffffffffffffffffffffffffffffffffff16610eb96111d4565b73ffffffffffffffffffffffffffffffffffffffff1614610f0f576040517f08c379a0000000000000000000000000000000000000000000000000000000008152600401610f0690613008565b60405180910390fd5b61271061ffff168160ff161115610f5b576040517f08c379a0000000000000000000000000000000000000000000000000000000008152600401610f5290612f88565b60405180910390fd5b80600860016101000a81548160ff021916908360ff16021790555050565b6000806000610f8784611fa3565b915091508082610f9791906131ff565b92505050919050565b610fa8611992565b73ffffffffffffffffffffffffffffffffffffffff16610fc66111d4565b73ffffffffffffffffffffffffffffffffffffffff161461101c576040517f08c379a000000000000000000000000000000000000000000000000000000000815260040161101390613008565b60405180910390fd5b600073ffffffffffffffffffffffffffffffffffffffff1660008054906101000a900473ffffffffffffffffffffffffffffffffffffffff1673ffffffffffffffffffffffffffffffffffffffff167f8be0079c531659141344cd1fd0a4f28419497f9722a3daafe3b4186f6b6457e060405160405180910390a360008060006101000a81548173ffffffffffffffffffffffffffffffffffffffff021916908373ffffffffffffffffffffffffffffffffffffffff160217905550565b60035481565b6110e8611992565b73ffffffffffffffffffffffffffffffffffffffff166111066111d4565b73ffffffffffffffffffffffffffffffffffffffff161461115c576040517f08c379a000000000000000000000000000000000000000000000000000000000815260040161115390613008565b60405180910390fd5b6001601260026101000a81548160ff0219169083151502179055507f62e78cea01bee320cd4e420270b5ea74000d11b0c9f74754ebdbfc544b05a258336040516111a69190612e14565b60405180910390a1565b7f000000000000000000000000000000000000000000000000000000000000000081565b60008060009054906101000a900473ffffffffffffffffffffffffffffffffffffffff16905090565b60606007805461120c90613551565b80601f016020809104026020016040519081016040528092919081815260200182805461123890613551565b80156112855780601f1061125a57610100808354040283529160200191611285565b820191906000526020600020905b81548152906001019060200180831161126857829003601f168201915b5050505050905090565b600a5481565b600860019054906101000a900460ff1681565b60095481565b600080600260006112bd611992565b73ffffffffffffffffffffffffffffffffffffffff1673ffffffffffffffffffffffffffffffffffffffff16815260200190815260200160002060008573ffffffffffffffffffffffffffffffffffffffff1673ffffffffffffffffffffffffffffffffffffffff1681526020019081526020016000205490508281101561137a576040517f08c379a0000000000000000000000000000000000000000000000000000000008152600401611371906130a8565b60405180910390fd5b611397611385611992565b8585846113929190613451565b61199a565b600191505092915050565b60006113b66113af611992565b8484611b65565b6001905092915050565b6113c8611992565b73ffffffffffffffffffffffffffffffffffffffff166113e66111d4565b73ffffffffffffffffffffffffffffffffffffffff161461143c576040517f08c379a000000000000000000000000000000000000000000000000000000000815260040161143390613008565b60405180910390fd5b61271061ffff168160ff161115611488576040517f08c379a000000000000000000000000000000000000000000000000000000000815260040161147f90612f88565b60405180910390fd5b80600860006101000a81548160ff021916908360ff16021790555050565b600c5481565b7f000000000000000000000000000000000000000000000000000000000000000081565b6114d8611992565b73ffffffffffffffffffffffffffffffffffffffff166114f66111d4565b73ffffffffffffffffffffffffffffffffffffffff161461154c576040517f08c379a000000000000000000000000000000000000000000000000000000000815260040161154390613008565b60405180910390fd5b80601260016101000a81548160ff0219169083151502179055507f53726dfcaf90650aa7eb35524f4d3220f07413c8d6cb404cc8c18bf5591bc159816040516115959190612e90565b60405180910390a150565b600b5481565b6115ae611992565b73ffffffffffffffffffffffffffffffffffffffff166115cc6111d4565b73ffffffffffffffffffffffffffffffffffffffff1614611622576040517f08c379a000000000000000000000000000000000000000000000000000000000815260040161161990613008565b60405180910390fd5b600460008273ffffffffffffffffffffffffffffffffffffffff1673ffffffffffffffffffffffffffffffffffffffff16815260200190815260200160002060009054906101000a900460ff166116ae576040517f08c379a00000000000000000000000000000000000000000000000000000000081526004016116a590613048565b60405180910390fd5b6000600460008373ffffffffffffffffffffffffffffffffffffffff1673ffffffffffffffffffffffffffffffffffffffff16815260200190815260200160002060006101000a81548160ff02191690831515021790555050565b60115481565b6012600a61171d91906132d9565b668e1bc9bf04000061172f91906133f7565b81565b6000600260008473ffffffffffffffffffffffffffffffffffffffff1673ffffffffffffffffffffffffffffffffffffffff16815260200190815260200160002060008373ffffffffffffffffffffffffffffffffffffffff1673ffffffffffffffffffffffffffffffffffffffff16815260200190815260200160002054905092915050565b7f000000000000000000000000000000000000000000000000000000000000000081565b6117e5611992565b73ffffffffffffffffffffffffffffffffffffffff166118036111d4565b73ffffffffffffffffffffffffffffffffffffffff1614611859576040517f08c379a000000000000000000000000000000000000000000000000000000000815260040161185090613008565b60405180910390fd5b600073ffffffffffffffffffffffffffffffffffffffff168173ffffffffffffffffffffffffffffffffffffffff1614156118c9576040517f08c379a00000000000000000000000000000000000000000000000000000000081526004016118c090612f08565b60405180910390fd5b8073ffffffffffffffffffffffffffffffffffffffff1660008054906101000a900473ffffffffffffffffffffffffffffffffffffffff1673ffffffffffffffffffffffffffffffffffffffff167f8be0079c531659141344cd1fd0a4f28419497f9722a3daafe3b4186f6b6457e060405160405180910390a3806000806101000a81548173ffffffffffffffffffffffffffffffffffffffff021916908373ffffffffffffffffffffffffffffffffffffffff16021790555050565b60105481565b600f5481565b600033905090565b600073ffffffffffffffffffffffffffffffffffffffff168373ffffffffffffffffffffffffffffffffffffffff161415611a0a576040517f08c379a0000000000000000000000000000000000000000000000000000000008152600401611a0190613088565b60405180910390fd5b600073ffffffffffffffffffffffffffffffffffffffff168273ffffffffffffffffffffffffffffffffffffffff161415611a7a576040517f08c379a0000000000000000000000000000000000000000000000000000000008152600401611a7190612f28565b60405180910390fd5b80600260008573ffffffffffffffffffffffffffffffffffffffff1673ffffffffffffffffffffffffffffffffffffffff16815260200190815260200160002060008473ffffffffffffffffffffffffffffffffffffffff1673ffffffffffffffffffffffffffffffffffffffff168152602001908152602001600020819055508173ffffffffffffffffffffffffffffffffffffffff168373ffffffffffffffffffffffffffffffffffffffff167f8c5be1e5ebec7d5bd14f71427d1e84f3dd0314c0f7b2291e5b200ac8c7c3b92583604051611b5891906130e3565b60405180910390a3505050565b601260029054906101000a900460ff1615611bb5576040517f08c379a0000000000000000000000000000000000000000000000000000000008152600401611bac90612f68565b60405180910390fd5b600073ffffffffffffffffffffffffffffffffffffffff168373ffffffffffffffffffffffffffffffffffffffff161415611c25576040517f08c379a0000000000000000000000000000000000000000000000000000000008152600401611c1c90613068565b60405180910390fd5b600073ffffffffffffffffffffffffffffffffffffffff168273ffffffffffffffffffffffffffffffffffffffff161415611c95576040517f08c379a0000000000000000000000000000000000000000000000000000000008152600401611c8c90612ee8565b60405180910390fd5b60008111611cd8576040517f08c379a0000000000000000000000000000000000000000000000000000000008152600401611ccf90613028565b60405180910390fd5b6000611ce2612044565b9050611cec6111d4565b73ffffffffffffffffffffffffffffffffffffffff168473ffffffffffffffffffffffffffffffffffffffff1614158015611d5a5750611d2a6111d4565b73ffffffffffffffffffffffffffffffffffffffff168373ffffffffffffffffffffffffffffffffffffffff1614155b15611da35780821115611da2576040517f08c379a0000000000000000000000000000000000000000000000000000000008152600401611d9990612fc8565b60405180910390fd5b5b81611dad85610f79565b1015611dee576040517f08c379a0000000000000000000000000000000000000000000000000000000008152600401611de590612f48565b60405180910390fd5b611df8848361207c565b6000611e0330610f79565b9050818110611e10578190505b6000611e1a612102565b90506000818310159050808015611e3e5750601260009054906101000a900460ff16155b8015611e9657507f000000000000000000000000000000000000000000000000000000000000000073ffffffffffffffffffffffffffffffffffffffff168773ffffffffffffffffffffffffffffffffffffffff1614155b8015611eae5750601260019054906101000a900460ff165b15611ec057819250611ebf8361213a565b5b600060019050600460008973ffffffffffffffffffffffffffffffffffffffff1673ffffffffffffffffffffffffffffffffffffffff16815260200190815260200160002060009054906101000a900460ff168015611f685750600460008873ffffffffffffffffffffffffffffffffffffffff1673ffffffffffffffffffffffffffffffffffffffff16815260200190815260200160002060009054906101000a900460ff165b15611f7257600090505b80611f8057611f7f6121fb565b5b611f8b888888612230565b80611f9957611f986123a7565b5b5050505050505050565b6000806000600160008573ffffffffffffffffffffffffffffffffffffffff1673ffffffffffffffffffffffffffffffffffffffff168152602001908152602001600020549050600081141561200057600080925092505061203f565b6000816005546120109190613255565b905060008114156120295781600093509350505061203f565b81816003546120389190613255565b9350935050505b915091565b6000600860009054906101000a900460ff1660ff1661271061ffff1660055461206d9190613255565b61207791906133f7565b905090565b60008061208984846123c4565b9150915081600160008673ffffffffffffffffffffffffffffffffffffffff1673ffffffffffffffffffffffffffffffffffffffff16815260200190815260200160002060008282546120dc9190613451565b9250508190555080600f60008282546120f59190613451565b9250508190555050505050565b6000600860019054906101000a900460ff1660ff1661271061ffff1660055461212b9190613255565b61213591906133f7565b905090565b6001601260006101000a81548160ff02191690831515021790555060006002826121649190613255565b9050600081836121749190613451565b905060004790506121848361242a565b600081476121929190613451565b905061219e83826124f9565b7f17bbfb9a6069321b6ded73bd96327c9e6b7212a5cd51ff219cd61370acafb5618482856040516121d193929190613158565b60405180910390a1505050506000601260006101000a81548160ff02191690831515021790555050565b600954600c81905550600a54600d81905550600e54600e8190555060006009819055506000600a819055506000600b81905550565b600080600061223e846125c6565b9250925092506000818385876122549190613451565b61225e9190613451565b6122689190613451565b905080600160008873ffffffffffffffffffffffffffffffffffffffff1673ffffffffffffffffffffffffffffffffffffffff16815260200190815260200160002060008282546122b991906131ff565b9250508190555082600f60008282546122d291906131ff565b9250508190555081600160003073ffffffffffffffffffffffffffffffffffffffff1673ffffffffffffffffffffffffffffffffffffffff168152602001908152602001600020600082825461232891906131ff565b925050819055506123398785612646565b8573ffffffffffffffffffffffffffffffffffffffff168773ffffffffffffffffffffffffffffffffffffffff167fddf252ad1be2c89b69c2b068fc378daa952ba7f163c4a11628f55a4df523b3ef8360405161239691906130e3565b60405180910390a350505050505050565b600c54600981905550600d54600a81905550600e54600b81905550565b6000806000806123d386611fa3565b91509150600081836123e591906131ff565b9050600086826123f59190613255565b9050600081856124059190613255565b9050600082856124159190613255565b90508181975097505050505050509250929050565b600061243461275e565b9050612461307f00000000000000000000000000000000000000000000000000000000000000008461199a565b7f000000000000000000000000000000000000000000000000000000000000000073ffffffffffffffffffffffffffffffffffffffff1663791ac9478360008430426040518663ffffffff1660e01b81526004016124c39594939291906130fe565b600060405180830381600087803b1580156124dd57600080fd5b505af11580156124f1573d6000803e3d6000fd5b505050505050565b612524307f00000000000000000000000000000000000000000000000000000000000000008461199a565b7f000000000000000000000000000000000000000000000000000000000000000073ffffffffffffffffffffffffffffffffffffffff1663f305d71982308560008061256e6111d4565b426040518863ffffffff1660e01b815260040161259096959493929190612e2f565b6000604051808303818588803b1580156125a957600080fd5b505af11580156125bd573d6000803e3d6000fd5b50505050505050565b600080600080600b5461271061ffff16866125e19190613255565b6125eb91906133f7565b9050600060095461271061ffff16876126049190613255565b61260e91906133f7565b90506000600a5461271061ffff16886126279190613255565b61263191906133f7565b90508282829550955095505050509193909250565b80600160007f000000000000000000000000000000000000000000000000000000000000000073ffffffffffffffffffffffffffffffffffffffff1673ffffffffffffffffffffffffffffffffffffffff16815260200190815260200160002060008282546126b591906131ff565b9250508190555080601060008282546126ce91906131ff565b925050819055507f000000000000000000000000000000000000000000000000000000000000000073ffffffffffffffffffffffffffffffffffffffff168273ffffffffffffffffffffffffffffffffffffffff167fddf252ad1be2c89b69c2b068fc378daa952ba7f163c4a11628f55a4df523b3ef8360405161275291906130e3565b60405180910390a35050565b60606000600267ffffffffffffffff81111561277d5761277c61363f565b5b6040519080825280602002602001820160405280156127ab5781602001602082028036833780820191505090505b50905030816000815181106127c3576127c2613610565b5b602002602001019073ffffffffffffffffffffffffffffffffffffffff16908173ffffffffffffffffffffffffffffffffffffffff16815250507f000000000000000000000000000000000000000000000000000000000000000073ffffffffffffffffffffffffffffffffffffffff1663ad5c46486040518163ffffffff1660e01b815260040160206040518083038186803b15801561286357600080fd5b505afa158015612877573d6000803e3d6000fd5b505050506040513d601f19601f8201168201806040525081019061289b9190612986565b816001815181106128af576128ae613610565b5b602002602001019073ffffffffffffffffffffffffffffffffffffffff16908173ffffffffffffffffffffffffffffffffffffffff16815250508091505090565b6000813590506128ff81613a74565b92915050565b60008151905061291481613a74565b92915050565b60008135905061292981613a8b565b92915050565b60008135905061293e81613aa2565b92915050565b60008135905061295381613ab9565b92915050565b60006020828403121561296f5761296e61366e565b5b600061297d848285016128f0565b91505092915050565b60006020828403121561299c5761299b61366e565b5b60006129aa84828501612905565b91505092915050565b600080604083850312156129ca576129c961366e565b5b60006129d8858286016128f0565b92505060206129e9858286016128f0565b9150509250929050565b600080600060608486031215612a0c57612a0b61366e565b5b6000612a1a868287016128f0565b9350506020612a2b868287016128f0565b9250506040612a3c8682870161292f565b9150509250925092565b60008060408385031215612a5d57612a5c61366e565b5b6000612a6b858286016128f0565b9250506020612a7c8582860161292f565b9150509250929050565b600060208284031215612a9c57612a9b61366e565b5b6000612aaa8482850161291a565b91505092915050565b600060208284031215612ac957612ac861366e565b5b6000612ad784828501612944565b91505092915050565b6000612aec8383612af8565b60208301905092915050565b612b0181613485565b82525050565b612b1081613485565b82525050565b6000612b21826131ba565b612b2b81856131dd565b9350612b36836131aa565b8060005b83811015612b67578151612b4e8882612ae0565b9750612b59836131d0565b925050600181019050612b3a565b5085935050505092915050565b612b7d81613497565b82525050565b612b8c816134e8565b82525050565b612b9b8161350c565b82525050565b6000612bac826131c5565b612bb681856131ee565b9350612bc681856020860161351e565b612bcf81613673565b840191505092915050565b6000612be76023836131ee565b9150612bf282613691565b604082019050919050565b6000612c0a6026836131ee565b9150612c15826136e0565b604082019050919050565b6000612c2d6022836131ee565b9150612c388261372f565b604082019050919050565b6000612c506026836131ee565b9150612c5b8261377e565b604082019050919050565b6000612c73600d836131ee565b9150612c7e826137cd565b602082019050919050565b6000612c96601f836131ee565b9150612ca1826137f6565b602082019050919050565b6000612cb96017836131ee565b9150612cc48261381f565b602082019050919050565b6000612cdc6026836131ee565b9150612ce782613848565b604082019050919050565b6000612cff6028836131ee565b9150612d0a82613897565b604082019050919050565b6000612d226020836131ee565b9150612d2d826138e6565b602082019050919050565b6000612d456027836131ee565b9150612d508261390f565b604082019050919050565b6000612d686017836131ee565b9150612d738261395e565b602082019050919050565b6000612d8b6025836131ee565b9150612d9682613987565b604082019050919050565b6000612dae6024836131ee565b9150612db9826139d6565b604082019050919050565b6000612dd16025836131ee565b9150612ddc82613a25565b604082019050919050565b612df0816134a3565b82525050565b612dff816134d1565b82525050565b612e0e816134db565b82525050565b6000602082019050612e296000830184612b07565b92915050565b600060c082019050612e446000830189612b07565b612e516020830188612df6565b612e5e6040830187612b92565b612e6b6060830186612b92565b612e786080830185612b07565b612e8560a0830184612df6565b979650505050505050565b6000602082019050612ea56000830184612b74565b92915050565b6000602082019050612ec06000830184612b83565b92915050565b60006020820190508181036000830152612ee08184612ba1565b905092915050565b60006020820190508181036000830152612f0181612bda565b9050919050565b60006020820190508181036000830152612f2181612bfd565b9050919050565b60006020820190508181036000830152612f4181612c20565b9050919050565b60006020820190508181036000830152612f6181612c43565b9050919050565b60006020820190508181036000830152612f8181612c66565b9050919050565b60006020820190508181036000830152612fa181612c89565b9050919050565b60006020820190508181036000830152612fc181612cac565b9050919050565b60006020820190508181036000830152612fe181612ccf565b9050919050565b6000602082019050818103600083015261300181612cf2565b9050919050565b6000602082019050818103600083015261302181612d15565b9050919050565b6000602082019050818103600083015261304181612d38565b9050919050565b6000602082019050818103600083015261306181612d5b565b9050919050565b6000602082019050818103600083015261308181612d7e565b9050919050565b600060208201905081810360008301526130a181612da1565b9050919050565b600060208201905081810360008301526130c181612dc4565b9050919050565b60006020820190506130dd6000830184612de7565b92915050565b60006020820190506130f86000830184612df6565b92915050565b600060a0820190506131136000830188612df6565b6131206020830187612b92565b81810360408301526131328186612b16565b90506131416060830185612b07565b61314e6080830184612df6565b9695505050505050565b600060608201905061316d6000830186612df6565b61317a6020830185612df6565b6131876040830184612df6565b949350505050565b60006020820190506131a46000830184612e05565b92915050565b6000819050602082019050919050565b600081519050919050565b600081519050919050565b6000602082019050919050565b600082825260208201905092915050565b600082825260208201905092915050565b600061320a826134d1565b9150613215836134d1565b9250827fffffffffffffffffffffffffffffffffffffffffffffffffffffffffffffffff0382111561324a57613249613583565b5b828201905092915050565b6000613260826134d1565b915061326b836134d1565b92508261327b5761327a6135b2565b5b828204905092915050565b6000808291508390505b60018511156132d0578086048111156132ac576132ab613583565b5b60018516156132bb5780820291505b80810290506132c985613684565b9450613290565b94509492505050565b60006132e4826134d1565b91506132ef836134db565b925061331c7fffffffffffffffffffffffffffffffffffffffffffffffffffffffffffffffff8484613324565b905092915050565b60008261333457600190506133f0565b8161334257600090506133f0565b8160018114613358576002811461336257613391565b60019150506133f0565b60ff84111561337457613373613583565b5b8360020a91508482111561338b5761338a613583565b5b506133f0565b5060208310610133831016604e8410600b84101617156133c65782820a9050838111156133c1576133c0613583565b5b6133f0565b6133d38484846001613286565b925090508184048111156133ea576133e9613583565b5b81810290505b9392505050565b6000613402826134d1565b915061340d836134d1565b9250817fffffffffffffffffffffffffffffffffffffffffffffffffffffffffffffffff048311821515161561344657613445613583565b5b828202905092915050565b600061345c826134d1565b9150613467836134d1565b92508282101561347a57613479613583565b5b828203905092915050565b6000613490826134b1565b9050919050565b60008115159050919050565b600061ffff82169050919050565b600073ffffffffffffffffffffffffffffffffffffffff82169050919050565b6000819050919050565b600060ff82169050919050565b60006134f3826134fa565b9050919050565b6000613505826134b1565b9050919050565b6000613517826134d1565b9050919050565b60005b8381101561353c578082015181840152602081019050613521565b8381111561354b576000848401525b50505050565b6000600282049050600182168061356957607f821691505b6020821081141561357d5761357c6135e1565b5b50919050565b7f4e487b7100000000000000000000000000000000000000000000000000000000600052601160045260246000fd5b7f4e487b7100000000000000000000000000000000000000000000000000000000600052601260045260246000fd5b7f4e487b7100000000000000000000000000000000000000000000000000000000600052602260045260246000fd5b7f4e487b7100000000000000000000000000000000000000000000000000000000600052603260045260246000fd5b7f4e487b7100000000000000000000000000000000000000000000000000000000600052604160045260246000fd5b600080fd5b6000601f19601f8301169050919050565b60008160011c9050919050565b7f45524332303a207472616e7366657220746f20746865207a65726f206164647260008201527f6573730000000000000000000000000000000000000000000000000000000000602082015250565b7f4f776e61626c653a206e6577206f776e657220697320746865207a65726f206160008201527f6464726573730000000000000000000000000000000000000000000000000000602082015250565b7f45524332303a20617070726f766520746f20746865207a65726f20616464726560008201527f7373000000000000000000000000000000000000000000000000000000000000602082015250565b7f45524332303a207472616e7366657220616d6f756e742065786365656473206260008201527f616c616e63650000000000000000000000000000000000000000000000000000602082015250565b7f45524332303a2070617573656400000000000000000000000000000000000000600082015250565b7f50616e64613a2070657263656e746167652076616c756520746f206869676800600082015250565b7f50616e64613a20616c7265616479206578636c75646564000000000000000000600082015250565b7f45524332303a207472616e7366657220616d6f756e742065786365656473206d60008201527f6178696d756d0000000000000000000000000000000000000000000000000000602082015250565b7f45524332303a207472616e7366657220616d6f756e742065786365656473206160008201527f6c6c6f77616e6365000000000000000000000000000000000000000000000000602082015250565b7f4f776e61626c653a2063616c6c6572206973206e6f7420746865206f776e6572600082015250565b7f45524332303a20616d6f756e74206d757374206265206772656174657220746860008201527f616e207a65726f00000000000000000000000000000000000000000000000000602082015250565b7f50616e64613a20616c726561647920696e636c75646564000000000000000000600082015250565b7f45524332303a207472616e736665722066726f6d20746865207a65726f20616460008201527f6472657373000000000000000000000000000000000000000000000000000000602082015250565b7f45524332303a20617070726f76652066726f6d20746865207a65726f2061646460008201527f7265737300000000000000000000000000000000000000000000000000000000602082015250565b7f45524332303a2064656372656173656420616c6c6f77616e63652062656c6f7760008201527f207a65726f000000000000000000000000000000000000000000000000000000602082015250565b613a7d81613485565b8114613a8857600080fd5b50565b613a9481613497565b8114613a9f57600080fd5b50565b613aab816134d1565b8114613ab657600080fd5b50565b613ac2816134db565b8114613acd57600080fd5b5056fea2646970667358221220d3ad487d80a72a78f7f91157bdad24b5ccb54e7bd2fee8e37f58ec9173a35b4364736f6c63430008060033",
  "immutableReferences": {
    "390": [
      {
        "length": 32,
        "start": 5294
      },
      {
        "length": 32,
        "start": 9805
      },
      {
        "length": 32,
        "start": 9943
      }
    ],
    "392": [
      {
        "length": 32,
        "start": 4530
      }
    ],
    "395": [
      {
        "length": 32,
        "start": 2612
      },
      {
        "length": 32,
        "start": 9276
      },
      {
        "length": 32,
        "start": 9315
      },
      {
        "length": 32,
        "start": 9471
      },
      {
        "length": 32,
        "start": 9510
      },
      {
        "length": 32,
        "start": 10239
      }
    ],
    "397": [
      {
        "length": 32,
        "start": 3672
      },
      {
        "length": 32,
        "start": 7751
      }
    ],
    "399": [
      {
        "length": 32,
        "start": 6075
      }
    ]
  },
  "source": "// SPDX-License-Identifier: MIT\r\n\r\npragma solidity >=0.8.6 <0.9.0;\r\n\r\nimport \"./interfaces/IERC20.sol\";\r\nimport \"./security/Ownable.sol\";\r\n\r\nimport \"./interfaces/IUniswapV2Router02.sol\";\r\nimport \"./interfaces/IUniswapV2Factory.sol\";\r\n\r\n/*\r\n@@@@@@@@@@@@@@@@@@@@@@@@@@@@@@@@@@@@@@@@@@@@@@@@@@@@@@@@@@@@@@@@@@@@@@@@@@@@@@@@@@@@@@@@@@@@@@@@@@@@@@@@@@@@@@@@@@@@@@@@\r\n@@@@@@@@@@@@@@@@@@@@@@@@@@@@@@@@@@@@@@@@@@@@@@@@@@@@%,.............,&@@@@@@@@@@@@@@@@@@@@@@@@@@@@@@@@@@@@@@@@@@@@@@@@@@@\r\n@@@@@@@@@@@@@@@@@@@@@@@@@@@@@@@@@@@@@@@@@@@@@@@(...(@@@@@@@@@@@@@@@@@*...%@@@@@@@@@@@@@@@@@@@@@@@@@@@@@@@@@@@@@@@@@@@@@@\r\n@@@@@@@@@@@@@@@@@@@@@@@@@@@@@@@@@@@@@@@@@@@@...&@@@@@@@@@@@@@@@@@@@@@@@@@%..*@@@@@@@@@@@@@@@@@@@@@@@@@@@@@@@@@@@@@@@@@@@\r\n@@@@@@@@@@@@@@@@@@@@@@@@@@@@@@@@@@@@@@@@@&..@@#....&@@@@@@&##%@@@@@@@&....&@#..@@@@@@@@@@@@@@@@@@@@@@@@@@@@@@@@@@@@@@@@@\r\n@@@@@@@@@@@@@@@@@@@@@@@@@@@@@@@@@@@@@@@@..@@............#@@@@@@@(,........../@&..@@@@@@@@@@@@@@@@@@@@@@@@@@@@@@@@@@@@@@@\r\n@@@@@@@@@@@@@@@@@@@@@@@@@@@@@@@@@@@@@@/./@@........%@@@@@@@@@@@@@@@@@@.......#@@,.%@@@@@@@@@@@@@@@@@@@@@@@@@@@@@@@@@@@@@\r\n@@@@@@@@@@@@@@@@@@@@@@@@@@@@@@@@@@@@@*.%@@@.....(@@@@@@@@@@@@@@@@@@@@@@@@.....@@@/.#@@@@@@@@@@@@@@@@@@@@@@@@@@@@@@@@@@@@\r\n@@@@@@@@@@@@@@@@@@@@@@@@@@@@@@@@@@@@&.*@@@@*../@@@@@@@@@@@@@@@@@@@@@@@@@@@%..&@@@@,.@@@@@@@@@@@@@@@@@@@@@@@@@@@@@@@@@@@@\r\n@@@@@@@@@@@@@@@@@@@@@@@@@@@@@@@@@@@@..@@@@@..@@@@@.......*@@@@@.......*@@@@@..@@@@@..@@@@@@@@@@@@@@@@@@@@@@@@@@@@@@@@@@@\r\n@@@@@@@@@@@@@@@@@@@@@@@@@@@@@@@@@@@@..@@@@/.%@@@#....@@*.@@@@@@@.%@@....@@@@%.(@@@@..@@@@@@@@@@@@@@@@@@@@@@@@@@@@@@@@@@@\r\n@@@@@@@@@@@@@@@@@@@@@@@@@@@@@@@@@@@@..@@@@..@@@@........@@@@@@@@#........@@@@..@@@@..@@@@@@@@@@@@@@@@@@@@@@@@@@@@@@@@@@@\r\n@@@@@@@@@@@@@@@@@@@@@@@@@@@@@@@@@@@@,.@@@@..@@@@@,..,..@@@@...@@@@.....(@@@@@..@@@&./@@@@@@@@@@@@@@@@@@@@@@@@@@@@@@@@@@@\r\n@@@@@@@@@@@@@@@@@@@@@@@@@@@@@@@@@@@@@.,@@@@..@@@@@@@@@@@@@@@@@@@@@@@@@@@@@@@..@@@@..@@@@@@@@@@@@@@@@@@@@@@@@@@@@@@@@@@@@\r\n@@@@@@@@@@@@@@@@@@@@@@@@@@@@@@@@@@@@@%.*@@.....,@@@@@@@@@@@@@@@@@@@@@@@@@#,...*@@,.&@@@@@@@@@@@@@@@@@@@@@@@@@@@@@@@@@@@@\r\n@@@@@@@@@@@@@@@@@@@@@@@@@@@@@@@@@@@@@@%...............*%&@@@@@@@@&#,..............@@@@@@@@@@@@@@@@@@@@@@@@@@@@@@@@@@@@@@\r\n@@@@@@@@@@@@@@@@@@@@@@@@@@@@@@@@@@@@@@@@..........(@@@@@@@@@&&@@@@@@@@*..........@@@@@@@@@@@@@@@@@@@@@@@@@@@@@@@@@@@@@@@\r\n@@@@@@@@@@@@@@@@@@@@@@@@@@@@@@@@@@@@@@@@@@............,*@#######%*.............@@@@@@@@@@@@@@@@@@@@@@@@@@@@@@@@@@@@@@@@@\r\n@@@@@@@@@@@@@@@@@@@@@@@@@@@@@@@@@@@@@@@@@@@@%............,(#%%#,............%@@@@@@@@@@@@@@@@@@@@@@@@@@@@@@@@@@@@@@@@@@@\r\n@@@@@@@@@@@@@@@@@@@@@@@@@@@@@@@@@@@@@@@@@@@@@@@@.,......../////........,,@@@@@@@@@@@@@@@@@@@@@@@@@@@@@@@@@@@@@@@@@@@@@@@\r\n@@@@@@@@@@@@@@@@@@@@@@@@@@@@@@@@@@@@@@@@@@@@@@@@@@@&......))(((......@@@@@@@@@@@@@@@@@@@@@@@@@@@@@@@@@@@@@@@@@@@@@@@@@@@\r\n@@@@@@@@@@@@@@@@@@@@@@@@@@@@@@@@@@@@@@@@@@@@@@@@@@@@@@&*%@@@@@@@%*&@@@@@@@@@@@@@@@@@@@@@@@@@@@@@@@@@@@@@@@@@@@@@@@@@@@@@\r\n@@@@@@@@@@@@@@@@@@@@@@@@@@@@@@@@@@@@@@@@@@@@@@@@@@@@@@@@@@@@@@@@@@@@@@@@@@@@@@@@@@@@@@@@@@@@@@@@@@@@@@@@@@@@@@@@@@@@@@@@\r\n@@@@@@@@@@@@@@@@@@@@@@@@@@@@@@@@@@@@@@@@@@@@@@@@@@@@@@@@@@@@@@@@@@@@@@@@@@@@@@@@@@@@@@@@@@@@@@@@@@@@@@@@@@@@@@@@@@@@@@@@\r\n@@@@@@@@@@@@@@@@@@@@@@@@@@@@@@@@@@@@@@@@@@@@@@@@@@@@@@@@@@@@@@@@@@@@@@@@@@@@@@@@@@@@@@@@@@@@@@@@@@@@@@@@@@@@@@@@@@@@@@@@\r\n@@@@@@@@@@@@@@@@@@@@@@@@@@@@@@@@@@@@@@@@@@@@@@@@@@@@@@@@@@@@@@@@@@@@@&@@@@@@@@@@@@@@@@@@@@@@@@@@@@@@@@@@@@@@@@@@@@@@@@@@\r\n@@@@@@@@@@@@@@@@@@@@@@@@@@@..@@@@@%..@@*./@@@@@..@@&...@@@@%..@@@..,@@@*,@@@@..@@%..@@&..@@#..@@@@@@@@@@@@@@@@@@@@@@@@@@\r\n@@@@@@@@@@@@@@@@@@@@@@@@@@@..........@@*./@@@@@..@@&..(.,@@%..@&..@@@,....#@@.......@@@@,...#@@@@@@@@@@@@@@@@@@@@@@@@@@@\r\n@@@@@@@@@@@@@@@@@@@@@@@@@@@..@@@@@%..@@*./@@@@@..@@&..@@%..(..@@..@@@@@@,.#@@..@*..@@@@@@..%@@@@@@@@@@@@@@@@@@@@@@@@@@@@\r\n@@@@@@@@@@@@@@@@@@@@@@@@@@@..@@@@@%..@@@...*(...@@@&..@@@@&...@@@...,(*..,@@@..@@@/..@@@@..%@@@@@@@@@@@@@@@@@@@@@@@@@@@@\r\n@@@@@@@@@@@@@@@@@@@@@@@@@@@@@@@@@@@@@@@@@@@@@@@@@@@@@@@@@@@@@@@@@@@@@@@@@@@@@@@@@@@@@@@@@@@@@@@@@@@@@@@@@@@@@@@@@@@@@@@@\r\n@@@@@@@@@@@@@@@@@@@@@@@@@@@@@@@@@@@@@@@@@@@@@@@@@@@@@@@@@@@@@@@@@@@@@@@@@@@@@@@@@@@@@@@@@@@@@@@@@@@@@@@@@@@@@@@@@@@@@@@@\r\n@@@@@@@@@@@@@@@@@@@@@@@@@@@@@@@@@@..**,...@@@(../@@@@@...@@@@@..@@@..*,....@@@@@@...@@@@@@@@@@@@@@@@@@@@@@@@@@@@@@@@@@@@\r\n@@@@@@@@@@@@@@@@@@@@@@@@@@@@@@@@@@..@@@@.,@@/.,,.*@@@@..(.,@@@..@@@..@@@@@..&@@@,.%..@@@@@@@@@@@@@@@@@@@@@@@@@@@@@@@@@@@\r\n@@@@@@@@@@@@@@@@@@@@@@@@@@@@@@@@@@..(((%@@@,.*&&,.,@@@..@@%..&..@@@..@@@@@..#@%..&&%..@@@@@@@@@@@@@@@@@@@@@@@@@@@@@@@@@@\r\n@@@@@@@@@@@@@@@@@@@@@@@@@@@@@@@@@@..@@@@@@,./@@@@(.,@@..@@@@@...@@@..@@%,..&@#..@@@@@..@@@@@@@@@@@@@@@@@@@@@@@@@@@@@@@@@\r\n@@@@@@@@@@@@@@@@@@@@@@@@@@@@@@@@@@@@@@@@@@@@@@@@@@@@@@@@@@@@@@@@@@@@@@@@@@@@@@@@@@@@@@@@@@@@@@@@@@@@@@@@@@@@@@@@@@@@@@@@\r\n */\r\n\r\ncontract HungryPanda is Ownable, IERC20 {\r\n    mapping(address => uint256) private _balances;\r\n    mapping(address => mapping(address => uint256)) private _allowances;\r\n    uint256 public totalReward;\r\n    mapping(address => bool) private excludedFromFee;\r\n\r\n    uint8 private constant _decimals = 18;\r\n    uint256 private constant DECIMALFACTOR = 10**_decimals;\r\n    uint256 private _totalSupply = 10**17 * DECIMALFACTOR;\r\n\r\n    string private _name = \"HungryPanda\";\r\n    string private _symbol = \"HGP\";\r\n\r\n    uint256 public constant minimalSupply = 4 * 10**16 * DECIMALFACTOR; // 60% can be burnt 40 000 000 000 000 000\r\n    uint16 public constant percentageGranularity = 10000;\r\n    uint8 public maxTxAmountPercentage = 100; // 1%\r\n    uint8 public numTokensSellToAddLiquidityPercentage = 1; // 0,01%\r\n\r\n    uint256 public taxFee = 200; // 2%\r\n    uint256 public liquidityFee = 500; // 5%\r\n    uint256 public supportFee = 200; // 2%\r\n\r\n    uint256 public taxFeeOrigin = taxFee;\r\n    uint256 public liquidityFeeOrigin = liquidityFee;\r\n    uint256 public supportFeeOrigin = supportFee;\r\n\r\n    uint256 public rewardTotal = 0;\r\n    uint256 public totalSupported = 0;\r\n    uint256 public totalBurned = 0;\r\n\r\n    address public immutable supportWallet;\r\n\r\n    uint256 public immutable bornAtTime;\r\n\r\n    IUniswapV2Router02 public immutable uniswapV2Router;\r\n    address public immutable uniswapV2Pair;\r\n    address public immutable _WETH;\r\n\r\n    bool locker;\r\n    bool public swapAndLiquifyEnabled = true;\r\n    bool private _paused = false;\r\n\r\n    event MinTokensBeforeSwapUpdated(uint256 minTokensBeforeSwap);\r\n    event SwapAndLiquifyEnabledUpdated(bool enabled);\r\n    event SwapAndLiquify(\r\n        uint256 tokensSwapped,\r\n        uint256 ethReceived,\r\n        uint256 tokensIntoLiqudity\r\n    );\r\n\r\n    event Paused(address account);\r\n    event Unpaused(address account);\r\n\r\n    modifier lockMutex {\r\n        locker = true;\r\n        _;\r\n        locker = false;\r\n    }\r\n\r\n    modifier whenNotPaused {\r\n        require(!_paused, \"ERC20: paused\");\r\n        _;\r\n    }\r\n\r\n    constructor(address _router, address _wallet) Ownable() {\r\n        bornAtTime = block.timestamp;\r\n\r\n        IUniswapV2Router02 _uniswapV2Router = IUniswapV2Router02(_router);\r\n        // Create a uniswap pair for this new token\r\n        address _uniswapV2Pair = IUniswapV2Factory(_uniswapV2Router.factory())\r\n        .createPair(address(this), _uniswapV2Router.WETH());\r\n\r\n        // set the rest of the contract variables\r\n        uniswapV2Router = _uniswapV2Router;\r\n        _WETH = _uniswapV2Router.WETH();\r\n        uniswapV2Pair = _uniswapV2Pair;\r\n        // transfer ownership to contract\r\n        excludedFromFee[address(this)] = true;\r\n        excludedFromFee[_msgSender()] = true;\r\n        excludedFromFee[address(_uniswapV2Router)] = true;\r\n        excludedFromFee[_uniswapV2Pair] = true;\r\n\r\n        supportWallet = _wallet;\r\n\r\n        _balances[_msgSender()] = _totalSupply;\r\n        emit Transfer(address(0), _msgSender(), _totalSupply);\r\n    }\r\n\r\n    //to recieve ETH from uniswapV2Router when swaping\r\n    receive() external payable {}\r\n\r\n    function name() public view returns (string memory) {\r\n        return _name;\r\n    }\r\n\r\n    function symbol() public view returns (string memory) {\r\n        return _symbol;\r\n    }\r\n\r\n    function decimals() public pure returns (uint8) {\r\n        return _decimals;\r\n    }\r\n\r\n    function totalSupply() public view override returns (uint256) {\r\n        return _totalSupply;\r\n    }\r\n\r\n    function balanceOf(address _account)\r\n        public\r\n        view\r\n        override\r\n        returns (uint256)\r\n    {\r\n        (uint256 constBalance, uint256 rewardBalance) = _getBalances(_account);\r\n        return (constBalance + rewardBalance);\r\n    }\r\n\r\n    function transfer(address _recipient, uint256 _amount)\r\n        public\r\n        override\r\n        returns (bool)\r\n    {\r\n        _transfer(_msgSender(), _recipient, _amount);\r\n        return true;\r\n    }\r\n\r\n    function allowance(address _owner, address _spender)\r\n        public\r\n        view\r\n        override\r\n        returns (uint256)\r\n    {\r\n        return _allowances[_owner][_spender];\r\n    }\r\n\r\n    function approve(address _spender, uint256 _amount)\r\n        public\r\n        override\r\n        returns (bool)\r\n    {\r\n        _approve(_msgSender(), _spender, _amount);\r\n        return true;\r\n    }\r\n\r\n    function transferFrom(\r\n        address _sender,\r\n        address _recipient,\r\n        uint256 _amount\r\n    ) public override returns (bool) {\r\n        _transfer(_sender, _recipient, _amount);\r\n\r\n        uint256 currentAllowance = _allowances[_sender][_msgSender()];\r\n        require(\r\n            currentAllowance >= _amount,\r\n            \"ERC20: transfer amount exceeds allowance\"\r\n        );\r\n        _approve(_sender, _msgSender(), currentAllowance - _amount);\r\n\r\n        return true;\r\n    }\r\n\r\n    function increaseAllowance(address spender, uint256 addedValue)\r\n        public\r\n        returns (bool)\r\n    {\r\n        _approve(\r\n            _msgSender(),\r\n            spender,\r\n            _allowances[_msgSender()][spender] + addedValue\r\n        );\r\n        return true;\r\n    }\r\n\r\n    function decreaseAllowance(address _spender, uint256 subtractedValue)\r\n        public\r\n        returns (bool)\r\n    {\r\n        uint256 currentAllowance = _allowances[_msgSender()][_spender];\r\n        require(\r\n            currentAllowance >= subtractedValue,\r\n            \"ERC20: decreased allowance below zero\"\r\n        );\r\n        _approve(_msgSender(), _spender, currentAllowance - subtractedValue);\r\n\r\n        return true;\r\n    }\r\n\r\n    // Public interface ...\r\n    function setMaxTxAmountPercent(uint8 _percentage) public onlyOwner {\r\n        require(\r\n            _percentage <= percentageGranularity,\r\n            \"Panda: percentage value to high\"\r\n        );\r\n        maxTxAmountPercentage = _percentage;\r\n    }\r\n\r\n    function setNumTokensSellToAddLiquidity(uint8 _percentage)\r\n        public\r\n        onlyOwner\r\n    {\r\n        require(\r\n            _percentage <= percentageGranularity,\r\n            \"Panda: percentage value to high\"\r\n        );\r\n        numTokensSellToAddLiquidityPercentage = _percentage;\r\n    }\r\n\r\n    function setSwapAndLiquifyEnabled(bool _enabled) public onlyOwner {\r\n        swapAndLiquifyEnabled = _enabled;\r\n        emit SwapAndLiquifyEnabledUpdated(_enabled);\r\n    }\r\n\r\n    function excludeFromFee(address _address) public onlyOwner {\r\n        require(!excludedFromFee[_address], \"Panda: already excluded\");\r\n        excludedFromFee[_address] = true;\r\n    }\r\n\r\n    function includeToFee(address _address) public onlyOwner {\r\n        require(excludedFromFee[_address], \"Panda: already included\");\r\n        excludedFromFee[_address] = false;\r\n    }\r\n\r\n    function pause() public onlyOwner {\r\n        _paused = true;\r\n        emit Paused(msg.sender);\r\n    }\r\n\r\n    function unpause() public onlyOwner {\r\n        _paused = false;\r\n        emit Unpaused(msg.sender);\r\n    }\r\n\r\n    // Private interface ...\r\n    function _swapAndLiquify(uint256 contractTokenBalance) private lockMutex {\r\n        // split the contract balance into halves\r\n        uint256 half = contractTokenBalance / 2;\r\n        uint256 otherHalf = contractTokenBalance - half;\r\n\r\n        // capture the contract's current ETH balance.\r\n        // this is so that we can capture exactly the amount of ETH that the\r\n        // swap creates, and not make the liquidity event include any ETH that\r\n        // has been manually sent to the contract\r\n        uint256 initialBalance = address(this).balance;\r\n\r\n        // swap tokens for ETH\r\n        _swapTokensForEth(half); // <- this breaks the ETH -> HATE swap when swap+liquify is triggered\r\n\r\n        // how much ETH did we just swap into?\r\n        uint256 newBalance = address(this).balance - initialBalance;\r\n\r\n        // add liquidity to uniswap\r\n        _addLiquidity(otherHalf, newBalance);\r\n\r\n        emit SwapAndLiquify(half, newBalance, otherHalf);\r\n    }\r\n\r\n    function _makePairPath() private view returns (address[] memory) {\r\n        address[] memory path = new address[](2);\r\n        path[0] = address(this);\r\n        path[1] = uniswapV2Router.WETH();\r\n        return path;\r\n    }\r\n\r\n    function _swapTokensForEth(uint256 tokenAmount) private {\r\n        address[] memory path = _makePairPath();\r\n\r\n        _approve(address(this), address(uniswapV2Router), tokenAmount);\r\n        uniswapV2Router.swapExactTokensForETHSupportingFeeOnTransferTokens(\r\n            tokenAmount,\r\n            0, // accept any amount of ETH\r\n            path,\r\n            address(this),\r\n            block.timestamp\r\n        );\r\n    }\r\n\r\n    function _addLiquidity(uint256 tokenAmount, uint256 ethAmount) private {\r\n        // approve token transfer to cover all possible scenarios\r\n        _approve(address(this), address(uniswapV2Router), tokenAmount);\r\n\r\n        // add the liquidity\r\n        uniswapV2Router.addLiquidityETH{value: ethAmount}(\r\n            address(this),\r\n            tokenAmount,\r\n            0, // slippage is unavoidable\r\n            0, // slippage is unavoidable\r\n            owner(),\r\n            block.timestamp\r\n        );\r\n    }\r\n\r\n    function _approve(\r\n        address _owner,\r\n        address _spender,\r\n        uint256 _amount\r\n    ) internal virtual {\r\n        require(_owner != address(0), \"ERC20: approve from the zero address\");\r\n        require(_spender != address(0), \"ERC20: approve to the zero address\");\r\n\r\n        _allowances[_owner][_spender] = _amount;\r\n        emit Approval(_owner, _spender, _amount);\r\n    }\r\n\r\n    function _getBalances(address _holder)\r\n        private\r\n        view\r\n        returns (uint256, uint256)\r\n    {\r\n        uint256 balance = _balances[_holder];\r\n        if (balance == 0) {\r\n            return (0, 0);\r\n        }\r\n        uint256 rate = _totalSupply / balance;\r\n        if (rate == 0) {\r\n            return (balance, 0);\r\n        }\r\n        return (balance, totalReward / rate);\r\n    }\r\n\r\n    function _transfer(\r\n        address _sender,\r\n        address _recipient,\r\n        uint256 _amount\r\n    ) internal whenNotPaused {\r\n        require(_sender != address(0), \"ERC20: transfer from the zero address\");\r\n        require(\r\n            _recipient != address(0),\r\n            \"ERC20: transfer to the zero address\"\r\n        );\r\n        require(_amount > 0, \"ERC20: amount must be greater than zero\");\r\n        uint256 maxTxAmount = _maxTxAmount();\r\n        if (_sender != owner() && _recipient != owner()) {\r\n            require(\r\n                _amount <= maxTxAmount,\r\n                \"ERC20: transfer amount exceeds maximum\"\r\n            );\r\n        }\r\n        require(\r\n            balanceOf(_sender) >= _amount,\r\n            \"ERC20: transfer amount exceeds balance\"\r\n        );\r\n        // substruct sender balance and total owned rewards\r\n        _reflectSender(_sender, _amount);\r\n\r\n        // add liquidity logic ...\r\n        uint256 contractTokenBalance = balanceOf(address(this));\r\n        if (contractTokenBalance >= maxTxAmount) {\r\n            // should we ?\r\n            contractTokenBalance = maxTxAmount;\r\n        }\r\n\r\n        uint256 numTokensSellToAddLiquidity = _numTokensSellToAddLiquidity();\r\n        bool overMinTokenBalance = contractTokenBalance >=\r\n            numTokensSellToAddLiquidity;\r\n        if (\r\n            overMinTokenBalance &&\r\n            !locker &&\r\n            _sender != uniswapV2Pair &&\r\n            swapAndLiquifyEnabled\r\n        ) {\r\n            contractTokenBalance = numTokensSellToAddLiquidity;\r\n            _swapAndLiquify(contractTokenBalance);\r\n        }\r\n\r\n        // transfer with fee logic ...\r\n        bool takeFee = true;\r\n        if (excludedFromFee[_sender] && excludedFromFee[_recipient]) {\r\n            takeFee = false;\r\n        }\r\n        if (!takeFee) _disableFee();\r\n        _transferWithFee(_sender, _recipient, _amount);\r\n        if (!takeFee) _enableFee();\r\n    }\r\n\r\n    function _transferWithFee(\r\n        address _sender,\r\n        address _recipient,\r\n        uint256 _amount\r\n    ) private {\r\n        // calculate fee ...\r\n        (\r\n            uint256 _supportFee,\r\n            uint256 _taxFee,\r\n            uint256 _liquidityFee\r\n        ) = _calculateFees(_amount);\r\n        uint256 _toTransferAmount = _amount -\r\n            _supportFee -\r\n            _taxFee -\r\n            _liquidityFee;\r\n\r\n        _balances[_recipient] += _toTransferAmount;\r\n        rewardTotal += _taxFee;\r\n        _balances[address(this)] += _liquidityFee;\r\n\r\n        _takeSupport(_sender, _supportFee);\r\n        emit Transfer(_sender, _recipient, _toTransferAmount);\r\n    }\r\n\r\n    function _reflectSender(address _sender, uint256 _amount) private {\r\n        // substract sender balance\r\n        (uint256 _rBalance, uint256 _rReward) = _getRValues(_sender, _amount);\r\n        _balances[_sender] -= _rBalance;\r\n        rewardTotal -= _rReward;\r\n    }\r\n\r\n    function _getRValues(address _sender, uint256 _amount)\r\n        private\r\n        view\r\n        returns (uint256, uint256)\r\n    {\r\n        (uint256 persistBalance, uint256 rewardBalance) = _getBalances(_sender);\r\n        uint256 total = persistBalance + rewardBalance;\r\n        // split amount into parts\r\n        uint256 rate = total / _amount;\r\n        uint256 substructBalance = persistBalance / rate;\r\n        uint256 substructReward = rewardBalance / rate;\r\n        return (substructBalance, substructReward);\r\n    }\r\n\r\n    function _calculateFees(uint256 _amount)\r\n        private\r\n        view\r\n        returns (\r\n            uint256,\r\n            uint256,\r\n            uint256\r\n        )\r\n    {\r\n        uint256 amountToSupport = (_amount / percentageGranularity) *\r\n            supportFee;\r\n        uint256 amountToCharge = (_amount / percentageGranularity) * taxFee;\r\n        uint256 amountToAddLiquidity = (_amount / percentageGranularity) *\r\n            liquidityFee;\r\n        return (amountToSupport, amountToCharge, amountToAddLiquidity);\r\n    }\r\n\r\n    function _maxTxAmount() private view returns (uint256) {\r\n        return (_totalSupply / percentageGranularity) * maxTxAmountPercentage;\r\n    }\r\n\r\n    function _numTokensSellToAddLiquidity() private view returns (uint256) {\r\n        return\r\n            (_totalSupply / percentageGranularity) *\r\n            numTokensSellToAddLiquidityPercentage;\r\n    }\r\n\r\n    function _disableFee() private {\r\n        taxFeeOrigin = taxFee;\r\n        liquidityFeeOrigin = liquidityFee;\r\n        supportFeeOrigin = supportFeeOrigin;\r\n        taxFee = 0;\r\n        liquidityFee = 0;\r\n        supportFee = 0;\r\n    }\r\n\r\n    function _enableFee() private {\r\n        taxFee = taxFeeOrigin;\r\n        liquidityFee = liquidityFeeOrigin;\r\n        supportFee = supportFeeOrigin;\r\n    }\r\n\r\n    function _takeSupport(address _sender, uint256 _toBeTaken) private {\r\n        _balances[supportWallet] += _toBeTaken;\r\n        totalSupported += _toBeTaken;\r\n        emit Transfer(_sender, supportWallet, _toBeTaken);\r\n    }\r\n}\r\n",
  "sourcePath": "C:/Users/skyne/Dev/work/crypto/hungrypanda/contracts/HungryPanda.sol",
  "compiler": {
    "name": "solc",
    "version": "0.8.6+commit.11564f7e.Emscripten.clang"
  },
  "schemaVersion": "3.4.1",
  "updatedAt": "2021-07-10T08:47:22.452Z",
  "devdoc": {
    "kind": "dev",
    "methods": {
      "owner()": {
        "details": "Returns the address of the current owner."
      },
      "renounceOwnership()": {
        "details": "Leaves the contract without owner. It will not be possible to call `onlyOwner` functions anymore. Can only be called by the current owner. NOTE: Renouncing ownership will leave the contract without an owner, thereby removing any functionality that is only available to the owner."
      },
      "totalSupply()": {
        "details": "Returns the amount of tokens in existence."
      },
      "transferOwnership(address)": {
        "details": "Transfers ownership of the contract to a new account (`newOwner`). Can only be called by the current owner."
      }
    },
    "version": 1
  },
  "userdoc": {
    "kind": "user",
    "methods": {},
    "version": 1
  }
}