{
  "contractName": "HungryPanda",
  "abi": [
    {
      "inputs": [
        {
          "internalType": "address",
          "name": "_router",
          "type": "address"
        },
        {
          "internalType": "address",
          "name": "_wallet",
          "type": "address"
        },
        {
          "internalType": "address",
          "name": "_token",
          "type": "address"
        }
      ],
      "stateMutability": "nonpayable",
      "type": "constructor"
    },
    {
      "anonymous": false,
      "inputs": [
        {
          "indexed": true,
          "internalType": "address",
          "name": "owner",
          "type": "address"
        },
        {
          "indexed": true,
          "internalType": "address",
          "name": "spender",
          "type": "address"
        },
        {
          "indexed": false,
          "internalType": "uint256",
          "name": "value",
          "type": "uint256"
        }
      ],
      "name": "Approval",
      "type": "event"
    },
    {
      "anonymous": false,
      "inputs": [
        {
          "indexed": false,
          "internalType": "uint256",
          "name": "minTokensBeforeSwap",
          "type": "uint256"
        }
      ],
      "name": "MinTokensBeforeSwapUpdated",
      "type": "event"
    },
    {
      "anonymous": false,
      "inputs": [
        {
          "indexed": true,
          "internalType": "address",
          "name": "previousOwner",
          "type": "address"
        },
        {
          "indexed": true,
          "internalType": "address",
          "name": "newOwner",
          "type": "address"
        }
      ],
      "name": "OwnershipTransferred",
      "type": "event"
    },
    {
      "anonymous": false,
      "inputs": [
        {
          "indexed": false,
          "internalType": "address",
          "name": "account",
          "type": "address"
        }
      ],
      "name": "Paused",
      "type": "event"
    },
    {
      "anonymous": false,
      "inputs": [
        {
          "indexed": false,
          "internalType": "uint256",
          "name": "tokensSwapped",
          "type": "uint256"
        },
        {
          "indexed": false,
          "internalType": "uint256",
          "name": "ethReceived",
          "type": "uint256"
        },
        {
          "indexed": false,
          "internalType": "uint256",
          "name": "tokensIntoLiqudity",
          "type": "uint256"
        }
      ],
      "name": "SwapAndLiquify",
      "type": "event"
    },
    {
      "anonymous": false,
      "inputs": [
        {
          "indexed": false,
          "internalType": "bool",
          "name": "enabled",
          "type": "bool"
        }
      ],
      "name": "SwapAndLiquifyEnabledUpdated",
      "type": "event"
    },
    {
      "anonymous": false,
      "inputs": [
        {
          "indexed": true,
          "internalType": "address",
          "name": "from",
          "type": "address"
        },
        {
          "indexed": true,
          "internalType": "address",
          "name": "to",
          "type": "address"
        },
        {
          "indexed": false,
          "internalType": "uint256",
          "name": "value",
          "type": "uint256"
        }
      ],
      "name": "Transfer",
      "type": "event"
    },
    {
      "anonymous": false,
      "inputs": [
        {
          "indexed": false,
          "internalType": "address",
          "name": "account",
          "type": "address"
        }
      ],
      "name": "Unpaused",
      "type": "event"
    },
    {
      "inputs": [],
      "name": "_WETH",
      "outputs": [
        {
          "internalType": "address",
          "name": "",
          "type": "address"
        }
      ],
      "stateMutability": "view",
      "type": "function"
    },
    {
      "inputs": [],
      "name": "bornAtTime",
      "outputs": [
        {
          "internalType": "uint256",
          "name": "",
          "type": "uint256"
        }
      ],
      "stateMutability": "view",
      "type": "function"
    },
    {
      "inputs": [],
      "name": "burnFee",
      "outputs": [
        {
          "internalType": "uint256",
          "name": "",
          "type": "uint256"
        }
      ],
      "stateMutability": "view",
      "type": "function"
    },
    {
      "inputs": [],
      "name": "burnFeeOrigin",
      "outputs": [
        {
          "internalType": "uint256",
          "name": "",
          "type": "uint256"
        }
      ],
      "stateMutability": "view",
      "type": "function"
    },
    {
      "inputs": [],
      "name": "liquidityFee",
      "outputs": [
        {
          "internalType": "uint256",
          "name": "",
          "type": "uint256"
        }
      ],
      "stateMutability": "view",
      "type": "function"
    },
    {
      "inputs": [],
      "name": "liquidityFeeOrigin",
      "outputs": [
        {
          "internalType": "uint256",
          "name": "",
          "type": "uint256"
        }
      ],
      "stateMutability": "view",
      "type": "function"
    },
    {
      "inputs": [],
      "name": "maxTxAmountPercentage",
      "outputs": [
        {
          "internalType": "uint8",
          "name": "",
          "type": "uint8"
        }
      ],
      "stateMutability": "view",
      "type": "function"
    },
    {
      "inputs": [],
      "name": "minimalSupply",
      "outputs": [
        {
          "internalType": "uint256",
          "name": "",
          "type": "uint256"
        }
      ],
      "stateMutability": "view",
      "type": "function"
    },
    {
      "inputs": [],
      "name": "numTokensSellToAddLiquidityPercentage",
      "outputs": [
        {
          "internalType": "uint8",
          "name": "",
          "type": "uint8"
        }
      ],
      "stateMutability": "view",
      "type": "function"
    },
    {
      "inputs": [],
      "name": "owner",
      "outputs": [
        {
          "internalType": "address",
          "name": "",
          "type": "address"
        }
      ],
      "stateMutability": "view",
      "type": "function"
    },
    {
      "inputs": [],
      "name": "percentageGranularity",
      "outputs": [
        {
          "internalType": "uint16",
          "name": "",
          "type": "uint16"
        }
      ],
      "stateMutability": "view",
      "type": "function"
    },
    {
      "inputs": [],
      "name": "renounceOwnership",
      "outputs": [],
      "stateMutability": "nonpayable",
      "type": "function"
    },
    {
      "inputs": [],
      "name": "rewardTotal",
      "outputs": [
        {
          "internalType": "uint256",
          "name": "",
          "type": "uint256"
        }
      ],
      "stateMutability": "view",
      "type": "function"
    },
    {
      "inputs": [],
      "name": "supportFee",
      "outputs": [
        {
          "internalType": "uint256",
          "name": "",
          "type": "uint256"
        }
      ],
      "stateMutability": "view",
      "type": "function"
    },
    {
      "inputs": [],
      "name": "supportFeeOrigin",
      "outputs": [
        {
          "internalType": "uint256",
          "name": "",
          "type": "uint256"
        }
      ],
      "stateMutability": "view",
      "type": "function"
    },
    {
      "inputs": [],
      "name": "supportWallet",
      "outputs": [
        {
          "internalType": "address",
          "name": "",
          "type": "address"
        }
      ],
      "stateMutability": "view",
      "type": "function"
    },
    {
      "inputs": [],
      "name": "swapAndLiquifyEnabled",
      "outputs": [
        {
          "internalType": "bool",
          "name": "",
          "type": "bool"
        }
      ],
      "stateMutability": "view",
      "type": "function"
    },
    {
      "inputs": [],
      "name": "taxFee",
      "outputs": [
        {
          "internalType": "uint256",
          "name": "",
          "type": "uint256"
        }
      ],
      "stateMutability": "view",
      "type": "function"
    },
    {
      "inputs": [],
      "name": "taxFeeOrigin",
      "outputs": [
        {
          "internalType": "uint256",
          "name": "",
          "type": "uint256"
        }
      ],
      "stateMutability": "view",
      "type": "function"
    },
    {
      "inputs": [],
      "name": "totalBurned",
      "outputs": [
        {
          "internalType": "uint256",
          "name": "",
          "type": "uint256"
        }
      ],
      "stateMutability": "view",
      "type": "function"
    },
    {
      "inputs": [],
      "name": "totalReward",
      "outputs": [
        {
          "internalType": "uint256",
          "name": "",
          "type": "uint256"
        }
      ],
      "stateMutability": "view",
      "type": "function"
    },
    {
      "inputs": [],
      "name": "totalSupported",
      "outputs": [
        {
          "internalType": "uint256",
          "name": "",
          "type": "uint256"
        }
      ],
      "stateMutability": "view",
      "type": "function"
    },
    {
      "inputs": [
        {
          "internalType": "address",
          "name": "newOwner",
          "type": "address"
        }
      ],
      "name": "transferOwnership",
      "outputs": [],
      "stateMutability": "nonpayable",
      "type": "function"
    },
    {
      "inputs": [],
      "name": "uniswapV2Pair",
      "outputs": [
        {
          "internalType": "address",
          "name": "",
          "type": "address"
        }
      ],
      "stateMutability": "view",
      "type": "function"
    },
    {
      "inputs": [],
      "name": "uniswapV2Router",
      "outputs": [
        {
          "internalType": "contract IUniswapV2Router02",
          "name": "",
          "type": "address"
        }
      ],
      "stateMutability": "view",
      "type": "function"
    },
    {
      "stateMutability": "payable",
      "type": "receive"
    },
    {
      "inputs": [
        {
          "internalType": "uint256",
          "name": "_size",
          "type": "uint256"
        }
      ],
      "name": "migrateOldToken",
      "outputs": [
        {
          "internalType": "bool",
          "name": "",
          "type": "bool"
        }
      ],
      "stateMutability": "nonpayable",
      "type": "function"
    },
    {
      "inputs": [],
      "name": "name",
      "outputs": [
        {
          "internalType": "string",
          "name": "",
          "type": "string"
        }
      ],
      "stateMutability": "view",
      "type": "function"
    },
    {
      "inputs": [],
      "name": "symbol",
      "outputs": [
        {
          "internalType": "string",
          "name": "",
          "type": "string"
        }
      ],
      "stateMutability": "view",
      "type": "function"
    },
    {
      "inputs": [],
      "name": "decimals",
      "outputs": [
        {
          "internalType": "uint8",
          "name": "",
          "type": "uint8"
        }
      ],
      "stateMutability": "pure",
      "type": "function"
    },
    {
      "inputs": [],
      "name": "totalSupply",
      "outputs": [
        {
          "internalType": "uint256",
          "name": "",
          "type": "uint256"
        }
      ],
      "stateMutability": "view",
      "type": "function"
    },
    {
      "inputs": [
        {
          "internalType": "address",
          "name": "_account",
          "type": "address"
        }
      ],
      "name": "balanceOf",
      "outputs": [
        {
          "internalType": "uint256",
          "name": "",
          "type": "uint256"
        }
      ],
      "stateMutability": "view",
      "type": "function"
    },
    {
      "inputs": [
        {
          "internalType": "address",
          "name": "_recipient",
          "type": "address"
        },
        {
          "internalType": "uint256",
          "name": "_amount",
          "type": "uint256"
        }
      ],
      "name": "transfer",
      "outputs": [
        {
          "internalType": "bool",
          "name": "",
          "type": "bool"
        }
      ],
      "stateMutability": "nonpayable",
      "type": "function"
    },
    {
      "inputs": [
        {
          "internalType": "address",
          "name": "_owner",
          "type": "address"
        },
        {
          "internalType": "address",
          "name": "_spender",
          "type": "address"
        }
      ],
      "name": "allowance",
      "outputs": [
        {
          "internalType": "uint256",
          "name": "",
          "type": "uint256"
        }
      ],
      "stateMutability": "view",
      "type": "function"
    },
    {
      "inputs": [
        {
          "internalType": "address",
          "name": "_spender",
          "type": "address"
        },
        {
          "internalType": "uint256",
          "name": "_amount",
          "type": "uint256"
        }
      ],
      "name": "approve",
      "outputs": [
        {
          "internalType": "bool",
          "name": "",
          "type": "bool"
        }
      ],
      "stateMutability": "nonpayable",
      "type": "function"
    },
    {
      "inputs": [
        {
          "internalType": "address",
          "name": "_sender",
          "type": "address"
        },
        {
          "internalType": "address",
          "name": "_recipient",
          "type": "address"
        },
        {
          "internalType": "uint256",
          "name": "_amount",
          "type": "uint256"
        }
      ],
      "name": "transferFrom",
      "outputs": [
        {
          "internalType": "bool",
          "name": "",
          "type": "bool"
        }
      ],
      "stateMutability": "nonpayable",
      "type": "function"
    },
    {
      "inputs": [
        {
          "internalType": "address",
          "name": "spender",
          "type": "address"
        },
        {
          "internalType": "uint256",
          "name": "addedValue",
          "type": "uint256"
        }
      ],
      "name": "increaseAllowance",
      "outputs": [
        {
          "internalType": "bool",
          "name": "",
          "type": "bool"
        }
      ],
      "stateMutability": "nonpayable",
      "type": "function"
    },
    {
      "inputs": [
        {
          "internalType": "address",
          "name": "_spender",
          "type": "address"
        },
        {
          "internalType": "uint256",
          "name": "subtractedValue",
          "type": "uint256"
        }
      ],
      "name": "decreaseAllowance",
      "outputs": [
        {
          "internalType": "bool",
          "name": "",
          "type": "bool"
        }
      ],
      "stateMutability": "nonpayable",
      "type": "function"
    },
    {
      "inputs": [
        {
          "internalType": "uint8",
          "name": "_percentage",
          "type": "uint8"
        }
      ],
      "name": "setMaxTxAmountPercent",
      "outputs": [],
      "stateMutability": "nonpayable",
      "type": "function"
    },
    {
      "inputs": [
        {
          "internalType": "uint8",
          "name": "_percentage",
          "type": "uint8"
        }
      ],
      "name": "setNumTokensSellToAddLiquidity",
      "outputs": [],
      "stateMutability": "nonpayable",
      "type": "function"
    },
    {
      "inputs": [
        {
          "internalType": "bool",
          "name": "_enabled",
          "type": "bool"
        }
      ],
      "name": "setSwapAndLiquifyEnabled",
      "outputs": [],
      "stateMutability": "nonpayable",
      "type": "function"
    },
    {
      "inputs": [
        {
          "internalType": "address",
          "name": "_address",
          "type": "address"
        }
      ],
      "name": "excludeFromFee",
      "outputs": [],
      "stateMutability": "nonpayable",
      "type": "function"
    },
    {
      "inputs": [
        {
          "internalType": "address",
          "name": "_address",
          "type": "address"
        }
      ],
      "name": "includeToFee",
      "outputs": [],
      "stateMutability": "nonpayable",
      "type": "function"
    },
    {
      "inputs": [],
      "name": "pause",
      "outputs": [],
      "stateMutability": "nonpayable",
      "type": "function"
    },
    {
      "inputs": [],
      "name": "unpause",
      "outputs": [],
      "stateMutability": "nonpayable",
      "type": "function"
    }
  ],
  "bytecode": "0x6101406040526012600a62000015919062000b60565b67016345785d8a00006200002a919062000c9d565b6005556040518060400160405280600b81526020017f48756e67727950616e6461000000000000000000000000000000000000000000815250600690805190602001906200007a929190620008fb565b506040518060400160405280600381526020017f484750000000000000000000000000000000000000000000000000000000000081525060079080519060200190620000c8929190620008fb565b506012600a620000d9919062000b60565b668e1bc9bf040000620000ed919062000c9d565b6080908152506064600860006101000a81548160ff021916908360ff1602179055506001600860016101000a81548160ff021916908360ff16021790555060c86009556101f4600a5560c8600b556064600c55600c54600d55600954600e55600a54600f55600b546010556000601155600060125560006013556000601460006101000a81548160ff0219169083151502179055506000601460016101000a81548160ff0219169083151502179055506001601460026101000a81548160ff0219169083151502179055506000601460036101000a81548160ff0219169083151502179055506000601555348015620001e557600080fd5b5060405162004fb538038062004fb583398181016040528101906200020b919062000a0b565b60006200021d620008f360201b60201c565b9050806000806101000a81548173ffffffffffffffffffffffffffffffffffffffff021916908373ffffffffffffffffffffffffffffffffffffffff1602179055508073ffffffffffffffffffffffffffffffffffffffff16600073ffffffffffffffffffffffffffffffffffffffff167f8be0079c531659141344cd1fd0a4f28419497f9722a3daafe3b4186f6b6457e060405160405180910390a3504260c08181525050600083905060008173ffffffffffffffffffffffffffffffffffffffff1663c45a01556040518163ffffffff1660e01b815260040160206040518083038186803b1580156200031157600080fd5b505afa15801562000326573d6000803e3d6000fd5b505050506040513d601f19601f820116820180604052508101906200034c9190620009d9565b73ffffffffffffffffffffffffffffffffffffffff1663c9c65396308473ffffffffffffffffffffffffffffffffffffffff1663ad5c46486040518163ffffffff1660e01b815260040160206040518083038186803b158015620003af57600080fd5b505afa158015620003c4573d6000803e3d6000fd5b505050506040513d601f19601f82011682018060405250810190620003ea9190620009d9565b6040518363ffffffff1660e01b81526004016200040992919062000abb565b602060405180830381600087803b1580156200042457600080fd5b505af115801562000439573d6000803e3d6000fd5b505050506040513d601f19601f820116820180604052508101906200045f9190620009d9565b90508173ffffffffffffffffffffffffffffffffffffffff1660e08173ffffffffffffffffffffffffffffffffffffffff1660601b815250508173ffffffffffffffffffffffffffffffffffffffff1663ad5c46486040518163ffffffff1660e01b815260040160206040518083038186803b158015620004df57600080fd5b505afa158015620004f4573d6000803e3d6000fd5b505050506040513d601f19601f820116820180604052508101906200051a9190620009d9565b73ffffffffffffffffffffffffffffffffffffffff166101208173ffffffffffffffffffffffffffffffffffffffff1660601b815250508073ffffffffffffffffffffffffffffffffffffffff166101008173ffffffffffffffffffffffffffffffffffffffff1660601b815250506001600460003073ffffffffffffffffffffffffffffffffffffffff1673ffffffffffffffffffffffffffffffffffffffff16815260200190815260200160002060006101000a81548160ff021916908315150217905550600160046000620005f7620008f360201b60201c565b73ffffffffffffffffffffffffffffffffffffffff1673ffffffffffffffffffffffffffffffffffffffff16815260200190815260200160002060006101000a81548160ff0219169083151502179055506001600460008473ffffffffffffffffffffffffffffffffffffffff1673ffffffffffffffffffffffffffffffffffffffff16815260200190815260200160002060006101000a81548160ff0219169083151502179055506001600460008373ffffffffffffffffffffffffffffffffffffffff1673ffffffffffffffffffffffffffffffffffffffff16815260200190815260200160002060006101000a81548160ff0219169083151502179055508373ffffffffffffffffffffffffffffffffffffffff1660a08173ffffffffffffffffffffffffffffffffffffffff1660601b8152505082601660006101000a81548173ffffffffffffffffffffffffffffffffffffffff021916908373ffffffffffffffffffffffffffffffffffffffff160217905550601660009054906101000a900473ffffffffffffffffffffffffffffffffffffffff1673ffffffffffffffffffffffffffffffffffffffff166318160ddd6040518163ffffffff1660e01b815260040160206040518083038186803b158015620007d957600080fd5b505afa158015620007ee573d6000803e3d6000fd5b505050506040513d601f19601f8201168201806040525081019062000814919062000a67565b6005819055506005546001600062000831620008f360201b60201c565b73ffffffffffffffffffffffffffffffffffffffff1673ffffffffffffffffffffffffffffffffffffffff168152602001908152602001600020819055506200087f620008f360201b60201c565b73ffffffffffffffffffffffffffffffffffffffff16600073ffffffffffffffffffffffffffffffffffffffff167fddf252ad1be2c89b69c2b068fc378daa952ba7f163c4a11628f55a4df523b3ef600554604051620008e0919062000ae8565b60405180910390a3505050505062000e23565b600033905090565b828054620009099062000d49565b90600052602060002090601f0160209004810192826200092d576000855562000979565b82601f106200094857805160ff191683800117855562000979565b8280016001018555821562000979579182015b82811115620009785782518255916020019190600101906200095b565b5b5090506200098891906200098c565b5090565b5b80821115620009a75760008160009055506001016200098d565b5090565b600081519050620009bc8162000def565b92915050565b600081519050620009d38162000e09565b92915050565b600060208284031215620009f257620009f162000ddd565b5b600062000a0284828501620009ab565b91505092915050565b60008060006060848603121562000a275762000a2662000ddd565b5b600062000a3786828701620009ab565b935050602062000a4a86828701620009ab565b925050604062000a5d86828701620009ab565b9150509250925092565b60006020828403121562000a805762000a7f62000ddd565b5b600062000a9084828501620009c2565b91505092915050565b62000aa48162000cfe565b82525050565b62000ab58162000d32565b82525050565b600060408201905062000ad2600083018562000a99565b62000ae1602083018462000a99565b9392505050565b600060208201905062000aff600083018462000aaa565b92915050565b6000808291508390505b600185111562000b575780860481111562000b2f5762000b2e62000d7f565b5b600185161562000b3f5780820291505b808102905062000b4f8562000de2565b945062000b0f565b94509492505050565b600062000b6d8262000d32565b915062000b7a8362000d3c565b925062000ba97fffffffffffffffffffffffffffffffffffffffffffffffffffffffffffffffff848462000bb1565b905092915050565b60008262000bc3576001905062000c96565b8162000bd3576000905062000c96565b816001811462000bec576002811462000bf75762000c2d565b600191505062000c96565b60ff84111562000c0c5762000c0b62000d7f565b5b8360020a91508482111562000c265762000c2562000d7f565b5b5062000c96565b5060208310610133831016604e8410600b841016171562000c675782820a90508381111562000c615762000c6062000d7f565b5b62000c96565b62000c76848484600162000b05565b9250905081840481111562000c905762000c8f62000d7f565b5b81810290505b9392505050565b600062000caa8262000d32565b915062000cb78362000d32565b9250817fffffffffffffffffffffffffffffffffffffffffffffffffffffffffffffffff048311821515161562000cf35762000cf262000d7f565b5b828202905092915050565b600062000d0b8262000d12565b9050919050565b600073ffffffffffffffffffffffffffffffffffffffff82169050919050565b6000819050919050565b600060ff82169050919050565b6000600282049050600182168062000d6257607f821691505b6020821081141562000d795762000d7862000dae565b5b50919050565b7f4e487b7100000000000000000000000000000000000000000000000000000000600052601160045260246000fd5b7f4e487b7100000000000000000000000000000000000000000000000000000000600052602260045260246000fd5b600080fd5b60008160011c9050919050565b62000dfa8162000cfe565b811462000e0657600080fd5b50565b62000e148162000d32565b811462000e2057600080fd5b50565b60805160a05160601c60c05160e05160601c6101005160601c6101205160601c6140f062000ec5600039600061194e015260008181610f0c0152611fe6015260008181610ae80152818161294b0152818161297201528181612a0e01528181612a350152612e430152600061134401526000818161164001528181612c910152612d1b0152600081816118a301528181612b920152612bba01526140f06000f3fe60806040526004361061026b5760003560e01c80638da5cb5b11610144578063ca302ffa116100b6578063e0af36161161007a578063e0af361614610923578063ebd3e5231461094e578063f2fde38b14610979578063f420a420146109a2578063f959680b146109cd578063fce589d8146109f857610272565b8063ca302ffa1461083c578063cf0848f714610867578063d89135cd14610890578063dcd5775b146108bb578063dd62ed3e146108e657610272565b8063a457c2d711610108578063a457c2d71461071a578063a9059cbb14610757578063b0dc2d1c14610794578063b3fb7369146107bd578063b60eaaaa146107e8578063c49b9a801461081357610272565b80638da5cb5b1461064357806395d89b411461066e57806398118cb4146106995780639e492831146106c4578063a071dcf4146106ef57610272565b806346678d59116101dd57806364fdb469116101a157806364fdb4691461055957806370a0823114610582578063715018a6146105bf578063750142e6146105d65780638456cb59146106015780638d0002641461061857610272565b806346678d591461047057806349bd5a5e1461049b5780634a74bb02146104c657806354b7fd7c146104f1578063602def2c1461051c57610272565b806323b872dd1161022f57806323b872dd14610360578063313ce5671461039d57806339509351146103c85780633a4e0b97146104055780633f4ba83a14610430578063437823ec1461044757610272565b806306fdde0314610277578063095ea7b3146102a25780630adeb017146102df5780631694505e1461030a57806318160ddd1461033557610272565b3661027257005b600080fd5b34801561028357600080fd5b5061028c610a23565b604051610299919061359c565b60405180910390f35b3480156102ae57600080fd5b506102c960048036038101906102c4919061309f565b610ab5565b6040516102d69190613566565b60405180910390f35b3480156102eb57600080fd5b506102f4610ad3565b6040516103019190613885565b60405180910390f35b34801561031657600080fd5b5061031f610ae6565b60405161032c9190613581565b60405180910390f35b34801561034157600080fd5b5061034a610b0a565b60405161035791906137d9565b60405180910390f35b34801561036c57600080fd5b506103876004803603810190610382919061304c565b610b14565b6040516103949190613566565b60405180910390f35b3480156103a957600080fd5b506103b2610c15565b6040516103bf9190613885565b60405180910390f35b3480156103d457600080fd5b506103ef60048036038101906103ea919061309f565b610c1e565b6040516103fc9190613566565b60405180910390f35b34801561041157600080fd5b5061041a610cca565b60405161042791906137d9565b60405180910390f35b34801561043c57600080fd5b50610445610cd0565b005b34801561045357600080fd5b5061046e60048036038101906104699190612fb2565b610da0565b005b34801561047c57600080fd5b50610485610f04565b60405161049291906137be565b60405180910390f35b3480156104a757600080fd5b506104b0610f0a565b6040516104bd91906134ea565b60405180910390f35b3480156104d257600080fd5b506104db610f2e565b6040516104e89190613566565b60405180910390f35b3480156104fd57600080fd5b50610506610f41565b60405161051391906137d9565b60405180910390f35b34801561052857600080fd5b50610543600480360381019061053e919061310c565b610f47565b6040516105509190613566565b60405180910390f35b34801561056557600080fd5b50610580600480360381019061057b9190613166565b611025565b005b34801561058e57600080fd5b506105a960048036038101906105a49190612fb2565b61110b565b6040516105b691906137d9565b60405180910390f35b3480156105cb57600080fd5b506105d4611132565b005b3480156105e257600080fd5b506105eb61126c565b6040516105f891906137d9565b60405180910390f35b34801561060d57600080fd5b50610616611272565b005b34801561062457600080fd5b5061062d611342565b60405161063a91906137d9565b60405180910390f35b34801561064f57600080fd5b50610658611366565b60405161066591906134ea565b60405180910390f35b34801561067a57600080fd5b5061068361138f565b604051610690919061359c565b60405180910390f35b3480156106a557600080fd5b506106ae611421565b6040516106bb91906137d9565b60405180910390f35b3480156106d057600080fd5b506106d9611427565b6040516106e69190613885565b60405180910390f35b3480156106fb57600080fd5b5061070461143a565b60405161071191906137d9565b60405180910390f35b34801561072657600080fd5b50610741600480360381019061073c919061309f565b611440565b60405161074e9190613566565b60405180910390f35b34801561076357600080fd5b5061077e6004803603810190610779919061309f565b611534565b60405161078b9190613566565b60405180910390f35b3480156107a057600080fd5b506107bb60048036038101906107b69190613166565b611552565b005b3480156107c957600080fd5b506107d2611638565b6040516107df91906137d9565b60405180910390f35b3480156107f457600080fd5b506107fd61163e565b60405161080a91906134ea565b60405180910390f35b34801561081f57600080fd5b5061083a600480360381019061083591906130df565b611662565b005b34801561084857600080fd5b50610851611732565b60405161085e91906137d9565b60405180910390f35b34801561087357600080fd5b5061088e60048036038101906108899190612fb2565b611738565b005b34801561089c57600080fd5b506108a561189b565b6040516108b291906137d9565b60405180910390f35b3480156108c757600080fd5b506108d06118a1565b6040516108dd91906137d9565b60405180910390f35b3480156108f257600080fd5b5061090d6004803603810190610908919061300c565b6118c5565b60405161091a91906137d9565b60405180910390f35b34801561092f57600080fd5b5061093861194c565b60405161094591906134ea565b60405180910390f35b34801561095a57600080fd5b50610963611970565b60405161097091906137d9565b60405180910390f35b34801561098557600080fd5b506109a0600480360381019061099b9190612fb2565b611976565b005b3480156109ae57600080fd5b506109b7611b1f565b6040516109c491906137d9565b60405180910390f35b3480156109d957600080fd5b506109e2611b25565b6040516109ef91906137d9565b60405180910390f35b348015610a0457600080fd5b50610a0d611b2b565b604051610a1a91906137d9565b60405180910390f35b606060068054610a3290613ad6565b80601f0160208091040260200160405190810160405280929190818152602001828054610a5e90613ad6565b8015610aab5780601f10610a8057610100808354040283529160200191610aab565b820191906000526020600020905b815481529060010190602001808311610a8e57829003601f168201915b5050505050905090565b6000610ac9610ac2611b31565b8484611b39565b6001905092915050565b600860009054906101000a900460ff1681565b7f000000000000000000000000000000000000000000000000000000000000000081565b6000600554905090565b6000610b21848484611d04565b6000600260008673ffffffffffffffffffffffffffffffffffffffff1673ffffffffffffffffffffffffffffffffffffffff1681526020019081526020016000206000610b6c611b31565b73ffffffffffffffffffffffffffffffffffffffff1673ffffffffffffffffffffffffffffffffffffffff16815260200190815260200160002054905082811015610bec576040517f08c379a0000000000000000000000000000000000000000000000000000000008152600401610be3906136be565b60405180910390fd5b610c0985610bf8611b31565b8584610c0491906139d6565b611b39565b60019150509392505050565b60006012905090565b6000610cc0610c2b611b31565b848460026000610c39611b31565b73ffffffffffffffffffffffffffffffffffffffff1673ffffffffffffffffffffffffffffffffffffffff16815260200190815260200160002060008873ffffffffffffffffffffffffffffffffffffffff1673ffffffffffffffffffffffffffffffffffffffff16815260200190815260200160002054610cbb91906138f5565b611b39565b6001905092915050565b60105481565b610cd8611b31565b73ffffffffffffffffffffffffffffffffffffffff16610cf6611366565b73ffffffffffffffffffffffffffffffffffffffff1614610d4c576040517f08c379a0000000000000000000000000000000000000000000000000000000008152600401610d43906136de565b60405180910390fd5b6000601460036101000a81548160ff0219169083151502179055507f5db9ee0a495bf2e6ff9c91a7834c1ba4fdd244a5e8aa4e537bd38aeae4b073aa33604051610d9691906134ea565b60405180910390a1565b610da8611b31565b73ffffffffffffffffffffffffffffffffffffffff16610dc6611366565b73ffffffffffffffffffffffffffffffffffffffff1614610e1c576040517f08c379a0000000000000000000000000000000000000000000000000000000008152600401610e13906136de565b60405180910390fd5b600460008273ffffffffffffffffffffffffffffffffffffffff1673ffffffffffffffffffffffffffffffffffffffff16815260200190815260200160002060009054906101000a900460ff1615610ea9576040517f08c379a0000000000000000000000000000000000000000000000000000000008152600401610ea09061367e565b60405180910390fd5b6001600460008373ffffffffffffffffffffffffffffffffffffffff1673ffffffffffffffffffffffffffffffffffffffff16815260200190815260200160002060006101000a81548160ff02191690831515021790555050565b61271081565b7f000000000000000000000000000000000000000000000000000000000000000081565b601460029054906101000a900460ff1681565b600f5481565b6000610f51611b31565b73ffffffffffffffffffffffffffffffffffffffff16610f6f611366565b73ffffffffffffffffffffffffffffffffffffffff1614610fc5576040517f08c379a0000000000000000000000000000000000000000000000000000000008152600401610fbc906136de565b60405180910390fd5b601460019054906101000a900460ff1615611015576040517f08c379a000000000000000000000000000000000000000000000000000000000815260040161100c9061377e565b60405180910390fd5b61101e82612142565b9050919050565b61102d611b31565b73ffffffffffffffffffffffffffffffffffffffff1661104b611366565b73ffffffffffffffffffffffffffffffffffffffff16146110a1576040517f08c379a0000000000000000000000000000000000000000000000000000000008152600401611098906136de565b60405180910390fd5b61271061ffff168160ff1611156110ed576040517f08c379a00000000000000000000000000000000000000000000000000000000081526004016110e49061365e565b60405180910390fd5b80600860016101000a81548160ff021916908360ff16021790555050565b600080600061111984612487565b91509150808261112991906138f5565b92505050919050565b61113a611b31565b73ffffffffffffffffffffffffffffffffffffffff16611158611366565b73ffffffffffffffffffffffffffffffffffffffff16146111ae576040517f08c379a00000000000000000000000000000000000000000000000000000000081526004016111a5906136de565b60405180910390fd5b600073ffffffffffffffffffffffffffffffffffffffff1660008054906101000a900473ffffffffffffffffffffffffffffffffffffffff1673ffffffffffffffffffffffffffffffffffffffff167f8be0079c531659141344cd1fd0a4f28419497f9722a3daafe3b4186f6b6457e060405160405180910390a360008060006101000a81548173ffffffffffffffffffffffffffffffffffffffff021916908373ffffffffffffffffffffffffffffffffffffffff160217905550565b60035481565b61127a611b31565b73ffffffffffffffffffffffffffffffffffffffff16611298611366565b73ffffffffffffffffffffffffffffffffffffffff16146112ee576040517f08c379a00000000000000000000000000000000000000000000000000000000081526004016112e5906136de565b60405180910390fd5b6001601460036101000a81548160ff0219169083151502179055507f62e78cea01bee320cd4e420270b5ea74000d11b0c9f74754ebdbfc544b05a2583360405161133891906134ea565b60405180910390a1565b7f000000000000000000000000000000000000000000000000000000000000000081565b60008060009054906101000a900473ffffffffffffffffffffffffffffffffffffffff16905090565b60606007805461139e90613ad6565b80601f01602080910402602001604051908101604052809291908181526020018280546113ca90613ad6565b80156114175780601f106113ec57610100808354040283529160200191611417565b820191906000526020600020905b8154815290600101906020018083116113fa57829003601f168201915b5050505050905090565b600a5481565b600860019054906101000a900460ff1681565b60095481565b6000806002600061144f611b31565b73ffffffffffffffffffffffffffffffffffffffff1673ffffffffffffffffffffffffffffffffffffffff16815260200190815260200160002060008573ffffffffffffffffffffffffffffffffffffffff1673ffffffffffffffffffffffffffffffffffffffff1681526020019081526020016000205490508281101561150c576040517f08c379a00000000000000000000000000000000000000000000000000000000081526004016115039061379e565b60405180910390fd5b611529611517611b31565b85858461152491906139d6565b611b39565b600191505092915050565b6000611548611541611b31565b8484611d04565b6001905092915050565b61155a611b31565b73ffffffffffffffffffffffffffffffffffffffff16611578611366565b73ffffffffffffffffffffffffffffffffffffffff16146115ce576040517f08c379a00000000000000000000000000000000000000000000000000000000081526004016115c5906136de565b60405180910390fd5b61271061ffff168160ff16111561161a576040517f08c379a00000000000000000000000000000000000000000000000000000000081526004016116119061365e565b60405180910390fd5b80600860006101000a81548160ff021916908360ff16021790555050565b600e5481565b7f000000000000000000000000000000000000000000000000000000000000000081565b61166a611b31565b73ffffffffffffffffffffffffffffffffffffffff16611688611366565b73ffffffffffffffffffffffffffffffffffffffff16146116de576040517f08c379a00000000000000000000000000000000000000000000000000000000081526004016116d5906136de565b60405180910390fd5b80601460026101000a81548160ff0219169083151502179055507f53726dfcaf90650aa7eb35524f4d3220f07413c8d6cb404cc8c18bf5591bc159816040516117279190613566565b60405180910390a150565b600b5481565b611740611b31565b73ffffffffffffffffffffffffffffffffffffffff1661175e611366565b73ffffffffffffffffffffffffffffffffffffffff16146117b4576040517f08c379a00000000000000000000000000000000000000000000000000000000081526004016117ab906136de565b60405180910390fd5b600460008273ffffffffffffffffffffffffffffffffffffffff1673ffffffffffffffffffffffffffffffffffffffff16815260200190815260200160002060009054906101000a900460ff16611840576040517f08c379a00000000000000000000000000000000000000000000000000000000081526004016118379061371e565b60405180910390fd5b6000600460008373ffffffffffffffffffffffffffffffffffffffff1673ffffffffffffffffffffffffffffffffffffffff16815260200190815260200160002060006101000a81548160ff02191690831515021790555050565b60135481565b7f000000000000000000000000000000000000000000000000000000000000000081565b6000600260008473ffffffffffffffffffffffffffffffffffffffff1673ffffffffffffffffffffffffffffffffffffffff16815260200190815260200160002060008373ffffffffffffffffffffffffffffffffffffffff1673ffffffffffffffffffffffffffffffffffffffff16815260200190815260200160002054905092915050565b7f000000000000000000000000000000000000000000000000000000000000000081565b600d5481565b61197e611b31565b73ffffffffffffffffffffffffffffffffffffffff1661199c611366565b73ffffffffffffffffffffffffffffffffffffffff16146119f2576040517f08c379a00000000000000000000000000000000000000000000000000000000081526004016119e9906136de565b60405180910390fd5b600073ffffffffffffffffffffffffffffffffffffffff168173ffffffffffffffffffffffffffffffffffffffff161415611a62576040517f08c379a0000000000000000000000000000000000000000000000000000000008152600401611a59906135de565b60405180910390fd5b8073ffffffffffffffffffffffffffffffffffffffff1660008054906101000a900473ffffffffffffffffffffffffffffffffffffffff1673ffffffffffffffffffffffffffffffffffffffff167f8be0079c531659141344cd1fd0a4f28419497f9722a3daafe3b4186f6b6457e060405160405180910390a3806000806101000a81548173ffffffffffffffffffffffffffffffffffffffff021916908373ffffffffffffffffffffffffffffffffffffffff16021790555050565b60125481565b60115481565b600c5481565b600033905090565b600073ffffffffffffffffffffffffffffffffffffffff168373ffffffffffffffffffffffffffffffffffffffff161415611ba9576040517f08c379a0000000000000000000000000000000000000000000000000000000008152600401611ba09061375e565b60405180910390fd5b600073ffffffffffffffffffffffffffffffffffffffff168273ffffffffffffffffffffffffffffffffffffffff161415611c19576040517f08c379a0000000000000000000000000000000000000000000000000000000008152600401611c10906135fe565b60405180910390fd5b80600260008573ffffffffffffffffffffffffffffffffffffffff1673ffffffffffffffffffffffffffffffffffffffff16815260200190815260200160002060008473ffffffffffffffffffffffffffffffffffffffff1673ffffffffffffffffffffffffffffffffffffffff168152602001908152602001600020819055508173ffffffffffffffffffffffffffffffffffffffff168373ffffffffffffffffffffffffffffffffffffffff167f8c5be1e5ebec7d5bd14f71427d1e84f3dd0314c0f7b2291e5b200ac8c7c3b92583604051611cf791906137d9565b60405180910390a3505050565b601460039054906101000a900460ff1615611d54576040517f08c379a0000000000000000000000000000000000000000000000000000000008152600401611d4b9061363e565b60405180910390fd5b600073ffffffffffffffffffffffffffffffffffffffff168373ffffffffffffffffffffffffffffffffffffffff161415611dc4576040517f08c379a0000000000000000000000000000000000000000000000000000000008152600401611dbb9061373e565b60405180910390fd5b600073ffffffffffffffffffffffffffffffffffffffff168273ffffffffffffffffffffffffffffffffffffffff161415611e34576040517f08c379a0000000000000000000000000000000000000000000000000000000008152600401611e2b906135be565b60405180910390fd5b60008111611e77576040517f08c379a0000000000000000000000000000000000000000000000000000000008152600401611e6e906136fe565b60405180910390fd5b6000611e81612528565b9050611e8b611366565b73ffffffffffffffffffffffffffffffffffffffff168473ffffffffffffffffffffffffffffffffffffffff1614158015611ef95750611ec9611366565b73ffffffffffffffffffffffffffffffffffffffff168373ffffffffffffffffffffffffffffffffffffffff1614155b15611f425780821115611f41576040517f08c379a0000000000000000000000000000000000000000000000000000000008152600401611f389061369e565b60405180910390fd5b5b81611f4c8561110b565b1015611f8d576040517f08c379a0000000000000000000000000000000000000000000000000000000008152600401611f849061361e565b60405180910390fd5b611f978483612560565b6000611fa23061110b565b9050818110611faf578190505b6000611fb96125e6565b90506000818310159050808015611fdd5750601460009054906101000a900460ff16155b801561203557507f000000000000000000000000000000000000000000000000000000000000000073ffffffffffffffffffffffffffffffffffffffff168773ffffffffffffffffffffffffffffffffffffffff1614155b801561204d5750601460029054906101000a900460ff165b1561205f5781925061205e8361261e565b5b600060019050600460008973ffffffffffffffffffffffffffffffffffffffff1673ffffffffffffffffffffffffffffffffffffffff16815260200190815260200160002060009054906101000a900460ff1680156121075750600460008873ffffffffffffffffffffffffffffffffffffffff1673ffffffffffffffffffffffffffffffffffffffff16815260200190815260200160002060009054906101000a900460ff165b1561211157600090505b8061211f5761211e6126df565b5b61212a88888861271d565b80612138576121376128ad565b5b5050505050505050565b60006001601460016101000a81548160ff02191690831515021790555060008260155461216f91906138f5565b90506000601660009054906101000a900473ffffffffffffffffffffffffffffffffffffffff1673ffffffffffffffffffffffffffffffffffffffff166353d74fdf6040518163ffffffff1660e01b815260040160206040518083038186803b1580156121db57600080fd5b505afa1580156121ef573d6000803e3d6000fd5b505050506040513d601f19601f820116820180604052508101906122139190613139565b905080821115612221578091505b600060155490505b82811015612445576000601660009054906101000a900473ffffffffffffffffffffffffffffffffffffffff1673ffffffffffffffffffffffffffffffffffffffff1663dd6e7a86836040518263ffffffff1660e01b815260040161228e91906137d9565b60206040518083038186803b1580156122a657600080fd5b505afa1580156122ba573d6000803e3d6000fd5b505050506040513d601f19601f820116820180604052508101906122de9190612fdf565b90506000601660009054906101000a900473ffffffffffffffffffffffffffffffffffffffff1673ffffffffffffffffffffffffffffffffffffffff166370a08231836040518263ffffffff1660e01b815260040161233d91906134ea565b60206040518083038186803b15801561235557600080fd5b505afa158015612369573d6000803e3d6000fd5b505050506040513d601f19601f8201168201806040525081019061238d9190613139565b905080600160008473ffffffffffffffffffffffffffffffffffffffff1673ffffffffffffffffffffffffffffffffffffffff1681526020019081526020016000208190555080600160006123e0611b31565b73ffffffffffffffffffffffffffffffffffffffff1673ffffffffffffffffffffffffffffffffffffffff168152602001908152602001600020600082825461242991906139d6565b925050819055505050808061243d90613b08565b915050612229565b506000818560155461245791906138f5565b119050826015819055508093505050506000601460016101000a81548160ff021916908315150217905550919050565b6000806000600160008573ffffffffffffffffffffffffffffffffffffffff1673ffffffffffffffffffffffffffffffffffffffff16815260200190815260200160002054905060008114156124e4576000809250925050612523565b6000816005546124f4919061394b565b9050600081141561250d57816000935093505050612523565b818160035461251c919061394b565b9350935050505b915091565b6000600860009054906101000a900460ff1660ff1661271061ffff16600554612551919061394b565b61255b919061397c565b905090565b60008061256d84846128d3565b9150915081600160008673ffffffffffffffffffffffffffffffffffffffff1673ffffffffffffffffffffffffffffffffffffffff16815260200190815260200160002060008282546125c091906139d6565b9250508190555080601160008282546125d991906139d6565b9250508190555050505050565b6000600860019054906101000a900460ff1660ff1661271061ffff1660055461260f919061394b565b612619919061397c565b905090565b6001601460006101000a81548160ff0219169083151502179055506000600282612648919061394b565b90506000818361265891906139d6565b9050600047905061266883612939565b6000814761267691906139d6565b90506126828382612a08565b7f17bbfb9a6069321b6ded73bd96327c9e6b7212a5cd51ff219cd61370acafb5618482856040516126b59392919061384e565b60405180910390a1505050506000601460006101000a81548160ff02191690831515021790555050565b600c54600d81905550600954600e81905550600a54600f819055506010546010819055506000600c819055506000600a819055506000600b81905550565b60008060008061272c85612ad5565b93509350935093506000818385878961274591906139d6565b61274f91906139d6565b61275991906139d6565b61276391906139d6565b905080600160008973ffffffffffffffffffffffffffffffffffffffff1673ffffffffffffffffffffffffffffffffffffffff16815260200190815260200160002060008282546127b491906138f5565b9250508190555082601160008282546127cd91906138f5565b9250508190555081600160003073ffffffffffffffffffffffffffffffffffffffff1673ffffffffffffffffffffffffffffffffffffffff168152602001908152602001600020600082825461282391906138f5565b925050819055506128348886612b7e565b61283e8885612c8a565b8673ffffffffffffffffffffffffffffffffffffffff168873ffffffffffffffffffffffffffffffffffffffff167fddf252ad1be2c89b69c2b068fc378daa952ba7f163c4a11628f55a4df523b3ef8360405161289b91906137d9565b60405180910390a35050505050505050565b600e54600981905550600f54600a81905550601054600b81905550600d54600c81905550565b6000806000806128e286612487565b91509150600081836128f491906138f5565b905060008682612904919061394b565b905060008185612914919061394b565b905060008285612924919061394b565b90508181975097505050505050509250929050565b6000612943612da2565b9050612970307f000000000000000000000000000000000000000000000000000000000000000084611b39565b7f000000000000000000000000000000000000000000000000000000000000000073ffffffffffffffffffffffffffffffffffffffff1663791ac9478360008430426040518663ffffffff1660e01b81526004016129d29594939291906137f4565b600060405180830381600087803b1580156129ec57600080fd5b505af1158015612a00573d6000803e3d6000fd5b505050505050565b612a33307f000000000000000000000000000000000000000000000000000000000000000084611b39565b7f000000000000000000000000000000000000000000000000000000000000000073ffffffffffffffffffffffffffffffffffffffff1663f305d719823085600080612a7d611366565b426040518863ffffffff1660e01b8152600401612a9f96959493929190613505565b6000604051808303818588803b158015612ab857600080fd5b505af1158015612acc573d6000803e3d6000fd5b50505050505050565b6000806000806000600c5461271061ffff1687612af2919061394b565b612afc919061397c565b90506000600b5461271061ffff1688612b15919061394b565b612b1f919061397c565b9050600060095461271061ffff1689612b38919061394b565b612b42919061397c565b90506000600a5461271061ffff168a612b5b919061394b565b612b65919061397c565b9050838383839750975097509750505050509193509193565b600081600554612b8e91906139d6565b90507f0000000000000000000000000000000000000000000000000000000000000000811015612bdc577f000000000000000000000000000000000000000000000000000000000000000090505b600081600554612bec91906139d6565b905060008111612bfd575050612c86565b816005819055508060136000828254612c1691906138f5565b92505081905550600073ffffffffffffffffffffffffffffffffffffffff168473ffffffffffffffffffffffffffffffffffffffff167fddf252ad1be2c89b69c2b068fc378daa952ba7f163c4a11628f55a4df523b3ef83604051612c7b91906137d9565b60405180910390a350505b5050565b80600160007f000000000000000000000000000000000000000000000000000000000000000073ffffffffffffffffffffffffffffffffffffffff1673ffffffffffffffffffffffffffffffffffffffff1681526020019081526020016000206000828254612cf991906138f5565b925050819055508060126000828254612d1291906138f5565b925050819055507f000000000000000000000000000000000000000000000000000000000000000073ffffffffffffffffffffffffffffffffffffffff168273ffffffffffffffffffffffffffffffffffffffff167fddf252ad1be2c89b69c2b068fc378daa952ba7f163c4a11628f55a4df523b3ef83604051612d9691906137d9565b60405180910390a35050565b60606000600267ffffffffffffffff811115612dc157612dc0613c0d565b5b604051908082528060200260200182016040528015612def5781602001602082028036833780820191505090505b5090503081600081518110612e0757612e06613bde565b5b602002602001019073ffffffffffffffffffffffffffffffffffffffff16908173ffffffffffffffffffffffffffffffffffffffff16815250507f000000000000000000000000000000000000000000000000000000000000000073ffffffffffffffffffffffffffffffffffffffff1663ad5c46486040518163ffffffff1660e01b815260040160206040518083038186803b158015612ea757600080fd5b505afa158015612ebb573d6000803e3d6000fd5b505050506040513d601f19601f82011682018060405250810190612edf9190612fdf565b81600181518110612ef357612ef2613bde565b5b602002602001019073ffffffffffffffffffffffffffffffffffffffff16908173ffffffffffffffffffffffffffffffffffffffff16815250508091505090565b600081359050612f438161405e565b92915050565b600081519050612f588161405e565b92915050565b600081359050612f6d81614075565b92915050565b600081359050612f828161408c565b92915050565b600081519050612f978161408c565b92915050565b600081359050612fac816140a3565b92915050565b600060208284031215612fc857612fc7613c3c565b5b6000612fd684828501612f34565b91505092915050565b600060208284031215612ff557612ff4613c3c565b5b600061300384828501612f49565b91505092915050565b6000806040838503121561302357613022613c3c565b5b600061303185828601612f34565b925050602061304285828601612f34565b9150509250929050565b60008060006060848603121561306557613064613c3c565b5b600061307386828701612f34565b935050602061308486828701612f34565b925050604061309586828701612f73565b9150509250925092565b600080604083850312156130b6576130b5613c3c565b5b60006130c485828601612f34565b92505060206130d585828601612f73565b9150509250929050565b6000602082840312156130f5576130f4613c3c565b5b600061310384828501612f5e565b91505092915050565b60006020828403121561312257613121613c3c565b5b600061313084828501612f73565b91505092915050565b60006020828403121561314f5761314e613c3c565b5b600061315d84828501612f88565b91505092915050565b60006020828403121561317c5761317b613c3c565b5b600061318a84828501612f9d565b91505092915050565b600061319f83836131ab565b60208301905092915050565b6131b481613a0a565b82525050565b6131c381613a0a565b82525050565b60006131d4826138b0565b6131de81856138d3565b93506131e9836138a0565b8060005b8381101561321a5781516132018882613193565b975061320c836138c6565b9250506001810190506131ed565b5085935050505092915050565b61323081613a1c565b82525050565b61323f81613a6d565b82525050565b61324e81613a91565b82525050565b600061325f826138bb565b61326981856138e4565b9350613279818560208601613aa3565b61328281613c41565b840191505092915050565b600061329a6023836138e4565b91506132a582613c52565b604082019050919050565b60006132bd6026836138e4565b91506132c882613ca1565b604082019050919050565b60006132e06022836138e4565b91506132eb82613cf0565b604082019050919050565b60006133036026836138e4565b915061330e82613d3f565b604082019050919050565b6000613326600d836138e4565b915061333182613d8e565b602082019050919050565b6000613349601f836138e4565b915061335482613db7565b602082019050919050565b600061336c6017836138e4565b915061337782613de0565b602082019050919050565b600061338f6026836138e4565b915061339a82613e09565b604082019050919050565b60006133b26028836138e4565b91506133bd82613e58565b604082019050919050565b60006133d56020836138e4565b91506133e082613ea7565b602082019050919050565b60006133f86027836138e4565b915061340382613ed0565b604082019050919050565b600061341b6017836138e4565b915061342682613f1f565b602082019050919050565b600061343e6025836138e4565b915061344982613f48565b604082019050919050565b60006134616024836138e4565b915061346c82613f97565b604082019050919050565b60006134846019836138e4565b915061348f82613fe6565b602082019050919050565b60006134a76025836138e4565b91506134b28261400f565b604082019050919050565b6134c681613a28565b82525050565b6134d581613a56565b82525050565b6134e481613a60565b82525050565b60006020820190506134ff60008301846131ba565b92915050565b600060c08201905061351a60008301896131ba565b61352760208301886134cc565b6135346040830187613245565b6135416060830186613245565b61354e60808301856131ba565b61355b60a08301846134cc565b979650505050505050565b600060208201905061357b6000830184613227565b92915050565b60006020820190506135966000830184613236565b92915050565b600060208201905081810360008301526135b68184613254565b905092915050565b600060208201905081810360008301526135d78161328d565b9050919050565b600060208201905081810360008301526135f7816132b0565b9050919050565b60006020820190508181036000830152613617816132d3565b9050919050565b60006020820190508181036000830152613637816132f6565b9050919050565b6000602082019050818103600083015261365781613319565b9050919050565b600060208201905081810360008301526136778161333c565b9050919050565b600060208201905081810360008301526136978161335f565b9050919050565b600060208201905081810360008301526136b781613382565b9050919050565b600060208201905081810360008301526136d7816133a5565b9050919050565b600060208201905081810360008301526136f7816133c8565b9050919050565b60006020820190508181036000830152613717816133eb565b9050919050565b600060208201905081810360008301526137378161340e565b9050919050565b6000602082019050818103600083015261375781613431565b9050919050565b6000602082019050818103600083015261377781613454565b9050919050565b6000602082019050818103600083015261379781613477565b9050919050565b600060208201905081810360008301526137b78161349a565b9050919050565b60006020820190506137d360008301846134bd565b92915050565b60006020820190506137ee60008301846134cc565b92915050565b600060a08201905061380960008301886134cc565b6138166020830187613245565b818103604083015261382881866131c9565b905061383760608301856131ba565b61384460808301846134cc565b9695505050505050565b600060608201905061386360008301866134cc565b61387060208301856134cc565b61387d60408301846134cc565b949350505050565b600060208201905061389a60008301846134db565b92915050565b6000819050602082019050919050565b600081519050919050565b600081519050919050565b6000602082019050919050565b600082825260208201905092915050565b600082825260208201905092915050565b600061390082613a56565b915061390b83613a56565b9250827fffffffffffffffffffffffffffffffffffffffffffffffffffffffffffffffff038211156139405761393f613b51565b5b828201905092915050565b600061395682613a56565b915061396183613a56565b92508261397157613970613b80565b5b828204905092915050565b600061398782613a56565b915061399283613a56565b9250817fffffffffffffffffffffffffffffffffffffffffffffffffffffffffffffffff04831182151516156139cb576139ca613b51565b5b828202905092915050565b60006139e182613a56565b91506139ec83613a56565b9250828210156139ff576139fe613b51565b5b828203905092915050565b6000613a1582613a36565b9050919050565b60008115159050919050565b600061ffff82169050919050565b600073ffffffffffffffffffffffffffffffffffffffff82169050919050565b6000819050919050565b600060ff82169050919050565b6000613a7882613a7f565b9050919050565b6000613a8a82613a36565b9050919050565b6000613a9c82613a56565b9050919050565b60005b83811015613ac1578082015181840152602081019050613aa6565b83811115613ad0576000848401525b50505050565b60006002820490506001821680613aee57607f821691505b60208210811415613b0257613b01613baf565b5b50919050565b6000613b1382613a56565b91507fffffffffffffffffffffffffffffffffffffffffffffffffffffffffffffffff821415613b4657613b45613b51565b5b600182019050919050565b7f4e487b7100000000000000000000000000000000000000000000000000000000600052601160045260246000fd5b7f4e487b7100000000000000000000000000000000000000000000000000000000600052601260045260246000fd5b7f4e487b7100000000000000000000000000000000000000000000000000000000600052602260045260246000fd5b7f4e487b7100000000000000000000000000000000000000000000000000000000600052603260045260246000fd5b7f4e487b7100000000000000000000000000000000000000000000000000000000600052604160045260246000fd5b600080fd5b6000601f19601f8301169050919050565b7f45524332303a207472616e7366657220746f20746865207a65726f206164647260008201527f6573730000000000000000000000000000000000000000000000000000000000602082015250565b7f4f776e61626c653a206e6577206f776e657220697320746865207a65726f206160008201527f6464726573730000000000000000000000000000000000000000000000000000602082015250565b7f45524332303a20617070726f766520746f20746865207a65726f20616464726560008201527f7373000000000000000000000000000000000000000000000000000000000000602082015250565b7f45524332303a207472616e7366657220616d6f756e742065786365656473206260008201527f616c616e63650000000000000000000000000000000000000000000000000000602082015250565b7f45524332303a2070617573656400000000000000000000000000000000000000600082015250565b7f50616e64613a2070657263656e746167652076616c756520746f206869676800600082015250565b7f50616e64613a20616c7265616479206578636c75646564000000000000000000600082015250565b7f45524332303a207472616e7366657220616d6f756e742065786365656473206d60008201527f6178696d756d0000000000000000000000000000000000000000000000000000602082015250565b7f45524332303a207472616e7366657220616d6f756e742065786365656473206160008201527f6c6c6f77616e6365000000000000000000000000000000000000000000000000602082015250565b7f4f776e61626c653a2063616c6c6572206973206e6f7420746865206f776e6572600082015250565b7f45524332303a20616d6f756e74206d757374206265206772656174657220746860008201527f616e207a65726f00000000000000000000000000000000000000000000000000602082015250565b7f50616e64613a20616c726561647920696e636c75646564000000000000000000600082015250565b7f45524332303a207472616e736665722066726f6d20746865207a65726f20616460008201527f6472657373000000000000000000000000000000000000000000000000000000602082015250565b7f45524332303a20617070726f76652066726f6d20746865207a65726f2061646460008201527f7265737300000000000000000000000000000000000000000000000000000000602082015250565b7f4d6967726174653a20206d75746578206973206c6f636b656400000000000000600082015250565b7f45524332303a2064656372656173656420616c6c6f77616e63652062656c6f7760008201527f207a65726f000000000000000000000000000000000000000000000000000000602082015250565b61406781613a0a565b811461407257600080fd5b50565b61407e81613a1c565b811461408957600080fd5b50565b61409581613a56565b81146140a057600080fd5b50565b6140ac81613a60565b81146140b757600080fd5b5056fea2646970667358221220f5f970e79d448c1e9c487442648311872ce94f92184c33dffb1952aa17a5a31864736f6c63430008060033",
  "immutableReferences": {
    "353": [
      {
        "length": 32,
        "start": 6307
      },
      {
        "length": 32,
        "start": 11154
      },
      {
        "length": 32,
        "start": 11194
      }
    ],
    "397": [
      {
        "length": 32,
        "start": 5696
      },
      {
        "length": 32,
        "start": 11409
      },
      {
        "length": 32,
        "start": 11547
      }
    ],
    "399": [
      {
        "length": 32,
        "start": 4932
      }
    ],
    "402": [
      {
        "length": 32,
        "start": 2792
      },
      {
        "length": 32,
        "start": 10571
      },
      {
        "length": 32,
        "start": 10610
      },
      {
        "length": 32,
        "start": 10766
      },
      {
        "length": 32,
        "start": 10805
      },
      {
        "length": 32,
        "start": 11843
      }
    ],
    "404": [
      {
        "length": 32,
        "start": 3852
      },
      {
        "length": 32,
        "start": 8166
      }
    ],
    "406": [
      {
        "length": 32,
        "start": 6478
      }
    ]
  },
  "source": "// SPDX-License-Identifier: MIT\r\n\r\npragma solidity >=0.8.6 <0.9.0;\r\n\r\nimport \"./interfaces/IERC20.sol\";\r\nimport \"./interfaces/IMigrateToken.sol\";\r\nimport \"./security/Ownable.sol\";\r\n\r\nimport \"./interfaces/IUniswapV2Router02.sol\";\r\nimport \"./interfaces/IUniswapV2Factory.sol\";\r\n\r\n/*\r\n@@@@@@@@@@@@@@@@@@@@@@@@@@@@@@@@@@@@@@@@@@@@@@@@@@@@@@@@@@@@@@@@@@@@@@@@@@@@@@@@@@@@@@@@@@@@@@@@@@@@@@@@@@@@@@@@@@@@@@@@\r\n@@@@@@@@@@@@@@@@@@@@@@@@@@@@@@@@@@@@@@@@@@@@@@@@@@@@%,.............,&@@@@@@@@@@@@@@@@@@@@@@@@@@@@@@@@@@@@@@@@@@@@@@@@@@@\r\n@@@@@@@@@@@@@@@@@@@@@@@@@@@@@@@@@@@@@@@@@@@@@@@(...(@@@@@@@@@@@@@@@@@*...%@@@@@@@@@@@@@@@@@@@@@@@@@@@@@@@@@@@@@@@@@@@@@@\r\n@@@@@@@@@@@@@@@@@@@@@@@@@@@@@@@@@@@@@@@@@@@@...&@@@@@@@@@@@@@@@@@@@@@@@@@%..*@@@@@@@@@@@@@@@@@@@@@@@@@@@@@@@@@@@@@@@@@@@\r\n@@@@@@@@@@@@@@@@@@@@@@@@@@@@@@@@@@@@@@@@@&..@@#....&@@@@@@&##%@@@@@@@&....&@#..@@@@@@@@@@@@@@@@@@@@@@@@@@@@@@@@@@@@@@@@@\r\n@@@@@@@@@@@@@@@@@@@@@@@@@@@@@@@@@@@@@@@@..@@............#@@@@@@@(,........../@&..@@@@@@@@@@@@@@@@@@@@@@@@@@@@@@@@@@@@@@@\r\n@@@@@@@@@@@@@@@@@@@@@@@@@@@@@@@@@@@@@@/./@@........%@@@@@@@@@@@@@@@@@@.......#@@,.%@@@@@@@@@@@@@@@@@@@@@@@@@@@@@@@@@@@@@\r\n@@@@@@@@@@@@@@@@@@@@@@@@@@@@@@@@@@@@@*.%@@@.....(@@@@@@@@@@@@@@@@@@@@@@@@.....@@@/.#@@@@@@@@@@@@@@@@@@@@@@@@@@@@@@@@@@@@\r\n@@@@@@@@@@@@@@@@@@@@@@@@@@@@@@@@@@@@&.*@@@@*../@@@@@@@@@@@@@@@@@@@@@@@@@@@%..&@@@@,.@@@@@@@@@@@@@@@@@@@@@@@@@@@@@@@@@@@@\r\n@@@@@@@@@@@@@@@@@@@@@@@@@@@@@@@@@@@@..@@@@@..@@@@@.......*@@@@@.......*@@@@@..@@@@@..@@@@@@@@@@@@@@@@@@@@@@@@@@@@@@@@@@@\r\n@@@@@@@@@@@@@@@@@@@@@@@@@@@@@@@@@@@@..@@@@/.%@@@#....@@*.@@@@@@@.%@@....@@@@%.(@@@@..@@@@@@@@@@@@@@@@@@@@@@@@@@@@@@@@@@@\r\n@@@@@@@@@@@@@@@@@@@@@@@@@@@@@@@@@@@@..@@@@..@@@@........@@@@@@@@#........@@@@..@@@@..@@@@@@@@@@@@@@@@@@@@@@@@@@@@@@@@@@@\r\n@@@@@@@@@@@@@@@@@@@@@@@@@@@@@@@@@@@@,.@@@@..@@@@@,..,..@@@@...@@@@.....(@@@@@..@@@&./@@@@@@@@@@@@@@@@@@@@@@@@@@@@@@@@@@@\r\n@@@@@@@@@@@@@@@@@@@@@@@@@@@@@@@@@@@@@.,@@@@..@@@@@@@@@@@@@@@@@@@@@@@@@@@@@@@..@@@@..@@@@@@@@@@@@@@@@@@@@@@@@@@@@@@@@@@@@\r\n@@@@@@@@@@@@@@@@@@@@@@@@@@@@@@@@@@@@@%.*@@.....,@@@@@@@@@@@@@@@@@@@@@@@@@#,...*@@,.&@@@@@@@@@@@@@@@@@@@@@@@@@@@@@@@@@@@@\r\n@@@@@@@@@@@@@@@@@@@@@@@@@@@@@@@@@@@@@@%...............*%&@@@@@@@@&#,..............@@@@@@@@@@@@@@@@@@@@@@@@@@@@@@@@@@@@@@\r\n@@@@@@@@@@@@@@@@@@@@@@@@@@@@@@@@@@@@@@@@..........(@@@@@@@@@&&@@@@@@@@*..........@@@@@@@@@@@@@@@@@@@@@@@@@@@@@@@@@@@@@@@\r\n@@@@@@@@@@@@@@@@@@@@@@@@@@@@@@@@@@@@@@@@@@............,*@#######%*.............@@@@@@@@@@@@@@@@@@@@@@@@@@@@@@@@@@@@@@@@@\r\n@@@@@@@@@@@@@@@@@@@@@@@@@@@@@@@@@@@@@@@@@@@@%............,(#%%#,............%@@@@@@@@@@@@@@@@@@@@@@@@@@@@@@@@@@@@@@@@@@@\r\n@@@@@@@@@@@@@@@@@@@@@@@@@@@@@@@@@@@@@@@@@@@@@@@@.,......../////........,,@@@@@@@@@@@@@@@@@@@@@@@@@@@@@@@@@@@@@@@@@@@@@@@\r\n@@@@@@@@@@@@@@@@@@@@@@@@@@@@@@@@@@@@@@@@@@@@@@@@@@@&......))(((......@@@@@@@@@@@@@@@@@@@@@@@@@@@@@@@@@@@@@@@@@@@@@@@@@@@\r\n@@@@@@@@@@@@@@@@@@@@@@@@@@@@@@@@@@@@@@@@@@@@@@@@@@@@@@&*%@@@@@@@%*&@@@@@@@@@@@@@@@@@@@@@@@@@@@@@@@@@@@@@@@@@@@@@@@@@@@@@\r\n@@@@@@@@@@@@@@@@@@@@@@@@@@@@@@@@@@@@@@@@@@@@@@@@@@@@@@@@@@@@@@@@@@@@@@@@@@@@@@@@@@@@@@@@@@@@@@@@@@@@@@@@@@@@@@@@@@@@@@@@\r\n@@@@@@@@@@@@@@@@@@@@@@@@@@@@@@@@@@@@@@@@@@@@@@@@@@@@@@@@@@@@@@@@@@@@@@@@@@@@@@@@@@@@@@@@@@@@@@@@@@@@@@@@@@@@@@@@@@@@@@@@\r\n@@@@@@@@@@@@@@@@@@@@@@@@@@@@@@@@@@@@@@@@@@@@@@@@@@@@@@@@@@@@@@@@@@@@@@@@@@@@@@@@@@@@@@@@@@@@@@@@@@@@@@@@@@@@@@@@@@@@@@@@\r\n@@@@@@@@@@@@@@@@@@@@@@@@@@@@@@@@@@@@@@@@@@@@@@@@@@@@@@@@@@@@@@@@@@@@@&@@@@@@@@@@@@@@@@@@@@@@@@@@@@@@@@@@@@@@@@@@@@@@@@@@\r\n@@@@@@@@@@@@@@@@@@@@@@@@@@@..@@@@@%..@@*./@@@@@..@@&...@@@@%..@@@..,@@@*,@@@@..@@%..@@&..@@#..@@@@@@@@@@@@@@@@@@@@@@@@@@\r\n@@@@@@@@@@@@@@@@@@@@@@@@@@@..........@@*./@@@@@..@@&..(.,@@%..@&..@@@,....#@@.......@@@@,...#@@@@@@@@@@@@@@@@@@@@@@@@@@@\r\n@@@@@@@@@@@@@@@@@@@@@@@@@@@..@@@@@%..@@*./@@@@@..@@&..@@%..(..@@..@@@@@@,.#@@..@*..@@@@@@..%@@@@@@@@@@@@@@@@@@@@@@@@@@@@\r\n@@@@@@@@@@@@@@@@@@@@@@@@@@@..@@@@@%..@@@...*(...@@@&..@@@@&...@@@...,(*..,@@@..@@@/..@@@@..%@@@@@@@@@@@@@@@@@@@@@@@@@@@@\r\n@@@@@@@@@@@@@@@@@@@@@@@@@@@@@@@@@@@@@@@@@@@@@@@@@@@@@@@@@@@@@@@@@@@@@@@@@@@@@@@@@@@@@@@@@@@@@@@@@@@@@@@@@@@@@@@@@@@@@@@@\r\n@@@@@@@@@@@@@@@@@@@@@@@@@@@@@@@@@@@@@@@@@@@@@@@@@@@@@@@@@@@@@@@@@@@@@@@@@@@@@@@@@@@@@@@@@@@@@@@@@@@@@@@@@@@@@@@@@@@@@@@@\r\n@@@@@@@@@@@@@@@@@@@@@@@@@@@@@@@@@@..**,...@@@(../@@@@@...@@@@@..@@@..*,....@@@@@@...@@@@@@@@@@@@@@@@@@@@@@@@@@@@@@@@@@@@\r\n@@@@@@@@@@@@@@@@@@@@@@@@@@@@@@@@@@..@@@@.,@@/.,,.*@@@@..(.,@@@..@@@..@@@@@..&@@@,.%..@@@@@@@@@@@@@@@@@@@@@@@@@@@@@@@@@@@\r\n@@@@@@@@@@@@@@@@@@@@@@@@@@@@@@@@@@..(((%@@@,.*&&,.,@@@..@@%..&..@@@..@@@@@..#@%..&&%..@@@@@@@@@@@@@@@@@@@@@@@@@@@@@@@@@@\r\n@@@@@@@@@@@@@@@@@@@@@@@@@@@@@@@@@@..@@@@@@,./@@@@(.,@@..@@@@@...@@@..@@%,..&@#..@@@@@..@@@@@@@@@@@@@@@@@@@@@@@@@@@@@@@@@\r\n@@@@@@@@@@@@@@@@@@@@@@@@@@@@@@@@@@@@@@@@@@@@@@@@@@@@@@@@@@@@@@@@@@@@@@@@@@@@@@@@@@@@@@@@@@@@@@@@@@@@@@@@@@@@@@@@@@@@@@@@\r\n */\r\n\r\ncontract HungryPanda is Ownable, IERC20 {\r\n    mapping(address => uint256) private _balances;\r\n    mapping(address => mapping(address => uint256)) private _allowances;\r\n    uint256 public totalReward;\r\n    mapping(address => bool) private excludedFromFee;\r\n\r\n    uint8 private constant _decimals = 18;\r\n    uint256 private constant DECIMALFACTOR = 10**_decimals;\r\n    uint256 private _totalSupply = 10**17 * DECIMALFACTOR;\r\n\r\n    string private _name = \"HungryPanda\";\r\n    string private _symbol = \"HGP\";\r\n\r\n    uint256 public immutable minimalSupply = 4 * 10**16 * DECIMALFACTOR; // 60% can be burnt 40 000 000 000 000 000\r\n    uint16 public constant percentageGranularity = 10000;\r\n    uint8 public maxTxAmountPercentage = 100; // 1%\r\n    uint8 public numTokensSellToAddLiquidityPercentage = 1; // 0,01%\r\n\r\n    uint256 public taxFee = 200; // 2%\r\n    uint256 public liquidityFee = 500; // 5%\r\n    uint256 public supportFee = 200; // 2%\r\n    uint256 public burnFee = 100; // 1%\r\n\r\n    uint256 public burnFeeOrigin = burnFee;\r\n    uint256 public taxFeeOrigin = taxFee;\r\n    uint256 public liquidityFeeOrigin = liquidityFee;\r\n    uint256 public supportFeeOrigin = supportFee;\r\n\r\n    uint256 public rewardTotal = 0;\r\n    uint256 public totalSupported = 0;\r\n    uint256 public totalBurned = 0;\r\n\r\n    address public immutable supportWallet;\r\n\r\n    uint256 public immutable bornAtTime;\r\n\r\n    IUniswapV2Router02 public immutable uniswapV2Router;\r\n    address public immutable uniswapV2Pair;\r\n    address public immutable _WETH;\r\n\r\n    bool locker = false;\r\n    bool migrationLocker = false;\r\n    bool public swapAndLiquifyEnabled = true;\r\n    bool private _paused = false;\r\n\r\n    event MinTokensBeforeSwapUpdated(uint256 minTokensBeforeSwap);\r\n    event SwapAndLiquifyEnabledUpdated(bool enabled);\r\n    event SwapAndLiquify(\r\n        uint256 tokensSwapped,\r\n        uint256 ethReceived,\r\n        uint256 tokensIntoLiqudity\r\n    );\r\n\r\n    event Paused(address account);\r\n    event Unpaused(address account);\r\n\r\n    modifier lockMutex {\r\n        locker = true;\r\n        _;\r\n        locker = false;\r\n    }\r\n    modifier lockMigrationMutex {\r\n        migrationLocker = true;\r\n        _;\r\n        migrationLocker = false;\r\n    }\r\n\r\n    modifier whenNotPaused {\r\n        require(!_paused, \"ERC20: paused\");\r\n        _;\r\n    }\r\n\r\n    uint256 lastMigratedIndex = 0;\r\n    IMigrateToken private _oldToken;\r\n\r\n    constructor(\r\n        address _router,\r\n        address _wallet,\r\n        address _token\r\n    ) Ownable() {\r\n        bornAtTime = block.timestamp;\r\n\r\n        IUniswapV2Router02 _uniswapV2Router = IUniswapV2Router02(_router);\r\n        // Create a uniswap pair for this new token\r\n        address _uniswapV2Pair = IUniswapV2Factory(_uniswapV2Router.factory())\r\n        .createPair(address(this), _uniswapV2Router.WETH());\r\n\r\n        // set the rest of the contract variables\r\n        uniswapV2Router = _uniswapV2Router;\r\n        _WETH = _uniswapV2Router.WETH();\r\n        uniswapV2Pair = _uniswapV2Pair;\r\n        // transfer ownership to contract\r\n        excludedFromFee[address(this)] = true;\r\n        excludedFromFee[_msgSender()] = true;\r\n        excludedFromFee[address(_uniswapV2Router)] = true;\r\n        excludedFromFee[_uniswapV2Pair] = true;\r\n\r\n        supportWallet = _wallet;\r\n\r\n        // set values from old token\r\n        _oldToken = IMigrateToken(_token);\r\n        _totalSupply = _oldToken.totalSupply();\r\n\r\n        _balances[_msgSender()] = _totalSupply;\r\n        emit Transfer(address(0), _msgSender(), _totalSupply);\r\n    }\r\n\r\n    // Protected migration function ...\r\n    function migrateOldToken(uint256 _size) public onlyOwner returns (bool) {\r\n        require(!migrationLocker, \"Migrate:  mutex is locked\");\r\n        return _migrateOldToken(_size);\r\n    }\r\n\r\n    function _migrateOldToken(uint256 _size)\r\n        private\r\n        lockMigrationMutex\r\n        returns (bool)\r\n    {\r\n        uint256 highIndex = lastMigratedIndex + _size;\r\n        uint256 total = _oldToken.totalHolders();\r\n        if (highIndex > total) {\r\n            highIndex = total;\r\n        }\r\n        for (uint256 index = lastMigratedIndex; index < highIndex; index++) {\r\n            address holder = _oldToken.holdersRewarded(index);\r\n            uint256 balance = _oldToken.balanceOf(holder);\r\n            _balances[holder] = balance;\r\n            _balances[_msgSender()] -= balance;\r\n        }\r\n        bool transactionFinished = lastMigratedIndex + _size > total;\r\n        // update last migration index\r\n        lastMigratedIndex = highIndex;\r\n\r\n        return transactionFinished;\r\n    }\r\n\r\n    //to recieve ETH from uniswapV2Router when swaping\r\n    receive() external payable {}\r\n\r\n    function name() public view returns (string memory) {\r\n        return _name;\r\n    }\r\n\r\n    function symbol() public view returns (string memory) {\r\n        return _symbol;\r\n    }\r\n\r\n    function decimals() public pure returns (uint8) {\r\n        return _decimals;\r\n    }\r\n\r\n    function totalSupply() public view override returns (uint256) {\r\n        return _totalSupply;\r\n    }\r\n\r\n    function balanceOf(address _account)\r\n        public\r\n        view\r\n        override\r\n        returns (uint256)\r\n    {\r\n        (uint256 constBalance, uint256 rewardBalance) = _getBalances(_account);\r\n        return (constBalance + rewardBalance);\r\n    }\r\n\r\n    function transfer(address _recipient, uint256 _amount)\r\n        public\r\n        override\r\n        returns (bool)\r\n    {\r\n        _transfer(_msgSender(), _recipient, _amount);\r\n        return true;\r\n    }\r\n\r\n    function allowance(address _owner, address _spender)\r\n        public\r\n        view\r\n        override\r\n        returns (uint256)\r\n    {\r\n        return _allowances[_owner][_spender];\r\n    }\r\n\r\n    function approve(address _spender, uint256 _amount)\r\n        public\r\n        override\r\n        returns (bool)\r\n    {\r\n        _approve(_msgSender(), _spender, _amount);\r\n        return true;\r\n    }\r\n\r\n    function transferFrom(\r\n        address _sender,\r\n        address _recipient,\r\n        uint256 _amount\r\n    ) public override returns (bool) {\r\n        _transfer(_sender, _recipient, _amount);\r\n\r\n        uint256 currentAllowance = _allowances[_sender][_msgSender()];\r\n        require(\r\n            currentAllowance >= _amount,\r\n            \"ERC20: transfer amount exceeds allowance\"\r\n        );\r\n        _approve(_sender, _msgSender(), currentAllowance - _amount);\r\n\r\n        return true;\r\n    }\r\n\r\n    function increaseAllowance(address spender, uint256 addedValue)\r\n        public\r\n        returns (bool)\r\n    {\r\n        _approve(\r\n            _msgSender(),\r\n            spender,\r\n            _allowances[_msgSender()][spender] + addedValue\r\n        );\r\n        return true;\r\n    }\r\n\r\n    function decreaseAllowance(address _spender, uint256 subtractedValue)\r\n        public\r\n        returns (bool)\r\n    {\r\n        uint256 currentAllowance = _allowances[_msgSender()][_spender];\r\n        require(\r\n            currentAllowance >= subtractedValue,\r\n            \"ERC20: decreased allowance below zero\"\r\n        );\r\n        _approve(_msgSender(), _spender, currentAllowance - subtractedValue);\r\n\r\n        return true;\r\n    }\r\n\r\n    // Public interface ...\r\n    function setMaxTxAmountPercent(uint8 _percentage) public onlyOwner {\r\n        require(\r\n            _percentage <= percentageGranularity,\r\n            \"Panda: percentage value to high\"\r\n        );\r\n        maxTxAmountPercentage = _percentage;\r\n    }\r\n\r\n    function setNumTokensSellToAddLiquidity(uint8 _percentage)\r\n        public\r\n        onlyOwner\r\n    {\r\n        require(\r\n            _percentage <= percentageGranularity,\r\n            \"Panda: percentage value to high\"\r\n        );\r\n        numTokensSellToAddLiquidityPercentage = _percentage;\r\n    }\r\n\r\n    function setSwapAndLiquifyEnabled(bool _enabled) public onlyOwner {\r\n        swapAndLiquifyEnabled = _enabled;\r\n        emit SwapAndLiquifyEnabledUpdated(_enabled);\r\n    }\r\n\r\n    function excludeFromFee(address _address) public onlyOwner {\r\n        require(!excludedFromFee[_address], \"Panda: already excluded\");\r\n        excludedFromFee[_address] = true;\r\n    }\r\n\r\n    function includeToFee(address _address) public onlyOwner {\r\n        require(excludedFromFee[_address], \"Panda: already included\");\r\n        excludedFromFee[_address] = false;\r\n    }\r\n\r\n    function pause() public onlyOwner {\r\n        _paused = true;\r\n        emit Paused(msg.sender);\r\n    }\r\n\r\n    function unpause() public onlyOwner {\r\n        _paused = false;\r\n        emit Unpaused(msg.sender);\r\n    }\r\n\r\n    // Private interface ...\r\n    function _swapAndLiquify(uint256 contractTokenBalance) private lockMutex {\r\n        // split the contract balance into halves\r\n        uint256 half = contractTokenBalance / 2;\r\n        uint256 otherHalf = contractTokenBalance - half;\r\n\r\n        // capture the contract's current ETH balance.\r\n        // this is so that we can capture exactly the amount of ETH that the\r\n        // swap creates, and not make the liquidity event include any ETH that\r\n        // has been manually sent to the contract\r\n        uint256 initialBalance = address(this).balance;\r\n\r\n        // swap tokens for ETH\r\n        _swapTokensForEth(half); // <- this breaks the ETH -> HATE swap when swap+liquify is triggered\r\n\r\n        // how much ETH did we just swap into?\r\n        uint256 newBalance = address(this).balance - initialBalance;\r\n\r\n        // add liquidity to uniswap\r\n        _addLiquidity(otherHalf, newBalance);\r\n\r\n        emit SwapAndLiquify(half, newBalance, otherHalf);\r\n    }\r\n\r\n    function _makePairPath() private view returns (address[] memory) {\r\n        address[] memory path = new address[](2);\r\n        path[0] = address(this);\r\n        path[1] = uniswapV2Router.WETH();\r\n        return path;\r\n    }\r\n\r\n    function _swapTokensForEth(uint256 tokenAmount) private {\r\n        address[] memory path = _makePairPath();\r\n\r\n        _approve(address(this), address(uniswapV2Router), tokenAmount);\r\n        uniswapV2Router.swapExactTokensForETHSupportingFeeOnTransferTokens(\r\n            tokenAmount,\r\n            0, // accept any amount of ETH\r\n            path,\r\n            address(this),\r\n            block.timestamp\r\n        );\r\n    }\r\n\r\n    function _addLiquidity(uint256 tokenAmount, uint256 ethAmount) private {\r\n        // approve token transfer to cover all possible scenarios\r\n        _approve(address(this), address(uniswapV2Router), tokenAmount);\r\n\r\n        // add the liquidity\r\n        uniswapV2Router.addLiquidityETH{value: ethAmount}(\r\n            address(this),\r\n            tokenAmount,\r\n            0, // slippage is unavoidable\r\n            0, // slippage is unavoidable\r\n            owner(),\r\n            block.timestamp\r\n        );\r\n    }\r\n\r\n    function _approve(\r\n        address _owner,\r\n        address _spender,\r\n        uint256 _amount\r\n    ) internal virtual {\r\n        require(_owner != address(0), \"ERC20: approve from the zero address\");\r\n        require(_spender != address(0), \"ERC20: approve to the zero address\");\r\n\r\n        _allowances[_owner][_spender] = _amount;\r\n        emit Approval(_owner, _spender, _amount);\r\n    }\r\n\r\n    function _getBalances(address _holder)\r\n        private\r\n        view\r\n        returns (uint256, uint256)\r\n    {\r\n        uint256 balance = _balances[_holder];\r\n        if (balance == 0) {\r\n            return (0, 0);\r\n        }\r\n        uint256 rate = _totalSupply / balance;\r\n        if (rate == 0) {\r\n            return (balance, 0);\r\n        }\r\n        return (balance, totalReward / rate);\r\n    }\r\n\r\n    function _transfer(\r\n        address _sender,\r\n        address _recipient,\r\n        uint256 _amount\r\n    ) internal whenNotPaused {\r\n        require(_sender != address(0), \"ERC20: transfer from the zero address\");\r\n        require(\r\n            _recipient != address(0),\r\n            \"ERC20: transfer to the zero address\"\r\n        );\r\n        require(_amount > 0, \"ERC20: amount must be greater than zero\");\r\n        uint256 maxTxAmount = _maxTxAmount();\r\n        if (_sender != owner() && _recipient != owner()) {\r\n            require(\r\n                _amount <= maxTxAmount,\r\n                \"ERC20: transfer amount exceeds maximum\"\r\n            );\r\n        }\r\n        require(\r\n            balanceOf(_sender) >= _amount,\r\n            \"ERC20: transfer amount exceeds balance\"\r\n        );\r\n        // substruct sender balance and total owned rewards\r\n        _reflectSender(_sender, _amount);\r\n\r\n        // add liquidity logic ...\r\n        uint256 contractTokenBalance = balanceOf(address(this));\r\n        if (contractTokenBalance >= maxTxAmount) {\r\n            // should we ?\r\n            contractTokenBalance = maxTxAmount;\r\n        }\r\n\r\n        uint256 numTokensSellToAddLiquidity = _numTokensSellToAddLiquidity();\r\n        bool overMinTokenBalance = contractTokenBalance >=\r\n            numTokensSellToAddLiquidity;\r\n        if (\r\n            overMinTokenBalance &&\r\n            !locker &&\r\n            _sender != uniswapV2Pair &&\r\n            swapAndLiquifyEnabled\r\n        ) {\r\n            contractTokenBalance = numTokensSellToAddLiquidity;\r\n            _swapAndLiquify(contractTokenBalance);\r\n        }\r\n\r\n        // transfer with fee logic ...\r\n        bool takeFee = true;\r\n        if (excludedFromFee[_sender] && excludedFromFee[_recipient]) {\r\n            takeFee = false;\r\n        }\r\n        if (!takeFee) _disableFee();\r\n        _transferWithFee(_sender, _recipient, _amount);\r\n        if (!takeFee) _enableFee();\r\n    }\r\n\r\n    function _transferWithFee(\r\n        address _sender,\r\n        address _recipient,\r\n        uint256 _amount\r\n    ) private {\r\n        // calculate fee ...\r\n        (\r\n            uint256 _burnFee,\r\n            uint256 _supportFee,\r\n            uint256 _taxFee,\r\n            uint256 _liquidityFee\r\n        ) = _calculateFees(_amount);\r\n        uint256 _toTransferAmount = _amount -\r\n            _burnFee -\r\n            _supportFee -\r\n            _taxFee -\r\n            _liquidityFee;\r\n\r\n        _balances[_recipient] += _toTransferAmount;\r\n        rewardTotal += _taxFee;\r\n        _balances[address(this)] += _liquidityFee;\r\n        _burn(_sender, _burnFee);\r\n        _takeSupport(_sender, _supportFee);\r\n        emit Transfer(_sender, _recipient, _toTransferAmount);\r\n    }\r\n\r\n    function _reflectSender(address _sender, uint256 _amount) private {\r\n        // substract sender balance\r\n        (uint256 _rBalance, uint256 _rReward) = _getRValues(_sender, _amount);\r\n        _balances[_sender] -= _rBalance;\r\n        rewardTotal -= _rReward;\r\n    }\r\n\r\n    function _getRValues(address _sender, uint256 _amount)\r\n        private\r\n        view\r\n        returns (uint256, uint256)\r\n    {\r\n        (uint256 persistBalance, uint256 rewardBalance) = _getBalances(_sender);\r\n        uint256 total = persistBalance + rewardBalance;\r\n        // split amount into parts\r\n        uint256 rate = total / _amount;\r\n        uint256 substructBalance = persistBalance / rate;\r\n        uint256 substructReward = rewardBalance / rate;\r\n        return (substructBalance, substructReward);\r\n    }\r\n\r\n    function _calculateFees(uint256 _amount)\r\n        private\r\n        view\r\n        returns (\r\n            uint256,\r\n            uint256,\r\n            uint256,\r\n            uint256\r\n        )\r\n    {\r\n        uint256 amountToBurn = (_amount / percentageGranularity) * burnFee;\r\n        uint256 amountToSupport = (_amount / percentageGranularity) *\r\n            supportFee;\r\n        uint256 amountToCharge = (_amount / percentageGranularity) * taxFee;\r\n        uint256 amountToAddLiquidity = (_amount / percentageGranularity) *\r\n            liquidityFee;\r\n        return (\r\n            amountToBurn,\r\n            amountToSupport,\r\n            amountToCharge,\r\n            amountToAddLiquidity\r\n        );\r\n    }\r\n\r\n    function _maxTxAmount() private view returns (uint256) {\r\n        return (_totalSupply / percentageGranularity) * maxTxAmountPercentage;\r\n    }\r\n\r\n    function _numTokensSellToAddLiquidity() private view returns (uint256) {\r\n        return\r\n            (_totalSupply / percentageGranularity) *\r\n            numTokensSellToAddLiquidityPercentage;\r\n    }\r\n\r\n    function _disableFee() private {\r\n        burnFeeOrigin = burnFee;\r\n        taxFeeOrigin = taxFee;\r\n        liquidityFeeOrigin = liquidityFee;\r\n        supportFeeOrigin = supportFeeOrigin;\r\n        burnFee = 0;\r\n        liquidityFee = 0;\r\n        supportFee = 0;\r\n    }\r\n\r\n    function _enableFee() private {\r\n        taxFee = taxFeeOrigin;\r\n        liquidityFee = liquidityFeeOrigin;\r\n        supportFee = supportFeeOrigin;\r\n        burnFee = burnFeeOrigin;\r\n    }\r\n\r\n    function _takeSupport(address _sender, uint256 _toBeTaken) private {\r\n        _balances[supportWallet] += _toBeTaken;\r\n        totalSupported += _toBeTaken;\r\n        emit Transfer(_sender, supportWallet, _toBeTaken);\r\n    }\r\n\r\n    function _burn(address _sender, uint256 _toBeBurned) private {\r\n        uint256 newSupply = _totalSupply - _toBeBurned;\r\n        if (newSupply < minimalSupply) {\r\n            newSupply = minimalSupply;\r\n        }\r\n        uint256 reallyBurned = _totalSupply - newSupply;\r\n        if (reallyBurned <= 0) {\r\n            return;\r\n        }\r\n        _totalSupply = newSupply;\r\n        totalBurned += reallyBurned;\r\n        emit Transfer(_sender, address(0), reallyBurned);\r\n    }\r\n}\r\n",
  "sourcePath": "C:/Users/skyne/Dev/work/crypto/hungrypanda/contracts/HungryPanda.sol",
  "compiler": {
    "name": "solc",
    "version": "0.8.6+commit.11564f7e.Emscripten.clang"
  },
  "schemaVersion": "3.4.1",
  "updatedAt": "2021-07-10T08:57:15.833Z",
  "devdoc": {
    "kind": "dev",
    "methods": {
      "owner()": {
        "details": "Returns the address of the current owner."
      },
      "renounceOwnership()": {
        "details": "Leaves the contract without owner. It will not be possible to call `onlyOwner` functions anymore. Can only be called by the current owner. NOTE: Renouncing ownership will leave the contract without an owner, thereby removing any functionality that is only available to the owner."
      },
      "totalSupply()": {
        "details": "Returns the amount of tokens in existence."
      },
      "transferOwnership(address)": {
        "details": "Transfers ownership of the contract to a new account (`newOwner`). Can only be called by the current owner."
      }
    },
    "version": 1
  },
  "userdoc": {
    "kind": "user",
    "methods": {},
    "version": 1
  }
}