{
  "contractName": "HungryPanda",
  "abi": [
    {
      "inputs": [
        {
          "internalType": "address",
          "name": "_router",
          "type": "address"
        },
        {
          "internalType": "address",
          "name": "_wallet",
          "type": "address"
        }
      ],
      "stateMutability": "nonpayable",
      "type": "constructor"
    },
    {
      "anonymous": false,
      "inputs": [
        {
          "indexed": true,
          "internalType": "address",
          "name": "owner",
          "type": "address"
        },
        {
          "indexed": true,
          "internalType": "address",
          "name": "spender",
          "type": "address"
        },
        {
          "indexed": false,
          "internalType": "uint256",
          "name": "value",
          "type": "uint256"
        }
      ],
      "name": "Approval",
      "type": "event"
    },
    {
      "anonymous": false,
      "inputs": [
        {
          "indexed": false,
          "internalType": "uint256",
          "name": "minTokensBeforeSwap",
          "type": "uint256"
        }
      ],
      "name": "MinTokensBeforeSwapUpdated",
      "type": "event"
    },
    {
      "anonymous": false,
      "inputs": [
        {
          "indexed": true,
          "internalType": "address",
          "name": "previousOwner",
          "type": "address"
        },
        {
          "indexed": true,
          "internalType": "address",
          "name": "newOwner",
          "type": "address"
        }
      ],
      "name": "OwnershipTransferred",
      "type": "event"
    },
    {
      "anonymous": false,
      "inputs": [
        {
          "indexed": false,
          "internalType": "address",
          "name": "account",
          "type": "address"
        }
      ],
      "name": "Paused",
      "type": "event"
    },
    {
      "anonymous": false,
      "inputs": [
        {
          "indexed": false,
          "internalType": "uint256",
          "name": "tokensSwapped",
          "type": "uint256"
        },
        {
          "indexed": false,
          "internalType": "uint256",
          "name": "ethReceived",
          "type": "uint256"
        },
        {
          "indexed": false,
          "internalType": "uint256",
          "name": "tokensIntoLiqudity",
          "type": "uint256"
        }
      ],
      "name": "SwapAndLiquify",
      "type": "event"
    },
    {
      "anonymous": false,
      "inputs": [
        {
          "indexed": false,
          "internalType": "bool",
          "name": "enabled",
          "type": "bool"
        }
      ],
      "name": "SwapAndLiquifyEnabledUpdated",
      "type": "event"
    },
    {
      "anonymous": false,
      "inputs": [
        {
          "indexed": true,
          "internalType": "address",
          "name": "from",
          "type": "address"
        },
        {
          "indexed": true,
          "internalType": "address",
          "name": "to",
          "type": "address"
        },
        {
          "indexed": false,
          "internalType": "uint256",
          "name": "value",
          "type": "uint256"
        }
      ],
      "name": "Transfer",
      "type": "event"
    },
    {
      "anonymous": false,
      "inputs": [
        {
          "indexed": false,
          "internalType": "address",
          "name": "account",
          "type": "address"
        }
      ],
      "name": "Unpaused",
      "type": "event"
    },
    {
      "inputs": [],
      "name": "_WETH",
      "outputs": [
        {
          "internalType": "address",
          "name": "",
          "type": "address"
        }
      ],
      "stateMutability": "view",
      "type": "function"
    },
    {
      "inputs": [],
      "name": "bornAtTime",
      "outputs": [
        {
          "internalType": "uint256",
          "name": "",
          "type": "uint256"
        }
      ],
      "stateMutability": "view",
      "type": "function"
    },
    {
      "inputs": [],
      "name": "burnFee",
      "outputs": [
        {
          "internalType": "uint256",
          "name": "",
          "type": "uint256"
        }
      ],
      "stateMutability": "view",
      "type": "function"
    },
    {
      "inputs": [],
      "name": "burnFeeOrigin",
      "outputs": [
        {
          "internalType": "uint256",
          "name": "",
          "type": "uint256"
        }
      ],
      "stateMutability": "view",
      "type": "function"
    },
    {
      "inputs": [],
      "name": "feeGranularity",
      "outputs": [
        {
          "internalType": "uint256",
          "name": "",
          "type": "uint256"
        }
      ],
      "stateMutability": "view",
      "type": "function"
    },
    {
      "inputs": [
        {
          "internalType": "uint256",
          "name": "",
          "type": "uint256"
        }
      ],
      "name": "holdersRewarded",
      "outputs": [
        {
          "internalType": "address",
          "name": "",
          "type": "address"
        }
      ],
      "stateMutability": "view",
      "type": "function"
    },
    {
      "inputs": [],
      "name": "liquidityFee",
      "outputs": [
        {
          "internalType": "uint256",
          "name": "",
          "type": "uint256"
        }
      ],
      "stateMutability": "view",
      "type": "function"
    },
    {
      "inputs": [],
      "name": "liquidityFeeOrigin",
      "outputs": [
        {
          "internalType": "uint256",
          "name": "",
          "type": "uint256"
        }
      ],
      "stateMutability": "view",
      "type": "function"
    },
    {
      "inputs": [],
      "name": "maxTxAmount",
      "outputs": [
        {
          "internalType": "uint256",
          "name": "",
          "type": "uint256"
        }
      ],
      "stateMutability": "view",
      "type": "function"
    },
    {
      "inputs": [],
      "name": "minimalSupply",
      "outputs": [
        {
          "internalType": "uint256",
          "name": "",
          "type": "uint256"
        }
      ],
      "stateMutability": "view",
      "type": "function"
    },
    {
      "inputs": [],
      "name": "numTokensSellToAddLiquidity",
      "outputs": [
        {
          "internalType": "uint256",
          "name": "",
          "type": "uint256"
        }
      ],
      "stateMutability": "view",
      "type": "function"
    },
    {
      "inputs": [],
      "name": "owner",
      "outputs": [
        {
          "internalType": "address",
          "name": "",
          "type": "address"
        }
      ],
      "stateMutability": "view",
      "type": "function"
    },
    {
      "inputs": [],
      "name": "renounceOwnership",
      "outputs": [],
      "stateMutability": "nonpayable",
      "type": "function"
    },
    {
      "inputs": [],
      "name": "rewardTotal",
      "outputs": [
        {
          "internalType": "uint256",
          "name": "",
          "type": "uint256"
        }
      ],
      "stateMutability": "view",
      "type": "function"
    },
    {
      "inputs": [],
      "name": "supportFee",
      "outputs": [
        {
          "internalType": "uint256",
          "name": "",
          "type": "uint256"
        }
      ],
      "stateMutability": "view",
      "type": "function"
    },
    {
      "inputs": [],
      "name": "supportFeeOrigin",
      "outputs": [
        {
          "internalType": "uint256",
          "name": "",
          "type": "uint256"
        }
      ],
      "stateMutability": "view",
      "type": "function"
    },
    {
      "inputs": [],
      "name": "supportWallet",
      "outputs": [
        {
          "internalType": "address",
          "name": "",
          "type": "address"
        }
      ],
      "stateMutability": "view",
      "type": "function"
    },
    {
      "inputs": [],
      "name": "swapAndLiquifyEnabled",
      "outputs": [
        {
          "internalType": "bool",
          "name": "",
          "type": "bool"
        }
      ],
      "stateMutability": "view",
      "type": "function"
    },
    {
      "inputs": [],
      "name": "taxFee",
      "outputs": [
        {
          "internalType": "uint256",
          "name": "",
          "type": "uint256"
        }
      ],
      "stateMutability": "view",
      "type": "function"
    },
    {
      "inputs": [],
      "name": "taxFeeOrigin",
      "outputs": [
        {
          "internalType": "uint256",
          "name": "",
          "type": "uint256"
        }
      ],
      "stateMutability": "view",
      "type": "function"
    },
    {
      "inputs": [],
      "name": "totalBurned",
      "outputs": [
        {
          "internalType": "uint256",
          "name": "",
          "type": "uint256"
        }
      ],
      "stateMutability": "view",
      "type": "function"
    },
    {
      "inputs": [],
      "name": "totalSupported",
      "outputs": [
        {
          "internalType": "uint256",
          "name": "",
          "type": "uint256"
        }
      ],
      "stateMutability": "view",
      "type": "function"
    },
    {
      "inputs": [
        {
          "internalType": "address",
          "name": "newOwner",
          "type": "address"
        }
      ],
      "name": "transferOwnership",
      "outputs": [],
      "stateMutability": "nonpayable",
      "type": "function"
    },
    {
      "inputs": [],
      "name": "uniswapV2Pair",
      "outputs": [
        {
          "internalType": "address",
          "name": "",
          "type": "address"
        }
      ],
      "stateMutability": "view",
      "type": "function"
    },
    {
      "inputs": [],
      "name": "uniswapV2Router",
      "outputs": [
        {
          "internalType": "contract IUniswapV2Router02",
          "name": "",
          "type": "address"
        }
      ],
      "stateMutability": "view",
      "type": "function"
    },
    {
      "stateMutability": "payable",
      "type": "receive"
    },
    {
      "inputs": [
        {
          "internalType": "bool",
          "name": "_enabled",
          "type": "bool"
        }
      ],
      "name": "setSwapAndLiquifyEnabled",
      "outputs": [],
      "stateMutability": "nonpayable",
      "type": "function"
    },
    {
      "inputs": [
        {
          "internalType": "address",
          "name": "_address",
          "type": "address"
        }
      ],
      "name": "excludeFromFee",
      "outputs": [],
      "stateMutability": "nonpayable",
      "type": "function"
    },
    {
      "inputs": [
        {
          "internalType": "address",
          "name": "_address",
          "type": "address"
        }
      ],
      "name": "includeToFee",
      "outputs": [],
      "stateMutability": "nonpayable",
      "type": "function"
    },
    {
      "inputs": [],
      "name": "pause",
      "outputs": [],
      "stateMutability": "nonpayable",
      "type": "function"
    },
    {
      "inputs": [],
      "name": "unpause",
      "outputs": [],
      "stateMutability": "nonpayable",
      "type": "function"
    },
    {
      "inputs": [],
      "name": "name",
      "outputs": [
        {
          "internalType": "string",
          "name": "",
          "type": "string"
        }
      ],
      "stateMutability": "view",
      "type": "function"
    },
    {
      "inputs": [],
      "name": "symbol",
      "outputs": [
        {
          "internalType": "string",
          "name": "",
          "type": "string"
        }
      ],
      "stateMutability": "view",
      "type": "function"
    },
    {
      "inputs": [],
      "name": "decimals",
      "outputs": [
        {
          "internalType": "uint8",
          "name": "",
          "type": "uint8"
        }
      ],
      "stateMutability": "pure",
      "type": "function"
    },
    {
      "inputs": [],
      "name": "totalSupply",
      "outputs": [
        {
          "internalType": "uint256",
          "name": "",
          "type": "uint256"
        }
      ],
      "stateMutability": "view",
      "type": "function"
    },
    {
      "inputs": [
        {
          "internalType": "address",
          "name": "_account",
          "type": "address"
        }
      ],
      "name": "balanceOf",
      "outputs": [
        {
          "internalType": "uint256",
          "name": "",
          "type": "uint256"
        }
      ],
      "stateMutability": "view",
      "type": "function"
    },
    {
      "inputs": [
        {
          "internalType": "address",
          "name": "_recipient",
          "type": "address"
        },
        {
          "internalType": "uint256",
          "name": "_amount",
          "type": "uint256"
        }
      ],
      "name": "transfer",
      "outputs": [
        {
          "internalType": "bool",
          "name": "",
          "type": "bool"
        }
      ],
      "stateMutability": "nonpayable",
      "type": "function"
    },
    {
      "inputs": [
        {
          "internalType": "address",
          "name": "_owner",
          "type": "address"
        },
        {
          "internalType": "address",
          "name": "_spender",
          "type": "address"
        }
      ],
      "name": "allowance",
      "outputs": [
        {
          "internalType": "uint256",
          "name": "",
          "type": "uint256"
        }
      ],
      "stateMutability": "view",
      "type": "function"
    },
    {
      "inputs": [
        {
          "internalType": "address",
          "name": "_spender",
          "type": "address"
        },
        {
          "internalType": "uint256",
          "name": "_amount",
          "type": "uint256"
        }
      ],
      "name": "approve",
      "outputs": [
        {
          "internalType": "bool",
          "name": "",
          "type": "bool"
        }
      ],
      "stateMutability": "nonpayable",
      "type": "function"
    },
    {
      "inputs": [
        {
          "internalType": "address",
          "name": "_sender",
          "type": "address"
        },
        {
          "internalType": "address",
          "name": "_recipient",
          "type": "address"
        },
        {
          "internalType": "uint256",
          "name": "_amount",
          "type": "uint256"
        }
      ],
      "name": "transferFrom",
      "outputs": [
        {
          "internalType": "bool",
          "name": "",
          "type": "bool"
        }
      ],
      "stateMutability": "nonpayable",
      "type": "function"
    },
    {
      "inputs": [
        {
          "internalType": "address",
          "name": "spender",
          "type": "address"
        },
        {
          "internalType": "uint256",
          "name": "addedValue",
          "type": "uint256"
        }
      ],
      "name": "increaseAllowance",
      "outputs": [
        {
          "internalType": "bool",
          "name": "",
          "type": "bool"
        }
      ],
      "stateMutability": "nonpayable",
      "type": "function"
    },
    {
      "inputs": [
        {
          "internalType": "address",
          "name": "_spender",
          "type": "address"
        },
        {
          "internalType": "uint256",
          "name": "subtractedValue",
          "type": "uint256"
        }
      ],
      "name": "decreaseAllowance",
      "outputs": [
        {
          "internalType": "bool",
          "name": "",
          "type": "bool"
        }
      ],
      "stateMutability": "nonpayable",
      "type": "function"
    },
    {
      "inputs": [],
      "name": "totalHolders",
      "outputs": [
        {
          "internalType": "uint256",
          "name": "",
          "type": "uint256"
        }
      ],
      "stateMutability": "view",
      "type": "function"
    }
  ],
  "bytecode": "0x6101206040526012600a620000159190620009e7565b655af3107a400062000028919062000b24565b6005556040518060400160405280600b81526020017f48756e67727950616e64610000000000000000000000000000000000000000008152506006908051906020019062000078929190620007e0565b506040518060400160405280600381526020017f484750000000000000000000000000000000000000000000000000000000000081525060079080519060200190620000c6929190620007e0565b50600460085560016009556004600a556001600b55600854600c55600954600d55600a54600e55600b54600f556000601055600060115560006012556001601360016101000a81548160ff0219169083151502179055506000601360026101000a81548160ff0219169083151502179055503480156200014557600080fd5b5060405162004bb138038062004bb183398181016040528101906200016b9190620008d9565b60006200017d620007d860201b60201c565b9050806000806101000a81548173ffffffffffffffffffffffffffffffffffffffff021916908373ffffffffffffffffffffffffffffffffffffffff1602179055508073ffffffffffffffffffffffffffffffffffffffff16600073ffffffffffffffffffffffffffffffffffffffff167f8be0079c531659141344cd1fd0a4f28419497f9722a3daafe3b4186f6b6457e060405160405180910390a3504260a08181525050600082905060008173ffffffffffffffffffffffffffffffffffffffff1663c45a01556040518163ffffffff1660e01b815260040160206040518083038186803b1580156200027157600080fd5b505afa15801562000286573d6000803e3d6000fd5b505050506040513d601f19601f82011682018060405250810190620002ac9190620008a7565b73ffffffffffffffffffffffffffffffffffffffff1663c9c65396308473ffffffffffffffffffffffffffffffffffffffff1663ad5c46486040518163ffffffff1660e01b815260040160206040518083038186803b1580156200030f57600080fd5b505afa15801562000324573d6000803e3d6000fd5b505050506040513d601f19601f820116820180604052508101906200034a9190620008a7565b6040518363ffffffff1660e01b81526004016200036992919062000942565b602060405180830381600087803b1580156200038457600080fd5b505af115801562000399573d6000803e3d6000fd5b505050506040513d601f19601f82011682018060405250810190620003bf9190620008a7565b90508173ffffffffffffffffffffffffffffffffffffffff1660c08173ffffffffffffffffffffffffffffffffffffffff1660601b815250508173ffffffffffffffffffffffffffffffffffffffff1663ad5c46486040518163ffffffff1660e01b815260040160206040518083038186803b1580156200043f57600080fd5b505afa15801562000454573d6000803e3d6000fd5b505050506040513d601f19601f820116820180604052508101906200047a9190620008a7565b73ffffffffffffffffffffffffffffffffffffffff166101008173ffffffffffffffffffffffffffffffffffffffff1660601b815250508073ffffffffffffffffffffffffffffffffffffffff1660e08173ffffffffffffffffffffffffffffffffffffffff1660601b815250506001600260003073ffffffffffffffffffffffffffffffffffffffff1673ffffffffffffffffffffffffffffffffffffffff16815260200190815260200160002060006101000a81548160ff02191690831515021790555060016002600062000556620007d860201b60201c565b73ffffffffffffffffffffffffffffffffffffffff1673ffffffffffffffffffffffffffffffffffffffff16815260200190815260200160002060006101000a81548160ff0219169083151502179055506001600260008473ffffffffffffffffffffffffffffffffffffffff1673ffffffffffffffffffffffffffffffffffffffff16815260200190815260200160002060006101000a81548160ff0219169083151502179055506001600260008373ffffffffffffffffffffffffffffffffffffffff1673ffffffffffffffffffffffffffffffffffffffff16815260200190815260200160002060006101000a81548160ff021916908315150217905550600362000669620007d860201b60201c565b9080600181540180825580915050600190039060005260206000200160009091909190916101000a81548173ffffffffffffffffffffffffffffffffffffffff021916908373ffffffffffffffffffffffffffffffffffffffff1602179055508273ffffffffffffffffffffffffffffffffffffffff1660808173ffffffffffffffffffffffffffffffffffffffff1660601b815250506005546001600062000717620007d860201b60201c565b73ffffffffffffffffffffffffffffffffffffffff1673ffffffffffffffffffffffffffffffffffffffff1681526020019081526020016000208190555062000765620007d860201b60201c565b73ffffffffffffffffffffffffffffffffffffffff16600073ffffffffffffffffffffffffffffffffffffffff167fddf252ad1be2c89b69c2b068fc378daa952ba7f163c4a11628f55a4df523b3ef600554604051620007c691906200096f565b60405180910390a35050505062000c90565b600033905090565b828054620007ee9062000bd0565b90600052602060002090601f0160209004810192826200081257600085556200085e565b82601f106200082d57805160ff19168380011785556200085e565b828001600101855582156200085e579182015b828111156200085d57825182559160200191906001019062000840565b5b5090506200086d919062000871565b5090565b5b808211156200088c57600081600090555060010162000872565b5090565b600081519050620008a18162000c76565b92915050565b600060208284031215620008c057620008bf62000c64565b5b6000620008d08482850162000890565b91505092915050565b60008060408385031215620008f357620008f262000c64565b5b6000620009038582860162000890565b9250506020620009168582860162000890565b9150509250929050565b6200092b8162000b85565b82525050565b6200093c8162000bb9565b82525050565b600060408201905062000959600083018562000920565b62000968602083018462000920565b9392505050565b600060208201905062000986600083018462000931565b92915050565b6000808291508390505b6001851115620009de57808604811115620009b657620009b562000c06565b5b6001851615620009c65780820291505b8081029050620009d68562000c69565b945062000996565b94509492505050565b6000620009f48262000bb9565b915062000a018362000bc3565b925062000a307fffffffffffffffffffffffffffffffffffffffffffffffffffffffffffffffff848462000a38565b905092915050565b60008262000a4a576001905062000b1d565b8162000a5a576000905062000b1d565b816001811462000a73576002811462000a7e5762000ab4565b600191505062000b1d565b60ff84111562000a935762000a9262000c06565b5b8360020a91508482111562000aad5762000aac62000c06565b5b5062000b1d565b5060208310610133831016604e8410600b841016171562000aee5782820a90508381111562000ae85762000ae762000c06565b5b62000b1d565b62000afd84848460016200098c565b9250905081840481111562000b175762000b1662000c06565b5b81810290505b9392505050565b600062000b318262000bb9565b915062000b3e8362000bb9565b9250817fffffffffffffffffffffffffffffffffffffffffffffffffffffffffffffffff048311821515161562000b7a5762000b7962000c06565b5b828202905092915050565b600062000b928262000b99565b9050919050565b600073ffffffffffffffffffffffffffffffffffffffff82169050919050565b6000819050919050565b600060ff82169050919050565b6000600282049050600182168062000be957607f821691505b6020821081141562000c005762000bff62000c35565b5b50919050565b7f4e487b7100000000000000000000000000000000000000000000000000000000600052601160045260246000fd5b7f4e487b7100000000000000000000000000000000000000000000000000000000600052602260045260246000fd5b600080fd5b60008160011c9050919050565b62000c818162000b85565b811462000c8d57600080fd5b50565b60805160601c60a05160c05160601c60e05160601c6101005160601c613e9862000d1960003960006118ab01526000818161103c0152611fd1015260008181610a6d015281816124e70152818161250e015281816125aa015281816125d10152612be9015260006112fa0152600081816114fd01528181612a370152612ac10152613e986000f3fe6080604052600436106102555760003560e01c80638da5cb5b11610139578063cf0848f7116100b6578063e0af36161161007a578063e0af3616146108bb578063ebd3e523146108e6578063f2fde38b14610911578063f420a4201461093a578063f959680b14610965578063fce589d8146109905761025c565b8063cf0848f7146107c2578063d89135cd146107eb578063dcd5775b14610816578063dd62ed3e14610841578063dd6e7a861461087e5761025c565b8063a9059cbb116100fd578063a9059cbb146106db578063b3fb736914610718578063b60eaaaa14610743578063c49b9a801461076e578063ca302ffa146107975761025c565b80638da5cb5b146105f257806395d89b411461061d57806398118cb414610648578063a071dcf414610673578063a457c2d71461069e5761025c565b8063437823ec116101d257806354b7fd7c1161019657806354b7fd7c1461050657806370a0823114610531578063715018a61461056e5780638456cb59146105855780638c0b5e221461059c5780638d000264146105c75761025c565b8063437823ec1461043157806344cd5d721461045a57806349bd5a5e146104855780634a74bb02146104b057806353d74fdf146104db5761025c565b806323b872dd1161021957806323b872dd1461034a578063313ce5671461038757806339509351146103b25780633a4e0b97146103ef5780633f4ba83a1461041a5761025c565b806306fdde0314610261578063095ea7b31461028c5780631694505e146102c957806317c57272146102f457806318160ddd1461031f5761025c565b3661025c57005b600080fd5b34801561026d57600080fd5b506102766109bb565b6040516102839190613269565b60405180910390f35b34801561029857600080fd5b506102b360048036038101906102ae9190612e1b565b610a4d565b6040516102c09190613233565b60405180910390f35b3480156102d557600080fd5b506102de610a6b565b6040516102eb919061324e565b60405180910390f35b34801561030057600080fd5b50610309610a8f565b604051610316919061344b565b60405180910390f35b34801561032b57600080fd5b50610334610a94565b604051610341919061344b565b60405180910390f35b34801561035657600080fd5b50610371600480360381019061036c9190612dc8565b610a9e565b60405161037e9190613233565b60405180910390f35b34801561039357600080fd5b5061039c610b9f565b6040516103a991906134f7565b60405180910390f35b3480156103be57600080fd5b506103d960048036038101906103d49190612e1b565b610ba8565b6040516103e69190613233565b60405180910390f35b3480156103fb57600080fd5b50610404610c54565b604051610411919061344b565b60405180910390f35b34801561042657600080fd5b5061042f610c5a565b005b34801561043d57600080fd5b5061045860048036038101906104539190612d2e565b610d2a565b005b34801561046657600080fd5b5061046f611019565b60405161047c919061344b565b60405180910390f35b34801561049157600080fd5b5061049a61103a565b6040516104a791906131b7565b60405180910390f35b3480156104bc57600080fd5b506104c561105e565b6040516104d29190613233565b60405180910390f35b3480156104e757600080fd5b506104f0611071565b6040516104fd919061344b565b60405180910390f35b34801561051257600080fd5b5061051b61107e565b604051610528919061344b565b60405180910390f35b34801561053d57600080fd5b5061055860048036038101906105539190612d2e565b611084565b604051610565919061344b565b60405180910390f35b34801561057a57600080fd5b506105836110cd565b005b34801561059157600080fd5b5061059a611207565b005b3480156105a857600080fd5b506105b16112d7565b6040516105be919061344b565b60405180910390f35b3480156105d357600080fd5b506105dc6112f8565b6040516105e9919061344b565b60405180910390f35b3480156105fe57600080fd5b5061060761131c565b60405161061491906131b7565b60405180910390f35b34801561062957600080fd5b50610632611345565b60405161063f9190613269565b60405180910390f35b34801561065457600080fd5b5061065d6113d7565b60405161066a919061344b565b60405180910390f35b34801561067f57600080fd5b506106886113dd565b604051610695919061344b565b60405180910390f35b3480156106aa57600080fd5b506106c560048036038101906106c09190612e1b565b6113e3565b6040516106d29190613233565b60405180910390f35b3480156106e757600080fd5b5061070260048036038101906106fd9190612e1b565b6114d7565b60405161070f9190613233565b60405180910390f35b34801561072457600080fd5b5061072d6114f5565b60405161073a919061344b565b60405180910390f35b34801561074f57600080fd5b506107586114fb565b60405161076591906131b7565b60405180910390f35b34801561077a57600080fd5b5061079560048036038101906107909190612e5b565b61151f565b005b3480156107a357600080fd5b506107ac6115ef565b6040516107b9919061344b565b60405180910390f35b3480156107ce57600080fd5b506107e960048036038101906107e49190612d2e565b6115f5565b005b3480156107f757600080fd5b506108006117bb565b60405161080d919061344b565b60405180910390f35b34801561082257600080fd5b5061082b6117c1565b604051610838919061344b565b60405180910390f35b34801561084d57600080fd5b5061086860048036038101906108639190612d88565b6117e3565b604051610875919061344b565b60405180910390f35b34801561088a57600080fd5b506108a560048036038101906108a09190612e88565b61186a565b6040516108b291906131b7565b60405180910390f35b3480156108c757600080fd5b506108d06118a9565b6040516108dd91906131b7565b60405180910390f35b3480156108f257600080fd5b506108fb6118cd565b604051610908919061344b565b60405180910390f35b34801561091d57600080fd5b5061093860048036038101906109339190612d2e565b6118d3565b005b34801561094657600080fd5b5061094f611a7c565b60405161095c919061344b565b60405180910390f35b34801561097157600080fd5b5061097a611a82565b604051610987919061344b565b60405180910390f35b34801561099c57600080fd5b506109a5611a88565b6040516109b2919061344b565b60405180910390f35b6060600680546109ca906138ab565b80601f01602080910402602001604051908101604052809291908181526020018280546109f6906138ab565b8015610a435780601f10610a1857610100808354040283529160200191610a43565b820191906000526020600020905b815481529060010190602001808311610a2657829003601f168201915b5050505050905090565b6000610a61610a5a611a8e565b8484611a96565b6001905092915050565b7f000000000000000000000000000000000000000000000000000000000000000081565b606481565b6000600554905090565b6000610aab848484611c61565b6000600460008673ffffffffffffffffffffffffffffffffffffffff1673ffffffffffffffffffffffffffffffffffffffff1681526020019081526020016000206000610af6611a8e565b73ffffffffffffffffffffffffffffffffffffffff1673ffffffffffffffffffffffffffffffffffffffff16815260200190815260200160002054905082811015610b76576040517f08c379a0000000000000000000000000000000000000000000000000000000008152600401610b6d9061336b565b60405180910390fd5b610b9385610b82611a8e565b8584610b8e91906137b9565b611a96565b60019150509392505050565b60006012905090565b6000610c4a610bb5611a8e565b848460046000610bc3611a8e565b73ffffffffffffffffffffffffffffffffffffffff1673ffffffffffffffffffffffffffffffffffffffff16815260200190815260200160002060008873ffffffffffffffffffffffffffffffffffffffff1673ffffffffffffffffffffffffffffffffffffffff16815260200190815260200160002054610c459190613567565b611a96565b6001905092915050565b600f5481565b610c62611a8e565b73ffffffffffffffffffffffffffffffffffffffff16610c8061131c565b73ffffffffffffffffffffffffffffffffffffffff1614610cd6576040517f08c379a0000000000000000000000000000000000000000000000000000000008152600401610ccd9061338b565b60405180910390fd5b6000601360026101000a81548160ff0219169083151502179055507f5db9ee0a495bf2e6ff9c91a7834c1ba4fdd244a5e8aa4e537bd38aeae4b073aa33604051610d2091906131b7565b60405180910390a1565b610d32611a8e565b73ffffffffffffffffffffffffffffffffffffffff16610d5061131c565b73ffffffffffffffffffffffffffffffffffffffff1614610da6576040517f08c379a0000000000000000000000000000000000000000000000000000000008152600401610d9d9061338b565b60405180910390fd5b600260008273ffffffffffffffffffffffffffffffffffffffff1673ffffffffffffffffffffffffffffffffffffffff16815260200190815260200160002060009054906101000a900460ff1615610e33576040517f08c379a0000000000000000000000000000000000000000000000000000000008152600401610e2a9061332b565b60405180910390fd5b6000600380549050905060005b81811015610fbc5760038181548110610e5c57610e5b6139e2565b5b9060005260206000200160009054906101000a900473ffffffffffffffffffffffffffffffffffffffff1673ffffffffffffffffffffffffffffffffffffffff168373ffffffffffffffffffffffffffffffffffffffff161415610fa9576003600183610ec991906137b9565b81548110610eda57610ed96139e2565b5b9060005260206000200160009054906101000a900473ffffffffffffffffffffffffffffffffffffffff1660038281548110610f1957610f186139e2565b5b9060005260206000200160006101000a81548173ffffffffffffffffffffffffffffffffffffffff021916908373ffffffffffffffffffffffffffffffffffffffff1602179055506003805480610f7357610f726139b3565b5b6001900381819060005260206000200160006101000a81549073ffffffffffffffffffffffffffffffffffffffff021916905590555b8080610fb4906138dd565b915050610e40565b506001600260008473ffffffffffffffffffffffffffffffffffffffff1673ffffffffffffffffffffffffffffffffffffffff16815260200190815260200160002060006101000a81548160ff0219169083151502179055505050565b6012600a6110279190613641565b64174876e800611037919061375f565b81565b7f000000000000000000000000000000000000000000000000000000000000000081565b601360019054906101000a900460ff1681565b6000600380549050905090565b600e5481565b6000600160008373ffffffffffffffffffffffffffffffffffffffff1673ffffffffffffffffffffffffffffffffffffffff168152602001908152602001600020549050919050565b6110d5611a8e565b73ffffffffffffffffffffffffffffffffffffffff166110f361131c565b73ffffffffffffffffffffffffffffffffffffffff1614611149576040517f08c379a00000000000000000000000000000000000000000000000000000000081526004016111409061338b565b60405180910390fd5b600073ffffffffffffffffffffffffffffffffffffffff1660008054906101000a900473ffffffffffffffffffffffffffffffffffffffff1673ffffffffffffffffffffffffffffffffffffffff167f8be0079c531659141344cd1fd0a4f28419497f9722a3daafe3b4186f6b6457e060405160405180910390a360008060006101000a81548173ffffffffffffffffffffffffffffffffffffffff021916908373ffffffffffffffffffffffffffffffffffffffff160217905550565b61120f611a8e565b73ffffffffffffffffffffffffffffffffffffffff1661122d61131c565b73ffffffffffffffffffffffffffffffffffffffff1614611283576040517f08c379a000000000000000000000000000000000000000000000000000000000815260040161127a9061338b565b60405180910390fd5b6001601360026101000a81548160ff0219169083151502179055507f62e78cea01bee320cd4e420270b5ea74000d11b0c9f74754ebdbfc544b05a258336040516112cd91906131b7565b60405180910390a1565b6012600a6112e59190613641565b64e8d4a510006112f5919061375f565b81565b7f000000000000000000000000000000000000000000000000000000000000000081565b60008060009054906101000a900473ffffffffffffffffffffffffffffffffffffffff16905090565b606060078054611354906138ab565b80601f0160208091040260200160405190810160405280929190818152602001828054611380906138ab565b80156113cd5780601f106113a2576101008083540402835291602001916113cd565b820191906000526020600020905b8154815290600101906020018083116113b057829003601f168201915b5050505050905090565b600a5481565b60085481565b600080600460006113f2611a8e565b73ffffffffffffffffffffffffffffffffffffffff1673ffffffffffffffffffffffffffffffffffffffff16815260200190815260200160002060008573ffffffffffffffffffffffffffffffffffffffff1673ffffffffffffffffffffffffffffffffffffffff168152602001908152602001600020549050828110156114af576040517f08c379a00000000000000000000000000000000000000000000000000000000081526004016114a69061342b565b60405180910390fd5b6114cc6114ba611a8e565b8585846114c791906137b9565b611a96565b600191505092915050565b60006114eb6114e4611a8e565b8484611c61565b6001905092915050565b600c5481565b7f000000000000000000000000000000000000000000000000000000000000000081565b611527611a8e565b73ffffffffffffffffffffffffffffffffffffffff1661154561131c565b73ffffffffffffffffffffffffffffffffffffffff161461159b576040517f08c379a00000000000000000000000000000000000000000000000000000000081526004016115929061338b565b60405180910390fd5b80601360016101000a81548160ff0219169083151502179055507f53726dfcaf90650aa7eb35524f4d3220f07413c8d6cb404cc8c18bf5591bc159816040516115e49190613233565b60405180910390a150565b600b5481565b6115fd611a8e565b73ffffffffffffffffffffffffffffffffffffffff1661161b61131c565b73ffffffffffffffffffffffffffffffffffffffff1614611671576040517f08c379a00000000000000000000000000000000000000000000000000000000081526004016116689061338b565b60405180910390fd5b600260008273ffffffffffffffffffffffffffffffffffffffff1673ffffffffffffffffffffffffffffffffffffffff16815260200190815260200160002060009054906101000a900460ff166116fd576040517f08c379a00000000000000000000000000000000000000000000000000000000081526004016116f4906133cb565b60405180910390fd5b6000600260008373ffffffffffffffffffffffffffffffffffffffff1673ffffffffffffffffffffffffffffffffffffffff16815260200190815260200160002060006101000a81548160ff0219169083151502179055506003819080600181540180825580915050600190039060005260206000200160009091909190916101000a81548173ffffffffffffffffffffffffffffffffffffffff021916908373ffffffffffffffffffffffffffffffffffffffff16021790555050565b60105481565b6012600a6117cf9190613641565b65246139ca80006117e0919061375f565b81565b6000600460008473ffffffffffffffffffffffffffffffffffffffff1673ffffffffffffffffffffffffffffffffffffffff16815260200190815260200160002060008373ffffffffffffffffffffffffffffffffffffffff1673ffffffffffffffffffffffffffffffffffffffff16815260200190815260200160002054905092915050565b6003818154811061187a57600080fd5b906000526020600020016000915054906101000a900473ffffffffffffffffffffffffffffffffffffffff1681565b7f000000000000000000000000000000000000000000000000000000000000000081565b600d5481565b6118db611a8e565b73ffffffffffffffffffffffffffffffffffffffff166118f961131c565b73ffffffffffffffffffffffffffffffffffffffff161461194f576040517f08c379a00000000000000000000000000000000000000000000000000000000081526004016119469061338b565b60405180910390fd5b600073ffffffffffffffffffffffffffffffffffffffff168173ffffffffffffffffffffffffffffffffffffffff1614156119bf576040517f08c379a00000000000000000000000000000000000000000000000000000000081526004016119b6906132ab565b60405180910390fd5b8073ffffffffffffffffffffffffffffffffffffffff1660008054906101000a900473ffffffffffffffffffffffffffffffffffffffff1673ffffffffffffffffffffffffffffffffffffffff167f8be0079c531659141344cd1fd0a4f28419497f9722a3daafe3b4186f6b6457e060405160405180910390a3806000806101000a81548173ffffffffffffffffffffffffffffffffffffffff021916908373ffffffffffffffffffffffffffffffffffffffff16021790555050565b60125481565b60115481565b60095481565b600033905090565b600073ffffffffffffffffffffffffffffffffffffffff168373ffffffffffffffffffffffffffffffffffffffff161415611b06576040517f08c379a0000000000000000000000000000000000000000000000000000000008152600401611afd9061340b565b60405180910390fd5b600073ffffffffffffffffffffffffffffffffffffffff168273ffffffffffffffffffffffffffffffffffffffff161415611b76576040517f08c379a0000000000000000000000000000000000000000000000000000000008152600401611b6d906132cb565b60405180910390fd5b80600460008573ffffffffffffffffffffffffffffffffffffffff1673ffffffffffffffffffffffffffffffffffffffff16815260200190815260200160002060008473ffffffffffffffffffffffffffffffffffffffff1673ffffffffffffffffffffffffffffffffffffffff168152602001908152602001600020819055508173ffffffffffffffffffffffffffffffffffffffff168373ffffffffffffffffffffffffffffffffffffffff167f8c5be1e5ebec7d5bd14f71427d1e84f3dd0314c0f7b2291e5b200ac8c7c3b92583604051611c54919061344b565b60405180910390a3505050565b601360029054906101000a900460ff1615611cb1576040517f08c379a0000000000000000000000000000000000000000000000000000000008152600401611ca89061330b565b60405180910390fd5b600073ffffffffffffffffffffffffffffffffffffffff168373ffffffffffffffffffffffffffffffffffffffff161415611d21576040517f08c379a0000000000000000000000000000000000000000000000000000000008152600401611d18906133eb565b60405180910390fd5b600073ffffffffffffffffffffffffffffffffffffffff168273ffffffffffffffffffffffffffffffffffffffff161415611d91576040517f08c379a0000000000000000000000000000000000000000000000000000000008152600401611d889061328b565b60405180910390fd5b60008111611dd4576040517f08c379a0000000000000000000000000000000000000000000000000000000008152600401611dcb906133ab565b60405180910390fd5b6000600160008573ffffffffffffffffffffffffffffffffffffffff1673ffffffffffffffffffffffffffffffffffffffff16815260200190815260200160002054905081811015611e5b576040517f08c379a0000000000000000000000000000000000000000000000000000000008152600401611e52906132eb565b60405180910390fd5b611e6361131c565b73ffffffffffffffffffffffffffffffffffffffff168473ffffffffffffffffffffffffffffffffffffffff1614158015611ed15750611ea161131c565b73ffffffffffffffffffffffffffffffffffffffff168373ffffffffffffffffffffffffffffffffffffffff1614155b15611f37576012600a611ee49190613641565b64e8d4a51000611ef4919061375f565b821115611f36576040517f08c379a0000000000000000000000000000000000000000000000000000000008152600401611f2d9061334b565b60405180910390fd5b5b6000611f4230611084565b90506012600a611f529190613641565b64e8d4a51000611f62919061375f565b8110611f89576012600a611f769190613641565b64e8d4a51000611f86919061375f565b90505b60006012600a611f999190613641565b64174876e800611fa9919061375f565b8210159050808015611fc85750601360009054906101000a900460ff16155b801561202057507f000000000000000000000000000000000000000000000000000000000000000073ffffffffffffffffffffffffffffffffffffffff168673ffffffffffffffffffffffffffffffffffffffff1614155b80156120385750601360019054906101000a900460ff165b15612067576012600a61204b9190613641565b64174876e80061205b919061375f565b915061206682612149565b5b600060019050600260008873ffffffffffffffffffffffffffffffffffffffff1673ffffffffffffffffffffffffffffffffffffffff16815260200190815260200160002060009054906101000a900460ff16801561210f5750600260008773ffffffffffffffffffffffffffffffffffffffff1673ffffffffffffffffffffffffffffffffffffffff16815260200190815260200160002060009054906101000a900460ff165b1561211957600090505b806121275761212661220a565b5b612132878787612250565b806121405761213f6124af565b5b50505050505050565b6001601360006101000a81548160ff021916908315150217905550600060028261217391906135bd565b90506000818361218391906137b9565b90506000479050612193836124d5565b600081476121a191906137b9565b90506121ad83826125a4565b7f17bbfb9a6069321b6ded73bd96327c9e6b7212a5cd51ff219cd61370acafb5618482856040516121e0939291906134c0565b60405180910390a1505050506000601360006101000a81548160ff02191690831515021790555050565b600854600c81905550600954600d81905550600a54600e81905550600f54600f81905550600060088190555060006009819055506000600a819055506000600b81905550565b600080600080600061226186612671565b94509450945094509450612275888461273e565b61227f8886612928565b6122898885612a30565b81600160003073ffffffffffffffffffffffffffffffffffffffff1673ffffffffffffffffffffffffffffffffffffffff16815260200190815260200160002060008282546122d89190613567565b9250508190555085600160008a73ffffffffffffffffffffffffffffffffffffffff1673ffffffffffffffffffffffffffffffffffffffff168152602001908152602001600020600082825461232e91906137b9565b9250508190555080600160008973ffffffffffffffffffffffffffffffffffffffff1673ffffffffffffffffffffffffffffffffffffffff16815260200190815260200160002060008282546123849190613567565b92505081905550600260008873ffffffffffffffffffffffffffffffffffffffff1673ffffffffffffffffffffffffffffffffffffffff16815260200190815260200160002060009054906101000a900460ff16612440576003879080600181540180825580915050600190039060005260206000200160009091909190916101000a81548173ffffffffffffffffffffffffffffffffffffffff021916908373ffffffffffffffffffffffffffffffffffffffff1602179055505b8673ffffffffffffffffffffffffffffffffffffffff168873ffffffffffffffffffffffffffffffffffffffff167fddf252ad1be2c89b69c2b068fc378daa952ba7f163c4a11628f55a4df523b3ef8360405161249d919061344b565b60405180910390a35050505050505050565b600c54600881905550600d54600981905550600e54600a81905550600f54600b81905550565b60006124df612b48565b905061250c307f000000000000000000000000000000000000000000000000000000000000000084611a96565b7f000000000000000000000000000000000000000000000000000000000000000073ffffffffffffffffffffffffffffffffffffffff1663791ac9478360008430426040518663ffffffff1660e01b815260040161256e959493929190613466565b600060405180830381600087803b15801561258857600080fd5b505af115801561259c573d6000803e3d6000fd5b505050505050565b6125cf307f000000000000000000000000000000000000000000000000000000000000000084611a96565b7f000000000000000000000000000000000000000000000000000000000000000073ffffffffffffffffffffffffffffffffffffffff1663f305d71982308560008061261961131c565b426040518863ffffffff1660e01b815260040161263b969594939291906131d2565b6000604051808303818588803b15801561265457600080fd5b505af1158015612668573d6000803e3d6000fd5b50505050505050565b60008060008060008060095460648861268a91906135bd565b612694919061375f565b90506000600b546064896126a891906135bd565b6126b2919061375f565b9050600060085460648a6126c691906135bd565b6126d0919061375f565b90506000600a5460648b6126e491906135bd565b6126ee919061375f565b90506000818385878e61270191906137b9565b61270b91906137b9565b61271591906137b9565b61271f91906137b9565b9050848484848499509950995099509950505050505091939590929450565b80601160008282546127509190613567565b9250508190555060006012600a6127679190613641565b60055461277491906135bd565b905060005b6003805490508110156129225760006003828154811061279c5761279b6139e2565b5b9060005260206000200160009054906101000a900473ffffffffffffffffffffffffffffffffffffffff16905060006012600a6127d99190613641565b600160008473ffffffffffffffffffffffffffffffffffffffff1673ffffffffffffffffffffffffffffffffffffffff1681526020019081526020016000205461282391906135bd565b9050600081141561283557505061290f565b6000818561284391906135bd565b8661284e91906135bd565b905080600160008573ffffffffffffffffffffffffffffffffffffffff1673ffffffffffffffffffffffffffffffffffffffff168152602001908152602001600020600082825461289f9190613567565b925050819055508273ffffffffffffffffffffffffffffffffffffffff168773ffffffffffffffffffffffffffffffffffffffff167fddf252ad1be2c89b69c2b068fc378daa952ba7f163c4a11628f55a4df523b3ef83604051612903919061344b565b60405180910390a35050505b808061291a906138dd565b915050612779565b50505050565b60008160055461293891906137b9565b90506012600a6129489190613641565b65246139ca8000612959919061375f565b811015612982576012600a61296e9190613641565b65246139ca800061297f919061375f565b90505b60008160055461299291906137b9565b9050600081116129a3575050612a2c565b8160058190555080601060008282546129bc9190613567565b92505081905550600073ffffffffffffffffffffffffffffffffffffffff168473ffffffffffffffffffffffffffffffffffffffff167fddf252ad1be2c89b69c2b068fc378daa952ba7f163c4a11628f55a4df523b3ef83604051612a21919061344b565b60405180910390a350505b5050565b80600160007f000000000000000000000000000000000000000000000000000000000000000073ffffffffffffffffffffffffffffffffffffffff1673ffffffffffffffffffffffffffffffffffffffff1681526020019081526020016000206000828254612a9f9190613567565b925050819055508060126000828254612ab89190613567565b925050819055507f000000000000000000000000000000000000000000000000000000000000000073ffffffffffffffffffffffffffffffffffffffff168273ffffffffffffffffffffffffffffffffffffffff167fddf252ad1be2c89b69c2b068fc378daa952ba7f163c4a11628f55a4df523b3ef83604051612b3c919061344b565b60405180910390a35050565b60606000600267ffffffffffffffff811115612b6757612b66613a11565b5b604051908082528060200260200182016040528015612b955781602001602082028036833780820191505090505b5090503081600081518110612bad57612bac6139e2565b5b602002602001019073ffffffffffffffffffffffffffffffffffffffff16908173ffffffffffffffffffffffffffffffffffffffff16815250507f000000000000000000000000000000000000000000000000000000000000000073ffffffffffffffffffffffffffffffffffffffff1663ad5c46486040518163ffffffff1660e01b815260040160206040518083038186803b158015612c4d57600080fd5b505afa158015612c61573d6000803e3d6000fd5b505050506040513d601f19601f82011682018060405250810190612c859190612d5b565b81600181518110612c9957612c986139e2565b5b602002602001019073ffffffffffffffffffffffffffffffffffffffff16908173ffffffffffffffffffffffffffffffffffffffff16815250508091505090565b600081359050612ce981613e1d565b92915050565b600081519050612cfe81613e1d565b92915050565b600081359050612d1381613e34565b92915050565b600081359050612d2881613e4b565b92915050565b600060208284031215612d4457612d43613a40565b5b6000612d5284828501612cda565b91505092915050565b600060208284031215612d7157612d70613a40565b5b6000612d7f84828501612cef565b91505092915050565b60008060408385031215612d9f57612d9e613a40565b5b6000612dad85828601612cda565b9250506020612dbe85828601612cda565b9150509250929050565b600080600060608486031215612de157612de0613a40565b5b6000612def86828701612cda565b9350506020612e0086828701612cda565b9250506040612e1186828701612d19565b9150509250925092565b60008060408385031215612e3257612e31613a40565b5b6000612e4085828601612cda565b9250506020612e5185828601612d19565b9150509250929050565b600060208284031215612e7157612e70613a40565b5b6000612e7f84828501612d04565b91505092915050565b600060208284031215612e9e57612e9d613a40565b5b6000612eac84828501612d19565b91505092915050565b6000612ec18383612ecd565b60208301905092915050565b612ed6816137ed565b82525050565b612ee5816137ed565b82525050565b6000612ef682613522565b612f008185613545565b9350612f0b83613512565b8060005b83811015612f3c578151612f238882612eb5565b9750612f2e83613538565b925050600181019050612f0f565b5085935050505092915050565b612f52816137ff565b82525050565b612f6181613842565b82525050565b612f7081613866565b82525050565b6000612f818261352d565b612f8b8185613556565b9350612f9b818560208601613878565b612fa481613a45565b840191505092915050565b6000612fbc602383613556565b9150612fc782613a63565b604082019050919050565b6000612fdf602683613556565b9150612fea82613ab2565b604082019050919050565b6000613002602283613556565b915061300d82613b01565b604082019050919050565b6000613025602683613556565b915061303082613b50565b604082019050919050565b6000613048600d83613556565b915061305382613b9f565b602082019050919050565b600061306b601783613556565b915061307682613bc8565b602082019050919050565b600061308e602683613556565b915061309982613bf1565b604082019050919050565b60006130b1602883613556565b91506130bc82613c40565b604082019050919050565b60006130d4602083613556565b91506130df82613c8f565b602082019050919050565b60006130f7602783613556565b915061310282613cb8565b604082019050919050565b600061311a601783613556565b915061312582613d07565b602082019050919050565b600061313d602583613556565b915061314882613d30565b604082019050919050565b6000613160602483613556565b915061316b82613d7f565b604082019050919050565b6000613183602583613556565b915061318e82613dce565b604082019050919050565b6131a28161382b565b82525050565b6131b181613835565b82525050565b60006020820190506131cc6000830184612edc565b92915050565b600060c0820190506131e76000830189612edc565b6131f46020830188613199565b6132016040830187612f67565b61320e6060830186612f67565b61321b6080830185612edc565b61322860a0830184613199565b979650505050505050565b60006020820190506132486000830184612f49565b92915050565b60006020820190506132636000830184612f58565b92915050565b600060208201905081810360008301526132838184612f76565b905092915050565b600060208201905081810360008301526132a481612faf565b9050919050565b600060208201905081810360008301526132c481612fd2565b9050919050565b600060208201905081810360008301526132e481612ff5565b9050919050565b6000602082019050818103600083015261330481613018565b9050919050565b600060208201905081810360008301526133248161303b565b9050919050565b600060208201905081810360008301526133448161305e565b9050919050565b6000602082019050818103600083015261336481613081565b9050919050565b60006020820190508181036000830152613384816130a4565b9050919050565b600060208201905081810360008301526133a4816130c7565b9050919050565b600060208201905081810360008301526133c4816130ea565b9050919050565b600060208201905081810360008301526133e48161310d565b9050919050565b6000602082019050818103600083015261340481613130565b9050919050565b6000602082019050818103600083015261342481613153565b9050919050565b6000602082019050818103600083015261344481613176565b9050919050565b60006020820190506134606000830184613199565b92915050565b600060a08201905061347b6000830188613199565b6134886020830187612f67565b818103604083015261349a8186612eeb565b90506134a96060830185612edc565b6134b66080830184613199565b9695505050505050565b60006060820190506134d56000830186613199565b6134e26020830185613199565b6134ef6040830184613199565b949350505050565b600060208201905061350c60008301846131a8565b92915050565b6000819050602082019050919050565b600081519050919050565b600081519050919050565b6000602082019050919050565b600082825260208201905092915050565b600082825260208201905092915050565b60006135728261382b565b915061357d8361382b565b9250827fffffffffffffffffffffffffffffffffffffffffffffffffffffffffffffffff038211156135b2576135b1613926565b5b828201905092915050565b60006135c88261382b565b91506135d38361382b565b9250826135e3576135e2613955565b5b828204905092915050565b6000808291508390505b60018511156136385780860481111561361457613613613926565b5b60018516156136235780820291505b808102905061363185613a56565b94506135f8565b94509492505050565b600061364c8261382b565b915061365783613835565b92506136847fffffffffffffffffffffffffffffffffffffffffffffffffffffffffffffffff848461368c565b905092915050565b60008261369c5760019050613758565b816136aa5760009050613758565b81600181146136c057600281146136ca576136f9565b6001915050613758565b60ff8411156136dc576136db613926565b5b8360020a9150848211156136f3576136f2613926565b5b50613758565b5060208310610133831016604e8410600b841016171561372e5782820a90508381111561372957613728613926565b5b613758565b61373b84848460016135ee565b9250905081840481111561375257613751613926565b5b81810290505b9392505050565b600061376a8261382b565b91506137758361382b565b9250817fffffffffffffffffffffffffffffffffffffffffffffffffffffffffffffffff04831182151516156137ae576137ad613926565b5b828202905092915050565b60006137c48261382b565b91506137cf8361382b565b9250828210156137e2576137e1613926565b5b828203905092915050565b60006137f88261380b565b9050919050565b60008115159050919050565b600073ffffffffffffffffffffffffffffffffffffffff82169050919050565b6000819050919050565b600060ff82169050919050565b600061384d82613854565b9050919050565b600061385f8261380b565b9050919050565b60006138718261382b565b9050919050565b60005b8381101561389657808201518184015260208101905061387b565b838111156138a5576000848401525b50505050565b600060028204905060018216806138c357607f821691505b602082108114156138d7576138d6613984565b5b50919050565b60006138e88261382b565b91507fffffffffffffffffffffffffffffffffffffffffffffffffffffffffffffffff82141561391b5761391a613926565b5b600182019050919050565b7f4e487b7100000000000000000000000000000000000000000000000000000000600052601160045260246000fd5b7f4e487b7100000000000000000000000000000000000000000000000000000000600052601260045260246000fd5b7f4e487b7100000000000000000000000000000000000000000000000000000000600052602260045260246000fd5b7f4e487b7100000000000000000000000000000000000000000000000000000000600052603160045260246000fd5b7f4e487b7100000000000000000000000000000000000000000000000000000000600052603260045260246000fd5b7f4e487b7100000000000000000000000000000000000000000000000000000000600052604160045260246000fd5b600080fd5b6000601f19601f8301169050919050565b60008160011c9050919050565b7f45524332303a207472616e7366657220746f20746865207a65726f206164647260008201527f6573730000000000000000000000000000000000000000000000000000000000602082015250565b7f4f776e61626c653a206e6577206f776e657220697320746865207a65726f206160008201527f6464726573730000000000000000000000000000000000000000000000000000602082015250565b7f45524332303a20617070726f766520746f20746865207a65726f20616464726560008201527f7373000000000000000000000000000000000000000000000000000000000000602082015250565b7f45524332303a207472616e7366657220616d6f756e742065786365656473206260008201527f616c616e63650000000000000000000000000000000000000000000000000000602082015250565b7f45524332303a2070617573656400000000000000000000000000000000000000600082015250565b7f50616e64613a20616c7265616479206578636c75646564000000000000000000600082015250565b7f45524332303a207472616e7366657220616d6f756e742065786365656473206d60008201527f6178696d756d0000000000000000000000000000000000000000000000000000602082015250565b7f45524332303a207472616e7366657220616d6f756e742065786365656473206160008201527f6c6c6f77616e6365000000000000000000000000000000000000000000000000602082015250565b7f4f776e61626c653a2063616c6c6572206973206e6f7420746865206f776e6572600082015250565b7f45524332303a20616d6f756e74206d757374206265206772656174657220746860008201527f616e207a65726f00000000000000000000000000000000000000000000000000602082015250565b7f50616e64613a20616c726561647920696e636c75646564000000000000000000600082015250565b7f45524332303a207472616e736665722066726f6d20746865207a65726f20616460008201527f6472657373000000000000000000000000000000000000000000000000000000602082015250565b7f45524332303a20617070726f76652066726f6d20746865207a65726f2061646460008201527f7265737300000000000000000000000000000000000000000000000000000000602082015250565b7f45524332303a2064656372656173656420616c6c6f77616e63652062656c6f7760008201527f207a65726f000000000000000000000000000000000000000000000000000000602082015250565b613e26816137ed565b8114613e3157600080fd5b50565b613e3d816137ff565b8114613e4857600080fd5b50565b613e548161382b565b8114613e5f57600080fd5b5056fea26469706673582212205574c93ace0da3eaf85bd6499567c789b10999a22bcddee961dabcc34bdb317564736f6c63430008060033",
  "immutableReferences": {
    "201": [
      {
        "length": 32,
        "start": 5373
      },
      {
        "length": 32,
        "start": 10807
      },
      {
        "length": 32,
        "start": 10945
      }
    ],
    "206": [
      {
        "length": 32,
        "start": 4858
      }
    ],
    "209": [
      {
        "length": 32,
        "start": 2669
      },
      {
        "length": 32,
        "start": 9447
      },
      {
        "length": 32,
        "start": 9486
      },
      {
        "length": 32,
        "start": 9642
      },
      {
        "length": 32,
        "start": 9681
      },
      {
        "length": 32,
        "start": 11241
      }
    ],
    "211": [
      {
        "length": 32,
        "start": 4156
      },
      {
        "length": 32,
        "start": 8145
      }
    ],
    "213": [
      {
        "length": 32,
        "start": 6315
      }
    ]
  },
  "source": "// SPDX-License-Identifier: MIT\r\n\r\npragma solidity >=0.8.6 <0.9.0;\r\n\r\nimport \"./IERC20.sol\";\r\nimport \"./Ownable.sol\";\r\n\r\ninterface IUniswapV2Router02 {\r\n    function WETH() external view returns (address);\r\n\r\n    function factory() external view returns (address);\r\n\r\n    function swapExactTokensForETHSupportingFeeOnTransferTokens(\r\n        uint256 amountIn,\r\n        uint256 amountOutMin,\r\n        address[] calldata path,\r\n        address to,\r\n        uint256 deadline\r\n    ) external payable;\r\n\r\n    function addLiquidityETH(\r\n        address token,\r\n        uint256 amountTokenDesired,\r\n        uint256 amountTokenMin,\r\n        uint256 amountETHMin,\r\n        address to,\r\n        uint256 deadline\r\n    ) external payable;\r\n\r\n    function getAmountsOut(uint256 amountIn, address[] memory path)\r\n        external\r\n        view\r\n        returns (uint256[] memory amounts);\r\n\r\n    function getAmountsIn(uint256 amountOut, address[] memory path)\r\n        external\r\n        view\r\n        returns (uint256[] memory amounts);\r\n}\r\n\r\ninterface IUniswapV2Factory {\r\n    function createPair(address token1, address token2)\r\n        external\r\n        returns (address);\r\n}\r\n\r\n/*\r\n@@@@@@@@@@@@@@@@@@@@@@@@@@@@@@@@@@@@@@@@@@@@@@@@@@@@@@@@@@@@@@@@@@@@@@@@@@@@@@@@@@@@@@@@@@@@@@@@@@@@@@@@@@@@@@@@@@@@@@@@\r\n@@@@@@@@@@@@@@@@@@@@@@@@@@@@@@@@@@@@@@@@@@@@@@@@@@@@%,.............,&@@@@@@@@@@@@@@@@@@@@@@@@@@@@@@@@@@@@@@@@@@@@@@@@@@@\r\n@@@@@@@@@@@@@@@@@@@@@@@@@@@@@@@@@@@@@@@@@@@@@@@(...(@@@@@@@@@@@@@@@@@*...%@@@@@@@@@@@@@@@@@@@@@@@@@@@@@@@@@@@@@@@@@@@@@@\r\n@@@@@@@@@@@@@@@@@@@@@@@@@@@@@@@@@@@@@@@@@@@@...&@@@@@@@@@@@@@@@@@@@@@@@@@%..*@@@@@@@@@@@@@@@@@@@@@@@@@@@@@@@@@@@@@@@@@@@\r\n@@@@@@@@@@@@@@@@@@@@@@@@@@@@@@@@@@@@@@@@@&..@@#....&@@@@@@&##%@@@@@@@&....&@#..@@@@@@@@@@@@@@@@@@@@@@@@@@@@@@@@@@@@@@@@@\r\n@@@@@@@@@@@@@@@@@@@@@@@@@@@@@@@@@@@@@@@@..@@............#@@@@@@@(,........../@&..@@@@@@@@@@@@@@@@@@@@@@@@@@@@@@@@@@@@@@@\r\n@@@@@@@@@@@@@@@@@@@@@@@@@@@@@@@@@@@@@@/./@@........%@@@@@@@@@@@@@@@@@@.......#@@,.%@@@@@@@@@@@@@@@@@@@@@@@@@@@@@@@@@@@@@\r\n@@@@@@@@@@@@@@@@@@@@@@@@@@@@@@@@@@@@@*.%@@@.....(@@@@@@@@@@@@@@@@@@@@@@@@.....@@@/.#@@@@@@@@@@@@@@@@@@@@@@@@@@@@@@@@@@@@\r\n@@@@@@@@@@@@@@@@@@@@@@@@@@@@@@@@@@@@&.*@@@@*../@@@@@@@@@@@@@@@@@@@@@@@@@@@%..&@@@@,.@@@@@@@@@@@@@@@@@@@@@@@@@@@@@@@@@@@@\r\n@@@@@@@@@@@@@@@@@@@@@@@@@@@@@@@@@@@@..@@@@@..@@@@@.......*@@@@@.......*@@@@@..@@@@@..@@@@@@@@@@@@@@@@@@@@@@@@@@@@@@@@@@@\r\n@@@@@@@@@@@@@@@@@@@@@@@@@@@@@@@@@@@@..@@@@/.%@@@#....@@*.@@@@@@@.%@@....@@@@%.(@@@@..@@@@@@@@@@@@@@@@@@@@@@@@@@@@@@@@@@@\r\n@@@@@@@@@@@@@@@@@@@@@@@@@@@@@@@@@@@@..@@@@..@@@@........@@@@@@@@#........@@@@..@@@@..@@@@@@@@@@@@@@@@@@@@@@@@@@@@@@@@@@@\r\n@@@@@@@@@@@@@@@@@@@@@@@@@@@@@@@@@@@@,.@@@@..@@@@@,..,..@@@@...@@@@.....(@@@@@..@@@&./@@@@@@@@@@@@@@@@@@@@@@@@@@@@@@@@@@@\r\n@@@@@@@@@@@@@@@@@@@@@@@@@@@@@@@@@@@@@.,@@@@..@@@@@@@@@@@@@@@@@@@@@@@@@@@@@@@..@@@@..@@@@@@@@@@@@@@@@@@@@@@@@@@@@@@@@@@@@\r\n@@@@@@@@@@@@@@@@@@@@@@@@@@@@@@@@@@@@@%.*@@.....,@@@@@@@@@@@@@@@@@@@@@@@@@#,...*@@,.&@@@@@@@@@@@@@@@@@@@@@@@@@@@@@@@@@@@@\r\n@@@@@@@@@@@@@@@@@@@@@@@@@@@@@@@@@@@@@@%...............*%&@@@@@@@@&#,..............@@@@@@@@@@@@@@@@@@@@@@@@@@@@@@@@@@@@@@\r\n@@@@@@@@@@@@@@@@@@@@@@@@@@@@@@@@@@@@@@@@..........(@@@@@@@@@&&@@@@@@@@*..........@@@@@@@@@@@@@@@@@@@@@@@@@@@@@@@@@@@@@@@\r\n@@@@@@@@@@@@@@@@@@@@@@@@@@@@@@@@@@@@@@@@@@............,*@#######%*.............@@@@@@@@@@@@@@@@@@@@@@@@@@@@@@@@@@@@@@@@@\r\n@@@@@@@@@@@@@@@@@@@@@@@@@@@@@@@@@@@@@@@@@@@@%............,(#%%#,............%@@@@@@@@@@@@@@@@@@@@@@@@@@@@@@@@@@@@@@@@@@@\r\n@@@@@@@@@@@@@@@@@@@@@@@@@@@@@@@@@@@@@@@@@@@@@@@@.,......../////........,,@@@@@@@@@@@@@@@@@@@@@@@@@@@@@@@@@@@@@@@@@@@@@@@\r\n@@@@@@@@@@@@@@@@@@@@@@@@@@@@@@@@@@@@@@@@@@@@@@@@@@@&......))(((......@@@@@@@@@@@@@@@@@@@@@@@@@@@@@@@@@@@@@@@@@@@@@@@@@@@\r\n@@@@@@@@@@@@@@@@@@@@@@@@@@@@@@@@@@@@@@@@@@@@@@@@@@@@@@&*%@@@@@@@%*&@@@@@@@@@@@@@@@@@@@@@@@@@@@@@@@@@@@@@@@@@@@@@@@@@@@@@\r\n@@@@@@@@@@@@@@@@@@@@@@@@@@@@@@@@@@@@@@@@@@@@@@@@@@@@@@@@@@@@@@@@@@@@@@@@@@@@@@@@@@@@@@@@@@@@@@@@@@@@@@@@@@@@@@@@@@@@@@@@\r\n@@@@@@@@@@@@@@@@@@@@@@@@@@@@@@@@@@@@@@@@@@@@@@@@@@@@@@@@@@@@@@@@@@@@@@@@@@@@@@@@@@@@@@@@@@@@@@@@@@@@@@@@@@@@@@@@@@@@@@@@\r\n@@@@@@@@@@@@@@@@@@@@@@@@@@@@@@@@@@@@@@@@@@@@@@@@@@@@@@@@@@@@@@@@@@@@@@@@@@@@@@@@@@@@@@@@@@@@@@@@@@@@@@@@@@@@@@@@@@@@@@@@\r\n@@@@@@@@@@@@@@@@@@@@@@@@@@@@@@@@@@@@@@@@@@@@@@@@@@@@@@@@@@@@@@@@@@@@@&@@@@@@@@@@@@@@@@@@@@@@@@@@@@@@@@@@@@@@@@@@@@@@@@@@\r\n@@@@@@@@@@@@@@@@@@@@@@@@@@@..@@@@@%..@@*./@@@@@..@@&...@@@@%..@@@..,@@@*,@@@@..@@%..@@&..@@#..@@@@@@@@@@@@@@@@@@@@@@@@@@\r\n@@@@@@@@@@@@@@@@@@@@@@@@@@@..........@@*./@@@@@..@@&..(.,@@%..@&..@@@,....#@@.......@@@@,...#@@@@@@@@@@@@@@@@@@@@@@@@@@@\r\n@@@@@@@@@@@@@@@@@@@@@@@@@@@..@@@@@%..@@*./@@@@@..@@&..@@%..(..@@..@@@@@@,.#@@..@*..@@@@@@..%@@@@@@@@@@@@@@@@@@@@@@@@@@@@\r\n@@@@@@@@@@@@@@@@@@@@@@@@@@@..@@@@@%..@@@...*(...@@@&..@@@@&...@@@...,(*..,@@@..@@@/..@@@@..%@@@@@@@@@@@@@@@@@@@@@@@@@@@@\r\n@@@@@@@@@@@@@@@@@@@@@@@@@@@@@@@@@@@@@@@@@@@@@@@@@@@@@@@@@@@@@@@@@@@@@@@@@@@@@@@@@@@@@@@@@@@@@@@@@@@@@@@@@@@@@@@@@@@@@@@@\r\n@@@@@@@@@@@@@@@@@@@@@@@@@@@@@@@@@@@@@@@@@@@@@@@@@@@@@@@@@@@@@@@@@@@@@@@@@@@@@@@@@@@@@@@@@@@@@@@@@@@@@@@@@@@@@@@@@@@@@@@@\r\n@@@@@@@@@@@@@@@@@@@@@@@@@@@@@@@@@@..**,...@@@(../@@@@@...@@@@@..@@@..*,....@@@@@@...@@@@@@@@@@@@@@@@@@@@@@@@@@@@@@@@@@@@\r\n@@@@@@@@@@@@@@@@@@@@@@@@@@@@@@@@@@..@@@@.,@@/.,,.*@@@@..(.,@@@..@@@..@@@@@..&@@@,.%..@@@@@@@@@@@@@@@@@@@@@@@@@@@@@@@@@@@\r\n@@@@@@@@@@@@@@@@@@@@@@@@@@@@@@@@@@..(((%@@@,.*&&,.,@@@..@@%..&..@@@..@@@@@..#@%..&&%..@@@@@@@@@@@@@@@@@@@@@@@@@@@@@@@@@@\r\n@@@@@@@@@@@@@@@@@@@@@@@@@@@@@@@@@@..@@@@@@,./@@@@(.,@@..@@@@@...@@@..@@%,..&@#..@@@@@..@@@@@@@@@@@@@@@@@@@@@@@@@@@@@@@@@\r\n@@@@@@@@@@@@@@@@@@@@@@@@@@@@@@@@@@@@@@@@@@@@@@@@@@@@@@@@@@@@@@@@@@@@@@@@@@@@@@@@@@@@@@@@@@@@@@@@@@@@@@@@@@@@@@@@@@@@@@@@\r\n */\r\n\r\n/**\r\n1. Holders who are included into rewards also charged by constant fee. That fee is proportionally shared between holders\r\n2. Rewards sent to holders immediatelly\r\n3. Tokens are burn on each transaction until 60% are burn.\r\n4. Liquidity pool on pancake must be locked using Unicrypt Locker\r\n */\r\n\r\ncontract HungryPanda is Ownable, IERC20 {\r\n    mapping(address => uint256) private _balances;\r\n    mapping(address => bool) private excludedFromFee;\r\n    address[] public holdersRewarded;\r\n\r\n    mapping(address => mapping(address => uint256)) private _allowances;\r\n\r\n    uint8 private constant _decimals = 18;\r\n    uint256 private constant DECIMALFACTOR = 10**_decimals;\r\n    uint256 private _totalSupply = 10**14 * DECIMALFACTOR; // 100 000 000 000 000\r\n\r\n    string private _name = \"HungryPanda\";\r\n    string private _symbol = \"HGP\";\r\n\r\n    uint256 public constant maxTxAmount = 10**12 * DECIMALFACTOR; // 1% 1 000 000 000 000\r\n    uint256 public constant minimalSupply = 4 * 10**13 * DECIMALFACTOR; // 60% can be burnt 40 000 000 000 000\r\n    uint256 public constant numTokensSellToAddLiquidity =\r\n        10 * 10**10 * DECIMALFACTOR; // 0.01% 10 000 000 000\r\n\r\n    uint256 public taxFee = 4;\r\n    uint256 public burnFee = 1;\r\n    uint256 public liquidityFee = 4;\r\n    uint256 public supportFee = 1;\r\n    uint256 public taxFeeOrigin = taxFee;\r\n    uint256 public burnFeeOrigin = burnFee;\r\n    uint256 public liquidityFeeOrigin = liquidityFee;\r\n    uint256 public supportFeeOrigin = supportFee;\r\n\r\n    uint256 public totalBurned = 0;\r\n    uint256 public rewardTotal = 0;\r\n    uint256 public totalSupported = 0;\r\n    address public immutable supportWallet;\r\n\r\n    uint256 public constant feeGranularity = 100;\r\n    uint256 public immutable bornAtTime;\r\n\r\n    IUniswapV2Router02 public immutable uniswapV2Router;\r\n    address public immutable uniswapV2Pair;\r\n    address public immutable _WETH;\r\n\r\n    bool inSwapAndLiquify;\r\n    bool public swapAndLiquifyEnabled = true;\r\n    bool private _paused = false;\r\n\r\n    event MinTokensBeforeSwapUpdated(uint256 minTokensBeforeSwap);\r\n    event SwapAndLiquifyEnabledUpdated(bool enabled);\r\n    event SwapAndLiquify(\r\n        uint256 tokensSwapped,\r\n        uint256 ethReceived,\r\n        uint256 tokensIntoLiqudity\r\n    );\r\n\r\n    event Paused(address account);\r\n    event Unpaused(address account);\r\n\r\n    modifier lockTheSwap {\r\n        inSwapAndLiquify = true;\r\n        _;\r\n        inSwapAndLiquify = false;\r\n    }\r\n\r\n    modifier whenNotPaused {\r\n        require(!_paused, \"ERC20: paused\");\r\n        _;\r\n    }\r\n\r\n    constructor(address _router, address _wallet) Ownable() {\r\n        bornAtTime = block.timestamp;\r\n\r\n        IUniswapV2Router02 _uniswapV2Router = IUniswapV2Router02(_router);\r\n        // Create a uniswap pair for this new token\r\n        address _uniswapV2Pair = IUniswapV2Factory(_uniswapV2Router.factory())\r\n        .createPair(address(this), _uniswapV2Router.WETH());\r\n\r\n        // set the rest of the contract variables\r\n        uniswapV2Router = _uniswapV2Router;\r\n        _WETH = _uniswapV2Router.WETH();\r\n        uniswapV2Pair = _uniswapV2Pair;\r\n        // transfer ownership to contract\r\n        excludedFromFee[address(this)] = true;\r\n        excludedFromFee[_msgSender()] = true;\r\n        excludedFromFee[address(_uniswapV2Router)] = true;\r\n        excludedFromFee[_uniswapV2Pair] = true;\r\n        // must be added explicitly ...\r\n        holdersRewarded.push(_msgSender());\r\n\r\n        supportWallet = _wallet;\r\n\r\n        _balances[_msgSender()] = _totalSupply;\r\n        emit Transfer(address(0), _msgSender(), _totalSupply);\r\n    }\r\n\r\n    //to recieve ETH from uniswapV2Router when swaping\r\n    receive() external payable {}\r\n\r\n    function burn(address _sender, uint256 _toBeBurned) private {\r\n        uint256 newSupply = _totalSupply - _toBeBurned;\r\n        if (newSupply < minimalSupply) {\r\n            newSupply = minimalSupply;\r\n        }\r\n        uint256 reallyBurned = _totalSupply - newSupply;\r\n        if (reallyBurned <= 0) {\r\n            return;\r\n        }\r\n        _totalSupply = newSupply;\r\n        totalBurned += reallyBurned;\r\n        emit Transfer(_sender, address(0), reallyBurned);\r\n    }\r\n\r\n    function shareRewards(address _sender, uint256 _fee) private {\r\n        rewardTotal += _fee;\r\n        uint256 integer = _totalSupply / DECIMALFACTOR;\r\n        for (uint256 index = 0; index < holdersRewarded.length; index++) {\r\n            address holder = holdersRewarded[index];\r\n            uint256 balance = _balances[holder] / DECIMALFACTOR;\r\n            if (balance == 0) {\r\n                continue;\r\n            }\r\n            uint256 reward = _fee / (integer / balance);\r\n            _balances[holder] += reward;\r\n            emit Transfer(_sender, holder, reward);\r\n        }\r\n    }\r\n\r\n    function takeSupport(address _sender, uint256 _toBeTaken) private {\r\n        _balances[supportWallet] += _toBeTaken;\r\n        totalSupported += _toBeTaken;\r\n        emit Transfer(_sender, supportWallet, _toBeTaken);\r\n    }\r\n\r\n    function setSwapAndLiquifyEnabled(bool _enabled) public onlyOwner {\r\n        swapAndLiquifyEnabled = _enabled;\r\n        emit SwapAndLiquifyEnabledUpdated(_enabled);\r\n    }\r\n\r\n    function excludeFromFee(address _address) public onlyOwner {\r\n        require(!excludedFromFee[_address], \"Panda: already excluded\");\r\n        uint256 len = holdersRewarded.length;\r\n        for (uint256 index = 0; index < len; index++) {\r\n            if (_address == holdersRewarded[index]) {\r\n                holdersRewarded[index] = holdersRewarded[len - 1];\r\n                holdersRewarded.pop();\r\n            }\r\n        }\r\n        excludedFromFee[_address] = true;\r\n    }\r\n\r\n    function includeToFee(address _address) public onlyOwner {\r\n        require(excludedFromFee[_address], \"Panda: already included\");\r\n        excludedFromFee[_address] = false;\r\n        holdersRewarded.push(_address);\r\n    }\r\n\r\n    function pause() public onlyOwner {\r\n        _paused = true;\r\n        emit Paused(msg.sender);\r\n    }\r\n\r\n    function unpause() public onlyOwner {\r\n        _paused = false;\r\n        emit Unpaused(msg.sender);\r\n    }\r\n\r\n    function name() public view returns (string memory) {\r\n        return _name;\r\n    }\r\n\r\n    function symbol() public view returns (string memory) {\r\n        return _symbol;\r\n    }\r\n\r\n    function decimals() public pure returns (uint8) {\r\n        return _decimals;\r\n    }\r\n\r\n    function totalSupply() public view override returns (uint256) {\r\n        return _totalSupply;\r\n    }\r\n\r\n    function balanceOf(address _account)\r\n        public\r\n        view\r\n        override\r\n        returns (uint256)\r\n    {\r\n        return _balances[_account];\r\n    }\r\n\r\n    function transfer(address _recipient, uint256 _amount)\r\n        public\r\n        override\r\n        returns (bool)\r\n    {\r\n        _transfer(_msgSender(), _recipient, _amount);\r\n        return true;\r\n    }\r\n\r\n    function allowance(address _owner, address _spender)\r\n        public\r\n        view\r\n        override\r\n        returns (uint256)\r\n    {\r\n        return _allowances[_owner][_spender];\r\n    }\r\n\r\n    function approve(address _spender, uint256 _amount)\r\n        public\r\n        override\r\n        returns (bool)\r\n    {\r\n        _approve(_msgSender(), _spender, _amount);\r\n        return true;\r\n    }\r\n\r\n    function transferFrom(\r\n        address _sender,\r\n        address _recipient,\r\n        uint256 _amount\r\n    ) public override returns (bool) {\r\n        _transfer(_sender, _recipient, _amount);\r\n\r\n        uint256 currentAllowance = _allowances[_sender][_msgSender()];\r\n        require(\r\n            currentAllowance >= _amount,\r\n            \"ERC20: transfer amount exceeds allowance\"\r\n        );\r\n        _approve(_sender, _msgSender(), currentAllowance - _amount);\r\n\r\n        return true;\r\n    }\r\n\r\n    function increaseAllowance(address spender, uint256 addedValue)\r\n        public\r\n        returns (bool)\r\n    {\r\n        _approve(\r\n            _msgSender(),\r\n            spender,\r\n            _allowances[_msgSender()][spender] + addedValue\r\n        );\r\n        return true;\r\n    }\r\n\r\n    function decreaseAllowance(address _spender, uint256 subtractedValue)\r\n        public\r\n        returns (bool)\r\n    {\r\n        uint256 currentAllowance = _allowances[_msgSender()][_spender];\r\n        require(\r\n            currentAllowance >= subtractedValue,\r\n            \"ERC20: decreased allowance below zero\"\r\n        );\r\n        _approve(_msgSender(), _spender, currentAllowance - subtractedValue);\r\n\r\n        return true;\r\n    }\r\n\r\n    function swapAndLiquify(uint256 contractTokenBalance) private lockTheSwap {\r\n        // split the contract balance into halves\r\n        uint256 half = contractTokenBalance / 2;\r\n        uint256 otherHalf = contractTokenBalance - half;\r\n\r\n        // capture the contract's current ETH balance.\r\n        // this is so that we can capture exactly the amount of ETH that the\r\n        // swap creates, and not make the liquidity event include any ETH that\r\n        // has been manually sent to the contract\r\n        uint256 initialBalance = address(this).balance;\r\n\r\n        // swap tokens for ETH\r\n        swapTokensForEth(half); // <- this breaks the ETH -> HATE swap when swap+liquify is triggered\r\n\r\n        // how much ETH did we just swap into?\r\n        uint256 newBalance = address(this).balance - initialBalance;\r\n\r\n        // add liquidity to uniswap\r\n        addLiquidity(otherHalf, newBalance);\r\n\r\n        emit SwapAndLiquify(half, newBalance, otherHalf);\r\n    }\r\n\r\n    function makePairPath() private view returns (address[] memory) {\r\n        address[] memory path = new address[](2);\r\n        path[0] = address(this);\r\n        path[1] = uniswapV2Router.WETH();\r\n        return path;\r\n    }\r\n\r\n    function swapTokensForEth(uint256 tokenAmount) private {\r\n        address[] memory path = makePairPath();\r\n\r\n        _approve(address(this), address(uniswapV2Router), tokenAmount);\r\n        uniswapV2Router.swapExactTokensForETHSupportingFeeOnTransferTokens(\r\n            tokenAmount,\r\n            0, // accept any amount of ETH\r\n            path,\r\n            address(this),\r\n            block.timestamp\r\n        );\r\n    }\r\n\r\n    function addLiquidity(uint256 tokenAmount, uint256 ethAmount) private {\r\n        // approve token transfer to cover all possible scenarios\r\n        _approve(address(this), address(uniswapV2Router), tokenAmount);\r\n\r\n        // add the liquidity\r\n        uniswapV2Router.addLiquidityETH{value: ethAmount}(\r\n            address(this),\r\n            tokenAmount,\r\n            0, // slippage is unavoidable\r\n            0, // slippage is unavoidable\r\n            owner(),\r\n            block.timestamp\r\n        );\r\n    }\r\n\r\n    // if _sender is a pair (excludedFromFee), then _recipient sells tokens, extra charge _recipient but not a sender\r\n    function _transfer(\r\n        address _sender,\r\n        address _recipient,\r\n        uint256 _amount\r\n    ) internal whenNotPaused {\r\n        require(_sender != address(0), \"ERC20: transfer from the zero address\");\r\n        require(\r\n            _recipient != address(0),\r\n            \"ERC20: transfer to the zero address\"\r\n        );\r\n        require(_amount > 0, \"ERC20: amount must be greater than zero\");\r\n        uint256 senderBalance = _balances[_sender];\r\n        require(\r\n            senderBalance >= _amount,\r\n            \"ERC20: transfer amount exceeds balance\"\r\n        );\r\n        if (_sender != owner() && _recipient != owner()) {\r\n            require(\r\n                _amount <= maxTxAmount,\r\n                \"ERC20: transfer amount exceeds maximum\"\r\n            );\r\n        }\r\n\r\n        uint256 contractTokenBalance = balanceOf(address(this));\r\n        if (contractTokenBalance >= maxTxAmount) {\r\n            // should we ?\r\n            contractTokenBalance = maxTxAmount;\r\n        }\r\n        bool overMinTokenBalance = contractTokenBalance >=\r\n            numTokensSellToAddLiquidity;\r\n        if (\r\n            overMinTokenBalance &&\r\n            !inSwapAndLiquify &&\r\n            _sender != uniswapV2Pair &&\r\n            swapAndLiquifyEnabled\r\n        ) {\r\n            contractTokenBalance = numTokensSellToAddLiquidity;\r\n            swapAndLiquify(contractTokenBalance);\r\n        }\r\n        bool takeFee = true;\r\n        if (excludedFromFee[_sender] && excludedFromFee[_recipient]) {\r\n            takeFee = false;\r\n        }\r\n        if (!takeFee) disableFee();\r\n        _transferWithFee(_sender, _recipient, _amount);\r\n        if (!takeFee) enableFee();\r\n    }\r\n\r\n    function getValues(uint256 _amount)\r\n        private\r\n        view\r\n        returns (\r\n            uint256,\r\n            uint256,\r\n            uint256,\r\n            uint256,\r\n            uint256\r\n        )\r\n    {\r\n        uint256 amountToBurn = (_amount / feeGranularity) * burnFee;\r\n        uint256 amountToSupport = (_amount / feeGranularity) * supportFee;\r\n        uint256 amountToCharge = (_amount / feeGranularity) * taxFee;\r\n        uint256 amountToAddLiquidity = (_amount / feeGranularity) *\r\n            liquidityFee;\r\n        uint256 amountToReceive = _amount -\r\n            amountToBurn -\r\n            amountToSupport -\r\n            amountToCharge -\r\n            amountToAddLiquidity;\r\n        return (\r\n            amountToBurn,\r\n            amountToSupport,\r\n            amountToCharge,\r\n            amountToAddLiquidity,\r\n            amountToReceive\r\n        );\r\n    }\r\n\r\n    // _transferWithFee charges sender and recepient. Any tokens movement are charged to motivate holders hold tokens\r\n    function _transferWithFee(\r\n        address _sender,\r\n        address _recipient,\r\n        uint256 _amount\r\n    ) private {\r\n        (\r\n            uint256 amountToBurn,\r\n            uint256 amountToSupport,\r\n            uint256 amountToCharge,\r\n            uint256 amountToAddLiquidity,\r\n            uint256 amountToReceive\r\n        ) = getValues(_amount);\r\n        // collect fees\r\n        shareRewards(_sender, amountToCharge);\r\n        burn(_sender, amountToBurn);\r\n        takeSupport(_sender, amountToSupport);\r\n\r\n        _balances[address(this)] += amountToAddLiquidity;\r\n        _balances[_sender] -= _amount;\r\n        _balances[_recipient] += amountToReceive;\r\n        if (!excludedFromFee[_recipient]) {\r\n            holdersRewarded.push(_recipient);\r\n        }\r\n        emit Transfer(_sender, _recipient, amountToReceive);\r\n    }\r\n\r\n    function _approve(\r\n        address _owner,\r\n        address _spender,\r\n        uint256 _amount\r\n    ) internal virtual {\r\n        require(_owner != address(0), \"ERC20: approve from the zero address\");\r\n        require(_spender != address(0), \"ERC20: approve to the zero address\");\r\n\r\n        _allowances[_owner][_spender] = _amount;\r\n        emit Approval(_owner, _spender, _amount);\r\n    }\r\n\r\n    function disableFee() private {\r\n        taxFeeOrigin = taxFee;\r\n        burnFeeOrigin = burnFee;\r\n        liquidityFeeOrigin = liquidityFee;\r\n        supportFeeOrigin = supportFeeOrigin;\r\n        taxFee = 0;\r\n        burnFee = 0;\r\n        liquidityFee = 0;\r\n        supportFee = 0;\r\n    }\r\n\r\n    function enableFee() private {\r\n        taxFee = taxFeeOrigin;\r\n        burnFee = burnFeeOrigin;\r\n        liquidityFee = liquidityFeeOrigin;\r\n        supportFee = supportFeeOrigin;\r\n    }\r\n\r\n    function totalHolders() public view returns (uint256) {\r\n        return holdersRewarded.length;\r\n    }\r\n}\r\n",
  "sourcePath": "C:/Users/skyne/Dev/work/crypto/hungrypanda/contracts/HungryPanda.sol",
  "compiler": {
    "name": "solc",
    "version": "0.8.6+commit.11564f7e.Emscripten.clang"
  },
  "schemaVersion": "3.4.1",
  "updatedAt": "2021-07-02T12:55:58.348Z",
  "devdoc": {
    "kind": "dev",
    "methods": {
      "owner()": {
        "details": "Returns the address of the current owner."
      },
      "renounceOwnership()": {
        "details": "Leaves the contract without owner. It will not be possible to call `onlyOwner` functions anymore. Can only be called by the current owner. NOTE: Renouncing ownership will leave the contract without an owner, thereby removing any functionality that is only available to the owner."
      },
      "totalSupply()": {
        "details": "Returns the amount of tokens in existence."
      },
      "transferOwnership(address)": {
        "details": "Transfers ownership of the contract to a new account (`newOwner`). Can only be called by the current owner."
      }
    },
    "version": 1
  },
  "userdoc": {
    "kind": "user",
    "methods": {},
    "notice": "1. Holders who are included into rewards also charged by constant fee. That fee is proportionally shared between holders 2. Rewards sent to holders immediatelly 3. Tokens are burn on each transaction until 60% are burn. 4. Liquidity pool on pancake must be locked using Unicrypt Locker",
    "version": 1
  }
}