{
  "contractName": "PeriodicEscrow",
  "abi": [
    {
      "inputs": [
        {
          "internalType": "address",
          "name": "_recepient",
          "type": "address"
        },
        {
          "internalType": "uint256",
          "name": "_openAfter",
          "type": "uint256"
        },
        {
          "internalType": "uint256",
          "name": "_periodSize",
          "type": "uint256"
        }
      ],
      "stateMutability": "nonpayable",
      "type": "constructor"
    },
    {
      "inputs": [],
      "name": "INIT_DATE",
      "outputs": [
        {
          "internalType": "uint256",
          "name": "",
          "type": "uint256"
        }
      ],
      "stateMutability": "view",
      "type": "function"
    },
    {
      "inputs": [],
      "name": "OPEN_DATE",
      "outputs": [
        {
          "internalType": "uint256",
          "name": "",
          "type": "uint256"
        }
      ],
      "stateMutability": "view",
      "type": "function"
    },
    {
      "inputs": [],
      "name": "TIME_PERIOD",
      "outputs": [
        {
          "internalType": "uint256",
          "name": "",
          "type": "uint256"
        }
      ],
      "stateMutability": "view",
      "type": "function"
    },
    {
      "inputs": [],
      "name": "admin",
      "outputs": [
        {
          "internalType": "address",
          "name": "",
          "type": "address"
        }
      ],
      "stateMutability": "view",
      "type": "function"
    },
    {
      "inputs": [],
      "name": "amount",
      "outputs": [
        {
          "internalType": "uint256",
          "name": "",
          "type": "uint256"
        }
      ],
      "stateMutability": "view",
      "type": "function"
    },
    {
      "inputs": [],
      "name": "partAmount",
      "outputs": [
        {
          "internalType": "uint256",
          "name": "",
          "type": "uint256"
        }
      ],
      "stateMutability": "view",
      "type": "function"
    },
    {
      "inputs": [],
      "name": "parts",
      "outputs": [
        {
          "internalType": "uint256",
          "name": "",
          "type": "uint256"
        }
      ],
      "stateMutability": "view",
      "type": "function"
    },
    {
      "inputs": [],
      "name": "partsAreTaken",
      "outputs": [
        {
          "internalType": "uint256",
          "name": "",
          "type": "uint256"
        }
      ],
      "stateMutability": "view",
      "type": "function"
    },
    {
      "inputs": [],
      "name": "recipient",
      "outputs": [
        {
          "internalType": "address",
          "name": "",
          "type": "address"
        }
      ],
      "stateMutability": "view",
      "type": "function"
    },
    {
      "inputs": [],
      "name": "token",
      "outputs": [
        {
          "internalType": "contract IERC20",
          "name": "",
          "type": "address"
        }
      ],
      "stateMutability": "view",
      "type": "function"
    },
    {
      "inputs": [],
      "name": "totalWithdrawn",
      "outputs": [
        {
          "internalType": "uint256",
          "name": "",
          "type": "uint256"
        }
      ],
      "stateMutability": "view",
      "type": "function"
    },
    {
      "inputs": [
        {
          "internalType": "address",
          "name": "_token",
          "type": "address"
        },
        {
          "internalType": "uint256",
          "name": "_amount",
          "type": "uint256"
        },
        {
          "internalType": "uint256",
          "name": "_parts",
          "type": "uint256"
        }
      ],
      "name": "setToken",
      "outputs": [],
      "stateMutability": "nonpayable",
      "type": "function"
    },
    {
      "inputs": [],
      "name": "deliver",
      "outputs": [
        {
          "internalType": "bool",
          "name": "",
          "type": "bool"
        }
      ],
      "stateMutability": "nonpayable",
      "type": "function"
    },
    {
      "inputs": [],
      "name": "withdraw",
      "outputs": [
        {
          "internalType": "bool",
          "name": "",
          "type": "bool"
        }
      ],
      "stateMutability": "nonpayable",
      "type": "function"
    }
  ],
  "bytecode": "0x6101006040524260a0908152506000600255600060035560006004556000600660146101000a81548160ff0219169083151502179055503480156200004357600080fd5b50604051620016f2380380620016f2833981810160405281019062000069919062000135565b33600560006101000a81548173ffffffffffffffffffffffffffffffffffffffff021916908373ffffffffffffffffffffffffffffffffffffffff1602179055508273ffffffffffffffffffffffffffffffffffffffff1660808173ffffffffffffffffffffffffffffffffffffffff1660601b815250508060e081815250508142620000f7919062000191565b60c0818152505050505062000294565b600081519050620001188162000260565b92915050565b6000815190506200012f816200027a565b92915050565b6000806000606084860312156200015157620001506200025b565b5b6000620001618682870162000107565b935050602062000174868287016200011e565b925050604062000187868287016200011e565b9150509250925092565b60006200019e8262000222565b9150620001ab8362000222565b9250827fffffffffffffffffffffffffffffffffffffffffffffffffffffffffffffffff03821115620001e357620001e26200022c565b5b828201905092915050565b6000620001fb8262000202565b9050919050565b600073ffffffffffffffffffffffffffffffffffffffff82169050919050565b6000819050919050565b7f4e487b7100000000000000000000000000000000000000000000000000000000600052601160045260246000fd5b600080fd5b6200026b81620001ee565b81146200027757600080fd5b50565b620002858162000222565b81146200029157600080fd5b50565b60805160601c60a05160c05160e0516113fe620002f4600039600081816104ac01526107eb01526000818161033e015281816105c3015261080c0152600061048801526000818161029b01528181610362015261072a01526113fe6000f3fe608060405234801561001057600080fd5b50600436106100ea5760003560e01c8063b47e9c791161008c578063e8b3d1d011610066578063e8b3d1d014610219578063f851a44014610237578063fc0c546a14610255578063fd3e50a714610273576100ea565b8063b47e9c79146101bf578063b642d58f146101dd578063b957e515146101fb576100ea565b806363f85cc5116100c857806363f85cc51461014957806366d003ac14610167578063a7311f5314610185578063aa8c217c146101a1576100ea565b80632f9e51b2146100ef5780633ccfd60b1461010d5780634b3197131461012b575b600080fd5b6100f7610291565b6040516101049190610fab565b60405180910390f35b610115610297565b6040516101229190610e33565b60405180910390f35b610133610336565b6040516101409190610fab565b60405180910390f35b61015161033c565b60405161015e9190610fab565b60405180910390f35b61016f610360565b60405161017c9190610def565b60405180910390f35b61019f600480360381019061019a9190610b77565b610384565b005b6101a961047a565b6040516101b69190610fab565b60405180910390f35b6101c7610480565b6040516101d49190610fab565b60405180910390f35b6101e5610486565b6040516101f29190610fab565b60405180910390f35b6102036104aa565b6040516102109190610fab565b60405180910390f35b6102216104ce565b60405161022e9190610fab565b60405180910390f35b61023f6104d4565b60405161024c9190610def565b60405180910390f35b61025d6104fa565b60405161026a9190610e4e565b60405180910390f35b61027b610520565b6040516102889190610e33565b60405180910390f35b60015481565b60007f000000000000000000000000000000000000000000000000000000000000000073ffffffffffffffffffffffffffffffffffffffff163373ffffffffffffffffffffffffffffffffffffffff1614610327576040517f08c379a000000000000000000000000000000000000000000000000000000000815260040161031e90610f2b565b60405180910390fd5b61032f6105c1565b6001905090565b60045481565b7f000000000000000000000000000000000000000000000000000000000000000081565b7f000000000000000000000000000000000000000000000000000000000000000081565b600560009054906101000a900473ffffffffffffffffffffffffffffffffffffffff1673ffffffffffffffffffffffffffffffffffffffff163373ffffffffffffffffffffffffffffffffffffffff1614610414576040517f08c379a000000000000000000000000000000000000000000000000000000000815260040161040b90610ecb565b60405180910390fd5b82600660006101000a81548173ffffffffffffffffffffffffffffffffffffffff021916908373ffffffffffffffffffffffffffffffffffffffff1602179055508160008190555080600281905550808261046f919061104e565b600181905550505050565b60005481565b60025481565b7f000000000000000000000000000000000000000000000000000000000000000081565b7f000000000000000000000000000000000000000000000000000000000000000081565b60035481565b600560009054906101000a900473ffffffffffffffffffffffffffffffffffffffff1681565b600660009054906101000a900473ffffffffffffffffffffffffffffffffffffffff1681565b6000600560009054906101000a900473ffffffffffffffffffffffffffffffffffffffff1673ffffffffffffffffffffffffffffffffffffffff163373ffffffffffffffffffffffffffffffffffffffff16146105b2576040517f08c379a00000000000000000000000000000000000000000000000000000000081526004016105a990610ecb565b60405180910390fd5b6105ba6105c1565b6001905090565b7f0000000000000000000000000000000000000000000000000000000000000000421015610624576040517f08c379a000000000000000000000000000000000000000000000000000000000815260040161061b90610f4b565b60405180910390fd5b600660149054906101000a900460ff1615610674576040517f08c379a000000000000000000000000000000000000000000000000000000000815260040161066b90610eab565b60405180910390fd5b6001600660146101000a81548160ff021916908315150217905550600254600354106106d5576040517f08c379a00000000000000000000000000000000000000000000000000000000081526004016106cc90610eeb565b60405180910390fd5b60006106df6107e7565b90506003548111610725576040517f08c379a000000000000000000000000000000000000000000000000000000000815260040161071c90610e8b565b60405180910390fd5b6107947f0000000000000000000000000000000000000000000000000000000000000000600154600660009054906101000a900473ffffffffffffffffffffffffffffffffffffffff1673ffffffffffffffffffffffffffffffffffffffff166108459092919063ffffffff16565b600154600460008282546107a89190610ff8565b925050819055506001600360008282546107c29190610ff8565b92505081905550506000600660146101000a81548160ff021916908315150217905550565b60007f00000000000000000000000000000000000000000000000000000000000000007f000000000000000000000000000000000000000000000000000000000000000042610836919061107f565b610840919061104e565b905090565b6108c68363a9059cbb60e01b8484604051602401610864929190610e0a565b604051602081830303815290604052907bffffffffffffffffffffffffffffffffffffffffffffffffffffffff19166020820180517bffffffffffffffffffffffffffffffffffffffffffffffffffffffff83818316178352505050506108cb565b505050565b600061092d826040518060400160405280602081526020017f5361666545524332303a206c6f772d6c6576656c2063616c6c206661696c65648152508573ffffffffffffffffffffffffffffffffffffffff166109929092919063ffffffff16565b905060008151111561098d578080602001905181019061094d9190610bca565b61098c576040517f08c379a000000000000000000000000000000000000000000000000000000000815260040161098390610f8b565b60405180910390fd5b5b505050565b60606109a184846000856109aa565b90509392505050565b6060824710156109ef576040517f08c379a00000000000000000000000000000000000000000000000000000000081526004016109e690610f0b565b60405180910390fd5b6109f885610abe565b610a37576040517f08c379a0000000000000000000000000000000000000000000000000000000008152600401610a2e90610f6b565b60405180910390fd5b6000808673ffffffffffffffffffffffffffffffffffffffff168587604051610a609190610dd8565b60006040518083038185875af1925050503d8060008114610a9d576040519150601f19603f3d011682016040523d82523d6000602084013e610aa2565b606091505b5091509150610ab2828286610ad1565b92505050949350505050565b600080823b905060008111915050919050565b60608315610ae157829050610b31565b600083511115610af45782518084602001fd5b816040517f08c379a0000000000000000000000000000000000000000000000000000000008152600401610b289190610e69565b60405180910390fd5b9392505050565b600081359050610b4781611383565b92915050565b600081519050610b5c8161139a565b92915050565b600081359050610b71816113b1565b92915050565b600080600060608486031215610b9057610b8f6111b0565b5b6000610b9e86828701610b38565b9350506020610baf86828701610b62565b9250506040610bc086828701610b62565b9150509250925092565b600060208284031215610be057610bdf6111b0565b5b6000610bee84828501610b4d565b91505092915050565b610c00816110b3565b82525050565b610c0f816110c5565b82525050565b6000610c2082610fc6565b610c2a8185610fdc565b9350610c3a81856020860161111f565b80840191505092915050565b610c4f816110fb565b82525050565b6000610c6082610fd1565b610c6a8185610fe7565b9350610c7a81856020860161111f565b610c83816111b5565b840191505092915050565b6000610c9b601083610fe7565b9150610ca6826111c6565b602082019050919050565b6000610cbe601683610fe7565b9150610cc9826111ef565b602082019050919050565b6000610ce1601283610fe7565b9150610cec82611218565b602082019050919050565b6000610d04601c83610fe7565b9150610d0f82611241565b602082019050919050565b6000610d27602683610fe7565b9150610d328261126a565b604082019050919050565b6000610d4a601683610fe7565b9150610d55826112b9565b602082019050919050565b6000610d6d601983610fe7565b9150610d78826112e2565b602082019050919050565b6000610d90601d83610fe7565b9150610d9b8261130b565b602082019050919050565b6000610db3602a83610fe7565b9150610dbe82611334565b604082019050919050565b610dd2816110f1565b82525050565b6000610de48284610c15565b915081905092915050565b6000602082019050610e046000830184610bf7565b92915050565b6000604082019050610e1f6000830185610bf7565b610e2c6020830184610dc9565b9392505050565b6000602082019050610e486000830184610c06565b92915050565b6000602082019050610e636000830184610c46565b92915050565b60006020820190508181036000830152610e838184610c55565b905092915050565b60006020820190508181036000830152610ea481610c8e565b9050919050565b60006020820190508181036000830152610ec481610cb1565b9050919050565b60006020820190508181036000830152610ee481610cd4565b9050919050565b60006020820190508181036000830152610f0481610cf7565b9050919050565b60006020820190508181036000830152610f2481610d1a565b9050919050565b60006020820190508181036000830152610f4481610d3d565b9050919050565b60006020820190508181036000830152610f6481610d60565b9050919050565b60006020820190508181036000830152610f8481610d83565b9050919050565b60006020820190508181036000830152610fa481610da6565b9050919050565b6000602082019050610fc06000830184610dc9565b92915050565b600081519050919050565b600081519050919050565b600081905092915050565b600082825260208201905092915050565b6000611003826110f1565b915061100e836110f1565b9250827fffffffffffffffffffffffffffffffffffffffffffffffffffffffffffffffff0382111561104357611042611152565b5b828201905092915050565b6000611059826110f1565b9150611064836110f1565b92508261107457611073611181565b5b828204905092915050565b600061108a826110f1565b9150611095836110f1565b9250828210156110a8576110a7611152565b5b828203905092915050565b60006110be826110d1565b9050919050565b60008115159050919050565b600073ffffffffffffffffffffffffffffffffffffffff82169050919050565b6000819050919050565b60006111068261110d565b9050919050565b6000611118826110d1565b9050919050565b60005b8381101561113d578082015181840152602081019050611122565b8381111561114c576000848401525b50505050565b7f4e487b7100000000000000000000000000000000000000000000000000000000600052601160045260246000fd5b7f4e487b7100000000000000000000000000000000000000000000000000000000600052601260045260246000fd5b600080fd5b6000601f19601f8301169050919050565b7f457363726f773a20746f206561726c7900000000000000000000000000000000600082015250565b7f457363726f773a20616c7265647920656e746572656400000000000000000000600082015250565b7f457363726f773a206f6e6c792061646d696e0000000000000000000000000000600082015250565b7f457363726f773a20616c6c20706172747320776572652074616b656e00000000600082015250565b7f416464726573733a20696e73756666696369656e742062616c616e636520666f60008201527f722063616c6c0000000000000000000000000000000000000000000000000000602082015250565b7f457363726f773a206f6e6c7920726563697069656e7400000000000000000000600082015250565b7f457363726f773a206973206e6f74206f70656e65642079657400000000000000600082015250565b7f416464726573733a2063616c6c20746f206e6f6e2d636f6e7472616374000000600082015250565b7f5361666545524332303a204552433230206f7065726174696f6e20646964206e60008201527f6f74207375636365656400000000000000000000000000000000000000000000602082015250565b61138c816110b3565b811461139757600080fd5b50565b6113a3816110c5565b81146113ae57600080fd5b50565b6113ba816110f1565b81146113c557600080fd5b5056fea2646970667358221220cc2300daac3ff1f9824a2026b22c1bded82571d658e5c2f5837c10a4422649e064736f6c63430008060033",
  "immutableReferences": {
    "1644": [
      {
        "length": 32,
        "start": 667
      },
      {
        "length": 32,
        "start": 866
      },
      {
        "length": 32,
        "start": 1834
      }
    ],
    "1648": [
      {
        "length": 32,
        "start": 1160
      }
    ],
    "1650": [
      {
        "length": 32,
        "start": 830
      },
      {
        "length": 32,
        "start": 1475
      },
      {
        "length": 32,
        "start": 2060
      }
    ],
    "1652": [
      {
        "length": 32,
        "start": 1196
      },
      {
        "length": 32,
        "start": 2027
      }
    ]
  },
  "source": "// SPDX-License-Identifier: MIT\r\n\r\npragma solidity >=0.8.6 <0.9.0;\r\n\r\n// should be able to withdraw amount of tokens once per month\r\nimport \"./library/SafeERC20.sol\";\r\n\r\ncontract PeriodicEscrow {\r\n    using SafeERC20 for IERC20;\r\n\r\n    address public immutable recipient;\r\n    uint256 public immutable INIT_DATE = block.timestamp;\r\n    uint256 public immutable OPEN_DATE;\r\n    uint256 public immutable TIME_PERIOD;\r\n\r\n    uint256 public amount;\r\n    uint256 public partAmount;\r\n    uint256 public parts = 0;\r\n    uint256 public partsAreTaken = 0;\r\n    uint256 public totalWithdrawn = 0;\r\n\r\n    address public admin;\r\n\r\n    IERC20 public token;\r\n    bool isEntered = false;\r\n\r\n    constructor(\r\n        address _recepient,\r\n        uint256 _openAfter,\r\n        uint256 _periodSize\r\n    ) {\r\n        admin = msg.sender;\r\n        recipient = _recepient;\r\n        TIME_PERIOD = _periodSize;\r\n        OPEN_DATE = block.timestamp + _openAfter;\r\n    }\r\n\r\n    modifier whenOpened() {\r\n        require(block.timestamp >= OPEN_DATE, \"Escrow: is not opened yet\");\r\n        _;\r\n    }\r\n\r\n    modifier onlyAdmin() {\r\n        require(msg.sender == admin, \"Escrow: only admin\");\r\n        _;\r\n    }\r\n\r\n    modifier onlyRecipient() {\r\n        require(msg.sender == recipient, \"Escrow: only recipient\");\r\n        _;\r\n    }\r\n\r\n    modifier notTaken() {\r\n        require(partsAreTaken < parts, \"Escrow: all parts were taken\");\r\n        _;\r\n    }\r\n\r\n    modifier whenNotLocked() {\r\n        require(!isEntered, \"Escrow: alredy entered\");\r\n        isEntered = true;\r\n        _;\r\n        isEntered = false;\r\n    }\r\n\r\n    // sets target token ...\r\n    function setToken(\r\n        address _token,\r\n        uint256 _amount,\r\n        uint256 _parts\r\n    ) public onlyAdmin {\r\n        token = IERC20(_token);\r\n        amount = _amount;\r\n        parts = _parts;\r\n        partAmount = _amount / _parts;\r\n    }\r\n\r\n    // deliver ...\r\n    function deliver() public onlyAdmin returns (bool) {\r\n        // transfer tokens to recepient if allowed ...\r\n        _transfer();\r\n        return true;\r\n    }\r\n\r\n    // recepient can withdraw tokens by himself ...\r\n    function withdraw() public onlyRecipient returns (bool) {\r\n        _transfer();\r\n        return true;\r\n    }\r\n\r\n    function _periodsPast() private view returns (uint256) {\r\n        return (block.timestamp - OPEN_DATE) / TIME_PERIOD;\r\n    }\r\n\r\n    // _transfer transfers allowed amount of tokens to recipient ...\r\n    // parts taken must be less then total parts\r\n    // and periods must be greater then  partsAreTaken ...\r\n    function _transfer() private whenOpened whenNotLocked notTaken {\r\n        uint256 periods = _periodsPast();\r\n        require(periods > partsAreTaken, \"Escrow: to early\");\r\n        token.safeTransfer(recipient, partAmount);\r\n        totalWithdrawn += partAmount;\r\n        partsAreTaken += 1;\r\n    }\r\n}\r\n",
  "sourcePath": "C:/Users/skyne/Dev/work/crypto/hungrypanda/contracts/PeriodicEscrow.sol",
  "compiler": {
    "name": "solc",
    "version": "0.8.6+commit.11564f7e.Emscripten.clang"
  },
  "schemaVersion": "3.4.1",
  "updatedAt": "2021-07-10T08:32:25.678Z",
  "devdoc": {
    "kind": "dev",
    "methods": {},
    "version": 1
  },
  "userdoc": {
    "kind": "user",
    "methods": {},
    "version": 1
  }
}